:100000000C9461080C9499080C9499080C9444334E
:100010000C9499080C9499080C9499080C949908DC
:100020000C9499080C9499080C94BE170C94C61E55
:100030000C947B280C9499080C9499080C949908BA
:100040000C9499080C9499080C9499080C949908AC
:100050000C9499080C9497180C9499080C9499088E
:100060000C9499080C9499080C9499080C9499088C
:100070000C9499080C9499080C9499080C9499087C
:100080000C9499080C9499080C9499080C9499086C
:100090000C9499080C9499080C9499080C9499085C
:1000A0000C9499080C9499080C949908050109027C
:1000B000A10185020901A1000509190129081500FE
:1000C0002501950875018102050109300931158165
:1000D000257F95027508810609381581257F9501D0
:1000E00075088106050C0A38021581257F95017572
:1000F000088106C0C00660FF0961A1010962150000
:1001000026FF009520750881020963150026FF006F
:10011000952075089102C005010906A1010507197E
:10012000E029E71500250195087501810295017503
:100130000881010507190029FF150026FF00950613
:1001400075088100050819012905950575019102B9
:10015000950175039101C0000000808080000000BF
:10016000000000000000000000000000000000008F
:10017000000000000000007CC711F80E0300000022
:100180000000000000000000C0601C060890101075
:1001900008841E30C00000E0371C00030202010387
:1001A00002060C08080C040701000000000100080A
:1001B00000C120100805021F1030E080838E88984F
:1001C00090B0D03020202027283820C38488B0C0A9
:1001D0008FF10000000000F88C04FC00000000001B
:1001E000000000000000000000000000000000000F
:1001F00000000000000000001FF0033EC0808040AF
:10020000C080800000000000C0601C060890101034
:1002100008841E30C0000000F80D070000C08000F8
:10022000000001030A0C040701000000000100089F
:1002300000C12010080502000F38E0808080819FF7
:1002400090B0D03020202027283820C38488B0C028
:100250008FF100000000000000000000000000001E
:1002600000000000000080701820404040201078FE
:10027000C0000000000000000000000000000000BE
:10028000000000809CE7010000000600200006003E
:1002900040A31408000000000000F00CE21209095D
:1002A00013FE0F0100002020C0000000000000002D
:1002B000F01E0100000000000000070C3923664416
:1002C000484F702020604040474C7820604E48786E
:1002D000677C00000000000000000000000000003B
:1002E000000000000000807018204040402010787E
:1002F000C0000000000000000000C0602020C0001E
:10030000000000809CE701000000060020000600BD
:1003100040A3140800000000001FE100FE030100DC
:1003200000F80F0100002020C000000000000000C5
:10033000F01E0100000000000000070C3923664495
:10034000484F702020604040474C7820604E4878ED
:10035000677C00000000000000000000000000803A
:1003600080808080000000000000C06080000000ED
:100370008040E00000000000C0380C0203010101D1
:100380000000080931E1010161C201000011118181
:10039000001011038C5020000718102040C0983026
:1003A00020202040406724BCB0A0B0501008181096
:1003B0001010161D000000000000000000000101E8
:1003C0000101010101010101000000000000000025
:1003D000000000000000000000000000000000809D
:1003E00080808080000000000000C060800000006D
:1003F0008040E00000000000C0380C020301010151
:100400000000080931E1010161C201000011118100
:10041000001011038C502000071830206080183025
:1004200040C040C08087845C7020101010081810F5
:100430001010161D00000000000000000000010662
:100440003840433C000000000000000000000000B5
:10045000000000000000000000008080800000001C
:10046000000000000000000000000000000000008C
:10047000000000000000007CC711F80E030000001F
:100480000000000000000000C0601C060890101072
:1004900008841E30C00000E0371C00030202010384
:1004A00002060C08080C0407010000000001000807
:1004B00000C120100805021F1030E080838E88984C
:1004C00090B0D03020202027283820C38488B0C0A6
:1004D0008FF10000000000F88C04FC000000000018
:1004E000000000000000000000000000000000000C
:1004F00000000000000000001FF0033EC0808040AC
:10050000C080800000000000C0601C060890101031
:1005100008841E30C0000000F80D070000C08000F5
:10052000000001030A0C040701000000000100089C
:1005300000C12010080502000F38E0808080819FF4
:1005400090B0D03020202027283820C38488B0C025
:100550008FF1000000000000C02010D0300000002B
:10056000000000008080403C14040890180408B08B
:1005700040800000000000000304081011F9010190
:10058000010101010000000000000080C848282A85
:10059000100F000000000000000000000000010239
:1005A0000C102028370202040810262B32040506FE
:1005B000000000000000000000000000000000003B
:1005C000000000000000000000000000000000002B
:1005D0000000000000000000E01010F0000000002B
:1005E00000000000808040402C140408901804088B
:1005F000B0408000000000000304081011F9010160
:1006000001010101000000000000000080C0482836
:100610002A100F204A09100000000000000001020B
:100620000C102028370202040810262B320405067D
:1006300000000000000000000000000000000000BA
:1006400000000000000000000000000000000000AA
:10065000000000000000000000000000000000009A
:10066000000000000000000000000000000000008A
:1006700000000000000000000000007E0F00D4FF1A
:10068000FFFFC70000007800000000000000002A03
:100690002B28000000000000000000000000000007
:1006A000000029000000002C1E34202122243426C2
:1006B00027252E362D3738271E1F202122232425BB
:1006C000263333362E37381F0405060708090A0B70
:1006D0000C0D0E0F101112131415161718191A1BE2
:1006E0001C1D2F3130232D350405060708090A0B80
:1006F0000C0D0E0F101112131415161718191A1BC2
:100700001C1D2F3130354C00DA0281FFD9F1DB207E
:10071000A4A62EAF00A0C000A1C800AED580A81F1F
:10072000D300408D14200080818283848586878851
:10073000898A8B8C8D8E8F9091929394A0A1A2A385
:10074000A4A5A6A7A8A9AAABACADAEAFB0B1B2B3F1
:10075000B4C0C1C2C3C4C5C6C7C8C9CACBCCCDCE3C
:10076000CFD0D1D2D3D40000010101010101010198
:100770000102020202020202020203030303030354
:100780000303040404040404040505050505060622
:1007900006060607070707070808080809090909E0
:1007A0000A0A0A0B0B0B0C0C0C0D0D0D0E0E0E0F86
:1007B0000F0F101011111112121313141415151616
:1007C000161717181819191A1A1B1B1C1D1D1E1E87
:1007D0001F202021222223242425262627282929D8
:1007E0002A2B2C2D2D2E2F30313232333435363703
:1007F00038393A3B3C3D3E3F404142434445464701
:1008000048494A4C4D4E4F50515354555658595AD9
:100810005B5D5E5F616264656668696B6C6D6F707D
:1008200072737577787A7B7D7E8082838587888AEC
:100830008C8E8F91939596989A9C9EA0A2A3A5A723
:10084000A9ABADAFB1B3B5B7BABCBEC0C2C4C6C91F
:10085000CBCDCFD1D4D6D8DBDDDFE2E4E7E9EBEED8
:10086000F0F3F5F8FAFDFF00AF00AE29001E001FFF
:1008700000200021002200230000002B0014001A99
:10088000000800150017001C000000E0000400161E
:1008900000070009000A0000000000E1001D001B25
:1008A0000006001900050000000000E0002152E2EF
:1008B00000E30022522C00000000002A002E002D30
:1008C0000027002600250024000000310030002F02
:1008D00000130012000C0018001C00280034003324
:1008E000000F000E000D000B000000350052003814
:1008F00000370036001000110005004F0051005075
:10090000002352E7004C002800000001003A003BA1
:10091000003C003D003E003F0000000100010001DE
:1009200000010001000100010000000100010001C0
:1009300000010001000100000000000100010001B1
:1009400000010001000100000000000100010001A1
:10095000000100010001000000000001004500440A
:10096000004300420041004000000001000100017E
:10097000000100010001000100010001000100016F
:100980000001000100010001000000010001000160
:10099000000100010001000100010001000100014F
:1009A0000001000100010001000000010001000140
:1009B0000001000100010001000000010001000130
:1009C0000001000100010001000000010001000120
:1009D0000001000100010000000000010001000111
:1009E0000001000100010000000000010001000101
:1009F00000010001000100000000000100010001F1
:100A000000010001000100010000000100010001DF
:100A10000001000100010001000100DA00D300D94B
:100A20000001000100010001000000D200CD00D152
:100A30000001000100010001000100D000CE00CF44
:100A4000000100010001000100000001000100019F
:100A5000000100010001000100000001000100018F
:100A6000000100010001000100000001000100017F
:100A70000001000100010000000000010001000170
:100A80000001000100010000000000010001000160
:100A900000010001000100000000002078010001B9
:100AA000000100010001000100000001000100013F
:100AB000000100010001000100010001000100012E
:100AC00000010001000100010000002578277826C0
:100AD000780100010001000100010023782878243A
:100AE000780100010001000100000009025B000321
:100AF0000100A0FA0904000001030101000921110D
:100B000001000122400007058103080001090401DA
:100B10000002030000000921110100012222000748
:100B200005820320000107050303200001090402D8
:100B30000001030000000921110100012249000702
:100B40000584032000011201000200000008544B3C
:100B500001000100010200010C036D00610038007A
:100B600069006300000016036B0061007A006D00ED
:100B70006500650067006100770061000000040304
:100B800009040000000000003E5B4F5B3E003E6B2E
:100B90004F6B3E001C3E7C3E1C00183C7E3C180007
:100BA0001C577D571C001C5E7F5E1C0000183C1803
:100BB0000000FFE7C3E7FF00001824180000FFE76C
:100BC000DBE7FF0030483A060E0026297929260087
:100BD000407F05050700407F05253F005A3CE73C64
:100BE0005A007F3E1C1C0800081C1C3E7F0014227B
:100BF0007F2214005F5F005F5F0006097F017F00B6
:100C0000006689956A0060606060600094A2FFA23F
:100C1000940008047E04080010207E2010000808BC
:100C20002A1C0800081C2A0808001E1010101000BA
:100C30000C1E0C1E0C0030383E383000060E3E0EE6
:100C4000060000000000000000005F000000000738
:100C500000070000147F147F1400242A7F2A12004A
:100C60002313086462003649562050000008070329
:100C70000000001C224100000041221C00002A1C30
:100C80007F1C2A0008083E08080000807030000021
:100C90000808080808000000606000002010080430
:100CA00002003E5149453E0000427F40000072492B
:100CB000494946002141494D33001814127F100064
:100CC0002745454539003C4A494931004121110930
:100CD0000700364949493600464949291E000000A7
:100CE00014000000004034000000000814224100FD
:100CF00014141414140000412214080002015909AC
:100D000006003E415D594E007C1211127C007F4965
:100D1000494936003E41414122007F4141413E0068
:100D20007F49494941007F09090901003E4141517C
:100D300073007F0808087F0000417F4100002040C9
:100D4000413F01007F08142241007F4040404000A5
:100D50007F021C027F007F0408107F003E4141415A
:100D60003E007F09090906003E4151215E007F09CE
:100D70001929460026494949320003017F01030031
:100D80003F4040403F001F2040201F003F40384070
:100D90003F006314081463000304780403006159DE
:100DA000494D4300007F41414100020408102000EA
:100DB000004141417F0004020102040040404040E4
:100DC00040000003070800002054547840007F28AA
:100DD00044443800384444442800384444287F00C0
:100DE00038545454180000087E0902001824241CAA
:100DF00078007F080404780000447D400000204013
:100E0000403D00007F102844000000417F4000006A
:100E10007C04780478007C08040478003844444456
:100E200038007C1824241800182424187C007C081E
:100E30000404080048545454240004043F4424008B
:100E40003C4040207C001C2040201C003C403040A6
:100E50003C004428102844004C9090907C0044644E
:100E6000544C4400000836410000000077000000A8
:100E70000041360800000201020402003C2623263D
:100E80003C00000000000000000000000000000026
:100E9000808080C0C0C0C0E0E0E0E0E06070F0F0C2
:100EA000F0F0F0F0F0F0F0F0E0E0E0A0E0E0E0E002
:100EB000F0F0F8F8FCEC7CFEFEFEDECEC6C0C0C052
:100EC000C08080808080808080C0C0E0E0F078209A
:100ED0008080C0C0E0F8800000C0FED8F0C0E0C054
:100EE000FC808000000000E08000000000000000A6
:100EF00000000000000000000000000000000000F2
:100F0000E0F0F0F0E0ECEEF7F37020007C7C7C7E0B
:100F1000007E7E7E7F7F7F000080C0E07E5B4F5B37
:100F2000FEC00000C000DCD7DEDEDED7DC00C00083
:100F300000000000000000000000000000000000B1
:100F400000000000000000000000000000000001A0
:100F500033373C606061E1E1E3E3E7EFEEFEFFFF82
:100F6000FFFFFFFF7FFBFBFFFFFEFEFFEFFFFFDF4B
:100F7000DFD9F9FFFFFFCFCFFFF7F7FFFFF7E6BF9E
:100F8000BFFFFFEFEFFBFBBFBFFFF7FDFDDFDBFFA9
:100F90007F7DDFDEFE7F1F7EFCEFFFFF3DFF8F07C3
:100FA0000F1E073F0EFFF63F0D073E0C0E04081FF5
:100FB00000060038000000000000000000000000F3
:100FC0000F1F3F7F7F7F7F7F3F1E0C001F1F1F3F34
:100FD000003F3F3F7F7F7F00307B7F783020203095
:100FE000787F3B0003000F7F0F0F0F7F0F00030080
:100FF00000000000000000000000000000000000F1
:1010000000000000000000000000000000000000E0
:101010000000000000000000000008181C1E1E0F49
:101020000F0F0707030303030303071F3F3F3E7E22
:101030006F7F7F777527070707060F1F3F3F7F7F6B
:101040007F766243030301010103030306060606DC
:101050000E0C08010300000003073E07000F030009
:10106000000000000000030000000000000000007D
:101070000000000000000000000000000000000070
:101080000000000000000000000000000000000060
:101090000000000000000000000000000000000050
:1010A0000000000000000000000000000000000040
:1010B0000000000000000000000000000000000030
:1010C000000011241FBECFEFDAE0DEBFCDBF04B6B3
:1010D00003FE18C08091EB079091EC07A091ED07FB
:1010E000B091EE078730904BA740B04B59F4109267
:1010F000EB071092EC071092ED071092EE07E0E07C
:10110000F8E3099527E0ACEEB2E001C01D92AB3EDA
:10111000B207E1F712E0A0E0B1E0E0EBFCE602C0CC
:1011200005900D92AC3EB107D9F70E94A2280C940D
:1011300008360C940000CF93DF934091E90750915B
:10114000EA07495E55409A0120583F4F213032400E
:10115000C0F020E032E0241B350B6091E705709170
:10116000E805FC01CA01240F351FC1E0D0E0821759
:10117000930750F07093E8056093E705DF91CF91F6
:10118000089520E830E0E9CF4491DC01A751BA4F3F
:101190005C91451781F04C93AC01A5E056954795BD
:1011A000AA95E1F7DE0102C0AA0FBB1F4A95E2F73C
:1011B000AD016A2B752B01963196D9CFFC01AC019C
:1011C0004B5F5F4F8FEF91E32191822728E030E062
:1011D00087FF09C0880F892721503109C9F7E41713
:1011E000F50791F70895880FF7CFE8EDF0E08081DB
:1011F0008E7F80831092E2001092DA001092E1005C
:10120000A0EEB0E08C9181608C9380818F77808399
:1012100019BCA7EDB0E08C918E7F8C9380818F7E7E
:1012200080831092990508952091E4003091E500A3
:1012300095E6A9012091EC00822F817020FF06C065
:101240008091E80080FF06C080E008952091E800CA
:1012500022FD1AC08091A705882389F0853089F086
:101260008091EB0085FD0FC02091E4003091E500F6
:1012700042175307F9F29150E1F684E0089582E0B5
:10128000089583E0089581E008958091A90587FF7E
:1012900013C08091E80082FF06C08091E8008B7740
:1012A0008093E80004C08091A7058111F2CF0895D2
:1012B0008091A7058823D9F38091E80080FFF8CFBB
:1012C0008091E8008E77ECCF982F9093E900242F3F
:1012D000762F50E0891731F07091EC002091ED00ED
:1012E0005091F00021FD07C09F5F973071F7809308
:1012F000E90081E008953091EB003E7F3093EB00F0
:101300003091ED003D7F3093ED003091EB00316086
:101310003093EB007093EC002093ED005093F000BD
:101320002091EE0027FDE0CF80E00895B0E0A0E03E
:10133000ECE9F9E00C947E34C8EDD0E088818F7E32
:101340008883E7EDF0E080818160808384E082BF64
:1013500081E08093990588818E7F888302EE10E07A
:10136000F80110821092DA0081EEC82ED12CF6011D
:10137000108288818F7788838881806888838881BC
:101380008F7D888319BC1092A7051092A805109232
:10139000A6051092A50590EEE92EF12CF7018081AB
:1013A0008B7F808388818160888342E060E080E079
:1013B0000E946409F60180818E7F8083F80180811C
:1013C00081608083808188608083F70180818E7F47
:1013D0008083888180618883CDB7DEB7E8E00C9494
:1013E0009A34FC018091AF059091B005861797075C
:1013F000A0F06115710529F49091E8009E77909313
:10140000E80090E06115710551F4911108C08091D8
:10141000E80082FF34C080E00895BC01F2CF8091E3
:10142000A7058823C1F18530C1F18091E80083FDD3
:1014300030C08091E80082FDEACF8091E80080FF13
:10144000E1CF8091F3002091F200382F61157105F2
:1014500019F02830310558F091E02830310509F0B5
:1014600090E02091E8002E772093E800CBCF819187
:101470008093F100615071092F5F3F4FE7CF80915A
:10148000A705882341F0853041F08091E80083FF73
:10149000BECF81E0089582E0089583E00895089525
:1014A00080919C050895CF92DF92EF92FF922FB723
:1014B000F894C0909505D0909605E0909705F0902F
:1014C00098052FBFA7019601261B370B480B590B18
:1014D000CA01B901FF90EF90DF90CF9008952FB728
:1014E000F89460919505709196058091970590917B
:1014F00098052FBF08952091E00536E0839FC00135
:101500001124629F800D911D1124811522E0920704
:1015100014F090E080E087519A4F9093EA0780930F
:10152000E9070895FA01811101C0FB0109950895A9
:10153000E1EBF5E0248130E1231B08F420E0248373
:101540008091BC0481608093BC040895E1EBF5E0D8
:10155000248130E1230F08F42FEF24838091BC0411
:1015600081608093BC0408959091B105937059F007
:101570008093B2056093B3054093B4058091BC0499
:10158000822B8093BC040895E1EBF5E0438120E1D8
:10159000421B08F440E0818121E0628190E00E94DA
:1015A000B40A0895E1EBF5E0438120E1420F08F42D
:1015B0004FEF818121E0628190E00E94B40A08959A
:1015C000E1EBF5E0628120E1621B08F460E08181DB
:1015D00021E0438190E00E94B40A0895E1EBF5E038
:1015E000628120E1620F08F46FEF818121E0438185
:1015F00090E00E94B40A0895E1EBF5E0818121E0DA
:10160000438162818850990B0E94B40A0895E1EBEE
:10161000F5E0818190E021E04381628108960E949B
:10162000B40A08959091B105937061F081110BC0D7
:1016300094609093B105109255018091BC04862B63
:101640008093BC040895803110F09C63F2CF880F22
:10165000880F982BEECF8091B105869586958150A5
:1016600009F48FE061E00E94120B08958091B105AA
:10167000869586958F5F803108F081E061E00E9459
:10168000120B0895EF92FF920F939701201B3109DF
:101690002F3F310519F010F02FEF30E02095382F53
:1016A000320F08F43FEF832F0F91FF90EF900895D2
:1016B000EF92FF920F939701201B31092F3F3105C5
:1016C00019F010F02FEF30E0322F3095482F430FF4
:1016D00008F44FEF842F620F0F91FF90EF90089561
:1016E000EF92FF920F93972F093438F4B701601BE4
:1016F00071096F3F710519F010F06FEF70E0485FEE
:101700005F4F4131510540F0A901485F5F4F4131C2
:10171000510510F06FEF70E06095482F460F08F408
:101720004FEF842F37FF02C02D5F3F4F3595279530
:10173000359527956091B205620F792F0F91FF9033
:10174000EF900895EF92FF920F931F930E0D1F2DB0
:10175000111DF90137FF03C0F195E195F10924E06E
:10176000EE0FFF1F2A95E1F7EF3FF10519F014F096
:10177000EFEFF0E09A0157FF03C031952195310951
:1017800094E0220F331F9A95E1F72E173F070CF4D0
:10179000F901E00FF11FEF3FF10519F010F0EFEF45
:1017A000F0E0E095282F3E2F230F08F42FEF822F33
:1017B0001F910F91FF90EF900895EF92FF920F937A
:1017C000970195E0099F200D311D11242F3F310510
:1017D00019F010F02FEF30E02095382F320F08F479
:1017E0003FEF832F0F91FF90EF90089522E8241B85
:1017F00008F420E0620F08954095282F429F412D64
:101800001124842F08950E9453140895FF920F937A
:101810001F93CF93DF93182F062FF42ED0E0C0E054
:101820002F2D402F612FCE010E94030C2196C5342D
:10183000D105B1F7CDB7DEB7E5E00C949D34AC012E
:101840008230910508F408959FEF413E8EE15807DC
:1018500040F49A0195E0369527959A95E1F798E03E
:10186000920F61E0E62FE90FFF27FF1F9F013595DB
:101870002795822F229FF001239FF00DF00D112458
:101880004E175F0738F49FEF920F961758F78FEFB8
:10189000860F08952F3FE9F361E0620FF6CFAF9214
:1018A000BF92CF92DF92FF920F931F93CF93DF935C
:1018B000362F472FE82FF0E0E959F84F71110FC08C
:1018C000E4918E2F2E2F6E2F722FDF91CF911F91CB
:1018D0000F91FF90DF90CF90BF90AF900895C72FEA
:1018E000D0E02491F22E022F10E056E0659FC00157
:1018F0001124EFEFF0E0BF010E946034832F90E0ED
:10190000880F991F35E5369FD001379FB00D112400
:101910008A1B9B0B982F990F980F6F01CC1ADD0A29
:10192000C09ED001C19EB00DD09EB00D11248B2F52
:10193000499FA0011124452F55276F01C41AD50ACC
:10194000C09EA001C19E500DD09E500D11245F017C
:10195000A91AB108AC9E6001AD9ED00CBC9ED00C03
:101960001124CD2CDD24EC19FD09E09FE001E19F5D
:10197000D00DF09FD00D1124ED2F62307105A1F034
:1019800050F46115710509F49ECF6130710581F045
:10199000EB2F852F98CF6430710569F080F06630A9
:1019A000710509F490CFF4CFE22F2B2F8D2F8BCF21
:1019B000E22F252F88CFEB2F822F2D2F84CF2B2F97
:1019C0008F2DE52F80CF80912B0480FD16C081FDE7
:1019D00016C082FD16C080912A048823A1F08832A7
:1019E00080F428E0829FC001112468E270E00E9428
:1019F000B734862F672B39F0089582E0089584E08C
:101A0000089588E0089581E0089580912B0480FD79
:101A100014C081FD14C082FD16C080912904882362
:101A200081F08E3180F420E5829FC00111246EE1A7
:101A300070E00E94B734862F089584E1089588E20B
:101A4000089588E0089580E5089580E00895F89469
:101A5000E82FE295EF70F0E031A1282F2F7081E0A0
:101A600090E001C0880F2A95EAF7982F909593236C
:101A700091A392A1892B82A3789408959091A203B7
:101A800092FF06C0282F28712830F9F4877F8460E0
:101A900093FF06C0282F28712831F1F4877E8461D6
:101AA0002091A30320FF06C0382F38713830D9F4B5
:101AB000877F816021FF06C0282F28712831D1F44B
:101AC000877E816194FD877E0895282F24712430BC
:101AD000F9F68B7F8860DCCF282F2471243101F741
:101AE0008B7E8861DDCF382F3171313019F78E7FD1
:101AF0008860E0CF282F2171213121F78E7E886107
:101B0000E1CF82389105B9F1B0F48133910509F440
:101B10007DC048F48932910509F46DC08A3291057F
:101B200009F47BC008958533910509F45FC08933BA
:101B3000910509F10895833E9105D9F138F4803E6D
:101B4000910529F1823E910579F10895863E91052E
:101B5000D9F1873E910509F43EC0843E910541F5D7
:101B60002091A30321FF24C08091A20384FD19C00A
:101B700087EE90E008952091A203237009F05AC0E7
:101B80002091A30323FF14C089E290E008952091DF
:101B9000A20320FD38C03091A30330FF09C024FF09
:101BA00043C090E080E008952091A20322FDF7CF8A
:101BB00008952091A20322FD3AC03091A30330FD85
:101BC00039C024FFF5CFEDCF2091A20323FFF0CF42
:101BD00024FDE7CFCDCF2091A20323FD2EC030916D
:101BE000A30331FFEECF84EE90E008952091A2038D
:101BF00025FFDECFC9CF2091A20325FD21C0209172
:101C0000A30323FFD5CF89E390E0D2CF2091A20395
:101C100026FFCECF8AE290E008952091A20326FF0E
:101C2000C7CF81E390E0089583EE90E0089582EEBF
:101C300090E0089580EE90E0089586EE90E008959B
:101C400085E390E008951F93CF93DF930E94810D69
:101C5000EC01C11582E5D80708F03FC0C11580E549
:101C6000D80708F0BCC0C83ED105C0F4C03ED105BD
:101C700080F4C53AD10548F4C430D10550F4C130E0
:101C8000D10539F0D0E0C0E004C0CD3CD105D0F39F
:101C9000D065CE01DF91CF911F910895C11580E4E9
:101CA000D80708F06BC0C11580E2D80708F0B1C0B2
:101CB000C11581E0D80730F38D2F0E943E0D182FFB
:101CC000CE0199270E94810DC12FD0E0DC2FCC27B7
:101CD000CC27DF71C82BD92BDCCFC03682E5D807E3
:101CE000F0F4C03482E5D80708F059C0C03282E56C
:101CF000D80708F04DC02C2F2695269580E2289F06
:101D0000900111248C2F8370C1E0D0E002C0CC0F71
:101D1000DD1F8A95E2F7C22BD32BDD68BACFC03C1A
:101D200082E5D807F8F4C03A82E5D80708F04CC03D
:101D3000C03882E5D80708F0A5CF2C2F2695269528
:101D4000277080E2289F900111248C2F8370C1E0BE
:101D5000D0E002C0CC0FDD1F8A95E2F7C22BD32B57
:101D6000DA6897CFC03E82E5D80708F08BCFDC2F2A
:101D7000CC27CC27DF71C06FD06A8BCFCE019927DB
:101D80000E94810DCC27DF70C82BD92BD06A81CF60
:101D9000CF71D0E0DC2FCC27C16FD06A7ACF2C2F47
:101DA00026952695277080E2289F900111248C2F7C
:101DB0008370C1E0D0E002C0CC0FDD1F8A95E2F74E
:101DC000C22BD32BDC6865CF8C2F8F710E943E0D08
:101DD000C82FD0E0DC2FCC27CC27DF715ACF8C2F37
:101DE0008F710E943E0D55E0D695C7955A95E1F743
:101DF000CF70D0E0DC2FCC27282F30E084FF05C047
:101E000044E0220F331F4A95E1F7C22BD32BD06950
:101E100040CF8D2F8F710E943E0D182FCE01992734
:101E20000E94810DC12FD0E0DC2FCC27CC27DF71A1
:101E3000C82BD92BD0622DCF20914E0390911D033A
:101E400056E0291302C080E0089530E0529FF0016F
:101E5000539FF00D1124E25EFC4F7181761306C092
:101E60007081781303C07281741304C02F5F3F4FD9
:101E70002770E7CF81E0089580914E0390911D0374
:101E8000981301C008958F5F8770FACF9A3080F55C
:101E9000883070F548E0949F90011124820F932FB1
:101EA000911D682F677023E0969587952A95E1F735
:101EB000FC01EE0FFF1FE80FF91FE750FD4F50E048
:101EC00040E080E0219130E0062E02C03695279553
:101ED0000A94E2F721703327042E01C0220F0A94DE
:101EE000EAF7822B4F5F5F4F4330510559F7089552
:101EF00080E008959A3098F5883088F548E0949FFE
:101F000090011124820F932F911D282F277041E0FB
:101F100001C0440F2A95EAF723E0969587952A9504
:101F2000E1F7FC01EE0FFF1FE80FF91FE750FD4F2F
:101F300090E080E070E05191DF0111979B01082E45
:101F400002C0369527950A94E2F72170219525273E
:101F5000242325272C9301968330910561F708955A
:101F60008093F50308959091F50321E030E0F901A5
:101F700001C0EE0F8A95EAF7D90102C0AA0FBB1F74
:101F80006A95E2F7EA2B01C0220F4A95EAF7892FFA
:101F90008E23E81305C0292B822F0E94B00F0895CD
:101FA00020952923F9CF21E030E001C0220F8A9546
:101FB000EAF720958091F50382230E94B00F0895DF
:101FC00021E030E001C0220F8A95EAF78091F50305
:101FD000822B0E94B00F08958093F6030895982FE6
:101FE00092959F7011F0892F94E0282F26952695C1
:101FF00011F09E5F822F869509F09F5F892F0895CB
:10200000CF93DF93C091E907D091EA078A30C1F4FA
:102010002091E005CE01895E9540622F70E00E941C
:102020006034281B822F66E00E94AB34C82FC15059
:1020300018F4DF91CF91089580E20E940010F7CF4D
:102040008D30E9F4C95ED5402091E005622F70E043
:10205000CE010E946034281B822F9E01280F311D63
:102060002115324018F080E0D0E0C0E0C80FD11D4B
:10207000C751DA4FD093EA07C093E907DACF96E069
:10208000FE01A1EEB5E001900D929A95E1F7803E38
:1020900008F458C086E0FE0111928A95E9F7C091D4
:1020A000E907D091EA0746E050E0BE0181EE95E0F5
:1020B0000E943D359E01295E3540892B41F1C901C1
:1020C00045E0969587954A95E1F741E050E0BA01E1
:1020D00002C0660F771F8A95E2F7CB016091E70592
:1020E0007091E805862B972BB9016B5F7F4FE5E078
:1020F00076956795EA95E1F702C0440F551F6A95FA
:10210000E2F7842B952B9093E8058093E7052A5FEF
:102110003F4F4091E005642F70E0C9010E94603498
:10212000481B463010F4240F311D211572E037078B
:1021300010F030E020E027513A4F3093EA07209327
:10214000E90777CFF6E08F9FB00111246E57744FE7
:1021500046E050E0CE010E943435A1CF80919A052F
:1021600090915703892B8093EE0248E050E06FE492
:1021700073E08EEE92E00E943D35892BA9F088E055
:10218000EEEEF2E0AFE4B3E001900D928A95E1F754
:10219000E0919205F0919305309731F00280F38140
:1021A000E02D8EEE92E009950895882341F0809508
:1021B00090919A05892380939A050E94AE10089504
:1021C000882339F090919A05982B90939A050E9454
:1021D000AE1008950F931F93CF93DF93EC01FC0192
:1021E00001900020E9F78F0101501109C017D107B4
:1021F00028F0DF91CF911F910F91089589910E944E
:102200000010F4CF2F923F92CF93DF93E1016A81C8
:1022100088819091F702911104C09091040191116D
:102220002EC06E5F0E947B0A8AE691E00E94EA104F
:102230006A81615088810E947B0A81E08093040159
:102240002091F60230E02F5F3F4F2170332720931B
:10225000F60281E090E0821B930B9695982F8827D9
:10226000979587952091F70321FF15C0895A9A4FBA
:102270000E949B08DF91CF913F902F90089561506D
:102280000E947B0A8AE691E00E94EA106A818881B6
:102290000E947B0AD5CF2091F802222319F0895A97
:1022A0009B4FE6CF2091F8033091F9032B30310595
:1022B0001CF4895A9C4FDCCF293231051CF4895A11
:1022C0009D4FD6CF895A9E4FD3CFB0E0A0E0EBE62A
:1022D000F1E10C947E346C017B0164E670E088E7E8
:1022E0000E94BE31EC0197FD12C010E000E0F60143
:1022F000E00FF11F849164E670E00E942A32EC0145
:10230000892B29F40F5F1F4F0E151F0581F70E94BF
:10231000A032CE01CDB7DEB7E8E00C949A348091BC
:10232000900590919105911103C091E0892708953E
:10233000882369F062E070E089E698E00E94651108
:10234000892B19F080919005089510929005809145
:102350009005EBCFCF93C091900580919105882394
:10236000D1F00E946F0A605A75418F4F9F4F609362
:102370008C0570938D0580938E0590938F05C11108
:1023800008C062E070E087E698E00E946511892B42
:1023900029F0C09190058C2FCF91089581E0809312
:1023A0009005F7CF0F931F93CF93DF938B01EA0133
:1023B0009091A705943061F58093E9008FEF90919B
:1023C000E800815095FD06C095ED9A95F1F7000063
:1023D0008111F5CF8091E80085FF1AC00E94140991
:1023E000811111C08091E80085FD06C08091E80050
:1023F0008E778093E800F2CFF80181918F0180936E
:10240000F100219779F78091E8008E778093E800BA
:10241000DF91CF911F910F91089546E050E0BC01EC
:1024200084E00E94D2110895CF93DF93EC0148E03D
:1024300050E0BC0181E00E94D21188E0FE01ADE9CC
:10244000B5E001900D928A95E1F7DF91CF91089563
:1024500081E08093E00080E28093D8001092C90070
:102460008FE19EE40197F1F700C0000087E090EB58
:10247000DC018093EB079093EC07A093ED07B093FA
:10248000EE0788E19CE00FB6F894A8958093600071
:102490000FBE90936000FFCF539A3BB1377F2BB1B3
:1024A00028604FB7F8948DEB94E0FC015191CF0177
:1024B00068E02BB9000000C057FF3BB9550F000082
:1024C00000C000C000C03BB900C06A9591F7F5E0BC
:1024D0008C389F0751F74FBF8FE594E00197F1F7D4
:1024E00000C000000895B0E0A0E0E9E7F2E10C943C
:1024F0007C347C015B016A018091910301E010E072
:102500008A3010F40AE010E0C1E0D0E0B501C70164
:10251000F6010995811104C021960C171D072CF4B2
:10252000CDB7DEB7EAE00C949834CC9F9001CD9FF4
:10253000300D300D112490E080E045E34A95F1F72D
:102540000000019682179307C1F7E0CF80916403E2
:10255000811119C088EC90E02091E30027FD10C0A4
:10256000EFE3FCE93197F1F700C000000197A1F714
:1025700082E0809364030E94F5081092A70503C0CF
:1025800081E08093640381E090916403913011F0C5
:1025900080E0089508950E94A612882359F0E091E2
:1025A0009205F0919305309729F00190F081E02D8C
:1025B0000995089580E008950F931F930E94A61235
:1025C000882329F00E946F0A1F910F9108950E949D
:1025D0006F0A00919203109193032091940330911C
:1025E0009503600F711F821F931FEECFCF93DF9370
:1025F000C6EAD2E060E0CE010E9481352196C11585
:1026000084E0D807B9F7DF91CF9108951F93CF9356
:10261000DF93122F8430E0F46A30D0F44830C0F4F5
:1026200090E1699FE001112450E0440F551FC40F51
:10263000D51F90EA899FC00DD11D1124632FCE01B3
:1026400086960E948135612FCE0187960E94813542
:10265000DF91CF911F910895AF92BF92CF92DF92F9
:10266000EF92FF921F93CF93DF938BE6C82E88E003
:10267000D82ED0E07601C0E014C0F5012591349148
:10268000412F6C2F8D2F0E94061382E0A80EB11CE3
:102690001F5F183091F780E1E80EF11CCF5FCA3060
:1026A00019F0570110E0E9CFDF5F80EAC80ED11CB6
:1026B000D43001F7DF91CF911F91FF90EF90DF9021
:1026C000CF90BF90AF900895CF93C82F6FEF811137
:1026D00063E282E290E00E9481356FEFC11164E015
:1026E00083E290E00E9481356FEFC11161E184E2E5
:1026F00090E00E948135CF91089580E00E9464139C
:1027000060E085E290E00E9481350E942C130E94D7
:10271000F61281E00E94641308950F931F93CF93E4
:10272000DF93843030F56A3020F5483010F520E131
:10273000629F8001112450E0440F551F040F151FA4
:1027400030EA839F000D111D1124C80186960E9456
:102750006335C82FD0E0DC2FCC27C80187960E94B4
:1027600063359E01282BC901DF91CF911F910F91F5
:10277000089590E080E0F8CF462F7A3040F468303A
:1027800030F4843020F4672F0E948D13089590E078
:1027900080E00895CF92DF92FF920F931F93CF9323
:1027A000DF936C010091F5038091F603082BC3E0E1
:1027B000D0E010E0FC2EC8010C2E02C09595879544
:1027C0000A94E2F780FD0CC02197A0F7F12C8F2D21
:1027D000DF91CF911F910F91FF90DF90CF900895DF
:1027E000B6018C2F0E94BC130E94230E019761F347
:1027F000EECFCF93DF93EC010E94CA13BE010E947B
:10280000BC130E94230EDF91CF910895FC018381B8
:102810009481892B29F08081918189238F3F51F404
:1028200080E00895843FE1F717C0883EA8F0813F1B
:10283000B9F712C0808191810E94F91392959F701F
:10284000963099F358F4925F9F70923048F7803F2A
:1028500019F040F7883E20F781E008959A5FF4CFA1
:1028600082E290E00E946335833289F483E290E053
:102870000E946335843059F484E290E00E9463350D
:1028800091E0813109F090E0892F8170089580E016
:10289000FCCF8EE090E00E94633591E0811101C091
:1028A00090E0892F0895FF920F931F93CF93DF93AA
:1028B000EC01F62E042F122F0E94491481110FC033
:1028C000C032D1057CF0A097FE01EE0FFF1FEC0F88
:1028D000FD1FE354FB4FF1820083128303C0C0321B
:1028E000D10594F3CDB7DEB7E5E00C949D34CF93DA
:1028F000C82F0E944914882329F081E0C03228F0B3
:1029000080E003C081E0C534D8F7CF910895A8E0F6
:10291000B0E0EDE8F4E10C947434282E7C836B83F2
:10292000209157018EE0289F802D11248D83825F96
:102930008983863410F035E439830E944914882352
:1029400009F496C08981813210F090E29983E09178
:10295000B705EA833D81232F30E038872F83C901F3
:10296000880F991FFC01E35EFD4F6F01822D90E0FF
:102970009C012F5F3F4F3E832D8389819F81981754
:1029800030F00E9477142896E2E10C949034EF81A5
:10299000F885E955FD4F8081909158018923F9F020
:1029A0003090B2054090B3058D819E8189549A4F35
:1029B0003C01522C10E0FA815F16D8F02091B4054A
:1029C000129F112D1124632D742D812F0E944F0C05
:1029D000462F282F672F8F8198850E94030C2F8107
:1029E00038852F5F3F4F38872F8332E0C30ED11CCD
:1029F000C4CFF30181913F01F601A080A81ABB0862
:102A00008180F3018781881A9908AA9C9001AB9C68
:102A1000300D300D1124889CC001899C900D900DC3
:102A20001124820F931F0E941F0C2091B50531E0E5
:102A3000230F08F42FEFF301EE0FFF1FE75BF540C4
:102A400045895689F12CE12C429FE12C529FE00CE4
:102A5000F11C1124082F9401A501632D742D812FE1
:102A6000EB81FC810995362E472E5394182FA3CF66
:102A7000ED81E03208F06BCFF0E2FD8368CFB0E08B
:102A8000A0E0E5E4F5E10C947C347C01C0915701B1
:102A90008EE0C89FC02D11241EE01C0F163408F0D4
:102AA00015E40E944914882309F463C0113208F028
:102AB00010E22091B50531E0230F08F42FEF30E04C
:102AC00050E040E06FEF7FEF80E090E00E94A5359E
:102AD0006901D0E001E0B12CA12C2C2FC11740F0EE
:102AE000812F0E947714CDB7DEB7EAE00C949834BA
:102AF000FE01E955FD4F808190915801892329F10C
:102B00008091B7058150082E000C990B87FF1FC0DC
:102B1000B6013091B505300F08F43FEFA501639F72
:102B2000412D739F400D511D11246091B20570918C
:102B3000B3058091B405F70109950E944F0C462F0B
:102B4000282F672FCE010E94030C2196C6CFFC01CF
:102B5000E954FA4F318932130AC0FC01EE0FFF1F0E
:102B6000E954FA4F618D728D6C157D0590F20197D5
:102B7000CDCFC03208F09DCFC0E29BCF46E050E001
:102B80006CE170E081EB95E00E9471351092BC041D
:102B90000895E1EBF5E085E0808380915A01909102
:102BA0005B01A0915C0181839283A3838FE784837F
:102BB0008FEF85830E94BE15089590E080E00E940B
:102BC0006B35873E9E4F19F40E943014089580E0C3
:102BD0000895B0E0A0E0EFEEF5E10C947E34C82F4C
:102BE0007B01D42F6901FB01608171818281938116
:102BF0000E94530A643671058105910510F4DD23A6
:102C000059F10C2E000CDD0BFE0183E0EE0FFF1FCF
:102C10008A95E1F7EB5FFE4F8181928182599C4F4B
:102C2000408150E00417150708F4A801B6010E947E
:102C30004A35CE010E94EA33C82F882339F00E941A
:102C40006F0AF70160837183828393838C2FCDB7E2
:102C5000DEB7E8E00C949A34C1E0F8CFA7E0B0E02A
:102C6000E4E3F6E10C94823486E0E1EBF5E0DE018A
:102C7000119601900D928A95E1F71F8247E050E08E
:102C80006AE773E0CE0101960E943D3541E0892B51
:102C900009F440E007E010E09E012F5F3F4F6DE830
:102CA00073E085E00E94E9152796E4E00C949E34D9
:102CB0000F931F9341E0909178038091F50398134F
:102CC00001C040E001E010E025EF33E069E873E087
:102CD00083E00E94E915882389F041E0909179030F
:102CE0008091F603981301C040E001E010E026EF68
:102CF00033E065E873E084E00E94E9151F910F91CD
:102D00000895A4E0B0E0E7E8F6E10C948334609124
:102D100081037091820380918303909184030E94C8
:102D2000530A11E0643671058105910570F10E9426
:102D3000DC126E5F7F4F8F4F9F4F69837A838B8347
:102D40009C83809116019091170182599C4F40916C
:102D5000150150E04530510510F044E050E0BE014F
:102D60006F5F7F4F0E944A3582E090E00E94EA3315
:102D7000182F882351F00E946F0A6093810370938B
:102D800082038093830390938403812F2496E3E04E
:102D90000C949F34EF92FF921F93CF93DF9300D058
:102DA00000D000D0CDB7DEB77B0190E080E00E947C
:102DB000EA33182F882309F473C04091080150E0CA
:102DC0004115510511F041E050E060910901709109
:102DD0000A0162597C4FCE0106960E944A356091E5
:102DE0006A0370916B0380916C0390916D030E9454
:102DF000530A643671058105910540F48FE693E02E
:102E00000E94DE089E81891709F44AC081E090E0A3
:102E10000E94EA33811116C010E085E0E5E6F3E098
:102E2000D70101900D928A95E1F7812F26960FB672
:102E3000F894DEBF0FBECDBFDF91CF911F91FF9001
:102E4000EF9008954091100150E04630510510F088
:102E500045E050E0609111017091120162597C4F80
:102E6000CE0101960E944A358FE693E00E94DE086B
:102E70009E818913D1CF0E946F0A60936A03709379
:102E80006B0380936C0390936D0385E0FE01319694
:102E9000A5E6B3E001900D928A95E1F711E0BDCF70
:102EA00085E0EFE6F3E0DE01119601900D928A9540
:102EB000E1F71111EACFB1CF67EE7EEF90E080E04D
:102EC0000E949F3560E082E090E00E94813560E0E2
:102ED00083E090E00E9481351092F60360E074E197
:102EE00084E090E00E949F3560E086E090E00E94E0
:102EF00081356FEF87E090E00E94813540E050E03F
:102F0000BA0188E090E00E94933560E08DE090E0A7
:102F10000E94813540E050E0BA0188E190E00E94D3
:102F2000933560E087E190E00E94813540E050E019
:102F3000BA018CE190E00E94933570E060E080E29D
:102F400090E00E949F3540E050E0BA0188E190E0B7
:102F50000E94933580E00E9464130E947D1340E03C
:102F600050E0BA018FE090E00E94933540E050E0DD
:102F7000BA0183E190E00E94933508951F920F9269
:102F80000FB60F9211242F933F934F935F936F933C
:102F90007F938F939F93AF93BF93EF93FF93809112
:102FA000E10082FF09C08091E20082FF05C08091AC
:102FB000E1008B7F8093E1008091DA0080FF24C0E4
:102FC0008091D80080FF20C08091DA008E7F8093AE
:102FD000DA008091D90080FF9DC080E189BD82E147
:102FE00089BD09B400FEFDCF81E08093A7058091E3
:102FF0009905811109C00E94F5080E9496098091E7
:10300000E20084608093E2008091E10080FF17C0BD
:103010008091E20080FF13C08091E2008E7F809358
:10302000E2008091E20080618093E2008091D8000C
:1030300080628093D80019BC85E08093A7058091B9
:10304000E10084FF2BC08091E20084FF27C080E173
:1030500089BD82E189BD89B5982F917080FFFBCF32
:103060008091D8008F7D8093D8008091E1008F7E81
:103070008093E1008091E2008F7E8093E200809156
:10308000E20081608093E2008091A805882309F422
:1030900047C084E08093A7058091A7058091E10057
:1030A00083FF27C08091E20083FF23C08091E1006D
:1030B000877F8093E10082E08093A7051092A805A6
:1030C0008091E1008E7F8093E1008091E2008E7F0D
:1030D0008093E2008091E20080618093E20042E010
:1030E00060E080E00E9464098091F0008860809335
:1030F000F000FF91EF91BF91AF919F918F917F91E0
:103100006F915F914F913F912F910F900FBE0F9054
:103110001F90189519BC1092A7051092990574CFAD
:103120008091E30087FD93E09093A705B5CF789455
:103130001F921FB61F9211248F939F93AF93BF933B
:103140008091950590919605A0919705B09198056D
:103150000196A11DB11D8093950590939605A093AE
:103160009705B0939805BF91AF919F918F911F9054
:103170001FBE1F9018959C014FB7F894809195053C
:1031800090919605A0919705B09198054FBF821B2D
:10319000930B08952FB7F89480919505909196051B
:1031A000A0919705B09198052FBF0895B0E0A0E0D9
:1031B000ECEDF8E10C94763480905F04909060041C
:1031C000A0906104B09062040E94A612882309F4C2
:1031D0003EC0C501B4010E94530A6B017C010E94EC
:1031E000DC124B015C0180925F0490926004A0921B
:1031F0006104B0926204A0913604E6E3F4E08A2F01
:1032000090E04FEF5FEF60E070E04C195D096E09F0
:103210007F09A91325C0809336048091B105D82F6A
:10322000D37019F0D82FD695D6959091550191303D
:1032300009F440C0992339F1923009F46AC29330FD
:1032400009F46FC2CDB7DEB7E0E10C9492340E946E
:10325000DC126B017C01C818D908EA08FB08BFCF53
:10326000218D328D2901712C612C4415550566057F
:10327000770520F481509F5F3296CBCF2C0D3D1DFA
:10328000328F218FF8CF109257018092B80490921C
:10329000B904A092BA04B092BB0489E2E6E3F4E078
:1032A000A7EBB5E001900D928A95E1F781E080935C
:1032B0005501C8CF90915401D91322C08370209139
:1032C000530130E091E08217130609F490E0892F52
:1032D0008170809359018091B6059091580198179B
:1032E00039F08093580140E060E080E00E94060CD5
:1032F000D03160F4ED2FF0E0E65FF94C0C94CB3464
:1033000081E0E6CF80915901811102C080E02AC09E
:1033100040E060E080E00E94060CF8CF0091570189
:103320008EE0089F002D1124CEE0C00FC63408F0B7
:10333000C5E40E944914882309F418C2C13208F078
:10334000C0E26091B2057091B3058091B4050E940E
:103350004F0CF62EE72ED82E10E00C17A8F08C2F6D
:103360000E947714909157019F5F909357018111AC
:1033700069CF82E08093550180915901811162CF1C
:10338000D11160CF83E093CFF801E955FD4F8081E3
:1033900090915801892331F02D2D4F2D6E2DC801AC
:1033A0000E94030C0F5F1F4FD8CFD09057018EE0C3
:1033B000D89ED02C1124CEE0CD0DC63408F0C5E443
:1033C0000E944914882309F4D6C1C13208F0C0E232
:1033D00080915901882361F040E060E080E00E9424
:1033E000060CE8E6F4E080E5DF011D928A95E9F736
:1033F00080915701811115C08091640490916504FA
:103400000E94BB1821E08931910508F420E0209347
:103410006304499730F00E94CA1890936504809322
:103420006404A12C912CB12C25E5722E3AEA832E4E
:103430006624639401C0B12C8B2D90E0B8E0AB9E64
:1034400080011124F801E353FE4FE80FF91FE080DB
:10345000ED1408F440C0EC1608F03DC09394F12C34
:10346000F701E955FD4F208130915801232309F4DC
:1034700032C008591B4F080F191FF801C0803C2D9E
:10348000272D321B08F430E07091B305282D4C2D08
:10349000240F08F42FEF4091B405822F880F820F7C
:1034A0008E5F282F249F212D1124822F682D631BCE
:1034B0000E944F0C462F282F672FC7010E94030C34
:1034C00080916304882339F02C2D362D231B08F4BA
:1034D00020E0D8012C93B394B8E0BB12ADCFA394F5
:1034E000EAE0AE1609F43BCFFDE0F91508F0A3CFF2
:1034F00036CFC091B40523E0C29F800111241695F8
:10350000079516950795502EAC2EB12C8FEF90E0B5
:10351000B5010E94B734662E80915901882371F05D
:1035200040E060E080E00E94060CE8E6F4E080E520
:10353000DF011D928A95E9F7109267048091660475
:103540008F5F80936604F12CE12CA01AB10A670109
:10355000712CC70188599B4F4C01809167048729C2
:1035600009F045C00E942435853595400CF03FC0D8
:10357000F401C083F601E353FE4FE081EF3FD1F049
:10358000D601A859BB4F2C91F0E0521608F040C06C
:1035900030E0201B310B209FC001219F900D309FF8
:1035A000900D1124B5010E946034262F4C2FCF01BD
:1035B0000E94030C7394F8E0CF0ED11C2AE0721223
:1035C000CCCF3FEFE31AF30A48E0E416F10409F028
:1035D000BECF80916604681202C01092660480918A
:1035E00067048F5F8D31F0F4809367048FCEF6010E
:1035F000E859FB4F8081882309F4BCCF8C1708F071
:10360000B9CF909166046912B5CF81508083B2CF53
:10361000C29FC0011124B8010E946034462F20E0EF
:1036200060E0C5CF1092670448EA54E029E060E703
:1036300074E03FEF3C0F88E694E0FA01293039F45A
:10364000DC01A85BBF4F1C91C11301C03C93A19149
:10365000AC1720F0DF0111973C93C78301966817E0
:10366000790761F72150485051092111E4CF4ECE1E
:103670008CEF9BE00E943F1575CE86EF9BE0FACF62
:103680008091B70521E0382F321B08F430E0832FFA
:103690006DED7BE00E94871465CE6DED7BE080E0F0
:1036A000F9CF8091B70521E0482F421B08F440E094
:1036B000842F62EA7BE0EECF62EA7BE0F0CF80917C
:1036C000B70521E0382F321B08F430E0832F60E784
:1036D0007BE0E0CF60E77BE0E2CF8091B70521E0BF
:1036E000482F421B08F440E0842F68E57BE0D2CFEE
:1036F00068E57BE0D4CF8091B70521E0382F321BFD
:1037000008F430E0832F62E47BE0C4CF62E47BE026
:10371000C6CFD09354018370809353010E944C1202
:1037200031CE8091BC0481110E94BE15C090B804B6
:10373000D090B904E090BA04F090BB040E94A612A5
:10374000882369F0C701B6010E94530A60317105F0
:103750008105910508F476CD1092550173CD0E9434
:10376000DC126C197D098E099F09F0CF003208F038
:10377000E8CD00E2E6CD40E2D41608F029CE80E2A2
:10378000D82E26CE0E94CA189C01909132048091B6
:103790003304982B21F030932F0420932E04909122
:1037A000340480913504982B21F030932D0420931C
:1037B0002C04E0919205F0919305309749F082E056
:1037C000809330040480F581E02D80E394E0099536
:1037D0000895CF93C6E0E0EFF2E0DF018C2F1D9259
:1037E0008A95E9F7109257030E94AE10E0E3F4E0E7
:1037F000DF011D92CA95E9F71092290410922A045C
:1038000010922B040E94C21BCF910895AAE2B0E04F
:10381000ECE0FCE10C94833489EA95E02091F1001E
:10382000DC012D93CD01B5E0813B9B07B9F7809179
:10383000AA05833009F472C0B8F4813009F449C094
:10384000823009F4B5C08091E80083FF8DC2809179
:10385000A9059091AA059A3008F086C2E92FF0E0F8
:10386000E65EF94C0C94CB348A3009F490C08B306E
:1038700009F471C0893039F78091A905813219F7AF
:103880008091AD059091AE05009711F00297D9F6A1
:103890008091E800877F8093E8008091E80082FFB4
:1038A00038C09091F3008091F200029731F480913A
:1038B000F100813011F0863021F48091F100809385
:1038C0009C058091E8008B778093E8000E94450971
:1038D000BACF8091A905813A09F0B5CF8091E8006F
:1038E000877F8093E8008091AD059091AE05892B8C
:1038F00061F468E08DE995E070E00E94F109809143
:10390000E8008B778093E8009ECF60E090E080E055
:10391000F3CF8091A7058111C0CF95CF8091A905E4
:10392000813A09F090CF8091AD059091AE05892B39
:1039300009F089CF8091E800877F8093E80080912B
:10394000E80080FFFCCF809156018093F1008091C8
:10395000E8008E77B9CF8091A905813209F073CF45
:103960008091AD059091AE05892B09F06CCF8091C7
:10397000E800877F8093E8000E9445098091AB05AD
:103980008093560110929A050E94E91B5CCF8091AA
:10399000A905813209F057CF8091E800877F809395
:1039A000E8000E9445098091AC0580939B054BCFB0
:1039B0008091A905813A09F046CF8091E800877F80
:1039C0008093E8008091E80080FFFCCF80919B0508
:1039D000BCCF803899F0823809F0C6C18091AD051E
:1039E0008F70873008F0C0C18093E9008091EB00B0
:1039F00085FB882780F91092E90006C08091A50513
:103A00009091A605911182609091E800977F909324
:103A1000E8008093F1001092F1008091E8008E7729
:103A20009FC1882309F48DC1823009F09DC1809126
:103A3000AB05811190C18091AD058F702FEF280FDC
:103A4000263008F091C18093E9002091EB0020FF1F
:103A500082C1933031F48091EB0080628093EB005F
:103A60007AC19091EB0090619093EB0021E030E0FF
:103A700001C0220F8A95EAF72093EA001092EA002B
:103A80008091EB008860EACF81116EC11091AB0587
:103A90001F778091E3008078812B8093E3008091F1
:103AA000E800877F8093E8000E9445098091E80044
:103AB00080FFFCCF8091E30080688093E30082E088
:103AC000111183E08093A7054FC18058823008F020
:103AD0004BC12091AB053091AC052C3DE3E03E0796
:103AE000A1F583E08A838AE289834FB7F894DE01E7
:103AF000139620E03EE051E2E32FF0E050935700B0
:103B0000E49120FF03C0E295EF703F5FEF708E2FCE
:103B100090E0EA30C0F0C7968D939D932F5F2431DB
:103B200059F74FBF8091E800877F8093E8006AE2F1
:103B300070E0CE0101960E94F1098091E8008B7738
:103B40008093E80011C1C096E7CF8091AD059091B8
:103B5000AE05432F55274330510509F44AC078F587
:103B60004130510509F47AC08BE590E0EBEEFAE0C4
:103B70004230510509F0F8C02091E800277F2093DA
:103B8000E8002091AF053091B0058217930708F443
:103B90009C0140E02115310509F065C0411163C069
:103BA0008091E80082FDC9CF8091A705882329F282
:103BB000853019F28091E80083FFF2CFBECF413209
:103BC000510509F43CC04232510509F0CDC08330A3
:103BD000910508F0C9C0FC01EE0FFF1FEF53FE4F27
:103BE0000190F081E02D82549E4FDC018C9190E099
:103BF0001AC0332721303105D1F02115310561F08C
:103C00002230310509F0B0C0E8E5FBE0E4918E2FE9
:103C100090E0E8E5FBE007C0EEE7FBE0E4918E2FE3
:103C200090E0EEE7FBE0009709F49EC0A5CFE6E642
:103C3000FBE0E4918E2F90E0E6E6FBE0F4CF8330EA
:103C4000910508F091C0880F991FFC01E953FE4FC0
:103C50000190F081E02D89E090E08ECF82E190E04C
:103C6000E6E4FBE089CF8091A705882309F465CFBE
:103C7000853009F462CF8091E80083FD5ECF8091AA
:103C8000E80082FD8DCF8091E80080FF83CF909186
:103C9000F3008091F2002115310519F0883091056B
:103CA00050F041E0089709F040E08091E8008E77FD
:103CB0008093E8006FCF44914093F10031962150FA
:103CC00031090196E8CF803809F04EC08091E800B4
:103CD000877F8093E8008091A8058093F1009DCEB6
:103CE000811142C01091AB051230F0F58091E800CF
:103CF000877F8093E8001093A8050E94450911234F
:103D000011F084E005C08091E30087FDFACF81E0E7
:103D10008093A70542E061EC81E00E94640942E2E1
:103D200061EC84E00E94640942E261EC82E00E945E
:103D3000640942E260EC83E00E9464098091A70577
:103D400013C08091AB05813079F481E0933009F0A4
:103D500080E08093A6051092E9008091E800877FBB
:103D60008093E8000E9445098091E80083FF0AC023
:103D70008091E800877F8093E8008091EB0080626B
:103D80008093EB00AA96E3E00C949F341F920F926D
:103D90000FB60F9211242F933F934F935F936F931E
:103DA0007F938F939F93AF93BF93CF93DF93EF93C3
:103DB000FF93D091E900DF708091EC00C82FC170B3
:103DC00080FDC0E81092E9008091F000877F809329
:103DD000F00078940E94061C1092E9008091F00097
:103DE00088608093F000CD2BCF70C093E900FF91E5
:103DF000EF91DF91CF91BF91AF919F918F917F9183
:103E00006F915F914F913F912F910F900FBE0F9047
:103E10001F90189510929A050E94E91B2FEF84E3DA
:103E20009CE0215080409040E1F700C0000088E114
:103E30009CE00FB6F894A895809360000FBE909315
:103E40006000FFCF662309F45DC08D3C41F40E9401
:103E5000050D8195809333040E94C21B08958E3C0A
:103E600019F40E94050DF6CF8F3C31F40E94050D28
:103E7000819580933204F0CF803D19F40E94050DA6
:103E8000F8CF893D29F40E94E30C80933404E4CFF9
:103E90008A3D21F40E94E30C8195F7CF8B3D31F4EC
:103EA0000E94E30C819580933504D6CF8C3D19F4A4
:103EB0000E94E30CF8CF9FE2980F983070F4815D78
:103EC000990B21E030E001C0220F8A95EAF780913A
:103ED0003104822B80933104BFCF8D3D31F480912A
:103EE0002B04816080932B04B7CF8E3D21F4809109
:103EF0002B048260F7CF8F3D09F0AECF80912B0469
:103F00008460F0CF409132048D3C59F480913304A9
:103F100087FF0DC01092330441110BC01092290489
:103F200008C08E3C81F48091330418169CF344231E
:103F300081F08091340490913504892B09F08CCF65
:103F400010922A0489CF8F3C49F447FFF0CF10929A
:103F50003204809133048111ECCFE0CF803D19F41D
:103F60001416ACF3E4CF90913404893D29F419166A
:103F7000F4F610923404DBCF8A3D19F497FFD7CFC3
:103F8000F8CF909135048B3D29F497FFD0CF109254
:103F90003504CDCF8C3D19F41916CCF3C8CF9FE270
:103FA000980F983090F4815D990B21E030E0B901D1
:103FB00002C0660F771F8A95E2F7CB01809590913A
:103FC0003104892380933104B2CF8D3D31F4809147
:103FD0002B048E7F80932B04AACF8E3D21F48091F9
:103FE0002B048D7FF7CF8F3D09F0A1CF80912B045B
:103FF0008B7FF0CF882379F19CEF980F913A78F47A
:10400000E0EFF2E09191891303C0DF0111971C9258
:1040100042E0E63FF407B1F70E94AE10089590E247
:10402000980F983088F4877021E030E0A90102C031
:10403000440F551F8A95E2F7CA01809590919A0521
:10404000892380939A05E8CF93E3980F933118F46E
:1040500060E00E94221F08950F931F93CF93C82FF3
:10406000882341F18CEF8C0F813AB0F500EF12E01C
:1040700086EF92E0F8012191C21701F18E179F0798
:10408000D1F7EFEF80E0D8019D918D01C91781F044
:10409000EF3F19F4911101C0E82F8F5F863099F737
:1040A000EF3F31F00E2E000CFF0BE251FD4FC283AB
:1040B0000E94AE10CF911F910F910895E0EFF2E0B2
:1040C0002191C21303C0DF0111971C928E179F0725
:1040D000B9F70E94AE10D5CF80E28C0F883068F41B
:1040E000C77021E030E001C0220FCA95EAF7809145
:1040F0009A05822B80939A05DBCF83E38C0F833163
:10410000C8F661E08C2F0E94221FD4CF1F93CF935B
:10411000DF93182FEB010E942C20209739F4812F78
:104120000E94FA1FDF91CF911F9108958FE99FE0C0
:104130000197F1F700C000002197EFCFA8E0B0E0B1
:10414000E4EAF0E20C9478346C01DC0113968D9172
:104150009C911497892B39F08C9111969C9189230D
:104160008F3F09F091C32896EEE00C9494340E949E
:10417000CA13182F682F89819A810E947A0F69814A
:104180007A81812F0E94BC138C01F60182818823E1
:1041900009F499C3C8019A9581159F4408F07FC01E
:1041A000C80199279C01245031092432310518F0A7
:1041B0008B970E9780F4E091B503F0E0EE0FFF1FB0
:1041C000E654FC4F808191818F3F2FE7920719F0D1
:1041D000019691838083C80197578038910508F034
:1041E00081C3003108F0BFCF8FEF93E00E946335A9
:1041F0008111B9CF96EAE92E92E0F92E011158C04B
:10420000FE01339686E0DF011D928A95E9F78AE088
:10421000682E87010F5F1F4FC7010E946335898396
:104220001A82882309F49FCF813009F077C0670193
:10423000B2E0CB0ED11CC8010E9463358A8388236B
:1042400009F491CF9FEF980F933008F040C0E3E05E
:10425000EE0EF11CC6010E9463358B83882309F49E
:1042600082CF1C828E010F5F1F4FD8012C91222319
:1042700081F2213009F08CC011969C911197129611
:104280008C91913009F04CC00E5F1F4F70E060E0E0
:10429000893311F460E570E00E94862047C090E009
:1042A00080E00F3F110511F008F07CCFC8017ACFF4
:1042B000E11434E0F30609F456CFC7010E946335D8
:1042C000811101C001504FEFE41AF40A97CF760133
:1042D000843041F602E010E07601FFEFEF1AFF0AAA
:1042E000C6010E946335E1E0F0E0EC0FFD1FE00F36
:1042F000F11F8083882309F436CF8C3741F4E2E044
:10430000F0E0EC0FFD1FE00FF11F1082ABCF0F5F4D
:104310001F4F670107301105F9F625CF7801A2CFAD
:10432000923039F40E5F1F4F0E942C200F5F1F4FF9
:104330009CCF933029F40E5F1F4F0E94FA1FF6CFD7
:10434000943019F00F5F1F4FF1CF0E5F1F4F30E019
:1043500020E0B8016F5F7F4FF80141818053990BD6
:104360008A30910550F02150310900F38FE99FE028
:104370000197F1F700C00000F6CF629EF001639E46
:10438000F00D11249C012E0F3F1F842F8B01E1CFD4
:10439000E22FF0E0E957F94F7490822F86958695C9
:1043A000869590E0FC01E958F94FC4902770D12C14
:1043B000022E02C0D594C7940A94E2F7A1E0CA2263
:1043C000DD24FC01E959F94FA490B12C022E02C062
:1043D000B594A7940A94E2F7B1E0AB22BB24FC01A8
:1043E000E95AF94F8490912C02C0959487942A95AC
:1043F000E2F7E1E08E229924C114D10419F081EE94
:104400000E942C20A114B10419F086EE0E942C20E9
:10441000F9E370E060E07F1202C060E570E0872D94
:104420000E948620A114B10419F086EE0E94FA1FA2
:10443000C114D10419F081EE0E94FA1F8114910475
:1044400009F474CF70E060E08CE226CF81E08093C5
:10445000F8020E946F0A6093ED037093EE0380935D
:10446000EF039093F003D60112969C9191111FC215
:1044700080919A058272F801E052F847E531F10522
:1044800008F04EC0EC5DF94C0C94CB341092F8025D
:10449000E0CF8091B10591E089278093B10510921A
:1044A00055018091BC0481608093BC045CCE4BE2DA
:1044B0005BE066E37BE00E94920A55CE46E35BE058
:1044C0006BE27BE0F8CF4CEF5AE067E07BE0F3CFA4
:1044D00047E05BE06CEF7AE0EECF40EE5AE06EEE44
:1044E0007AE0E9CF4EEE5AE060EE7AE0E4CF44ECB9
:1044F0005AE062ED7AE0DFCF42ED5AE064EC7AE018
:10450000DACF48E95AE066EA7AE0D5CF46EA5AE0DF
:1045100068E97AE0D0CF61E081E00E94120B23CEFF
:104520000737BCE71B07B1F10837ECE71E07B1F10D
:10453000D6010D911C91992309F455C0C8010E9420
:10454000CA13F82E682FC8010E947A0FB8018F2D68
:104550000E94BC130E94230E182FB82EF601628110
:104560003581232F22952F70892F82958F70E82E09
:10457000F12C8C3008F06FC0F701E75CF94C0C941B
:10458000CB3481E00E94E00F43E062E081E00E94D2
:10459000B30FE9CD81E00E94D30FF6CF82E0FBCFCD
:1045A0000130FCE71F07E9F003302CE7120799F010
:1045B00001151C4709F0BCCF10929A050E94E91B17
:1045C0004FEF84E39CE0415080409040E1F700C011
:1045D00000000E9428126FEF7FEF90E080E00E94C1
:1045E0009F350E940A1FC8010E94460FF82EAECFC9
:1045F000092F0F70907F11F00295007F812F6623A5
:10460000C9F0002369F090E2910F983010F0111179
:104610000BC080919A05082B00939A050E94AE105A
:10462000812F0E942C2017C080915703082B0093E4
:104630005703F4CF0E94FA1F002369F00095105E23
:10464000183010F0B11012C080919A050823009321
:104650009A050E94AE1038E0E31AF10844E0E4162F
:10466000F10408F080CD0E94CB127DCD80915703DC
:10467000082300935703EDCF892F8F70907F9032DE
:1046800011F08295807FF1E0BF120CC0662329F003
:10469000263008F70E94E010DECF2530E0F60E94B9
:1046A000D510D9CF662349F02223A1F330FFB8CF2C
:1046B0003F70D60115963C93EDCF222381F3193339
:1046C00049F4BFEFE7EEF3E0B150E040F040E1F72E
:1046D00000C00000812F0E94FA1FBDCF812F0E94D1
:1046E000221FB9CF892F8370A1F56111B4CF812F1B
:1046F000829586958770880F880F412F4F70082EFE
:1047000001C0440F0A94EAF7212F207114FF07C05B
:104710002FE030E001C0220F8A95EAF720959695A8
:1047200096959370923081F0822F842B933030F4E1
:104730008091F603913029F0242B82230E94EC0F04
:104740008ACF842B822BFACF242B8091F6038227E9
:10475000F5CF8695662311F0892F8170882309F49F
:104760007ACF812F829586958770880F880F412F89
:104770004F70082E01C0440F0A94EAF7212F2071D0
:1047800014FF07C02FE030E001C0220F8A95EAF73E
:104790002095969596959370923081F0822F842B78
:1047A000933030F48091F503913029F0242B82234B
:1047B0000E94B00F50CF842B822BFACF242B8091F4
:1047C000F5038227F5CF092F0F70662329F0802F7C
:1047D0000E94E00F812F5ECF812F0E94D510802F85
:1047E0000E94D30F38CF812F31EF131789F1311782
:1047F00050F040EF1417B9F06623B1F1211110CF3A
:10480000892F8F7129C0A2EF1A1749F1B3EF1B133B
:10481000F3CF80E0662361F29F7181E001C0880FD1
:104820009A95EAF7C5CF662379F0253008F013CFC3
:10483000292F2F7181E090E001C0880F2A95EAF7B7
:104840009091F5038927B4CF263008F004CFF0CF3C
:10485000892F8F71662321F20E94E00FFCCE892FF1
:104860008F716623C9F3BCCF222359F0893309F035
:1048700031CFEFEFF7EE23E0E150F0402040E1F7D9
:1048800027CF892F8F71ACCF85E0F601DE0111961D
:1048900001900D928A95E1F7D60112962C918981AB
:1048A0009A81211164CC0E94460F182F68CC0737DB
:1048B000BCE71B0709F465CE0837ECE71E0709F0D3
:1048C0006FCE82E05FCE003E110509F4DFCD043EDD
:1048D000110509F4DBCD0C32110509F0BACD1092A7
:1048E000F702B7CD003E110509F4B0CD043E110525
:1048F00009F4ACCD0C32110509F0ABCD81E0809309
:10490000F70210920401A5CD1F93CF93DF938091FE
:104910001C03807F09F04BC080911903882309F4A0
:1049200046C080914E03C0911D03409117035091E2
:10493000180360911A0370911B03D42FD52316E03E
:10494000C817A9F190E061157105A9F1DF3F99F150
:10495000189FF001199FF00D1124DF01A25EBC4FDA
:1049600011962C911197251326C02C91241323C046
:1049700012962C91129721111EC013962D913C91E5
:10498000261B370B283C3105B0F480911C038F7037
:10499000806180931C03ED5DFC4F80818F7080618E
:1049A000808387E193E00E949E200E943C0FDF916C
:1049B000CF911F91089501968770C2CFA1E1B0E019
:1049C000E4EEF4E20C947A348C0185E0F801DE0127
:1049D0001D9601900D928A95E1F7F801E28087E13A
:1049E000882E83E0982E40911A0350911B034115A5
:1049F000510509F430C19091170320911803892FB4
:104A000082238F3F09F427C1D080C180A380B48066
:104A1000F0901903B501641B750BFF2009F4E7C082
:104A200080911C03382F307F683C710508F0ABC0C3
:104A3000311178C0FE2C2C1114C09D1112C0E11050
:104A400010C08F70806180931C03C4010E949E205F
:104A500080911C03F80185838F2D6196ECE00C9406
:104A60009634A114B104C9F18D2D8C218F3FA9F189
:104A700081E08E2580FF05C04E2D6C2D8D2D0E946E
:104A80001C0FA114B10459F18D2D8C218F3F39F1E8
:104A900081E08E25F82FF170BF2E80FF39C04E2D9A
:104AA0006C2D8D2D0E941C0FA82E811131C0DD862A
:104AB000CE868D859E850E94F913292F22952F7011
:104AC000243078F49F702230A8F09923B9F0F801CF
:104AD0009581907F99F4FA2CBFCF80E0CBCF80E016
:104AE000D9CF2A5F2F70223068F0C8010E949E2023
:104AF000AB2CF1CF992311F0882369F3805E8830C5
:104B000050F3F3CF803F38F3815F833070F7E3CF0A
:104B1000EE2009F4A1CF80911C03816080931C03D7
:104B2000F12C9ACF2C1105C09D1103C0EE2009F481
:104B300077C0C8010E940614882309F1EE20F9F01D
:104B400080911C03803270F020911703309118037C
:104B500038872F831986BB86AA868C87CE01079655
:104B60000E949E2086E0F801A7E1B3E001900D923B
:104B70008A95E1F70E948424FF24F3946DCFC80145
:104B80000E949E20F9CF31110AC087E193E00E9474
:104B90009E2086E0F40111928A95E9F7C1CF2C118D
:104BA0000EC09D110CC0E1100AC08583C8010E948F
:104BB0009E2086E0F40111928A95E9F74DCFC80155
:104BC0000E9406148823D9F2EE20C9F280911C03BA
:104BD000803240F220911703309118033A832983E1
:104BE0001B82BD82AC828E83CE010196B9CF683C18
:104BF0007105F8F6FE2CEE2011F22C111EC09D114D
:104C00001CC080911C0380FD0FC0982F907F61F025
:104C10008583903F31F0982F907F905F8F70892B24
:104C20008583C8010E949E2086E0F801A7E1B3E0D9
:104C300001900D928A95E1F70FCFC8010E940614EA
:104C4000811190CF80911C03816080931C03C80167
:104C50000E949E2001CFEE2009F491CFC8010E944E
:104C60000614F82E882309F48ACF86E0F801A7E11C
:104C7000B3E001900D928A95E1F78091170390912E
:104C800018030E94F9130E948424E6CEA7E1B0E045
:104C9000ECE4F6E20C9483344B8B5C8B6D8B7E8B57
:104CA0008F8B6111109257031A8A198A85E0FE01D1
:104CB0007396DE011D9601900D928A95E1F786E0CC
:104CC000FE013D96DE01179601900D928A95E1F75F
:104CD000CE0107960E94DE24882359F016E08091C9
:104CE0004E0390911D03891345C06796E3E00C9431
:104CF0009F3486E0FE013796DE01119601900D92F9
:104D00008A95E1F78A859B85892B41F38F81988568
:104D100089238F3F19F320911D0330E0C9010196CB
:104D20008770992740914E034817190681F4109215
:104D30009A050E94E91B10921D0310924E0386E013
:104D4000E7E1F3E0DF011D928A95E9F7C7CF96E02E
:104D5000929FD001939FB00D1124A25EBC4FFE0123
:104D6000319601900D929A95E1F780931D030E9470
:104D70003C0FB4CF819FC0011124825E9C4F0E94E2
:104D8000DE24882309F4B1CF80914E0390E0019690
:104D90008770992780934E03A2CFAFE0B0E0E3ED98
:104DA000F6E20C9479348E010F5F1F4F8AE0D80130
:104DB0001D928A95E9F78DE3C82E81E0D82EF12C5B
:104DC000E12CAA24A394B12C2DE3822E21E0922E73
:104DD000F60181916F018F3F09F442C0F894E82FEA
:104DE000E295EF70F0E021A18F70A50102C0440FA1
:104DF000551F8A95E2F7CA01922F982B91A392A191
:104E00008095892382A3789400C0E5E3F1E0712CBA
:104E100031E021912F3F09F46BC0A22FA295AF7012
:104E2000B0E090968C9190E02F7002C09595879598
:104E30002A95E2F780FD5CC0832F782A330F8E1607
:104E40009F0639F7F601319780818F3F11F00E945C
:104E5000270D50EA5A95F1F7F801EE0DFF1D70820B
:104E60008FEFE81AF80AA5E0EA16F10409F0B0CFCE
:104E70004AE050E0B80186E993E00E943D35009792
:104E800041F02AE0F801A6E9B3E001900D922A95DD
:104E9000E1F70091A103892B69F181E080935C0324
:104EA0000E94CA1890935B0380935A0380915A031F
:104EB00090915B030E94BB18059700F110E0015E22
:104EC0001B4F45E050E066E973E0C8010E943D35A4
:104ED000D12C892B51F085E0E6E9F3E0D80101906F
:104EE0000D928A95E1F7DD24D39410925C0307C0FC
:104EF00080E0A3CF80915C038111D8CFD12C0E9498
:104F0000A612C82EE091A103882309F47FC07E0178
:104F1000BBE0EB0EF11C85E0D7011D928A95E9F705
:104F20000E2F10E0015E1B4F809191038A30D8F55F
:104F30004AEC56E1B701C8010E947312882309F4B4
:104F400054C041E856E1B701C8010E94731288239A
:104F500009F44BC048E556E1B701C8010E9473123D
:104F6000882309F442C04EE256E1B701C8010E940D
:104F700073128823D1F1109291038091A00390E0E5
:104F800045E050E0B701815E9B4F0E943D3521E036
:104F900020936303892BE1F4C12C8C2D8D292F964E
:104FA000EDE00C94953480915D0390915E030E9436
:104FB000BB18843F914008F0BBCF809163038823E6
:104FC00059F385E0F70111928A95E9F7109263038E
:104FD000A091A003B0E0A15EBB4F85E0FE013B962F
:104FE00001900D928A95E1F7D8CF809191038F3F80
:104FF00031F08F5F809391038A3008F4BECF0E9416
:10500000CA1890935E0380935D03D7CFF0E0E15E12
:10501000FB4F85E0AFE6B3E001900D928A95E1F792
:105020008FE693E00E94DE0880936E038090740305
:1050300090907503A0907603B090770380915F0302
:1050400090916003A0916103B09162038816990664
:10505000AA06BB06D1F080925F0390926003A092F3
:105060006103B09262030E94A61281110EC00E94D9
:105070006F0A861A970AA80AB90A80929203909238
:105080009303A0929403B092950380917803809348
:10509000F503809179038093F60386E0EAE7F3E075
:1050A000A1EBB5E09DCFA5E0B0E0E9E5F8E20C9416
:1050B00082340E94CA188C01809158039091590340
:1050C00080179107A1F08FEF89838A831B820E944A
:1050D000CA188160782F9D838C8349815A816B81A6
:1050E0008D810E94462610935903009358032596FC
:1050F000E4E00C949E341F921FB61F9211248F93EC
:105100009F93AF93BF9380919405811113C08091B9
:10511000950590919605A0919705B09198054196B7
:10512000A11DB11D8093950590939605A0939705B9
:10513000B0939805BF91AF919F918F911F901FBE23
:105140001F901895CDB7DEB7E6970FB6F894DEBF7F
:105150000FBECDBF85B7806885BF85B7806885BF26
:1051600084B7877F84BF0FB6F894A89580916000BC
:10517000886180936000109260000FBE80E890E02C
:105180000FB6F89480936100909361000FBE85E2A2
:105190009DE09093ED028093EC020E94F5080E943E
:1051A00096098091E20084608093E2007894809177
:1051B000A7058823A1F01091E9001F709091EC00E1
:1051C000892F817090FD80E8182B1092E900809162
:1051D000E80083FD0E94061C1F701093E90082E026
:1051E00084BD93E095BD9AEF97BD80936E001092B9
:1051F00092031092930310929403109295030E94CD
:105200003014811102C00E947D130E94DD158111AE
:1052100002C00E945C170E944914809342010E94C0
:10522000A61281110E94FE328091420181112CC090
:1052300085E0EDE5F1E0DE01919601900D928A9511
:10524000E1F789A180933D018AA180933E018BA162
:1052500080933F018CA1809340018DA180934101F7
:1052600088E0E2E6F1E0DE01119601900D928A9568
:10527000E1F7FE013196A5E3B1E0CE010996219157
:105280002D93E817F907D9F78091420195E0811134
:1052900090E09093A10385E0891B8093A0030DE328
:1052A00011E0D8018D918D018F3F11F00E94270DE3
:1052B000B1E002341B07A9F705E311E0F801819181
:1052C0008F018F3F11F00E94270DF1E00D331F0772
:1052D000A9F78AE0EFE1F4E0DF01782E1D927A94DD
:1052E000E9F7E6E9F3E0DF011D928A95E9F70E940C
:1052F000DD15811102C00E945C1782E090E00E94DF
:1053000063358093A40384E090E00E946B35909312
:10531000A3038093A2030E94CD26BFEFE6E7F1E04E
:10532000B150E040F040E1F700C000000E94CD26FF
:1053300080911F0480FF08C06FEF7FEF90E080E056
:105340000E949F350E94281283E090E00E946335FE
:105350000E94EC0F1092B7058FEF9FEF9093D1054D
:105360008093D0059093D3058093D2059093D50573
:105370008093D4059093D7058093D6059093D90553
:105380008093D8059093DB058093DA059093DD0533
:105390008093DC059093DF058093DE051092360440
:1053A0009093500480934F0490935204809351043F
:1053B000909354048093530490935604809355041F
:1053C000909358048093570490935A0480935904FF
:1053D00090935C0480935B0490935E0480935D04DF
:1053E0000E94DD15811104C00E945C170E94C9153E
:1053F00081E08093BC0446E050E06CE170E081EB1A
:1054000095E00E9453351092BC048091B1058C7FC9
:1054100011F40E94C9150E94A612882309F408C13C
:1054200083E080931A0480FD05C180E88093E00545
:105430000E94B8316DE070E08AE197E00E9465114A
:10544000892BE9F580911A0463E070E081FDF4C0D6
:1054500087E197E00E946511892B89F56DE070E086
:1054600087E097E00E946511892B49F50E946F0A39
:10547000605A75418F4F9F4F60938C0570938D05D7
:1054800080938E0590938F05E9EEF5E080E092E041
:10549000DF019C011D9221503040E1F7F093EA07B3
:1054A000E093E9078FEF9FEF9093E8058093E7057E
:1054B00081E0809391058093900510921B040E94D7
:1054C000A612811102C00E94013320E04CE36AEF72
:1054D00084E890E00E94B40A60E08EE00E94120B23
:1054E00083E491E090939305809392058091A705C2
:1054F00000E112E1853009F4DDC00E94CD26A5EA65
:10550000B3E0BDA7ACA7EFE1F4E0F8ABEFA7DF0194
:10551000E5EAF3E091918D9123E0EF3AF20709F487
:10552000D5C09817B9F30E94A612782EF12C512CF1
:10553000412CAFA5B8A99D90B8ABAFA7ECA5FDA530
:105540008191FDA7ECA7891509F42DC2282E2924E5
:105550006201E12C88248394822D882109F417C2EA
:10556000392C3820772099F0EFA2F8A681E031108D
:1055700001C080E089A70E94CA188160782F9BA78C
:105580008AA74FA158A569A58BA50E94462633205E
:1055900039F0F601E353FE4F80818F3F09F091C14E
:1055A000612C062D10E080913604800F912F911D03
:1055B00009976CF168E0A62EB12CA01AB10AB801C7
:1055C000695C7B4FA50187E394E00E944A35B801EE
:1055D000615C7B4FA5018FE394E00E944A35A501F1
:1055E000440F551FB801660F771F615B7B4F8FE437
:1055F00094E00E944A35B801695B7B4FA50187E4BE
:1056000094E00E944A3588E08619809336048091A0
:10561000360490E0EEA5AE2FB0E09D01220F331FBF
:10562000235E3D4FAA0FBB1FBD01625E7D4F62C16D
:1056300080E0F7CE80E2FACE84E197E00BCF809154
:10564000A705843041F10E94D6180E948F11109254
:10565000940548E150E080E40FB6F894A895409393
:1056600060000FBE8093600083B7817F846083BF3A
:1056700083B7816083BF7894889583B78E7F83BF1B
:105680000FB6F894A89580916000886180936000BF
:10569000109260000FBE8091A605882359F00E94E9
:1056A000CD26EFE1F4E08191811137C694E0E93233
:1056B000F907C9F78091A705853009F4C0CF10928A
:1056C0009A050E94E91B0E94CB1217CF98132BCF8B
:1056D0000E945328D12C0E94A612882309F4B0C03E
:1056E0008090BA039090BB03092C000CAA08BB0859
:1056F00010914B01212F30E0EAEBF3E081E090E0E4
:105700003296281739070CF095C16091B603709155
:10571000B7038091B8039091B9030E94530A2B01FB
:105720003C01F9EC4F1651046104710414F18091AD
:10573000B50390E0019669E170E00E94B734809370
:10574000B503880F991FFC01E654FC4F11821082AB
:10575000812F183108F087E18F5F80934B010E9401
:105760006F0A6093B6037093B7038093B803909366
:10577000B90322E082169104A104B1040CF466C1BD
:10578000A0E6BAEEA50194010E94C4354B015C016C
:1057900048EC149F90011124032E000C440B550B70
:1057A000240D351D461D571DA5E0B0E00E94C435EF
:1057B0009B01AC01C501B4010E94D73549015A01D2
:1057C00051EF85169104A104B1042CF050EF852E01
:1057D000912CA12CB12C6091B1037091B2038091F6
:1057E000B3039091B4030E94530A2B013C0185E658
:1057F000481651046104710484F00E946F0A60939A
:10580000B1037093B2038093B3039093B403809178
:10581000EC038093B0038092AF031091B003A0918A
:10582000AF03A11BBB0BA30192010E94CF3524E65D
:1058300030E040E050E00E94A535120F1093EC03D9
:105840000E94D61880919105882309F48DC180911A
:105850001C0490911D040E94BB18C29708F464C1F7
:105860000E94CA1890931D0480931C0460E080E09D
:105870000E947B0A0E94A612882309F4B9C2809173
:10588000EC0390E09093F9038093F8030E94CB120D
:105890008093F70360E080E00E947B0A8091F6032A
:1058A0000E94EF0F813009F4F7C0882309F4D2C0B9
:1058B000823009F4F4C0833009F4F4C085E891E043
:1058C000CBC08EA7662463946CCE90E0FC01EA5CAA
:1058D000FB4FD9015C915183DB015C915187BEA5DF
:1058E000B18B880F991FFC01EA5CFB4F128E118E61
:1058F00091E0842F41E0480F961538F380933604E9
:10590000332009F444C08091B1058C7F883009F0C0
:105910003EC0F601E353FE4F80818F3FC1F1312C31
:10592000B12CA12C90E09C01220F331FA901435EF2
:105930005D4F5CAB4BABD901A25EBD4FBEABADAB17
:10594000F601E859FB4FFAABE9AB8501612CF80190
:10595000E353FE4F80818F3F61F0F31030C06E1033
:105960002EC0A9A9BAA92C9130E2230F08F42FEF79
:105970002C9363940F5F1F4F48E06412E8CF339479
:1059800058E0A50EB11C80E5A816B104F1F6E39429
:10599000880C9FEFC91AD90AA8E0EA12DDCDECA560
:1059A000FDA531979082F394B8E04B0E511CEAE0CC
:1059B000FE12BFCD0E946F0ADD24D3948CCE90E0FE
:1059C000ABA9BCA94C91FC01EE0FFF1FE35EFD4F9C
:1059D0002081421B550BEDA9FEA92081880F991F3C
:1059E000FC01E25EFD4F8081281B330B449FB00118
:1059F000459F700D700D1124229FC001239F900DB3
:105A0000900D1124860F971F0E941F0C893208F0F9
:105A1000B0CF28E2382F231B08F420E0F801E85922
:105A2000FB4F213108F020E13081320F08F43FEFC5
:105A300030839FCF40815181052E000C660B770B80
:105A4000840E951EA61EB71E01965ACE812C912C4F
:105A50005401C1CE80E791E00E94EA1062E080E04C
:105A60000E947B0A8BE891E00E94EA1063E080E0EC
:105A70000E947B0A8091F5030E94EF0F813009F4A8
:105A80007BC1882391F0823009F479C1833009F415
:105A900079C18DEA91E00BC086E791E0DDCF8BE71D
:105AA00091E0DACF81E891E0D7CF81E991E00E94DF
:105AB000EA10CE01CA969EA38DA31AA219A28CE069
:105AC00090E09CA38BA38091F8039091F903892B1C
:105AD00009F45BC10E94AA116091F1037091F20375
