:100000000C94C1070C94F9070C94F9070C94202F59
:100010000C94F9070C94F9070C94F9070C94F90760
:100020000C94F9070C94F9070C941C170C94381BCA
:100030000C94ED240C94F9070C94F9070C94F9072F
:100040000C94F9070C94F9070C94F9070C94F90730
:100050000C94F9070C94F5170C94F9070C94F90714
:100060000C94F9070C94F9070C94F9070C94F90710
:100070000C94F9070C94F9070C94F9070C94F90700
:100080000C94F9070C94F9070C94F9070C94F907F0
:100090000C94F9070C94F9070C94F9070C94F907E0
:1000A0000C94F9070C94F9070C94F907050109025F
:1000B000A10185020901A1000509190129081500FE
:1000C0002501950875018102050109300931158165
:1000D000257F95027508810609381581257F9501D0
:1000E00075088106050C0A38021581257F95017572
:1000F000088106C0C00660FF0961A1010962150000
:1001000026FF009520750881020963150026FF006F
:10011000952075089102C005010906A1010507197E
:10012000E029E71500250195087501810295017503
:100130000881010507190029FF150026FF00950613
:1001400075088100050819012905950575019102B9
:10015000950175039101C0000000808080000000BF
:10016000000000000000000000000000000000008F
:10017000000000000000007CC711F80E0300000022
:100180000000000000000000C0601C060890101075
:1001900008841E30C00000E0371C00030202010387
:1001A00002060C08080C040701000000000100080A
:1001B00000C120100805021F1030E080838E88984F
:1001C00090B0D03020202027283820C38488B0C0A9
:1001D0008FF10000000000F88C04FC00000000001B
:1001E000000000000000000000000000000000000F
:1001F00000000000000000001FF0033EC0808040AF
:10020000C080800000000000C0601C060890101034
:1002100008841E30C0000000F80D070000C08000F8
:10022000000001030A0C040701000000000100089F
:1002300000C12010080502000F38E0808080819FF7
:1002400090B0D03020202027283820C38488B0C028
:100250008FF100000000000000000000000000001E
:1002600000000000000080701820404040201078FE
:10027000C0000000000000000000000000000000BE
:10028000000000809CE7010000000600200006003E
:1002900040A31408000000000000F00CE21209095D
:1002A00013FE0F0100002020C0000000000000002D
:1002B000F01E0100000000000000070C3923664416
:1002C000484F702020604040474C7820604E48786E
:1002D000677C00000000000000000000000000003B
:1002E000000000000000807018204040402010787E
:1002F000C0000000000000000000C0602020C0001E
:10030000000000809CE701000000060020000600BD
:1003100040A3140800000000001FE100FE030100DC
:1003200000F80F0100002020C000000000000000C5
:10033000F01E0100000000000000070C3923664495
:10034000484F702020604040474C7820604E4878ED
:10035000677C00000000000000000000000000803A
:1003600080808080000000000000C06080000000ED
:100370008040E00000000000C0380C0203010101D1
:100380000000080931E1010161C201000011118181
:10039000001011038C5020000718102040C0983026
:1003A00020202040406724BCB0A0B0501008181096
:1003B0001010161D000000000000000000000101E8
:1003C0000101010101010101000000000000000025
:1003D000000000000000000000000000000000809D
:1003E00080808080000000000000C060800000006D
:1003F0008040E00000000000C0380C020301010151
:100400000000080931E1010161C201000011118100
:10041000001011038C502000071830206080183025
:1004200040C040C08087845C7020101010081810F5
:100430001010161D00000000000000000000010662
:100440003840433C000000000000000000000000B5
:10045000000000000000000000008080800000001C
:10046000000000000000000000000000000000008C
:10047000000000000000007CC711F80E030000001F
:100480000000000000000000C0601C060890101072
:1004900008841E30C00000E0371C00030202010384
:1004A00002060C08080C0407010000000001000807
:1004B00000C120100805021F1030E080838E88984C
:1004C00090B0D03020202027283820C38488B0C0A6
:1004D0008FF10000000000F88C04FC000000000018
:1004E000000000000000000000000000000000000C
:1004F00000000000000000001FF0033EC0808040AC
:10050000C080800000000000C0601C060890101031
:1005100008841E30C0000000F80D070000C08000F5
:10052000000001030A0C040701000000000100089C
:1005300000C12010080502000F38E0808080819FF4
:1005400090B0D03020202027283820C38488B0C025
:100550008FF1000000000000C02010D0300000002B
:10056000000000008080403C14040890180408B08B
:1005700040800000000000000304081011F9010190
:10058000010101010000000000000080C848282A85
:10059000100F000000000000000000000000010239
:1005A0000C102028370202040810262B32040506FE
:1005B000000000000000000000000000000000003B
:1005C000000000000000000000000000000000002B
:1005D0000000000000000000E01010F0000000002B
:1005E00000000000808040402C140408901804088B
:1005F000B0408000000000000304081011F9010160
:1006000001010101000000000000000080C0482836
:100610002A100F204A09100000000000000001020B
:100620000C102028370202040810262B320405067D
:1006300000000000000000000000000000000000BA
:1006400000000000000000000000000000000000AA
:10065000000000000000000000000000000000009A
:10066000000000000000000000000000000000008A
:1006700000000000000000000000007E0F00D4FF1A
:10068000FFFFC70000007800000000000000002A03
:100690002B28000000000000000000000000000007
:1006A000000029000000002C1E34202122243426C2
:1006B00027252E362D3738271E1F202122232425BB
:1006C000263333362E37381F0405060708090A0B70
:1006D0000C0D0E0F101112131415161718191A1BE2
:1006E0001C1D2F3130232D350405060708090A0B80
:1006F0000C0D0E0F101112131415161718191A1BC2
:100700001C1D2F3130354C00DA0281FFD9F1DB207E
:10071000A4A62EAF00A0C000A1C800AED580A81F1F
:10072000D300408D14200080818283848586878851
:10073000898A8B8C8D8E8F9091929394A0A1A2A385
:10074000A4A5A6A7A8A9AAABACADAEAFB0B1B2B3F1
:10075000B4C0C1C2C3C4C5C6C7C8C9CACBCCCDCE3C
:10076000CFD0D1D2D3D40000010101010101010198
:100770000102020202020202020203030303030354
:100780000303040404040404040505050505060622
:1007900006060607070707070808080809090909E0
:1007A0000A0A0A0B0B0B0C0C0C0D0D0D0E0E0E0F86
:1007B0000F0F101011111112121313141415151616
:1007C000161717181819191A1A1B1B1C1D1D1E1E87
:1007D0001F202021222223242425262627282929D8
:1007E0002A2B2C2D2D2E2F30313232333435363703
:1007F00038393A3B3C3D3E3F404142434445464701
:1008000048494A4C4D4E4F50515354555658595AD9
:100810005B5D5E5F616264656668696B6C6D6F707D
:1008200072737577787A7B7D7E8082838587888AEC
:100830008C8E8F91939596989A9C9EA0A2A3A5A723
:10084000A9ABADAFB1B3B5B7BABCBEC0C2C4C6C91F
:10085000CBCDCFD1D4D6D8DBDDDFE2E4E7E9EBEED8
:10086000F0F3F5F8FAFDFF00AF00AE29001E001FFF
:1008700000200021002200230000002B0014001A99
:10088000000800150017001C000000E0000400161E
:1008900000070009000A0000000000E1001D001B25
:1008A0000006001900050000000000E0002152E2EF
:1008B00000E30029002C00000000002A002E002D7B
:1008C0000027002600250024000000310030002F02
:1008D00000130012000C0018001C00280034003324
:1008E000000F000E000D000B000000350052003814
:1008F00000370036001000110005004F0051005075
:1009000000E600E7004C002800000029003A003B08
:10091000003C003D003E003F0000000000000000E1
:1009200000000000000000000000000000000000C7
:1009300000000000000000000000000000000000B7
:100940000000000000000000000000000021520034
:100950000000000000000000000000207845004476
:100960000043004200410040000000000000000081
:100970000000000000000000000000000000000077
:1009800000000000000000000000000000277800C8
:1009900000000000000000000000002378287824F8
:1009A000780000000000000000000009025B000366
:1009B0000100A0FA0904000001030101000921114E
:1009C000010001224000070581030800010904011C
:1009D000000203000000092111010001222200078A
:1009E000058203200001070503032000010904021A
:1009F0000001030000000921110100012249000744
:100A00000584032000011201000200000008544B7D
:100A100001000100010200010C036D0061003800BB
:100A200069006300000016036B0061007A006D002E
:100A30006500650067006100770061000000040345
:100A400009040000000000003E5B4F5B3E003E6B6F
:100A50004F6B3E001C3E7C3E1C00183C7E3C180048
:100A60001C577D571C001C5E7F5E1C0000183C1844
:100A70000000FFE7C3E7FF00001824180000FFE7AD
:100A8000DBE7FF0030483A060E00262979292600C8
:100A9000407F05050700407F05253F005A3CE73CA5
:100AA0005A007F3E1C1C0800081C1C3E7F001422BC
:100AB0007F2214005F5F005F5F0006097F017F00F7
:100AC000006689956A0060606060600094A2FFA281
:100AD000940008047E04080010207E2010000808FE
:100AE0002A1C0800081C2A0808001E1010101000FC
:100AF0000C1E0C1E0C0030383E383000060E3E0E28
:100B0000060000000000000000005F000000000779
:100B100000070000147F147F1400242A7F2A12008B
:100B2000231308646200364956205000000807036A
:100B30000000001C224100000041221C00002A1C71
:100B40007F1C2A0008083E08080000807030000062
:100B50000808080808000000606000002010080471
:100B600002003E5149453E0000427F40000072496C
:100B7000494946002141494D33001814127F1000A5
:100B80002745454539003C4A494931004121110971
:100B90000700364949493600464949291E000000E8
:100BA000140000000040340000000008142241003E
:100BB00014141414140000412214080002015909ED
:100BC00006003E415D594E007C1211127C007F49A7
:100BD000494936003E41414122007F4141413E00AA
:100BE0007F49494941007F09090901003E414151BE
:100BF00073007F0808087F0000417F41000020400B
:100C0000413F01007F08142241007F4040404000E6
:100C10007F021C027F007F0408107F003E4141419B
:100C20003E007F09090906003E4151215E007F090F
:100C30001929460026494949320003017F01030072
:100C40003F4040403F001F2040201F003F403840B1
:100C50003F0063140814630003047804030061591F
:100C6000494D4300007F414141000204081020002B
:100C7000004141417F000402010204004040404025
:100C800040000003070800002054547840007F28EB
:100C900044443800384444442800384444287F0001
:100CA00038545454180000087E0902001824241CEB
:100CB00078007F080404780000447D400000204054
:100CC000403D00007F102844000000417F400000AC
:100CD0007C04780478007C08040478003844444498
:100CE00038007C1824241800182424187C007C0860
:100CF0000404080048545454240004043F442400CD
:100D00003C4040207C001C2040201C003C403040E7
:100D10003C004428102844004C9090907C0044648F
:100D2000544C4400000836410000000077000000E9
:100D30000041360800000201020402003C2623267E
:100D40003C00000000000000000000000000000067
:100D5000808080C0C0C0C0E0E0E0E0E06070F0F003
:100D6000F0F0F0F0F0F0F0F0E0E0E0A0E0E0E0E043
:100D7000F0F0F8F8FCEC7CFEFEFEDECEC6C0C0C093
:100D8000C08080808080808080C0C0E0E0F07820DB
:100D90008080C0C0E0F8800000C0FED8F0C0E0C095
:100DA000FC808000000000E08000000000000000E7
:100DB0000000000000000000000000000000000033
:100DC000E0F0F0F0E0ECEEF7F37020007C7C7C7E4D
:100DD000007E7E7E7F7F7F000080C0E07E5B4F5B79
:100DE000FEC00000C000DCD7DEDEDED7DC00C000C5
:100DF00000000000000000000000000000000000F3
:100E000000000000000000000000000000000001E1
:100E100033373C606061E1E1E3E3E7EFEEFEFFFFC3
:100E2000FFFFFFFF7FFBFBFFFFFEFEFFEFFFFFDF8C
:100E3000DFD9F9FFFFFFCFCFFFF7F7FFFFF7E6BFDF
:100E4000BFFFFFEFEFFBFBBFBFFFF7FDFDDFDBFFEA
:100E50007F7DDFDEFE7F1F7EFCEFFFFF3DFF8F0704
:100E60000F1E073F0EFFF63F0D073E0C0E04081F36
:100E70000006003800000000000000000000000034
:100E80000F1F3F7F7F7F7F7F3F1E0C001F1F1F3F75
:100E9000003F3F3F7F7F7F00307B7F7830202030D6
:100EA000787F3B0003000F7F0F0F0F7F0F000300C1
:100EB0000000000000000000000000000000000032
:100EC0000000000000000000000000000000000022
:100ED0000000000000000000000008181C1E1E0F8B
:100EE0000F0F0707030303030303071F3F3F3E7E64
:100EF0006F7F7F777527070707060F1F3F3F7F7FAD
:100F00007F7662430303010101030303060606061D
:100F10000E0C08010300000003073E07000F03004A
:100F200000000000000003000000000000000000BE
:100F300000000000000000000000000000000000B1
:100F400000000000000000000000000000000000A1
:100F50000000000000000000000000000000000091
:100F60000000000000000000000000000000000081
:100F70000000000000000000000000000000000071
:100F8000000011241FBECFEFDAE0DEBFCDBF04B6F4
:100F900003FE18C080917A0790917B07A0917C078F
:100FA000B0917D078730904BA740B04B59F4109219
:100FB0007A0710927B0710927C0710927D07E0E081
:100FC000F8E3099512E0A0E0B1E0E0E9F3E602C041
:100FD00005900D92A03DB107D9F727E0A0EDB2E052
:100FE00001C01D92AA37B207E1F70E9414250C94A4
:100FF00088310C940000CF93DF9340917807509193
:101000007907485755409A0120583F4F21303240C8
:10101000C0F020E032E0241B350B60917605709122
:101020007705FC01CA01240F351FC1E0D0E082170B
:10103000930750F07093770560937605DF91CF9119
:10104000089520E830E0E9CF4491DC01A858BA4F78
:101050005C91451781F04C93AC01A5E056954795FE
:10106000AA95E1F7DE0102C0AA0FBB1F4A95E2F77D
:10107000AD016A2B752B01963196D9CFFC01AC01DD
:101080004B5F5F4F8FEF91E32191822728E030E0A3
:1010900087FF09C0880F892721503109C9F7E41754
:1010A000F50791F70895880FF7CFE8EDF0E080811C
:1010B0008E7F80831092E2001092DA001092E1009D
:1010C000A0EEB0E08C9181608C9380818F778083DB
:1010D00019BCA7EDB0E08C918E7F8C9380818F7EC0
:1010E00080831092570508952091E4003091E50027
:1010F00095E6A9012091EC00822F817020FF06C0A7
:101100008091E80080FF06C080E008952091E8000B
:1011100022FD1AC080916505882389F0853089F009
:101120008091EB0085FD0FC02091E4003091E50037
:1011300042175307F9F29150E1F684E0089582E0F6
:10114000089583E0089581E008958091670587FF01
:1011500013C08091E80082FF06C08091E8008B7781
:101160008093E80004C0809165058111F2CF089555
:10117000809165058823D9F38091E80080FFF8CF3E
:101180008091E8008E77ECCF982F9093E900242F80
:10119000762F50E0891731F07091EC002091ED002E
:1011A0005091F00021FD07C09F5F973071F7809349
:1011B000E90081E008953091EB003E7F3093EB0031
:1011C0003091ED003D7F3093ED003091EB003160C8
:1011D0003093EB007093EC002093ED005093F000FF
:1011E0002091EE0027FDE0CF80E00895B0E0A0E080
:1011F000ECEFF8E00C945A30C8EDD0E088818F7E97
:101200008883E7EDF0E080818160808384E082BFA5
:1012100081E08093570588818E7F888302EE10E0FD
:10122000F80110821092DA0081EEC82ED12CF6015E
:10123000108288818F7788838881806888838881FD
:101240008F7D888319BC10926505109266051092F7
:1012500064051092630590EEE92EF12CF701808170
:101260008B7F808388818160888342E060E080E0BA
:101270000E94C408F60180818E7F8083F8018081FE
:1012800081608083808188608083F70180818E7F88
:101290008083888180618883CDB7DEB7E8E00C94D5
:1012A0007630FC0180916D0590916E058617970749
:1012B000A0F06115710529F49091E8009E77909354
:1012C000E80090E06115710551F4911108C080911A
:1012D000E80082FF34C080E00895BC01F2CF809125
:1012E00065058823C1F18530C1F18091E80083FD57
:1012F00030C08091E80082FDEACF8091E80080FF55
:10130000E1CF8091F3002091F200382F6115710533
:1013100019F02830310558F091E02830310509F0F6
:1013200090E02091E8002E772093E800CBCF8191C8
:101330008093F100615071092F5F3F4FE7CF80919B
:101340006505882341F0853041F08091E80083FFF6
:10135000BECF81E0089582E0089583E00895089566
:1013600080915A050895CF92DF92EF92FF922FB7A6
:10137000F894C0905305D0905405E0905505F09036
:1013800056052FBFA7019601261B370B480B590B9B
:10139000CA01B901FF90EF90DF90CF9008952FB769
:1013A000F894609153057091540580915505909182
:1013B00056052FBF089520916F0536E0839FC00129
:1013C0001124629F800D911D1124811522E0920746
:1013D00014F090E080E088589A4F909379078093BA
:1013E00078070895FA01811101C0FB01099508955C
:1013F000E5E7F4E0248130E1231B08F420E02483B6
:10140000809174048160809374040895E5E7F4E0AA
:10141000248130E1230F08F42FEF2483809174049A
:10142000816080937404089590917504937059F0CD
:1014300080937604609377044093780480917404D9
:10144000822B809374040895E5E7F4E0438120E162
:10145000421B08F440E0818121E0628190E00E941B
:10146000140A0895E5E7F4E0438120E1420F08F40F
:101470004FEF818121E0628190E00E94140A08957B
:10148000E5E7F4E0628120E1621B08F460E081811D
:1014900021E0438190E00E94140A0895E5E7F4E01A
:1014A000628120E1620F08F46FEF818121E04381C6
:1014B00090E00E94140A0895E5E7F4E0818121E0BC
:1014C000438162818850990B0E94140A0895E5E7D0
:1014D000F4E0818190E021E04381628108960E94DE
:1014E000140A089590917504937061F081110BC0F6
:1014F0009460909375041092540180917404862B2B
:10150000809374040895833010F09860F2CF880FB0
:10151000880F982BEECF8091750486958695815023
:1015200009F482E061E00E94720A089580917504D6
:10153000869586958F5F833008F081E061E00E9498
:10154000720A0895FF920F931F93CF93DF93182F82
:10155000062FF42ED0E0C0E02F2D402F612FCE01BA
:101560000E94D8122196C534D105B1F7CDB7DEB7A8
:10157000E5E00C947930EF92FF920F939701201BD6
:1015800031092F3F310519F010F02FEF30E0209591
:10159000382F320F08F43FEF832F0F91FF90EF9019
:1015A0000895AF92BF92CF92DF92FF920F931F9355
:1015B000CF93DF93362F472FE82FF0E0E959F84F0C
:1015C00071110FC0E4918E2F2E2F6E2F722FDF918D
:1015D000CF911F910F91FF90DF90CF90BF90AF9070
:1015E0000895C72FD0E02491F22E022F10E056E08C
:1015F000659FC0011124EFEFF0E0BF010E943C3075
:10160000832F90E0880F991F35E5369FD001379FD3
:10161000B00D11248A1B9B0B982F990F980F6F0107
:10162000CC1ADD0AC09ED001C19EB00DD09EB00D77
:1016300011248B2F499FA0011124452F55276F019D
:10164000C41AD50AC09EA001C19E500DD09E500D57
:1016500011245F01A91AB108AC9E6001AD9ED00CA7
:10166000BC9ED00C1124CD2CDD24EC19FD09E09F8B
:10167000E001E19FD00DF09FD00D1124ED2F6230DD
:101680007105A1F050F46115710509F49ECF613028
:10169000710581F0EB2F852F98CF6430710569F0CB
:1016A00080F06630710509F490CFF4CFE22F2B2F34
:1016B0008D2F8BCFE22F252F88CFEB2F822F2D2F31
:1016C00084CF2B2F8F2DE52F80CF80910F0480FDAD
:1016D00016C081FD16C082FD16C080910E048823BD
:1016E000A1F0883280F428E0829FC001112468E2D2
:1016F00070E00E949330862F672B39F0089582E0C6
:10170000089584E0089588E0089581E00895809127
:101710000F0480FD14C081FD14C082FD16C08091AD
:101720000D04882381F08E3180F420E5829FC00172
:1017300011246EE170E00E949330862F089584E1B9
:10174000089588E2089588E0089580E5089580E08E
:101750000895F894E82FE295EF70F0E031A1282F7A
:101760002F7081E090E001C0880F2A95EAF7982F4A
:101770009095932391A392A1892B82A378940895A5
:101780009091860392FF06C0282F28712830F9F423
:10179000877F846093FF06C0282F28712831F1F4D9
:1017A000877E84612091870320FF06C0382F38711F
:1017B0003830D9F4877F816021FF06C0282F287137
:1017C0002831D1F4877E816194FD877E0895282F8A
:1017D00024712430F9F68B7F8860DCCF282F2471A8
:1017E000243101F78B7E8861DDCF382F31713130A4
:1017F00019F78E7F8860E0CF282F2171213121F7E2
:101800008E7E8861E1CF82389105B9F1B0F48133E1
:10181000910509F47DC048F48932910509F46DC041
:101820008A32910509F47BC008958533910509F446
:101830005FC08933910509F10895833E9105D9F17F
:1018400038F4803E910529F1823E910579F10895A1
:10185000863E9105D9F1873E910509F43EC0843E4C
:10186000910541F52091870321FF24C080918603D3
:1018700084FD19C087EE90E00895209186032370BF
:1018800009F05AC02091870323FF14C089E290E039
:1018900008952091860320FD38C03091870330FFE2
:1018A00009C024FF43C090E080E0089520918603A2
:1018B00022FDF7CF08952091860322FD3AC0309192
:1018C000870330FD39C024FFF5CFEDCF209186038B
:1018D00023FFF0CF24FDE7CFCDCF2091860323FD5A
:1018E0002EC03091870331FFEECF84EE90E0089553
:1018F0002091860325FFDECFC9CF2091860325FDE9
:1019000021C02091870323FFD5CF89E390E0D2CF78
:101910002091860326FFCECF8AE290E008952091A1
:10192000860326FFC7CF81E390E0089583EE90E021
:10193000089582EE90E0089580EE90E0089586EE9E
:1019400090E0089585E390E008951F93CF93DF938F
:101950000E94030CEC01C11582E5D80708F03FC0D6
:10196000C11580E5D80708F0BCC0C83ED105C0F459
:10197000C03ED10580F4C53AD10548F4C430D10544
:1019800050F4C130D10539F0D0E0C0E004C0CD3C06
:10199000D105D0F3D065CE01DF91CF911F9108958D
:1019A000C11580E4D80708F06BC0C11580E2D807E4
:1019B00008F0B1C0C11581E0D80730F38D2F0E9427
:1019C000C00B182FCE0199270E94030CC12FD0E025
:1019D000DC2FCC27CC27DF71C82BD92BDCCFC0362E
:1019E00082E5D807F0F4C03482E5D80708F059C082
:1019F000C03282E5D80708F04DC02C2F26952695D9
:101A000080E2289F900111248C2F8370C1E0D0E0E8
:101A100002C0CC0FDD1F8A95E2F7C22BD32BDD6805
:101A2000BACFC03C82E5D807F8F4C03A82E5D807BF
:101A300008F04CC0C03882E5D80708F0A5CF2C2F9D
:101A400026952695277080E2289F900111248C2FDF
:101A50008370C1E0D0E002C0CC0FDD1F8A95E2F7B1
:101A6000C22BD32BDA6897CFC03E82E5D80708F0A7
:101A70008BCFDC2FCC27CC27DF71C06FD06A8BCF08
:101A8000CE0199270E94030CCC27DF70C82BD92BDD
:101A9000D06A81CFCF71D0E0DC2FCC27C16FD06A64
:101AA0007ACF2C2F26952695277080E2289F9001CB
:101AB00011248C2F8370C1E0D0E002C0CC0FDD1F59
:101AC0008A95E2F7C22BD32BDC6865CF8C2F8F7100
:101AD0000E94C00BC82FD0E0DC2FCC27CC27DF71B1
:101AE0005ACF8C2F8F710E94C00B55E0D695C795A9
:101AF0005A95E1F7CF70D0E0DC2FCC27282F30E0CB
:101B000084FF05C044E0220F331F4A95E1F7C22B42
:101B1000D32BD06940CF8D2F8F710E94C00B182F0F
:101B2000CE0199270E94030CC12FD0E0DC2FCC27D7
:101B3000CC27DF71C82BD92BD0622DCF2091320357
:101B40009091010356E0291302C080E0089530E02F
:101B5000529FF001539FF00D1124EE5FFC4F7181F5
:101B6000761306C07081781303C07281741304C0A9
:101B70002F5F3F4F2770E7CF81E0089580913203B8
:101B800090910103981301C008958F5F8770FACF79
:101B90009A3080F5883070F548E0949F90011124C8
:101BA000820F932F911D682F677023E0969587957C
:101BB0002A95E1F7FC01EE0FFF1FE80FF91FE35232
:101BC000FD4F50E040E080E0219130E0062E02C061
:101BD000369527950A94E2F721703327042E01C029
:101BE000220F0A94EAF7822B4F5F5F4F4330510573
:101BF00059F7089580E008959A3098F5883088F56F
:101C000048E0949F90011124820F932F911D282F5B
:101C1000277041E001C0440F2A95EAF723E096952A
:101C200087952A95E1F7FC01EE0FFF1FE80FF91FDA
:101C3000E352FD4F90E080E070E05191DF01119799
:101C40009B01082E02C0369527950A94E2F7217071
:101C500021952527242325272C9301968330910550
:101C600061F708958093D90308959091D90321E0F5
:101C700030E0F90101C0EE0F8A95EAF7D90102C000
:101C8000AA0FBB1F6A95E2F7EA2B01C0220F4A9503
:101C9000EAF7892F8E23E81305C0292B822F0E9493
:101CA000320E089520952923F9CF21E030E001C0BC
:101CB000220F8A95EAF720958091D90382230E940A
:101CC000320E089521E030E001C0220F8A95EAF734
:101CD0008091D903822B0E94320E08958093DA03FB
:101CE0000895982F92959F7011F0892F94E0282FD6
:101CF0002695269511F09E5F822F869509F09F5FAD
:101D0000892F0895CF93DF93C0917807D0917907F9
:101D10008A30C1F420916F05CE0188579540622F1B
:101D200070E00E943C30281B822F66E00E948730C2
:101D3000C82FC15018F4DF91CF91089580E20E941E
:101D4000820EF7CF8D30E9F4C857D54020916F054A
:101D5000622F70E0CE010E943C30281B822F9E0132
:101D6000280F311D2115324018F080E0D0E0C0E08E
:101D7000C80FD11DC858DA4FD0937907C0937807A0
:101D8000DACF96E0FE01A0E7B5E001900D929A95BA
:101D9000E1F7803E08F458C086E0FE0111928A9572
:101DA000E9F7C0917807D091790746E050E0BE018D
:101DB00080E795E00E9420319E0128573540892B0D
:101DC00041F1C90145E0969587954A95E1F741E0D3
:101DD00050E0BA0102C0660F771F8A95E2F7CB0187
:101DE0006091760570917705862B972BB9016B5F13
:101DF0007F4FE5E076956795EA95E1F702C0440FDD
:101E0000551F6A95E2F7842B952B90937705809365
:101E100076052A5F3F4F40916F05642F70E0C9013E
:101E20000E943C30481B463010F4240F311D211510
:101E300072E0370710F030E020E028583A4F309336
:101E400079072093780777CFF6E08F9FB0011124B0
:101E50006E5B754F46E050E0CE010E941731A1CF76
:101E60008091580590913B03892B8093D20248E0E2
:101E700050E063E373E082ED92E00E942031892B11
:101E8000A9F088E0E2EDF2E0A3E3B3E001900D9267
:101E90008A95E1F7E0915005F0915105309731F0C6
:101EA0000280F381E02D82ED92E009950895882368
:101EB00041F08095909158058923809358050E94A0
:101EC000300F0895882339F090915805982B9093FE
:101ED00058050E94300F08950F931F93CF93DF93FF
:101EE000EC01FC0101900020E9F78F01015011097C
:101EF000C017D10728F0DF91CF911F910F9108955E
:101F000089910E94820EF4CF2F923F92CF93DF935C
:101F1000E1016A8188819091DB02911104C0909166
:101F2000000191112EC06E5F0E94DB0986E691E0F0
:101F30000E946C0F6A81615088810E94DB0981E0F8
:101F4000809300012091DA0230E02F5F3F4F217033
:101F500033272093DA0281E090E0821B930B969561
:101F6000982F8827979587952091DB0321FF15C02F
:101F7000895A9A4F0E94FB07DF91CF913F902F9093
:101F8000089561500E94DB0986E691E00E946C0F83
:101F90006A8188810E94DB09D5CF2091DC0222234F
:101FA00019F0895A9B4FE6CF2091DC033091DD0375
:101FB0002B3031051CF4895A9C4FDCCF2932310576
:101FC0001CF4895A9D4FD6CF895A9E4FD3CFB0E08B
:101FD000A0E0EDEEFFE00C945A306C017B0164E66A
:101FE00070E088E70E949A2DEC0197FD12C010E086
:101FF00000E0F601E00FF11F849164E670E00E94BA
:10200000062EEC01892B29F40F5F1F4F0E151F05BB
:1020100081F70E947C2ECE01CDB7DEB7E8E00C94AC
:10202000763080914E0590914F05911103C091E05B
:1020300089270895882369F062E070E089E698E0D6
:102040000E94E70F892B19F080914E050895109298
:102050004E0580914E05EBCFCF93C0914E058091F8
:102060004F058823D1F00E94CF09605A75418F4FE8
:102070009F4F60934A0570934B0580934C05909356
:102080004D05C11108C062E070E087E698E00E944B
:10209000E70F892B29F0C0914E058C2FCF91089521
:1020A00081E080934E05F7CF0F931F93CF93DF937B
:1020B0008B01EA0190916505943061F58093E90008
:1020C0008FEF9091E800815095FD06C095ED9A95AF
:1020D000F1F700008111F5CF8091E80085FF1AC06B
:1020E0000E947408811111C08091E80085FD06C02E
:1020F0008091E8008E778093E800F2CFF80181911B
:102100008F018093F100219779F78091E8008E7715
:102110008093E800DF91CF911F910F91089546E0E1
:1021200050E0BC0184E00E9454100895CF93DF93E7
:10213000EC0148E050E0BC0181E00E94541088E0CE
:10214000FE01ABE5B5E001900D928A95E1F7DF91D4
:10215000CF91089581E08093E00080E28093D800E1
:102160001092C9008FE19EE40197F1F700C00000D2
:1021700087E090EBDC0180937A0790937B07A09334
:102180007C07B0937D0788E19CE00FB6F894A89592
:10219000809360000FBE90936000FFCF539A3BB1D5
:1021A000377F2BB128604FB7F8948BE794E0FC01A0
:1021B0005191CF0168E02BB9000000C057FF3BB937
:1021C000550F000000C000C000C03BB900C06A95B8
:1021D00091F7F5E08A349F0751F74FBF8FE594E000
:1021E0000197F1F700C000000895B0E0A0E0EBEF28
:1021F000F0E10C9458307C015B016A018091750319
:1022000001E010E08A3010F40AE010E0C1E0D0E014
:10221000B501C701F6010995811104C021960C177B
:102220001D072CF4CDB7DEB7EAE00C947430CC9FD8
:102230009001CD9F300D300D112490E080E045E3FA
:102240004A95F1F70000019682179307C1F7E0CF96
:1022500080914803811119C088EC90E02091E3003F
:1022600027FD10C0EFE3FCE93197F1F700C0000053
:102270000197A1F782E0809348030E9455081092CD
:10228000650503C081E08093480381E09091480395
:10229000913011F080E0089508950E94281188235C
:1022A00059F0E0915005F0915105309729F00190D7
:1022B000F081E02D0995089580E008950F931F9314
:1022C0000E942811882329F00E94CF091F910F91A5
:1022D00008950E94CF090091760310917703209111
:1022E000780330917903600F711F821F931FEECF27
:1022F000CF93DF93C6EAD2E060E0CE010E94643162
:102300002196C11584E0D807B9F7DF91CF910895E0
:102310001F93CF93DF93122F8430E0F46A30D0F410
:102320004830C0F490E1699FE001112450E0440F6F
:10233000551FC40FD51F90EA899FC00DD11D1124D0
:10234000632FCE0186960E946431612FCE0187965D
:102350000E946431DF91CF911F910895B0E0A0E019
:10236000E4EBF1E10C9459309BE6C92E98E0D92EAC
:10237000D0E0C0E07601B12C1DC021E030E0C230D9
:10238000D1053CF4F801EE0FFF1FEE0DFF1D259166
:102390003491402F6B2D8C2F0E9488110F5F1F4F9F
:1023A0000830110551F780E1E80EF11CB3948AE082
:1023B000B81619F010E000E0E0CF219680EAC80ED0
:1023C000D11CC430D105B1F6CDB7DEB7E9E00C942D
:1023D0007530CF93C82F6FEF811163E282E290E0F6
:1023E0000E9464316FEFC11164E083E290E00E94CB
:1023F00064316FEFC11161E184E290E00E946431C9
:10240000CF91089580E00E94E91160E085E290E0BC
:102410000E9464310E94AE110E94781181E00E94F6
:10242000E91108950F931F93CF93DF93843030F514
:102430006A3020F5483010F520E1629F80011124B8
:1024400050E0440F551F040F151F30EA839F000D05
:10245000111D1124C80186960E944631C82FD0E074
:10246000DC2FCC27C80187960E9446319E01282B7D
:10247000C901DF91CF911F910F91089590E080E005
:10248000F8CF462F7A3040F4683030F4843020F4AE
:10249000672F0E941212089590E080E00895CF9275
:1024A000DF92FF920F931F93CF93DF936C01009104
:1024B000D9038091DA03082BC3E0D0E010E0FC2EB2
:1024C000C8010C2E02C0959587950A94E2F780FD0D
:1024D0000CC02197A0F7F12C8F2DDF91CF911F9188
:1024E0000F91FF90DF90CF900895B6018C2F0E943E
:1024F00041120E94A50C019761F3EECFCF93DF93B9
:10250000EC010E944F12BE010E9441120E94A50CD4
:10251000DF91CF910895FC0183819481892B29F06B
:102520008081918189238F3F51F480E00895843F19
:10253000E1F717C0883EA8F0813FB9F712C080814B
:1025400091810E947E1292959F70963099F358F473
:10255000925F9F70923048F7803F19F040F7883EB5
:1025600020F781E008959A5FF4CF82E290E00E9424
:102570004631833289F483E290E00E944631843010
:1025800059F484E290E00E94463191E0813109F0F3
:1025900090E0892F8170089580E0FCCF8EE090E07C
:1025A0000E94463191E0811101C090E0892F089589
:1025B000FF920F931F93CF93DF93EC01F62E042F1E
:1025C000122F0E94CE1281110FC0C032D1057CF0B3
:1025D000A097FE01EE0FFF1FEC0FFD1FE558FB4F0C
:1025E000F1820083128303C0C032D10594F3CDB7CA
:1025F000DEB7E5E00C94793046E050E06CE170E045
:1026000085E794E00E945431109274040895A5E087
:10261000B0E0EDE0F3E10C945030809043049090F2
:102620004404A0904504B09046040E9428118823D9
:1026300009F43EC0C501B4010E94B3096B017C01DD
:102640000E945E114B015C0180924304909244040D
:10265000A0924504B0924604A0911A04EAE1F4E085
:102660008A2F90E04FEF5FEF60E070E04C195D095A
:102670006E097F09A91325C080931A0480917504FF
:10268000082F0370402E19F0482E469446949091DE
:102690005401913009F43FC0992331F1923009F48B
:1026A0009FC1933009F4A4C12596E2E10C946C30EB
:1026B0000E945E116B017C01C818D908EA08FB086A
:1026C000BFCF218D328D2901712C612C4415550508
:1026D0006605770520F481509F5F3296CBCF2C0D95
:1026E0003D1D328F218FF8CF1092510180927004DE
:1026F00090927104A0927204B092730489E2EAE1AC
:10270000F4E0A7E4B4E001900D928A95E1F781E04E
:1027100080935401C9CF90915001491225C0837014
:1027200020914F0130E091E08217130609F490E008
:10273000892F81708093530180917A049091520186
:10274000981739F08093520140E060E080E00E94E9
:10275000A20A11E04116A1F0442041F022E0421605
:1027600009F45FC080E035C081E0E3CF8091530180
:10277000882379F140E060E080E00E94A20AF2CF75
:10278000109151018EE0189F102D11240EE0010FC1
:10279000063408F005E40E94CE12882309F44DC1E6
:1027A000013208F000E26091760470917704809124
:1027B00078040E94D10AF62EE72ED82EA12EB12C35
:1027C000A016C8F00E94CE12882339F181E00032B1
:1027D00048F6909151019F5F90935101811164CF10
:1027E00082E0809354018091530181115DCF4110AB
:1027F0005BCF83E08DCFF501E558FD4F808190914F
:102800005201892331F02D2D4F2D6E2DC5010E94CF
:10281000D8123FEFA31AB30AD3CF81E00534C8F230
:10282000A1CFA090470421E00A2D021B08F400E08C
:10283000C02E109151018EE0189F102D11245EE0E2
:10284000D52ED10E25E42D1510F445E4D42E0E948A
:10285000CE12882309F4F6C030E23D1510F430E2C0
:10286000D32E812F90E09C838B83880F991FFC01CE
:10287000EF50FE4F3F018C2D90E08C010F5F1F4FFA
:102880001A830983312C212C8B818D1558F00E94DD
:10289000CE12882309F49EC081E09FE19D1508F0C7
:1028A00098CF60CFEB81FC81E558FD4F80819091FE
:1028B00052018923E9F060917604709177042981AF
:1028C0003A81295B3B4F4901BC2C80E0BA14D0F01F
:1028D00020917804182F129F112D1124812F0E940E
:1028E000D10A462F282F672F8B819C810E94D812F6
:1028F0002B813C812F5F3F4F3C832B8332E0630E63
:10290000711CC2CFF40191914F01F3014081491B29
:10291000550B2181F4019781291B330B449FD00172
:10292000459FB00DB00D1124229FF001239FF00DA3
:10293000F00D1124EA0FFB1FE230F105E4F4ED8302
:1029400090917904192F01E0100F08F41FEFF401A2
:10295000EE0FFF1FE754F4400588F689E02D710162
:10296000E19FE12CF19FE00CF11C11240D810E94EC
:10297000BB0AB394ABCF9FEFE13E0EE1F00744F406
:10298000DF0105E0B695A7950A95E1F798E09A0F63
:1029900055245394E52CE90EFF24FF1CD701B5956F
:1029A000A795AD83AA9F7001AB9FF00CF00C11248A
:1029B000EE15FF0538F49FEF9A0F951558F75A94C6
:1029C0005D82BECF0D810F3F09F4BACF55245394D9
:1029D0005A0EF3CF81E0E4E4ED1508F0FACEC2CE52
:1029E00040925001837080934F010E94CE1001CF1E
:1029F0008091740481110E94FC12C0907004D090E8
:102A00007104E0907204F09073040E9428118823EE
:102A100069F0C701B6010E94B309603171058105F3
:102A2000910508F441CE109254013ECE0E945E11F1
:102A30006C197D098E099F09F0CF103208F0B3CED2
:102A400010E2B1CE103208F00CCF10E20ACFE5E769
:102A5000F4E085E080838091560190915701A09128
:102A6000580181839283A3838FE784838FEF8583CB
:102A70000E94FC12089590E080E00E944E31873E53
:102A80009E4F19F40E94B512089580E00895B0E0B9
:102A9000A0E0EDE4F5E10C945A30C82F7B01D42F6F
:102AA0006901FB0160817181828193810E94B30978
:102AB000643671058105910510F4DD2359F10C2E62
:102AC000000CDD0BFE0183E0EE0FFF1F8A95E1F79E
:102AD000EF5FFE4F818192818E5A9C4F408150E082
:102AE0000417150708F4A801B6010E942D31CE0184
:102AF0000E94C62FC82F882339F00E94CF09F70102
:102B000060837183828393838C2FCDB7DEB7E8E037
:102B10000C947630C1E0F8CFA7E0B0E0E2E9F5E14F
:102B20000C945E3086E0E5E7F4E0DE01119601905A
:102B30000D928A95E1F71F8247E050E06EE573E061
:102B4000CE0101960E94203141E0892B09F440E03A
:102B500007E010E09E012F5F3F4F61E773E085E0E3
:102B60000E9447152796E4E00C947A300F931F9348
:102B700041E090915C038091D903981301C040E03B
:102B800001E010E029ED33E06DE673E083E00E94A0
:102B90004715882389F041E090915D038091DA0325
:102BA000981301C040E001E010E02AED33E069E64F
:102BB00073E084E00E9447151F910F910895A4E0EF
:102BC000B0E0E5EEF5E10C945F3060916503709143
:102BD000660380916703909168030E94B30911E036
:102BE000643671058105910570F10E945E116E5F7A
:102BF0007F4F8F4F9F4F69837A838B839C83809114
:102C00001201909113018E5A9C4F4091110150E096
:102C10004530510510F044E050E0BE016F5F7F4F3A
:102C20000E942D3182E090E00E94C62F182F882349
:102C300051F00E94CF0960936503709366038093FF
:102C4000670390936803812F2496E3E00C947B3014
:102C5000EF92FF921F93CF93DF9300D000D000D06C
:102C6000CDB7DEB77B0190E080E00E94C62F182F21
:102C7000882309F473C04091040150E041155105C7
:102C800011F041E050E060910501709106016E5A2B
:102C90007C4FCE0106960E942D3160914E037091BB
:102CA0004F0380915003909151030E94B309643601
:102CB00071058105910540F483E593E00E943E088B
:102CC0009E81891709F44AC081E090E00E94C62FD6
:102CD000811116C010E085E0E9E4F3E0D70101902E
:102CE0000D928A95E1F7812F26960FB6F894DEBFF4
:102CF0000FBECDBFDF91CF911F91FF90EF90089550
:102D000040910C0150E04630510510F045E050E094
:102D100060910D0170910E016E5A7C4FCE010196AB
:102D20000E942D3183E593E00E943E089E81891325
:102D3000D1CF0E94CF0960934E0370934F038093CD
:102D400050039093510385E0FE013196A9E4B3E06E
:102D500001900D928A95E1F711E0BDCF85E0E3E5A2
:102D6000F3E0DE01119601900D928A95E1F71111C1
:102D7000EACFB1CF67EE7EEF90E080E00E94823133
:102D800060E082E090E00E94643160E083E090E0E7
:102D90000E9464311092DA0360E074E184E090E014
:102DA0000E94823160E086E090E00E9464316FEF23
:102DB00087E090E00E94643140E050E0BA0188E092
:102DC00090E00E94763160E08DE090E00E946431F6
:102DD00040E050E0BA0188E190E00E94763160E086
:102DE00087E190E00E94643140E050E0BA018CE15C
:102DF00090E00E94763170E060E080E290E00E9416
:102E0000823140E050E0BA0188E190E00E947631E2
:102E100080E00E94E9110E94021240E050E0BA01F5
:102E20008FE090E00E94763140E050E0BA0183E10B
:102E300090E00E94763108951F920F920FB60F9284
:102E400011242F933F934F935F936F937F938F93AF
:102E50009F93AF93BF93EF93FF938091E10082FF25
:102E600009C08091E20082FF05C08091E1008B7F64
:102E70008093E1008091DA0080FF24C08091D80027
:102E800080FF20C08091DA008E7F8093DA008091ED
:102E9000D90080FF9DC080E189BD82E189BD09B470
:102EA00000FEFDCF81E0809365058091570581117B
:102EB00009C00E9455080E94F6088091E2008460D3
:102EC0008093E2008091E10080FF17C08091E200D2
:102ED00080FF13C08091E2008E7F8093E20080919A
:102EE000E20080618093E2008091D800806280934C
:102EF000D80019BC85E0809365058091E10084FFCE
:102F00002BC08091E20084FF27C080E189BD82E16F
:102F100089BD89B5982F917080FFFBCF8091D80033
:102F20008F7D8093D8008091E1008F7E8093E100B7
:102F30008091E2008F7E8093E2008091E2008160C8
:102F40008093E20080916605882309F447C084E0FD
:102F500080936505809165058091E10083FF27C01E
:102F60008091E20083FF23C08091E100877F8093FE
:102F7000E10082E080936505109266058091E10092
:102F80008E7F8093E1008091E2008E7F8093E2004B
:102F90008091E20080618093E20042E060E080E0A6
:102FA0000E94C4088091F00088608093F000FF9137
:102FB000EF91BF91AF919F918F917F916F915F91B1
:102FC0004F913F912F910F900FBE0F901F9018952A
:102FD00019BC109265051092570574CF8091E300DB
:102FE00087FD93E090936505B5CF78941F921FB647
:102FF0001F9211248F939F93AF93BF93809153059A
:1030000090915405A0915505B09156050196A11DCA
:10301000B11D8093530590935405A0935505B0932B
:103020005605BF91AF919F918F911F901FBE1F902A
:1030300018959C014FB7F8948091530590915405D1
:10304000A0915505B09156054FBF821B930B089573
:103050002FB7F8948091530590915405A091550590
:10306000B09156052FBF08950E9428189C01909199
:10307000160480911704982B21F0309313042093A9
:1030800012049091180480911904982B21F0309328
:10309000110420931004E0915005F09151053097F0
:1030A00049F082E0809314040480F581E02D84E1EE
:1030B00094E009950895CF93C6E0E4EDF2E0DF01D6
:1030C0008C2F1D928A95E9F710923B030E94300FD6
:1030D000E4E1F4E0DF011D92CA95E9F710920D04D6
:1030E00010920E0410920F040E943418CF9108958C
:1030F000AAE2B0E0EEE7F8E10C945F3087E695E0F5
:103100002091F100DC012D93CD01B5E08F369B07B6
:10311000B9F780916805833009F472C0B8F4813042
:1031200009F449C0823009F4B5C08091E80083FFFA
:103130008DC280916705909168059A3008F086C22B
:10314000E92FF0E0E657FE4C0C94E8308A3009F4A1
:1031500090C08B3009F471C0893039F780916705D0
:10316000813219F780916B0590916C05009711F0F1
:103170000297D9F68091E800877F8093E8008091DC
:10318000E80082FF38C09091F3008091F20002972E
:1031900031F48091F100813011F0863021F480917A
:1031A000F10080935A058091E8008B778093E800C6
:1031B0000E94A508BACF80916705813A09F0B5CF82
:1031C0008091E800877F8093E80080916B05909163
:1031D0006C05892B61F468E08BE595E070E00E9456
:1031E00051098091E8008B778093E8009ECF60E0E2
:1031F00090E080E0F3CF809165058111C0CF95CF3D
:1032000080916705813A09F090CF80916B0590918C
:103210006C05892B09F089CF8091E800877F809326
:10322000E8008091E80080FFFCCF809155018093F9
:10323000F1008091E8008E77B9CF809167058132E7
:1032400009F073CF80916B0590916C05892B09F083
:103250006CCF8091E800877F8093E8000E94A508EA
:103260008091690580935501109258050E945B1862
:103270005CCF80916705813209F057CF8091E800DB
:10328000877F8093E8000E94A50880916A0580935B
:1032900059054BCF80916705813A09F046CF80915F
:1032A000E800877F8093E8008091E80080FFFCCFF2
:1032B00080915905BCCF803899F0823809F0C6C199
:1032C00080916B058F70873008F0C0C18093E90052
:1032D0008091EB0085FB882780F91092E90006C0F9
:1032E0008091630590916405911182609091E8004E
:1032F000977F9093E8008093F1001092F100809105
:10330000E8008E779FC1882309F48DC1823009F0CF
:103310009DC180916905811190C180916B058F706D
:103320002FEF280F263008F091C18093E9002091FB
:10333000EB0020FF82C1933031F48091EB0080627A
:103340008093EB007AC19091EB0090619093EB0039
:1033500021E030E001C0220F8A95EAF72093EA00CD
:103360001092EA008091EB008860EACF81116EC173
:10337000109169051F778091E3008078812B8093FD
:10338000E3008091E800877F8093E8000E94A50811
:103390008091E80080FFFCCF8091E30080688093FB
:1033A000E30082E0111183E0809365054FC18058EE
:1033B000823008F04BC12091690530916A052C3D9F
:1033C000E3E03E07A1F583E08A838AE289834FB771
:1033D000F894DE01139620E03EE051E2E32FF0E0A6
:1033E00050935700E49120FF03C0E295EF703F5FD8
:1033F000EF708E2F90E0EA30C0F0C7968D939D93CA
:103400002F5F243159F74FBF8091E800877F809369
:10341000E8006AE270E0CE0101960E9451098091B5
:10342000E8008B778093E80011C1C096E7CF8091C8
:103430006B0590916C05432F55274330510509F4D6
:103440004AC078F54130510509F47AC08BE590E027
:10345000EBEAF9E04230510509F0F8C02091E800AC
:10346000277F2093E80020916D0530916E0582172B
:10347000930708F49C0140E02115310509F065C06F
:10348000411163C08091E80082FDC9CF809165053C
:10349000882329F2853019F28091E80083FFF2CF6A
:1034A000BECF4132510509F43CC04232510509F00A
:1034B000CDC08330910508F0C9C0FC01EE0FFF1F9D
:1034C000ED53FD4F0190F081E02D80549D4FDC01C4
:1034D0008C9190E01AC0332721303105D1F02115AD
:1034E000310561F02230310509F0B0C0E8E1FAE0C1
:1034F000E4918E2F90E0E8E1FAE007C0EEE3FAE015
:10350000E4918E2F90E0EEE3FAE0009709F49EC07C
:10351000A5CFE6E2FAE0E4918E2F90E0E6E2FAE051
:10352000F4CF8330910508F091C0880F991FFC01FA
:10353000E753FD4F0190F081E02D89E090E08ECFC0
:1035400082E190E0E6E0FAE089CF8091650588238A
:1035500009F465CF853009F462CF8091E80083FDDE
:103560005ECF8091E80082FD8DCF8091E80080FFE2
:1035700083CF9091F3008091F2002115310519F06D
:103580008830910550F041E0089709F040E08091C3
:10359000E8008E778093E8006FCF44914093F1006C
:1035A0003196215031090196E8CF803809F04EC09C
:1035B0008091E800877F8093E80080916605809382
:1035C000F1009DCE811142C0109169051230F0F5D5
:1035D0008091E800877F8093E800109366050E9441
:1035E000A508112311F084E005C08091E30087FD58
:1035F000FACF81E08093650542E061EC81E00E94B2
:10360000C40842E261EC84E00E94C40842E261EC3A
:1036100082E00E94C40842E260EC83E00E94C40899
:103620008091650513C080916905813079F481E04E
:10363000933009F080E0809364051092E900809156
:10364000E800877F8093E8000E94A5088091E80049
:1036500083FF0AC08091E800877F8093E800809113
:10366000EB0080628093EB00AA96E3E00C947B3041
:103670001F920F920FB60F9211242F933F934F93E7
:103680005F936F937F938F939F93AF93BF93CF93EA
:10369000DF93EF93FF93D091E900DF708091EC000E
:1036A000C82FC17080FDC0E81092E9008091F00041
:1036B000877F8093F00078940E9478181092E90038
:1036C0008091F00088608093F000CD2BCF70C09384
:1036D000E900FF91EF91DF91CF91BF91AF919F9161
:1036E0008F917F916F915F914F913F912F910F90AB
:1036F0000FBE0F901F901895109258050E945B18EE
:103700002FEF84E39CE0215080409040E1F700C01F
:10371000000088E19CE00FB6F894A89580936000C3
:103720000FBE90936000FFCF662309F45DC08D3C0F
:1037300041F40E94870B8195809317040E943418EE
:1037400008958E3C19F40E94870BF6CF8F3C31F41C
:103750000E94870B819580931604F0CF803D19F469
:103760000E94870BF8CF893D29F40E94650B809356
:103770001804E4CF8A3D21F40E94650B8195F7CFB0
:103780008B3D31F40E94650B819580931904D6CF4F
:103790008C3D19F40E94650BF8CF9FE2980F98308A
:1037A00070F4815D990B21E030E001C0220F8A9511
:1037B000EAF780911504822B80931504BFCF8D3DCD
:1037C00031F480910F04816080930F04B7CF8E3D58
:1037D00021F480910F048260F7CF8F3D09F0AECFC6
:1037E00080910F048460F0CF409116048D3C59F411
:1037F0008091170487FF0DC01092170441110BC070
:1038000010920D0408C08E3C81F4809117041816A4
:103810009CF3442381F08091180490911904892B22
:1038200009F08CCF10920E0489CF8F3C49F447FFEA
:10383000F0CF10921604809117048111ECCFE0CFE5
:10384000803D19F41416ACF3E4CF90911804893D2F
:1038500029F41916F4F610921804DBCF8A3D19F4F6
:1038600097FFD7CFF8CF909119048B3D29F497FF9C
:10387000D0CF10921904CDCF8C3D19F41916CCF38A
:10388000C8CF9FE2980F983090F4815D990B21E0AA
:1038900030E0B90102C0660F771F8A95E2F7CB01CD
:1038A000809590911504892380931504B2CF8D3DA6
:1038B00031F480910F048E7F80930F04AACF8E3D48
:1038C00021F480910F048D7FF7CF8F3D09F0A1CFB8
:1038D00080910F048B7FF0CF882379F19CEF980FB4
:1038E000913A78F4E4EDF2E09191891303C0DF019D
:1038F00011971C9242E0EA3DF407B1F70E94300FA5
:10390000089590E2980F983088F4877021E030E0B5
:10391000A90102C0440F551F8A95E2F7CA0180959C
:1039200090915805892380935805E8CF93E3980F29
:10393000933118F460E00E94941B08950F931F9335
:10394000CF93C82F882341F18CEF8C0F813AB0F5CB
:1039500004ED12E08AED92E0F8012191C21701F125
:103960008E179F07D1F7EFEF80E0D8019D918D0171
:10397000C91781F0EF3F19F4911101C0E82F8F5F53
:10398000863099F7EF3F31F00E2E000CFF0BEE5210
:10399000FD4FC2830E94300FCF911F910F91089568
:1039A000E4EDF2E02191C21303C0DF0111971C92F4
:1039B0008E179F07B9F70E94300FD5CF80E28C0F8A
:1039C000883068F4C77021E030E001C0220FCA954A
:1039D000EAF780915805822B80935805DBCF83E36B
:1039E0008C0F8331C8F661E08C2F0E94941BD4CFDA
:1039F0001F93CF93DF93182FEB010E949E1C2097FB
:103A000039F4812F0E946C1CDF91CF911F91089592
:103A10008FE99FE00197F1F700C000002197EFCFF9
:103A2000A8E0B0E0E6E1FDE10C9454306C01DC016B
:103A300013968D919C911497892B39F08C91119646
:103A40009C9189238F3F09F091C32896EEE00C9456
:103A500070300E944F12182F682F89819A810E941E
:103A6000FC0D69817A81812F0E9441128C01F6013F
:103A70008281882309F499C3C8019A9581159F44CE
:103A800008F07FC0C80199279C01245031092432D5
:103A9000310518F08B970E9780F4E0919903F0E0D0
:103AA000EE0FFF1FE256FC4F808191818F3F2FE781
:103AB000920719F0019691838083C8019757803847
:103AC000910508F081C3003108F0BFCF8FEF93E07C
:103AD0000E9446318111B9CF96EAE92E92E0F92E83
:103AE000011158C0FE01339686E0DF011D928A95D0
:103AF000E9F78AE0682E87010F5F1F4FC7010E9418
:103B0000463189831A82882309F49FCF813009F0D6
:103B100077C06701B2E0CB0ED11CC8010E944631CC
:103B20008A83882309F491CF9FEF980F933008F090
:103B300040C0E3E0EE0EF11CC6010E9446318B83CB
:103B4000882309F482CF1C828E010F5F1F4FD8019A
:103B50002C91222381F2213009F08CC011969C9186
:103B6000119712968C91913009F04CC00E5F1F4F47
:103B700070E060E0893311F460E570E00E94F81CA9
:103B800047C090E080E00F3F110511F008F07CCFB6
:103B9000C8017ACFE11434E0F30609F456CFC70127
:103BA0000E944631811101C001504FEFE41AF40A1E
:103BB00097CF7601843041F602E010E07601FFEF06
:103BC000EF1AFF0AC6010E944631E1E0F0E0EC0F77
:103BD000FD1FE00FF11F8083882309F436CF8C3757
:103BE00041F4E2E0F0E0EC0FFD1FE00FF11F108266
:103BF000ABCF0F5F1F4F670107301105F9F625CFD7
:103C00007801A2CF923039F40E5F1F4F0E949E1CA4
:103C10000F5F1F4F9CCF933029F40E5F1F4F0E9400
:103C20006C1CF6CF943019F00F5F1F4FF1CF0E5F71
:103C30001F4F30E020E0B8016F5F7F4FF8014181F6
:103C40008053990B8A30910550F02150310900F3CF
:103C50008FE99FE00197F1F700C00000F6CF629E68
:103C6000F001639EF00D11249C012E0F3F1F842F45
:103C70008B01E1CFE22FF0E0E957F94F7490822FEA
:103C800086958695869590E0FC01E958F94FC49099
:103C90002770D12C022E02C0D594C7940A94E2F763
:103CA000A1E0CA22DD24FC01E959F94FA490B12C0E
:103CB000022E02C0B594A7940A94E2F7B1E0AB22B9
:103CC000BB24FC01E95AF94F8490912C02C09594D1
:103CD00087942A95E2F7E1E08E229924C114D10459
:103CE00019F081EE0E949E1CA114B10419F086EE19
:103CF0000E949E1CF9E370E060E07F1202C060E564
:103D000070E0872D0E94F81CA114B10419F086EE12
:103D10000E946C1CC114D10419F081EE0E946C1C2D
:103D20008114910409F474CF70E060E08CE226CF36
:103D300081E08093DC020E94CF096093D1037093ED
:103D4000D2038093D3039093D403D60112969C910F
:103D500091111FC2809158058272F801E052F84714
:103D6000E531F10508F04EC0EC56FE4C0C94E830FD
:103D70001092DC02E0CF8091750491E08927809356
:103D800075041092540180917404816080937404CE
:103D90005CCE4BE85AE066E97AE00E94F20955CE23
:103DA00046E95AE06BE87AE0F8CF4CE55AE067E67E
:103DB0007AE0F3CF47E65AE06CE57AE0EECF40E4F4
:103DC0005AE06EE47AE0E9CF4EE45AE060E47AE04B
:103DD000E4CF44E25AE062E37AE0DFCF42E35AE024
:103DE00064E27AE0DACF48EF59E066E07AE0D5CFD6
:103DF00046E05AE068EF79E0D0CF61E081E00E94D0
:103E0000720A23CE0737BCE71B07B1F10837ECE78E
:103E10001E07B1F1D6010D911C91992309F455C0EB
:103E2000C8010E944F12F82E682FC8010E94FC0D95
:103E3000B8018F2D0E9441120E94A50C182FB82E98
:103E4000F60162813581232F22952F70892F82956B
:103E50008F70E82EF12C8C3008F06FC0F701E75519
:103E6000FE4C0C94E83081E00E94620E43E062E078
:103E700081E00E94350EE9CD81E00E94550EF6CF1B
:103E800082E0FBCF0130FCE71F07E9F003302CE7AD
:103E9000120799F001151C4709F0BCCF1092580584
:103EA0000E945B184FEF84E39CE0415080409040BB
:103EB000E1F700C000000E94AA106FEF7FEF90E0D2
:103EC00080E00E9482310E947C1BC8010E94C80DC4
:103ED000F82EAECF092F0F70907F11F00295007F62
:103EE000812F6623C9F0002369F090E2910F98308A
:103EF00010F011110BC080915805082B0093580544
:103F00000E94300F812F0E949E1C17C080913B039E
:103F1000082B00933B03F4CF0E946C1C002369F034
:103F20000095105E183010F0B11012C08091580545
:103F30000823009358050E94300F38E0E31AF10877
:103F400044E0E416F10408F080CD0E944D117DCDCF
:103F500080913B03082300933B03EDCF892F8F70A3
:103F6000907F903211F08295807FF1E0BF120CC0FB
:103F7000662329F0263008F70E94620FDECF253035
:103F8000E0F60E94570FD9CF662349F02223A1F310
:103F900030FFB8CF3F70D60115963C93EDCF22236A
:103FA00081F3193349F4BFEFE7EEF3E0B150E0409D
:103FB000F040E1F700C00000812F0E946C1CBDCFD3
:103FC000812F0E94941BB9CF892F8370A1F56111B5
:103FD000B4CF812F829586958770880F880F412FE7
:103FE0004F70082E01C0440F0A94EAF7212F207168
:103FF00014FF07C02FE030E001C0220F8A95EAF7D6
:104000002095969596959370923081F0822F842B0F
:10401000933030F48091DA03913029F0242B8223FD
:104020000E946E0E8ACF842B822BFACF242B809194
:10403000DA038227F5CF8695662311F0892F8170E8
:10404000882309F47ACF812F829586958770880F0F
:10405000880F412F4F70082E01C0440F0A94EAF7D1
:10406000212F207114FF07C02FE030E001C0220F84
:104070008A95EAF72095969596959370923081F0FF
:10408000822F842B933030F48091D903913029F022
:10409000242B82230E94320E50CF842B822BFACF06
:1040A000242B8091D9038227F5CF092F0F70662327
:1040B00029F0802F0E94620E812F5ECF812F0E94F7
:1040C000570F802F0E94550E38CF812F31EF1317D5
:1040D00089F1311750F040EF1417B9F06623B1F1B0
:1040E000211110CF892F8F7129C0A2EF1A1749F122
:1040F000B3EF1B13F3CF80E0662361F29F7181E081
:1041000001C0880F9A95EAF7C5CF662379F025306C
:1041100008F013CF292F2F7181E090E001C0880FA4
:104120002A95EAF79091D9038927B4CF263008F071
:1041300004CFF0CF892F8F71662321F20E94620E87
:10414000FCCE892F8F716623C9F3BCCF222359F08F
:10415000893309F031CFEFEFF7EE23E0E150F04083
:104160002040E1F727CF892F8F71ACCF85E0F60192
:10417000DE01119601900D928A95E1F7D601129613
:104180002C9189819A81211164CC0E94C80D182F2D
:1041900068CC0737BCE71B0709F465CE0837ECE7A6
:1041A0001E0709F06FCE82E05FCE003E110509F4D4
:1041B000DFCD043E110509F4DBCD0C32110509F009
:1041C000BACD1092DB02B7CD003E110509F4B0CD97
:1041D000043E110509F4ACCD0C32110509F0ABCD4C
:1041E00081E08093DB0210920001A5CD1F93CF9355
:1041F000DF9380910003807F09F04BC08091FD0226
:10420000882309F446C080913203C0910103409194
:10421000FB025091FC026091FE027091FF02D42FCC
:10422000D52316E0C817A9F190E061157105A9F131
:10423000DF3F99F1189FF001199FF00D1124DF0164
:10424000AE5FBC4F11962C911197251326C02C916F
:10425000241323C012962C91129721111EC013967D
:104260002D913C91261B370B283C3105B0F48091F1
:1042700000038F70806180930003E95FFC4F8081B1
:104280008F70806180838BEF92E00E94101D0E94EE
:10429000BE0DDF91CF911F91089501968770C2CF17
:1042A000A1E1B0E0E6E5F1E20C9456308C0185E046
:1042B000F801DE011D9601900D928A95E1F7F80153
:1042C000E2808BEF882E82E0982E4091FE02509182
:1042D000FF024115510509F430C19091FB02209174
:1042E000FC02892F82238F3F09F427C1D080C1802F
:1042F000A380B480F090FD02B501641B750BFF2014
:1043000009F4E7C080910003382F307F683C7105C5
:1043100008F0ABC0311178C0FE2C2C1114C09D11D7
:1043200012C0E11010C08F70806180930003C4013F
:104330000E94101D80910003F80185838F2D6196E6
:10434000ECE00C947230A114B104C9F18D2D8C21D4
:104350008F3FA9F181E08E2580FF05C04E2D6C2D89
:104360008D2D0E949E0DA114B10459F18D2D8C212B
:104370008F3F39F181E08E25F82FF170BF2E80FF3D
:1043800039C04E2D6C2D8D2D0E949E0DA82E8111B1
:1043900031C0DD86CE868D859E850E947E12292FB6
:1043A00022952F70243078F49F702230A8F0992342
:1043B000B9F0F8019581907F99F4FA2CBFCF80E095
:1043C000CBCF80E0D9CF2A5F2F70223068F0C801B0
:1043D0000E94101DAB2CF1CF992311F0882369F3B3
:1043E000805E883050F3F3CF803F38F3815F8330B5
:1043F00070F7E3CFEE2009F4A1CF80910003816034
:1044000080930003F12C9ACF2C1105C09D1103C09D
:10441000EE2009F477C0C8010E948B12882309F1AD
:10442000EE20F9F080910003803270F02091FB02C1
:104430003091FC0238872F831986BB86AA868C8729
:10444000CE0107960E94101D86E0F801ABEFB2E0A6
:1044500001900D928A95E1F70E94F620FF24F394D3
:104460006DCFC8010E94101DF9CF31110AC08BEF2A
:1044700092E00E94101D86E0F40111928A95E9F7FE
:10448000C1CF2C110EC09D110CC0E1100AC0858354
:10449000C8010E94101D86E0F40111928A95E9F787
:1044A0004DCFC8010E948B128823D9F2EE20C9F2A9
:1044B00080910003803240F22091FB023091FC0297
:1044C0003A8329831B82BD82AC828E83CE01019602
:1044D000B9CF683C7105F8F6FE2CEE2011F22C11D4
:1044E0001EC09D111CC08091000380FD0FC0982F3D
:1044F000907F61F08583903F31F0982F907F905F9F
:104500008F70892B8583C8010E94101D86E0F801F9
:10451000ABEFB2E001900D928A95E1F70FCFC801A1
:104520000E948B12811190CF809100038160809353
:104530000003C8010E94101D01CFEE2009F491CFA5
:10454000C8010E948B12F82E882309F48ACF86E0D6
:10455000F801ABEFB2E001900D928A95E1F78091FE
:10456000FB029091FC020E947E120E94F620E6CE91
:10457000A7E1B0E0EEEBF2E20C945F304B8B5C8B8A
:104580006D8B7E8B8F8B611110923B031A8A198A77
:1045900085E0FE017396DE011D9601900D928A95CD
:1045A000E1F786E0FE013D96DE01179601900D923F
:1045B0008A95E1F7CE0107960E945021882359F091
:1045C00016E08091320390910103891345C06796EC
:1045D000E3E00C947B3086E0FE013796DE01119615
:1045E00001900D928A95E1F78A859B85892B41F38D
:1045F0008F81988589238F3F19F32091010330E043
:10460000C90101968770992740913203481719060E
:1046100081F4109258050E945B18109201031092C9
:10462000320386E0EBEFF2E0DF011D928A95E9F7B5
:10463000C7CF96E0929FD001939FB00D1124AE5F3B
:10464000BC4FFE01319601900D929A95E1F780934F
:1046500001030E94BE0DB4CF819FC00111248E5F63
:104660009C4F0E945021882309F4B1CF80913203DE
:1046700090E001968770992780933203A2CFAFE034
:10468000B0E0E5E4F3E20C9455308E010F5F1F4F6C
:104690008AE0D8011D928A95E9F789E3C82E81E066
:1046A000D82EF12CE12CAA24A394B12C29E3822E3C
:1046B00021E0922EF60181916F018F3F09F442C0F3
:1046C000F894E82FE295EF70F0E021A18F70A5013A
:1046D00002C0440F551F8A95E2F7CA01922F982B0A
:1046E00091A392A18095892382A3789400C0E1E3ED
:1046F000F1E0712C31E021912F3F09F46BC0A22F22
:10470000A295AF70B0E090968C9190E02F7002C0AF
:10471000959587952A95E2F780FD5CC0832F782ACE
:10472000330F8E169F0639F7F601319780818F3F40
:1047300011F00E94A90B50EA5A95F1F7F801EE0D1D
:10474000FF1D70828FEFE81AF80AA5E0EA16F1045F
:1047500009F0B0CF4AE050E0B8018AE793E00E9448
:104760002031009741F02AE0F801AAE7B3E0019078
:104770000D922A95E1F700918503892B69F181E07B
:10478000809340030E94281890933F0380933E0338
:1047900080913E0390913F030E941918059700F104
:1047A00010E00D5F1B4F45E050E06AE773E0C80181
:1047B0000E942031D12C892B51F085E0EAE7F3E00B
:1047C000D80101900D928A95E1F7DD24D3941092DF
:1047D000400307C080E0A3CF809140038111D8CF70
:1047E000D12C0E942811C82EE0918503882309F45A
:1047F0007FC07E01BBE0EB0EF11C85E0D7011D926E
:104800008A95E9F70E2F10E00D5F1B4F809175031D
:104810008A30D8F548E256E1B701C8010E94F51088
:10482000882309F454C04FED55E1B701C8010E9437
:10483000F510882309F44BC046EB55E1B701C801D8
:104840000E94F510882309F442C04CE855E1B701F5
:10485000C8010E94F5108823D1F110927503809150
:10486000840390E045E050E0B7018D5F9B4F0E94CC
:10487000203121E020934703892BE1F4C12C8C2DBA
:104880008D292F96EDE00C94713080914103909129
:1048900042030E941918843F914008F0BBCF8091D9
:1048A0004703882359F385E0F70111928A95E9F7C8
:1048B00010924703A0918403B0E0AD5FBB4F85E049
:1048C000FE013B9601900D928A95E1F7D8CF809139
:1048D00075038F3F31F08F5F809375038A3008F442
:1048E000BECF0E9428189093420380934103D7CFF4
:1048F000F0E0ED5FFB4F85E0A3E5B3E001900D92A2
:104900008A95E1F783E593E00E943E088093520385
:104910008090580390905903A0905A03B0905B0385
:104920008091430390914403A0914503B0914603C5
:1049300088169906AA06BB06D1F08092430390928E
:104940004403A0924503B09246030E9428118111AE
:104950000EC00E94CF09861A970AA80AB90A809247
:10496000760390927703A0927803B09279038091B6
:104970005C038093D90380915D038093DA0386E022
:10498000EEE5F3E0A5E7B4E09DCFA5E0B0E0EBEC09
:10499000F4E20C945E300E9428188C0180913C0354
:1049A00090913D0380179107A1F08FEF89838A834F
:1049B0001B820E9428188160782F9D838C834981F7
:1049C0005A816B818D810E94B82210933D03009320
:1049D0003C032596E4E00C947A301F921FB61F9298
:1049E00011248F939F93AF93BF93809152058111B0
:1049F00013C08091530590915405A0915505B09135
:104A000056054196A11DB11D809353059093540501
:104A1000A0935505B0935605BF91AF919F918F918B
:104A20001F901FBE1F901895CDB7DEB7AF970FB67A
:104A3000F894DEBF0FBECDBF85B7806885BF85B750
:104A4000806885BF84B7877F84BF0FB6F894A89528
:104A500080916000886180936000109260000FBEBA
:104A600080E890E00FB6F894809361009093610025
:104A70000FBE87EA9BE09093D1028093D0020E9400
:104A800055080E94F6088091E20084608093E2005D
:104A90007894809165058823A1F01091E9001F703A
:104AA0009091EC00892F817090FD80E8182B109276
:104AB000E9008091E80083FD0E9478181F70109330
:104AC000E90082E084BD93E095BD9AEF97BD8093A5
:104AD0006E00109276031092770310927803109272
:104AE00079030E94B512811102C00E9402120E9435
:104AF0003B15811102C00E94BA160E94CE1280930B
:104B00003E010E94281181110E94DA2E80913E01FF
:104B100081112CC085E0E9E5F1E0DE01919601907C
:104B20000D928A95E1F789A1809339018AA180933A
:104B30003A018BA180933B018CA180933C018DA114
:104B400080933D0188E0EEE5F1E0DE0111960190F1
:104B50000D928A95E1F7FE013196A1E3B1E0CE0115
:104B6000099621912D938E179F07D9F780913E01C9
:104B700095E0811190E09093850385E0891B8093F7
:104B8000840309E311E03EE3E32E31E0F32ED80184
:104B90008D918D018F3F11F00E94A90BE016F10657
:104BA000B1F701E311E0F80181918F018F3F11F01E
:104BB0000E94A90BF1E009331F07A9F78AE0E3E09F
:104BC000F4E0DF01282F1D922A95E9F7EAE7F3E0E8
:104BD000DF011D928A95E9F70E943B15811102C001
:104BE0000E94BA1682E090E00E94463180938803CA
:104BF00084E090E00E944E31909387038093860377
:104C00000E943F23BFEFE6E7F1E0B150E040F04003
:104C1000E1F700C000000E943F238091030480FF61
:104C200008C06FEF7FEF90E080E00E9482310E9429
:104C3000AA1083E090E00E9446310E946E0E10920E
:104C400047048FEF9FEF90936104809360049093EB
:104C5000630480936204909365048093640490934A
:104C6000670480936604909369048093680490932A
:104C70006B0480936A0490936D0480936C0490930A
:104C80006F0480936E0410921A04909334048093FE
:104C900033049093360480933504909338048093C2
:104CA000370490933A048093390490933C048093A2
:104CB0003B0490933E0480933D0490934004809382
:104CC0003F0490934204809341040E943B1581115C
:104CD00004C00E94BA160E94271581E080937404D4
:104CE00046E050E06CE170E085E794E00E943631E8
:104CF00010927404809175048C7F11F40E94271522
:104D00000E942811882309F407C183E08093FE03E1
:104D100080FD04C180E880936F050E94942D6DE0B2
:104D200070E08AE197E00E94E70F892BE9F5809116
:104D3000FE0363E070E081FDF3C087E197E00E942D
:104D4000E70F892B89F56DE070E087E097E00E941E
:104D5000E70F892B49F50E94CF09605A75418F4FA3
:104D60009F4F60934A0570934B0580934C05909339
:104D70004D05E8E7F5E080E092E0DF019C011D923F
:104D800021503040E1F7F0937907E09378078FEFF7
:104D90009FEF909377058093760581E080934F0590
:104DA00080934E051092FF030E942811811102C0CA
:104DB0000E94DD2E20E04CE36AEF84E890E00E9440
:104DC000140A60E082E00E94720A8FE391E09093FF
:104DD0005105809350058091650500E112E1853011
:104DE00009F4DCC00E943F2329E8222E23E0322E62
:104DF000E3E0F4E0FEA7EDA7DF01F10191918D91D1
:104E000023E0E339F20709F4D5C09817B9F30E94FB
:104E100028118FA791EA892E91E0992EE12CADA55A
:104E2000BEA5CD90BEA7ADA7F10141901F014C14C6
:104E300009F4DCC14C2434011CA655245394842D60
:104E4000852109F4C6C1FC2CF520FFA5FF23A1F0A4
:104E50002CA52FA3E8A681E0F11001C080E089A76E
:104E60000E9428188160782F9BA78AA74FA158A578
:104E700069A58BA50E94B822FF2041F0D3018C9137
:104E8000F12C8F3F19F0D82EFF24F3940F2D10E052
:104E900080911A04800F912F911D09976CF1A8E061
:104EA000AA2EB12CA01AB10AB801655E7B4FA501EC
:104EB0008BE194E00E942D31B8016D5D7B4FA5011F
:104EC00083E294E00E942D31A501440F551FB801E3
:104ED000660F771F6D5C7B4F83E394E00E942D315A
:104EE000B801655D7B4FA5018BE294E00E942D31F6
:104EF00088E08F1980931A0480911A0490E0AD2DF8
:104F0000B0E09D01220F331F2F503E4FAA0FBB1F51
:104F1000BD016E507E4F57C180E0F8CE80E2FBCEDF
:104F200084E197E00CCF80916505843041F10E94C7
:104F300007130E9411101092520588E190E0A0E43E
:104F40000FB6F894A895809360000FBEA093600000
:104F500083B7817F846083BF83B7816083BF789488
:104F6000889583B78E7F83BF0FB6F894A8958091FC
:104F70006000886180936000109260000FBE809195
:104F80006405882359F00E943F23E3E0F4E0819117
:104F900081119FC5B4E0ED30FB07C9F7809165052D
:104FA000853009F4C0CF109258050E945B180E940A
:104FB0004D1118CF98132BCF0E94C524C12C0E94ED
:104FC0002811882309F4B0C080909E0390909F031D
:104FD000092C000CAA08BB0810914701212F30E0D2
:104FE000EEE9F3E081E090E03296281739070CF003
:104FF00009C160919A0370919B0380919C039091E9
:105000009D030E94B3092B013C0139EC4316510466
:105010006104710414F18091990390E0019669E1B3
:1050200070E00E94933080939903880F991FFC01D0
:10503000E256FC4F11821082812F183108F087E16F
:105040008F5F809347010E94CF0960939A0370930A
:105050009B0380939C0390939D0342E084169104EC
:10506000A104B1040CF4DAC0A0E6BAEEA5019401E3
:105070000E94F5304B015C0188EC189F90011124CF
:10508000032E000C440B550B240D351D461D571DDA
:10509000A5E0B0E00E94F5309B01AC01C501B40170
:1050A0000E94A73049015A0191EF89169104A10489
:1050B000B1042CF050EF852E912CA12CB12C6091D5
:1050C00095037091960380919703909198030E94A5
:1050D000B3092B013C01A5E64A1651046104710491
:1050E00084F00E94CF096093950370939603809398
:1050F0009703909398038091D003809394038092B8
:10510000930310919403A0919303A11BBB0BA301E4
:1051100092010E94003124E630E040E050E00E941D
:10512000C930120F1093D0030E94071380914F05CE
:10513000882309F4F5C080910004909101040E9435
:105140001918C29708F4CCC00E9428189093010443
:105150008093000460E080E00E94DB090E94281137
:10516000882309F41AC28091D00390E09093DD0364
:105170008093DC030E944D118093DB0360E080E0AC
:105180000E94DB098091DA030E94710E882309F4E2
:1051900049C0813009F462C087E791E045C090E0E2
:1051A000FC01E65EFB4FD9015C915183DB015C9110
:1051B0005187D18A880F991FFC01E65EFB4F128E42
:1051C000118E91E0842F41E0480F9F1540F38093AA
:1051D0001A04BCA5BF5FBCA7550CEFEF6E1A7E0A80
:1051E000B83009F02CCEF1013197C082E394F8E099
:1051F0008F0E911C2AE0E21212CE0E94CF09CC241D
:10520000C394DDCE40815181052E000C660B770BD7
:10521000840E951EA61EB71E0196E6CE812C912CFB
:1052200054014DCF8CE691E00E946C0F62E080E06B
:105230000E94DB098DE791E00E946C0F63E080E043
:105240000E94DB098091D9030E94710E882349F0E6
:10525000813009F46DC180E991E005C082E791E0F9
:10526000E3CF83E891E00E946C0FCE01C3969EA32A
:105270008DA31AA219A28CE090E09CA38BA380912D
:10528000DC039091DD03892B09F455C10E942C1099
:105290006091D5037091D6038091D7039091D80384
:1052A0000E94B3096D3271408105910578F00E942A
:1052B000CF096093D5037093D6038093D70390935F
:1052C000D803FE01B1961F010E94840F0E94CF09EE
:1052D0006093D1037093D2038093D3039093D4034C
:1052E0008091760590917705892B09F064C18091B2
:1052F0004E058823A9F00E94CF0900914A0510911C
:105300004B0520914C0530914D05601B710B820BB4
:10531000930B6F3F7F4F8F4F9F4710F40E941110E8
:10532000C1100E942C1086E0E4E1F4E0DE01119649
:1053300001900D928A95E1F71092160410921704CD
:1053400010921804109219048B819C81892B09F406
:105350004AC080911204909113040E9419189C0174
:1053600090910D04992309F4DAC325313105D8F160
:105370009F3F19F09F5F90930D041B81112359F0FB
:105380000E94870B9FEF11160CF491E0899F802DEE
:105390001124809316041C81112359F00E94870B5D
:1053A0009FEF11160CF491E0899F802D11248093BA
:1053B0001704309116043323B1F0209117042223EF
:1053C00091F045EB3403C0011124992309F4D5C1B0
:1053D0009093160445EB240390011124332309F420
:1053E000D0C1309317048D819E81892B09F44AC066
:1053F00080911004909111040E9419189C019091C1
:105400000E04992309F486C321353105D8F19F3F55
:1054100019F09F5F90930E041D81112359F00E9493
:10542000650B9FEF11160CF491E0899F802D1124DC
:10543000809318041E81112359F00E94650B9FEF81
:1054400011160CF491E0899F802D1124809319048A
:10545000309118043323B1F020911904222391F0E4
:1054600045EB3403C0011124992309F48EC19093B4
:10547000180445EB240390011124332309F489C156
:105480003093190446E050E0BE016F5F7F4F84E126
:1054900094E00E942031892B61F480911604909150
:1054A0001704892B90911804892B90911904892B4A
:1054B00011F00E94341886E0FE013196A4E1B4E0B8
:1054C00001900D928A95E1F70E944D11909102048E
:1054D000891721F0809302040E94CF09809165050D
:1054E000843009F078CC83E08093E9008091E80073
:1054F00082FF71CC8091E80090E085FF06C00E9499
:105500007408882309F449C191E08091E8008B7701
:105510008093E800992309F45ECC8981EFEFE80FCE
:10552000E33108F061C1F0E0EB54FE4C0C94E8303C
:105530008AE891E098CE6091D1037091D203809176
:10554000D3039091D4030E94B30961367A4E81054A
:10555000910518F00E941110C3CE6091D50370918F
:10556000D6038091D7039091D8030E94B3096D327E
:1055700071408105910508F4B3CE0E94CF09609374
:10558000D5037093D6038093D7039093D803CE01AD
:1055900081961C010E94840FA3CEE7E2F7E084917C
:1055A0008F01882309F49CCE0E94820E0F5F1F4F4B
:1055B000F8018491F6CF80914F05882309F497CEA6
:1055C0008091FF03811193CE0E942C1020917605CB
:1055D000309177052115310509F489CE80E041E04D
:1055E00050E0082F10E07A01082E02C0EE0CFF1CDC
:1055F0000A94E2F7B9016E217F21672B11F48F5FC6
:10560000F0CF9091FE0390FF9FC0880F880F880F06
:1056100080934A0110924D01895F80934B0183E092
:1056200080934E0124E630E047E050E068E471E00A
:1056300088E70E94342E892B09F059CEA80125E075
:10564000440F551F2A95E1F78091FE0380FF8EC01D
:10565000EEEDF3E080E2DF011D928A95E9F7EDE9D6
:10566000F1E0FEA7EDA709E911E081EA282E81E02B
:10567000382E97E0A92E99249394ADA5BEA52D911F
:10568000BEA7ADA7F80141908F01440E552E511CC5
:10569000C20188589A4F2C01E22FF0E0E252FC4FF1
:1056A00030E020E09A2D921B9CA7B92C022E01C05D
:1056B000BB0C0A94EAF7320190E0D3018D913D01D1
:1056C0008B216CA5691B6770862E062E000C770B4C
:1056D000B82F01C0BB0F8A94EAF78B2E71956195A4
:1056E00071096770772701C086956A95EAF7882A5D
:1056F0008081882A80829F5F9830F9F62F5F3F4F24
:1057000031962830310571F6EDA5FEA52E163F061F
:1057100009F0B3CF04E610E020E230E04EED53E0B4
:1057200060E488E70E94552E892B09F0E0CDE094D3
:10573000F0948091760590917705E822F922F09215
:105740007705E0927605D3CD8295880F8076809399
:105750004A019801369527953695279520934D0156
:10576000815E80934B0110924E015CCF48585A4F96
:1057700004E610E020E230E0D3CF81E0809316040D
:1057800029CE81E0809317042ECE81E08093180407
:1057900070CE81E08093190475CE00E210E0CE0156
:1057A00001967C018091E80085FD0AC08091E800A7
:1057B0008B778093E8000E947408882399F3A4CE25
:1057C0008091F100D7018D937D010150110951F7AE
:1057D0009BCE1A828CE08B831BC08A81823009F4B5
:1057E00090C128F4813061F08FEF898311C083303C
:1057F000C1F08430C9F71B821C821D821E8208C042
:105800000E94CF090E94EE306B837C838D839E8340
:1058100040E250E0BE016F5F7F4F82E00E94541073
:10582000DACA2B81822F90E0FE013496245E8A3002
:10583000910570F7DC01AD5FBB4F3C913193019650
:105840002813F5CFE5CF8A81823059F0853061F693
:105850008091750491E0892780937504109254011A
:10586000D7CF6B817C818D819E810E94EE3085E255
:1058700090E00E946431CCCF4C816B818A810E9480
:1058800012129827892798279E838D83C1CF2D8157
:105890003E813227232732274C816B818A810E94E7
:1058A0008811B6CF0E94AE11B3CF9A81933009F020
:1058B0009BCF883009F441C0893009F46BC08B81DB
:1058C0008230E9F088F4813009F0A2CF4C812FEFCB
:1058D000429F412D11248091760420E0609177044D
:1058E00090E00E94140A94CF833019F1843009F0BB
:1058F0008FCF8C8120E0409178046D81F1CF8C8135
:1059000090917504292F2370811107C011F0109216
:1059100054019C7F909375047BCF211102C010929B
:1059200054019C7F91609093750460E00E94720A1C
:105930006FCF8C81809379046BCF8B818230E1F0C3
:1059400078F4813009F064CF80917804BFEF8B9FA9
:10595000C00111246FEF70E00E943C306C8358CF7F
:105960008330A9F0843009F053CF809176048C8382
:10597000809177048D834CCF80917504982F93701C
:1059800086958695911101C080E08C8341CF8091EE
:105990007904FBCF0E94FC123BCF80E18A8338CF91
:1059A00081E08A838AE517CF0A811B8110270127AE
:1059B0001027FE0131967F01AC809F012A0D311D19
:1059C0005901C8018A559D4FEA14FB0409F420CF00
:1059D0000A3531E0130758F40E944631D701149676
:1059E0008C930F5F1F4FFFEFEF1AFF0AEACFF7010B
:1059F0001482F7CF0A811B811027012710279E01EF
:105A00002F5F3F4F5901EC80E00EF12EF11CC801D1
:105A10008A559D4F0E151F0509F4FACE0A3531E05F
:105A2000130728F4D50114966C910E946431BFEFDE
:105A3000AB1ABB0A0F5F1F4FEACF0E947811E8CE66
:105A400084E0ACCF0A811B81102701271027FE01BB
:105A500031967F01AC809F012A0D311D5901C8018B
:105A60008696EA14FB0409F4D3CE003832E013071B
:105A700058F40E944631D70114968C930F5F1F4F44
:105A8000FFEFEF1AFF0AEBCFF7011482F7CF0A817D
:105A90001B811027012710279E012F5F3F4F5901BF
:105AA000EC80E00EF12EF11CC80186960E151F0544
:105AB00009F4AECE003832E0130728F4D50114966D
:105AC0006C910E946431BFEFAB1ABB0A0F5F1F4F8E
:105AD000EBCF09BD19BD09B400FEFDCF8091D80000
