:100000000C94E8070C9420080C9420080C94602BA6
:100010000C9420080C9420080C9420080C942008C0
:100020000C9420080C9420080C9451160C94601A1F
:100030000C94F5220C9420080C9420080C942008B1
:100040000C9420080C9420080C9420080C94200890
:100050000C9420080C942A170C9420080C94200867
:100060000C9420080C9420080C9420080C94200870
:100070000C9420080C9420080C9420080C94200860
:100080000C9420080C9420080C9420080C94200850
:100090000C9420080C9420080C9420080C94200840
:1000A0000C9420080C9420080C9420080000008078
:1000B0008080000000000000000000000000000040
:1000C0000000000000000000000000007CC711F8E4
:1000D0000E030000000000000000000000C0601CD3
:1000E000060890101008841E30C00000E0371C0085
:1000F000030202010302060C08080C0407010000B9
:10010000000001000800C120100805021F1030E0A7
:1001100080838E889890B0D03020202027283820E7
:10012000C38488B0C08FF10000000000F88C04FC8C
:1001300000000000000000000000000000000000BF
:10014000000000000000000000000000001FF0039D
:100150003EC0808040C080800000000000C0601C65
:10016000060890101008841E30C0000000F80D072B
:100170000000C08000000001030A0C040701000019
:10018000000001000800C12010080502000F38E03F
:10019000808080819F90B0D0302020202728382078
:1001A000C38488B0C08FF100000000000000000090
:1001B00000000000000000000000008070182040D7
:1001C0004040201078C00000000000000000000047
:1001D0000000000000000000809CE7010000000615
:1001E000002000060040A31408000000000000F0FA
:1001F0000CE212090913FE0F0100002020C00000CC
:100200000000000000F01E010000000000000007D8
:100210000C39236644484F702020604040474C789A
:1002200020604E4878677C0000000000000000005D
:100230000000000000000000000000807018204056
:100240004040201078C0000000000000000000C006
:10025000602020C000000000809CE7010000000634
:10026000002000060040A3140800000000001FE169
:1002700000FE03010000F80F0100002020C0000074
:100280000000000000F01E01000000000000000758
:100290000C39236644484F702020604040474C781A
:1002A00020604E4878677C000000000000000000DD
:1002B000000000008080808080000000000000C0FE
:1002C00060800000008040E00000000000C0380CAA
:1002D00002030101010000080931E1010161C201CD
:1002E0000000111181001011038C5020000718101C
:1002F0002040C0983020202040406724BCB0A0B0EF
:1003000050100818101010161D000000000000000A
:1003100000000001010101010101010101000000D3
:1003200000000000000000000000000000000000CD
:10033000000000008080808080000000000000C07D
:1003400060800000008040E00000000000C0380C29
:1003500002030101010000080931E1010161C2014C
:100360000000111181001011038C5020000718307B
:10037000206080183040C040C08087845C702010AE
:1003800010100818101010161D00000000000000CA
:1003900000000001063840433C000000000000005F
:1003A00000000000000000000000000000000080CD
:1003B000808000000000000000000000000000003D
:1003C0000000000000000000000000007CC711F8E1
:1003D0000E030000000000000000000000C0601CD0
:1003E000060890101008841E30C00000E0371C0082
:1003F000030202010302060C08080C0407010000B6
:10040000000001000800C120100805021F1030E0A4
:1004100080838E889890B0D03020202027283820E4
:10042000C38488B0C08FF10000000000F88C04FC89
:1004300000000000000000000000000000000000BC
:10044000000000000000000000000000001FF0039A
:100450003EC0808040C080800000000000C0601C62
:10046000060890101008841E30C0000000F80D0728
:100470000000C08000000001030A0C040701000016
:10048000000001000800C12010080502000F38E03C
:10049000808080819F90B0D0302020202728382075
:1004A000C38488B0C08FF1000000000000C020109D
:1004B000D030000000000000008080403C140408A0
:1004C00090180408B04080000000000000030408F9
:1004D0001011F901010101010100000000000000FC
:1004E00080C848282A100F0000000000000000000B
:1004F00000000001020C1020283702020408102618
:100500002B3204050600000000000000000000007F
:1005100000000000000000000000000000000000DB
:1005200000000000000000000000000000E01010CB
:10053000F00000000000000000808040402C140407
:100540000890180408B04080000000000003040870
:100550001011F9010101010101000000000000007B
:100560000080C048282A100F204A0910000000000F
:1005700000000001020C1020283702020408102697
:100580002B320405060000000000000000000000FF
:10059000000000000000000000000000000000005B
:1005A00000000000000000000000000029001E0004
:1005B0001F00200021002200230000002B00140057
:1005C0001A000800150017001C000000E0000400DD
:1005D0001600070009000A0000000000E1001D00ED
:1005E0001B0006001900050000000000E000215279
:1005F000E200E30022522C00000000002A002E003E
:100600002D002700260025002400000031003000C6
:100610002F00130012000C0018001C0028003400EA
:1006200033000F000E000D000B00000035005200DB
:100630003800370036001000110005004F0051004F
:1006400050002352E7004C002800000001003A004F
:100650003B003C003D003E003F0000000100010067
:100660000100010001000100010000000100010083
:100670000100010001000100000000000100010074
:100680000100010001000100000000000100010064
:100690000100010001000100000000000100450010
:1006A00044004300420041004000000001000100FE
:1006B0000100010001000100010001000100010032
:1006C0000100010001000100010000000100010023
:1006D0000100010001000100010001000100010012
:1006E0000100010001000100010000000100010003
:1006F00001000100010001000100000001000100F3
:1007000001000100010001000100000001000100E2
:1007100001000100010001000000000001000100D3
:1007200001000100010001000000000001000100C3
:1007300001000100010001000000000001000100B3
:1007400001000100010001000100000001000100A2
:10075000010001000100010001000100DA00D300E6
:10076000D90001000100010001000000D200CD000D
:10077000D10001000100010001000100D000CE0005
:10078000CF00010001000100010000000100010094
:100790000100010001000100010000000100010052
:1007A0000100010001000100010000000100010042
:1007B0000100010001000100000000000100010033
:1007C0000100010001000100000000000100010023
:1007D000010001000100010000000000207801007C
:1007E0000100010001000100010000000100010002
:1007F00001000100010001000100010001000100F1
:1008000001000100010001000100000025782778A7
:1008100026780100010001000100010023782878FA
:1008200024780100010001000100000000DA0281CB
:10083000FFD9F1DB20A4A62EAF00A0C000A1C80004
:10084000AED580A81FD300408D1420008081828304
:100850008485868788898A8B8C8D8E8F90919293E0
:1008600094A0A1A2A3A4A5A6A7A8A9AAABACADAE2B
:10087000AFB0B1B2B3B4C0C1C2C3C4C5C6C7C8C9A2
:10088000CACBCCCDCECFD0D1D2D3D4000001010180
:10089000010101010101020202020202020202033D
:1008A000030303030303030404040404040405050D
:1008B00005050506060606060707070707080808D0
:1008C00008090909090A0A0A0B0B0B0C0C0C0D0D7F
:1008D0000D0E0E0E0F0F0F10101111111212131317
:1008E0001414151516161717181819191A1A1B1B90
:1008F0001C1D1D1E1E1F20202122222324242526EC
:1009000026272829292A2B2C2D2D2E2F3031323223
:10091000333435363738393A3B3C3D3E3F4041422F
:10092000434445464748494A4C4D4E4F5051535415
:10093000555658595A5B5D5E5F61626465666869C9
:100940006B6C6D6F7072737577787A7B7D7E808249
:10095000838587888A8C8E8F91939596989A9C9E92
:10096000A0A2A3A5A7A9ABADAFB1B3B5B7BABCBEA2
:10097000C0C2C4C6C9CBCDCFD1D4D6D8DBDDDFE26F
:10098000E4E7E9EBEEF0F3F5F8FAFDFF00AF00AEB7
:1009900005010902A10185020901A100050919014A
:1009A0002908150025019508750181020501093006
:1009B00009311581257F9502750881060938158151
:1009C000257F950175088106050C0A3802158125D9
:1009D0007F950175088106C0C005010906A10105C2
:1009E0000719E029E7150025019508750181029591
:1009F00001750881010507190029FF150026FF0070
:100A000095067508810005081901290595057501E8
:100A10009102950175039101C009023B000201009A
:100A2000A0FA0904000001030101000921110100DD
:100A300001224000070581030800010904010001AB
:100A4000030000000921110100012249000705826D
:100A5000032000011201000200000008544B0100B5
:100A60000100010200010C036D0061003800690003
:100A70006300000016036B0061007A006D006500E2
:100A8000650067006100770061000000040309044D
:100A90000000000000003E5B4F5B3E003E6B4F6B72
:100AA0003E001C3E7C3E1C00183C7E3C18001C573F
:100AB0007D571C001C5E7F5E1C0000183C18000067
:100AC000FFE7C3E7FF00001824180000FFE7DBE79B
:100AD000FF0030483A060E00262979292600407F7B
:100AE00005050700407F05253F005A3CE73C5A00BA
:100AF0007F3E1C1C0800081C1C3E7F0014227F2225
:100B000014005F5F005F5F0006097F017F000066E1
:100B100089956A0060606060600094A2FFA2940002
:100B200008047E04080010207E20100008082A1CFB
:100B30000800081C2A0808001E10101010000C1EC7
:100B40000C1E0C0030383E383000060E3E0E0600FB
:100B500000000000000000005F0000000007000728
:100B60000000147F147F1400242A7F2A120023130C
:100B70000864620036495620500000080703000050
:100B8000001C224100000041221C00002A1C7F1C86
:100B90002A0008083E08080000807030000008089D
:100BA000080808000000606000002010080402002F
:100BB0003E5149453E0000427F400000724949498C
:100BC00046002141494D33001814127F100027457B
:100BD000454539003C4A4949310041211109070086
:100BE000364949493600464949291E00000014008B
:100BF00000000040340000000008142241001414DA
:100C000014141400004122140800020159090600BE
:100C10003E415D594E007C1211127C007F494949CA
:100C200036003E41414122007F4141413E007F4923
:100C3000494941007F09090901003E4141517300C2
:100C40007F0808087F0000417F4100002040413FAD
:100C500001007F08142241007F40404040007F0295
:100C60001C027F007F0408107F003E4141413E008E
:100C70007F09090906003E4151215E007F091929BB
:100C8000460026494949320003017F0103003F40E5
:100C900040403F001F2040201F003F4038403F00A1
:100CA0006314081463000304780403006159494D78
:100CB0004300007F41414100020408102000004130
:100CC00041417F00040201020400404040404000D6
:100CD0000003070800002054547840007F28444453
:100CE0003800384444442800384444287F003854AD
:100CF0005454180000087E0902001824241C7800AF
:100D00007F080404780000447D4000002040403DFE
:100D100000007F102844000000417F4000007C0458
:100D2000780478007C08040478003844444438008F
:100D30007C1824241800182424187C007C0804043F
:100D4000080048545454240004043F4424003C4008
:100D500040207C001C2040201C003C4030403C00D7
:100D60004428102844004C9090907C004464544CDB
:100D700044000008364100000000770000000041F8
:100D8000360800000201020402003C2623263C0033
:100D90000000000000000000000000000000808053
:100DA00080C0C0C0C0E0E0E0E0E06070F0F0F0F0D3
:100DB000F0F0F0F0F0F0E0E0E0A0E0E0E0E0F0F0F3
:100DC000F8F8FCEC7CFEFEFEDECEC6C0C0C0C080E3
:100DD00080808080808080C0C0E0E0F078208080CB
:100DE000C0C0E0F8800000C0FED8F0C0E0C0FC80C9
:100DF0008000000000E08000000000000000000013
:100E00000000000000000000000000000000E0F012
:100E1000F0F0E0ECEEF7F37020007C7C7C7E007E4E
:100E20007E7E7F7F7F000080C0E07E5B4F5BFEC0E8
:100E30000000C000DCD7DEDEDED7DC00C000000032
:100E400000000000000000000000000000000000A2
:100E50000000000000000000000000000001333727
:100E60003C606061E1E1E3E3E7EFEEFEFFFFFFFFDF
:100E7000FFFF7FFBFBFFFFFEFEFFEFFFFFDFDFD982
:100E8000F9FFFFFFCFCFFFF7F7FFFFF7E6BFBFFF89
:100E9000FFEFEFFBFBBFBFFFF7FDFDDFDBFF7F7D5C
:100EA000DFDEFE7F1F7EFCEFFFFF3DFF8F070F1E83
:100EB000073F0EFFF63F0D073E0C0E04081F00060D
:100EC00000380000000000000000000000000F1FBC
:100ED0003F7F7F7F7F7F3F1E0C001F1F1F3F003F14
:100EE0003F3F7F7F7F00307B7F7830202030787FCE
:100EF0003B0003000F7F0F0F0F7F0F000300000068
:100F000000000000000000000000000000000000E1
:100F100000000000000000000000000000000000D1
:100F2000000000000000000008181C1E1E0F0F0F1C
:100F30000707030303030303071F3F3F3E7E6F7F43
:100F40007F777527070707060F1F3F3F7F7F7F7655
:100F500062430303010101030303060606060E0CA8
:100F600008010300000003073E07000F0300000014
:100F7000000000000300000000000000000000006E
:100F80000000000000000000000000000000000061
:100F90000000000000000000000000000000000051
:100FA0000000000000000000000000000000000041
:100FB0000000000000000000000000000000000031
:100FC0000000000000000000000000000000000021
:100FD00011241FBECFEFDAE0DEBFCDBF04B603FEA3
:100FE00018C08091920790919307A0919407B091B7
:100FF00095078730904BA740B04B59F41092920759
:10100000109293071092940710929507E0E0F8E38E
:10101000099512E0A0E0B1E0ECEDFBE502C005901F
:101020000D92AA3DB107D9F727E0AAEDB2E001C0C1
:101030001D92A239B207E1F70E941C230C94C12D26
:101040000C940000CF93DF9340919007509191074B
:10105000405955409A0120583F4F21303240C0F04E
:1010600020E032E0241B350B60918E0570918F05D6
:10107000FC01CA01240F351FC1E0D0E0821793079D
:1010800050F070938F0560938E05DF91CF91089596
:1010900020E830E0E9CF4491DC01A057BA4F5C91E1
:1010A000451781F04C93AC01A5E056954795AA955C
:1010B000E1F7DE0102C0AA0FBB1F4A95E2F7AD01BE
:1010C0006A2B752B01963196D9CFFC01AC014B5F91
:1010D0005F4F8FEF91E32191822728E030E087FF77
:1010E00009C0880F892721503109C9F7E417F5078E
:1010F00091F70895880FF7CFE8EDF0E080818E7FBB
:1011000080831092E2001092DA001092E100A0EECB
:10111000B0E08C9181608C9380818F77808319BC43
:10112000A7EDB0E08C918E7F8C9380818F7E808341
:1011300010926F0508952091E4003091E50095E646
:10114000A9012091EC00822F817020FF06C08091C0
:10115000E80080FF06C080E008952091E80022FDAD
:101160001AC080917D05882389F0853089F08091AF
:10117000EB0085FD0FC02091E4003091E50042179F
:101180005307F9F29150E1F684E0089582E0089562
:1011900083E0089581E0089580917F0587FF13C063
:1011A0008091E80082FF06C08091E8008B778093F1
:1011B000E80004C080917D058111F2CF08958091EF
:1011C0007D058823D9F38091E80080FFF8CF8091D6
:1011D000E8008E77ECCF982F9093E900242F762F9C
:1011E00050E0891731F07091EC002091ED005091A2
:1011F000F00021FD07C09F5F973071F78093E900F1
:1012000081E008953091EB003E7F3093EB00309108
:10121000ED003D7F3093ED003091EB003160309375
:10122000EB007093EC002093ED005093F0002091C0
:10123000EE0027FDE0CF80E00895B0E0A0E0E3E21B
:10124000F9E00C949A2CC8EDD0E088818F7E8883D9
:10125000E7EDF0E080818160808384E082BF81E0FF
:1012600080936F0588818E7F888302EE10E0F801FD
:1012700010821092DA0081EEC82ED12CF601108275
:1012800088818F77888388818068888388818F7D33
:10129000888319BC10927D0510927E0510927C0502
:1012A00010927B0590EEE92EF12CF70180818B7F67
:1012B000808388818160888342E060E080E00E94D2
:1012C000EB08F60180818E7F8083F8018081816048
:1012D0008083808188608083F70180818E7F808316
:1012E000888180618883CDB7DEB7E8E00C94B62CA6
:1012F000FC01809185059091860586179707A0F0DF
:101300006115710529F49091E8009E779093E800AB
:1013100090E06115710551F4911108C08091E800C9
:1013200082FF34C080E00895BC01F2CF80917D053A
:101330008823C1F18530C1F18091E80083FD30C080
:101340008091E80082FDEACF8091E80080FFE1CF44
:101350008091F3002091F200382F6115710519F08A
:101360002830310558F091E02830310509F090E03F
:101370002091E8002E772093E800CBCF81918093D5
:10138000F100615071092F5F3F4FE7CF80917D05DC
:10139000882341F0853041F08091E80083FFBECF83
:1013A00081E0089582E0089583E008950895809192
:1013B00072050895CF92DF92EF92FF922FB7F894C3
:1013C000C0906B05D0906C05E0906D05F0906E05B7
:1013D0002FBFA7019601261B370B480B590BCA01DB
:1013E000B901FF90EF90DF90CF9008952FB7F89458
:1013F00060916B0570916C0580916D0590916E0503
:101400002FBF08952091870536E0839FC0011124E6
:10141000629F800D911D1124811522E0920714F026
:1014200090E080E080579A4F9093910780939007C7
:101430000895FA01811101C0FB0109950895EDE8B5
:10144000F4E0248130E1231B08F420E02483809120
:101450008C04816080938C040895EDE8F4E024818D
:1014600030E1230F08F42FEF248380918C048160F6
:1014700080938C04089590918D04937059F080931B
:101480008E0460938F044093900480918C04822B8F
:1014900080938C040895EDE8F4E0438120E1421B41
:1014A00008F440E0818121E0628190E00E943B0AE3
:1014B0000895EDE8F4E0438120E1420F08F44FEF96
:1014C000818121E0628190E00E943B0A0895EDE86D
:1014D000F4E0628120E1621B08F460E0818121E098
:1014E000438190E00E943B0A0895EDE8F4E06281B8
:1014F00020E1620F08F46FEF818121E0438190E0E9
:101500000E943B0A0895EDE8F4E0818121E04381E7
:1015100062818850990B0E943B0A0895EDE8F4E03F
:10152000818190E021E04381628108960E943B0A1C
:10153000089590918D04937061F081110BC09460B7
:1015400090938D041092540180918C04862B80938B
:101550008C040895833010F09860F2CF880F880FC4
:10156000982BEECF80918D0486958695815009F455
:1015700082E061E00E94990A089580918D04869529
:1015800086958F5F833008F081E061E00E94990AC0
:101590000895FF920F931F93CF93DF93182F062F79
:1015A000F42ED0E0C0E02F2D402F612FCE010E94FD
:1015B00028122196C534D105B1F7CDB7DEB7E5E0E5
:1015C0000C94B92CEF92FF920F939701201B3109D5
:1015D0002F3F310519F010F02FEF30E02095382F14
:1015E000320F08F43FEF832F0F91FF90EF90089593
:1015F000AF92BF92CF92DF92FF920F931F93CF9340
:10160000DF93362F472FE82FF0E0E457F74F7111A3
:101610000FC0E4918E2F2E2F6E2F722FDF91CF915E
:101620001F910F91FF90DF90CF90BF90AF900895E2
:10163000C72FD0E02491F22E022F10E056E0659FD4
:10164000C0011124EFEFF0E0BF010E947C2C832F3A
:1016500090E0880F991F35E5369FD001379FB00D78
:1016600011248A1B9B0B982F990F980F6F01CC1A8E
:10167000DD0AC09ED001C19EB00DD09EB00D1124D8
:101680008B2F499FA0011124452F55276F01C41AA4
:10169000D50AC09EA001C19E500DD09E500D1124B0
:1016A0005F01A91AB108AC9E6001AD9ED00CBC9E32
:1016B000D00C1124CD2CDD24EC19FD09E09FE001B4
:1016C000E19FD00DF09FD00D1124ED2F62307105F8
:1016D000A1F050F46115710509F49ECF61307105D8
:1016E00081F0EB2F852F98CF6430710569F080F081
:1016F0006630710509F490CFF4CFE22F2B2F8D2F98
:101700008BCFE22F252F88CFEB2F822F2D2F84CF49
:101710002B2F8F2DE52F80CF8091270480FD16C0C1
:1017200081FD16C082FD16C0809126048823A1F099
:10173000883280F428E0829FC001112468E270E0C2
:101740000E94D32C862F672B39F0089582E00895EC
:1017500084E0089588E0089581E008958091270449
:1017600080FD14C081FD14C082FD16C08091250447
:10177000882381F08E3180F420E5829FC0011124FE
:101780006EE170E00E94D32C862F089584E10895C5
:1017900088E2089588E0089580E5089580E008953E
:1017A000F894E82FE295EF70F0E031A1282F2F7028
:1017B00081E090E001C0880F2A95EAF7982F909574
:1017C000932391A392A1892B82A378940895909159
:1017D0009C0392FF06C0282F28712830F9F4877FD8
:1017E000846093FF06C0282F28712831F1F4877E8A
:1017F000846120919D0320FF06C0382F3871383056
:10180000D9F4877F816021FF06C0282F28712831F5
:10181000D1F4877E816194FD877E0895282F2471FD
:101820002430F9F68B7F8860DCCF282F2471243197
:1018300001F78B7E8861DDCF382F3171313019F798
:101840008E7F8860E0CF282F2171213121F78E7E95
:101850008861E1CF82389105B9F1B0F48133910507
:1018600009F47DC048F48932910509F46DC08A32CB
:10187000910509F47BC008958533910509F45FC093
:101880008933910509F10895833E9105D9F138F422
:10189000803E910529F1823E910579F10895863EB9
:1018A0009105D9F1873E910509F43EC0843E91052A
:1018B00041F520919D0321FF24C080919C0384FD6C
:1018C00019C087EE90E0089520919C03237009F0E1
:1018D0005AC020919D0323FF14C089E290E008952F
:1018E00020919C0320FD38C030919D0330FF09C03A
:1018F00024FF43C090E080E0089520919C0322FDE6
:10190000F7CF089520919C0322FD3AC030919D03AA
:1019100030FD39C024FFF5CFEDCF20919C0323FF8C
:10192000F0CF24FDE7CFCDCF20919C0323FD2EC027
:1019300030919D0331FFEECF84EE90E00895209129
:101940009C0325FFDECFC9CF20919C0325FD21C03C
:1019500020919D0323FFD5CF89E390E0D2CF209142
:101960009C0326FFCECF8AE290E0089520919C034D
:1019700026FFC7CF81E390E0089583EE90E00895BD
:1019800082EE90E0089580EE90E0089586EE90E07B
:10199000089585E390E008957A30C8F46830B8F48B
:1019A0008430C0F4E72FF0E09AE0899FE00DF11D4C
:1019B000112483E0EE0FFF1F8A95E1F7E60FF11D7A
:1019C000EE0FFF1FE455FA4F85919491089580E042
:1019D00090E0089581E0FCCF1F93CF93DF930E94A6
:1019E0002A0CEC01C11582E5D80708F03FC0C115EB
:1019F00080E5D80708F0BCC0C83ED105C0F4C03EA1
:101A0000D10580F4C53AD10548F4C430D10550F46D
:101A1000C130D10539F0D0E0C0E004C0CD3CD105E3
:101A2000D0F3D065CE01DF91CF911F910895C115FC
:101A300080E4D80708F06BC0C11580E2D80708F031
:101A4000B1C0C11581E0D80730F38D2F0E94E70B9C
:101A5000182FCE0199270E942A0CC12FD0E0DC2F2D
:101A6000CC27CC27DF71C82BD92BDCCFC03682E541
:101A7000D807F0F4C03482E5D80708F059C0C03266
:101A800082E5D80708F04DC02C2F2695269580E2D8
:101A9000289F900111248C2F8370C1E0D0E002C0F8
:101AA000CC0FDD1F8A95E2F7C22BD32BDD68BACFAE
:101AB000C03C82E5D807F8F4C03A82E5D80708F0C0
:101AC0004CC0C03882E5D80708F0A5CF2C2F26954A
:101AD0002695277080E2289F900111248C2F837017
:101AE000C1E0D0E002C0CC0FDD1F8A95E2F7C22B27
:101AF000D32BDA6897CFC03E82E5D80708F08BCFAA
:101B0000DC2FCC27CC27DF71C06FD06A8BCFCE0102
:101B100099270E942A0CCC27DF70C82BD92BD06ABA
:101B200081CFCF71D0E0DC2FCC27C16FD06A7ACFC4
:101B30002C2F26952695277080E2289F900111244E
:101B40008C2F8370C1E0D0E002C0CC0FDD1F8A95DE
:101B5000E2F7C22BD32BDC6865CF8C2F8F710E94EC
:101B6000E70BC82FD0E0DC2FCC27CC27DF715ACF72
:101B70008C2F8F710E94E70B55E0D695C7955A952B
:101B8000E1F7CF70D0E0DC2FCC27282F30E084FFA6
:101B900005C044E0220F331F4A95E1F7C22BD32B37
:101BA000D06940CF8D2F8F710E94E70B182FCE0187
:101BB00099270E942A0CC12FD0E0DC2FCC27CC27FC
:101BC000DF71C82BD92BD0622DCF20914603909185
:101BD000150356E0291302C080E0089530E0529FBB
:101BE000F001539FF00D1124EA5EFC4F71817613D2
:101BF00006C07081781303C07281741304C02F5F14
:101C00003F4F2770E7CF81E0089580914603909180
:101C10001503981301C008958F5F8770FACFB0E065
:101C2000A0E0E5E1FEE00C94992C7C010091F90321
:101C30001091FA038091FB039091FC03082B192B60
:101C4000CFE0D0E0CC24C394D12CBC2EC6010C2E06
:101C500002C0880F991F0A94E2F780239123892BF1
:101C600049F4219790F7B12C8B2DCDB7DEB7E9E081
:101C70000C94B52CB7018C2F0E94CC0C0E94EC0C5C
:101C8000019779F3F1CFCF93DF93EC010E940F0E10
:101C9000BE010E94CC0C0E94EC0CDF91CF91089504
:101CA0009A3070F5883060F528E0929FF001112499
:101CB000E80FF11D6E2F677083E0F695E7958A9522
:101CC000E1F7EE0FFF1FEE0FFF1FE951FD4F50E050
:101CD00040E080E0219130E0062E02C03695279545
:101CE0000A94E2F721703327042E01C0220F0A94D0
:101CF000EAF7822B4F5F5F4F4430510559F7089543
:101D000080E008959A3090F5883080F528E0929F21
:101D1000F0011124E80FF11D2E2F277041E001C0C2
:101D2000440F2A95EAF783E0F695E7958A95E1F75F
:101D3000EE0FFF1FEE0FFF1FE951FD4F30E020E0D7
:101D400070E05191DF011197CB01022E02C09695F0
:101D500087950A94E2F781708195852784238527EA
:101D60008C932F5F3F4F2430310559F7089590939E
:101D7000FA038093F903089521E030E002C0220FB6
:101D8000331F8A95E2F7209530958091F903909161
:101D9000FA03822393230E94B70E089521E030E0D6
:101DA00002C0220F331F8A95E2F78091F9039091C8
:101DB000FA03822B932B0E94B70E08959093FC0395
:101DC0008093FB030895FC0183819481892B29F082
:101DD0008081918189238F3F51F480E00895843F71
:101DE000E1F717C0883EA8F0813FB9F712C08081A3
:101DF00091810E94430E92959F70963099F358F40A
:101E0000925F9F70923048F7803F19F040F7883E0C
:101E100020F781E008959A5FF4CF292F332740E01F
:101E20002115310511F0C90148E09C0164E03695A7
:101E300027956A95E1F72115310511F04C5FC9012D
:101E40009C0136952795369527952115310511F07A
:101E50004E5FC90196958795892B09F04F5F842FB6
:101E60000895CF93DF93C0919007D09191078A3066
:101E7000C1F420918705CE0180599540622F70E012
:101E80000E947C2C281B822F66E00E94C72CC82F42
:101E9000C15018F4DF91CF91089580E20E94310F74
:101EA000F7CF8D30E9F4C059D54020918705622FD6
:101EB00070E0CE010E947C2C281B822F9E01280FEF
:101EC000311D2115324018F080E0D0E0C0E0C80F8D
:101ED000D11DC057DA4FD0939107C0939007DACF46
:101EE00096E0FE01A8E8B5E001900D929A95E1F721
:101EF000803E08F458C086E0FE0111928A95E9F709
:101F0000C0919007D091910746E050E0BE0188E86B
:101F100095E00E94592D9E0120593540892B41F1B1
:101F2000C90145E0969587954A95E1F741E050E073
:101F3000BA0102C0660F771F8A95E2F7CB01609164
:101F40008E0570918F05862B972BB9016B5F7F4FA4
:101F5000E5E076956795EA95E1F702C0440F551FD5
:101F60006A95E2F7842B952B90938F0580938E05CD
:101F70002A5F3F4F40918705642F70E0C9010E949E
:101F80007C2C481B463010F4240F311D211572E0C3
:101F9000370710F030E020E020573A4F3093910798
:101FA0002093900777CFF6E08F9FB0011124605700
:101FB000754F46E050E0CE010E94502DA1CF809198
:101FC000700590914F03892B8093DC0248E050E02C
:101FD00067E473E08CED92E00E94592D892BA9F003
:101FE00088E0ECEDF2E0A7E4B3E001900D928A9571
:101FF000E1F7E0916805F0916905309731F00280D2
:10200000F381E02D8CED92E009950895882341F04D
:102010008095909170058923809370050E94DF0F51
:102020000895882339F090917005982B909370054E
:102030000E94DF0F08950F931F93CF93DF93EC015E
:10204000FC0101900020E9F78F0101501109C01730
:10205000D10728F0DF91CF911F910F9108958991B9
:102060000E94310FF4CF2F923F92CF93DF93E10183
:102070006A8188819091E502911104C090910001DC
:1020800091112EC06E5F0E94020A86E691E00E94C6
:102090001B106A81615088810E94020A81E080934E
:1020A00000012091E40230E02F5F3F4F2170332781
:1020B0002093E40281E090E0821B930B9695982F89
:1020C0008827979587952091FD0321FF15C084559A
:1020D0009B4F0E942208DF91CF913F902F9008954F
:1020E00061500E94020A86E691E00E941B106A81FC
:1020F00088810E94020AD5CF2091E602222319F09E
:1021000084559C4FE6CF2091FE033091FF032B3086
:1021100031051CF484559D4FDCCF293231051CF468
:1021200084559E4FD6CF84559F4FD3CFB0E0A0E0CB
:10213000ECE9F0E10C949A2C6C017B0164E670E010
:1021400088E70E94DA29EC0197FD12C010E000E058
:10215000F601E00FF11F849164E670E00E94462AC8
:10216000EC01892B29F40F5F1F4F0E151F0581F716
:102170000E94BC2ACE01CDB7DEB7E8E00C94B62CA5
:102180008091660590916705911103C091E08927C0
:102190000895882369F062E070E08EE899E00E947B
:1021A0009610892B19F080916605089510926605A6
:1021B00080916605EBCFCF93C0916605809167054E
:1021C0008823D1F00E94F609605A75418F4F9F4FC6
:1021D0006093620570936305809364059093650531
:1021E000C11108C062E070E08CE899E00E9496108E
:1021F000892B29F0C09166058C2FCF91089581E03D
:1022000080936605F7CF0F931F93CF93DF938B01D6
:10221000EA0190917D05943061F58093E9008FEF9C
:102220009091E800815095FD06C095ED9A95F1F7E3
:1022300000008111F5CF8091E80085FF1AC00E944F
:102240009B08811111C08091E80085FD06C0809136
:10225000E8008E778093E800F2CFF80181918F013A
:102260008093F100219779F78091E8008E77809331
:10227000E800DF91CF911F910F91089546E050E063
:10228000BC0182E00E9403110895CF93DF93EC011B
:1022900048E050E0BC0181E00E94031188E0FE01AB
:1022A000A3E7B5E001900D928A95E1F7DF91CF9118
:1022B0000895539A3BB1377F2BB128604FB7F894FC
:1022C00083E994E0FC015191CF0168E02BB9000053
:1022D00000C057FF3BB9550F000000C000C000C050
:1022E0003BB900C06A9591F7F5E082369F0751F738
:1022F0004FBF8FE594E00197F1F700C0000008950B
:10230000B0E0A0E0E6E8F1E10C94982C7C015B01E0
:102310006A0180918B0301E010E08A3010F40AE03A
:1023200010E0C1E0D0E0B501C701F60109958111C7
:1023300004C021960C171D072CF4CDB7DEB7EAE0D8
:102340000C94B42CCC9F9001CD9F300D300D1124F6
:1023500090E080E045E34A95F1F70000019682178E
:102360009307C1F7E0CF80915C03811119C088EC1D
:1023700090E02091E30027FD10C0EFE3FCE93197E6
:10238000F1F700C000000197A1F782E080935C03A1
:102390000E947C0810927D0503C081E080935C035D
:1023A00081E090915C03913011F080E008950895F0
:1023B0000E94B311882359F0E0916805F0916905F6
:1023C000309729F00190F081E02D0995089580E083
:1023D00008950F931F930E94B311882329F00E9440
:1023E000F6091F910F9108950E94F60900918C0340
:1023F00010918D0320918E0330918F03600F711F18
:10240000821F931FEECFEDE8F4E085E0808380919A
:10241000560190915701A091580181839283A38323
:102420008FE784838FEF858346E050E06CE170E0B6
:10243000CF010E948D2D10928C0408958EE090E0C3
:102440000E947F2D91E0811101C090E0892F0895B5
:10245000FF920F931F93CF93DF93EC01F62E042F7F
:10246000122F0E941E1281110FC0C032D1057CF0C4
:10247000A097FE01EE0FFF1FEC0FFD1FED56FB4F67
:10248000F1820083128303C0C032D10594F3CDB72B
:10249000DEB7E5E00C94B92CA5E0B0E0E2E5F2E1AE
:1024A0000C94902C80905B0490905C04A0905D0450
:1024B000B0905E040E94B311882309F43EC0C501A8
:1024C000B4010E94DA096B017C010E94E9114B0101
:1024D0005C0180925B0490925C04A0925D04B092D7
:1024E0005E04A0913204E2E3F4E08A2F90E04FEF23
:1024F0005FEF60E070E04C195D096E097F09A91378
:1025000025C08093320480918D04082F0370402EE3
:1025100019F0482E4694469490915401913009F454
:102520003FC0992331F1923009F49FC1933009F4EF
:10253000A4C12596E2E10C94AC2C0E94E9116B0138
:102540007C01C818D908EA08FB08BFCF218D328D5D
:102550002901712C612C441555056605770520F479
:1025600081509F5F3296CBCF2C0D3D1D328F218F36
:10257000F8CF109251018092880490928904A09221
:102580008A04B0928B0489E2E2E3F4E0AFE5B4E0C0
:1025900001900D928A95E1F781E080935401C9CFB3
:1025A00090915001491225C0837020914F0130E075
:1025B00091E08217130609F490E0892F81708093CF
:1025C00053018091920490915201981739F08093B1
:1025D000520140E060E080E00E94C90A11E041162B
:1025E000A1F0442041F022E0421609F45FC080E0EF
:1025F00035C081E0E3CF80915301882379F140E039
:1026000060E080E00E94C90AF2CF109151018EE093
:10261000189F102D11240EE0010F063408F005E478
:102620000E941E12882309F456C1013208F000E20C
:1026300060918E0470918F04809190040E94F80A3A
:10264000F62EE72ED82EA12EB12CA016C8F00E948F
:102650001E12882339F181E0003248F69091510131
:102660009F5F90935101811164CF82E08093540168
:102670008091530181115DCF41105BCF83E08DCFFD
:10268000F501EC56FD4F808190915201892331F084
:102690002D2D4F2D6E2DC5010E9428123FEFA31A3C
:1026A000B30AD3CF81E00534C8F2A1CFA0905F0474
:1026B00021E00A2D021B08F400E0C02E1091510108
:1026C0008EE0189F102D11245EE0D52ED10E25E44A
:1026D0002D1510F445E4D42E0E941E12882309F40F
:1026E000FFC030E23D1510F430E2D32E812F90E090
:1026F0009C838B83880F991FFC01E65FFD4F3F0190
:102700008C2D90E08C010F5F1F4F1A830983312CB1
:10271000212C8B818D1558F00E941E12882309F4FC
:102720009EC081E09FE19D1508F098CF60CFEB81BE
:10273000FC81EC56FD4F8081909152018923E9F094
:1027400060918E0470918F0429813A81215A3B4F08
:102750004901BC2C80E0BA14D0F020919004182FCD
:10276000129F112D1124812F0E94F80A462F282F25
:10277000672F8B819C810E9428122B813C812F5FC7
:102780003F4F3C832B8332E0630E711CC2CFF401B8
:1027900091914F01F3014081491B550B2181F401B7
:1027A0009781291B330B449FD001459FB00DB00D7D
:1027B0001124229FF001239FF00DF00D1124EA0F48
:1027C000FB1FE230F105E4F4ED8390919104192FA1
:1027D00001E0100F08F41FEFF401EE0FFF1FEF559B
:1027E000F4400588F689E02D7101E19FE12CF19F0D
:1027F000E00CF11C11240D810E94E20AB394ABCFCE
:102800009FEFE13E0EE1F00744F4DF0105E0B695ED
:10281000A7950A95E1F798E09A0F55245394E52C73
:10282000E90EFF24FF1CD701B595A795AD83AA9F9C
:102830007001AB9FF00CF00C1124EE15FF0538F47D
:102840009FEF9A0F951558F75A945D82BECF0D8170
:102850000F3F09F4BACF552453945A0EF3CF81E0B9
:10286000E4E4ED1508F0FACEC2CE40925001837038
:1028700080934F010E94591101CF80918C048823CD
:1028800051F046E050E06CE170E08DE894E00E9489
:102890008D2D10928C04C0908804D0908904E09013
:1028A0008A04F0908B040E94B311882369F0C70159
:1028B000B6010E94DA09603171058105910508F4BD
:1028C00038CE1092540135CE0E94E9116C197D0961
:1028D0008E099F09F0CF103208F0AACE10E2A8CEE0
:1028E000103208F003CF10E201CFB0E0A0E0EBE738
:1028F000F4E10C949A2CC82F7B01D42F6901FB01C1
:1029000060817181828193810E94DA096436710548
:102910008105910510F4DD2359F10C2E000CDD0B1F
:10292000FE0183E0EE0FFF1F8A95E1F7EF5FFE4F98
:10293000818192818A599C4F408150E0041715078C
:1029400008F4A801B6010E94662DCE010E94062C53
:10295000C82F882339F00E94F609F701608371833C
:10296000828393838C2FCDB7DEB7E8E00C94B62C2E
:10297000C1E0F8CFA7E0B0E0E0ECF4E10C949E2CCD
:1029800086E0EDE8F4E0DE01119601900D928A9563
:10299000E1F71F8247E050E064E773E0CE01019663
:1029A0000E94592D41E0892B09F440E007E010E036
:1029B0009E012F5F3F4F67E873E085E00E9475142A
:1029C0002796E4E00C94BA2C0F931F9341E02091DA
:1029D0007003309171038091F9039091FA032817E5
:1029E000390709F440E002E010E029EF33E063E842
:1029F00073E083E00E9475148823B1F041E02091D8
:102A00007203309173038091FB039091FC032817AC
:102A1000390709F440E002E010E02BEF33E06FE704
:102A200073E084E00E9475141F910F910895A4E053
:102A3000B0E0EDE1F5E10C949F2C60917B03709187
:102A40007C0380917D0390917E030E94DA0911E05E
:102A5000643671058105910570F10E94E9116E5F80
:102A60007F4F8F4F9F4F69837A838B839C838091A5
:102A70001201909113018A599C4F4091110150E02D
:102A80004530510510F044E050E0BE016F5F7F4FCC
:102A90000E94662D82E090E00E94062C182F882369
:102AA00051F00E94F60960937B0370937C0380933E
:102AB0007D0390937E03812F2496E3E00C94BB2C3E
:102AC000EF92FF921F93CF93DF9300D000D000D0FE
:102AD000CDB7DEB77B0190E080E00E94062C182F76
:102AE000882309F473C04091040150E04115510559
:102AF00011F041E050E060910501709106016A59C2
:102B00007C4FCE0106960E94662D60916203709103
:102B1000630380916403909165030E94DA0964362F
:102B200071058105910540F487E693E00E946508F0
:102B30009E81891709F44AC081E090E00E94062C2A
:102B4000811116C010E085E0EDE5F3E0D7010190BA
:102B50000D928A95E1F7812F26960FB6F894DEBF85
:102B60000FBECDBFDF91CF911F91FF90EF900895E1
:102B700040910C0150E04630510510F045E050E026
:102B800060910D0170910E016A597C4FCE01019642
:102B90000E94662D87E693E00E9465089E81891356
:102BA000D1CF0E94F6096093620370936303809310
:102BB00064039093650385E0FE013196ADE5B3E0D3
:102BC00001900D928A95E1F711E0BDCF85E0E7E62F
:102BD000F3E0DE01119601900D928A95E1F7111153
:102BE000EACFB1CF67EE7EEF90E080E00E94BB2D90
:102BF00060E082E090E00E949D2D60E083E090E044
:102C00000E949D2D1092FC031092FB0360E074E182
:102C100084E090E00E94BB2D60E086E090E00E949E
:102C20009D2D6FEF87E090E00E949D2D40E050E0E9
:102C3000BA0188E090E00E94AF2D60E08DE090E066
:102C40000E949D2D40E050E0BA0188E190E00E9492
:102C5000AF2D60E087E190E00E949D2D40E050E0C4
:102C6000BA018CE190E00E94AF2D70E060E080E25C
:102C700090E00E94BB2D40E050E0BA0188E190E076
:102C80000E94AF2D40E050E0BA018FE090E00E943A
:102C9000AF2D40E050E0BA0183E190E00E94AF2DFB
:102CA00008951F920F920FB60F9211242F933F9306
:102CB0004F935F936F937F938F939F93AF93BF9344
:102CC000EF93FF938091E10082FF09C08091E200C1
:102CD00082FF05C08091E1008B7F8093E1008091AD
:102CE000DA0080FF24C08091D80080FF20C080914E
:102CF000DA008E7F8093DA008091D90080FF9DC03A
:102D000080E189BD82E189BD09B400FEFDCF81E08B
:102D100080937D0580916F05811109C00E947C0818
:102D20000E941D098091E20084608093E2008091FE
:102D3000E10080FF17C08091E20080FF13C0809106
:102D4000E2008E7F8093E2008091E20080618093B8
:102D5000E2008091D80080628093D80019BC85E0A1
:102D600080937D058091E10084FF2BC08091E2007B
:102D700084FF27C080E189BD82E189BD89B5982F94
:102D8000917080FFFBCF8091D8008F7D8093D80019
:102D90008091E1008F7E8093E1008091E2008F7E40
:102DA0008093E2008091E20081608093E200809154
:102DB0007E05882309F447C084E080937D058091D7
:102DC0007D058091E10083FF27C08091E20083FFB1
:102DD00023C08091E100877F8093E10082E08093AF
:102DE0007D0510927E058091E1008E7F8093E10049
:102DF0008091E2008E7F8093E2008091E20080610A
:102E00008093E20042E060E080E00E94EB08809165
:102E1000F00088608093F000FF91EF91BF91AF9137
:102E20009F918F917F916F915F914F913F912F91E2
:102E30000F900FBE0F901F90189519BC10927D0532
:102E400010926F0574CF8091E30087FD93E090931B
:102E50007D05B5CF78941F921FB61F9211248F93D2
:102E60009F93AF93BF9380916B0590916C05A09158
:102E70006D05B0916E050196A11DB11D80936B0586
:102E800090936C05A0936D05B0936E05BF91AF91C3
:102E90009F918F911F901FBE1F9018959C014FB757
:102EA000F89480916B0590916C05A0916D05B0919F
:102EB0006E054FBF821B930B08952FB7F894809136
:102EC0006B0590916C05A0916D05B0916E052FBFBB
:102ED00008950E945D179C0190912E0480912F040B
:102EE000982B21F030932B0420932A0490913004E6
:102EF00080913104982B21F03093290420932804E9
:102F0000E0916805F0916905309749F082E080937F
:102F10002C040480F581E02D8CE294E0099508955D
:102F2000CF93C6E0EEEDF2E0DF018C2F1D928A9583
:102F3000E9F710924F030E94DF0FECE2F4E0DF01AB
:102F40001D92CA95E9F7109225041092260410925A
:102F500027040E946917CF910895AAE2B0E0E3EB3D
:102F6000F7E10C949F2C8FE795E02091F100FC0194
:102F70002193CF01F5E087389F07B9F7809180054D
:102F8000833009F470C0B8F4813009F447C082304E
:102F900009F4B3C08091E80083FF80C280917F056F
:102FA000909180059A3008F079C2E92FF0E0ED5356
:102FB000F24D0C94282D8A3009F48EC08B3009F420
:102FC0006FC0893039F780917F05813219F7809180
:102FD0008305909184050297E8F68091E800877F49
:102FE0008093E8008091E80082FF38C09091F30060
:102FF0008091F200029731F48091F100813011F05C
:10300000863021F48091F100809372058091E80070
:103010008B778093E8000E94CC08BCCF80917F051D
:10302000813A09F0B7CF8091E800877F8093E8006C
:103030008091830590918405892B61F468E083E792
:1030400095E070E00E9478098091E8008B7780938A
:10305000E800A0CF60E090E080E0F3CF80917D05B4
:103060008111C0CF97CF80917F05813A09F092CF2F
:103070008091830590918405892B09F08BCF8091F5
:10308000E800877F8093E8008091E80080FFFCCF14
:10309000809155018093F1008091E8008E77B9CF3F
:1030A00080917F05813209F075CF809183059091E1
:1030B0008405892B09F06ECF8091E800877F80938B
:1030C000E8000E94CC088091810580935501109200
:1030D00070050E9490175ECF80917F05813209F0C4
:1030E00059CF8091E800877F8093E8000E94CC0848
:1030F00080918205809371054DCF80917F05813A43
:1031000009F048CF8091E800877F8093E8008091A4
:10311000E80080FFFCCF80917105BCCF803899F02A
:10312000823809F0BBC1809183058F70873008F029
:10313000B5C18093E9008091EB0085FB882780F979
:103140001092E90006C080917B0590917C05911159
:1031500082609091E800977F9093E8008093F1005F
:103160001092F1008091E8008E7794C1882309F4D1
:1031700082C1823009F092C180918105811185C19F
:10318000809183058F702FEF280F263008F086C1BD
:103190008093E9002091EB0020FF77C1933031F458
:1031A0008091EB0080628093EB006FC19091EB0007
:1031B00090619093EB0021E030E001C0220F8A95EE
:1031C000EAF72093EA001092EA008091EB00886011
:1031D000EACF811163C1109181051F778091E300CF
:1031E0008078812B8093E3008091E800877F809333
:1031F000E8000E94CC088091E80080FFFCCF80911D
:10320000E30080688093E30082E0111183E0809303
:103210007D0544C18058823008F040C1809181050D
:10322000909182058C3D23E09207A1F583E08A838B
:103230008AE289834FB7F894DE01139620E03EE0DE
:1032400051E2E32FF0E050935700E49120FF03C0D8
:10325000E295EF703F5FEF708E2F90E0EA30C0F0A4
:10326000C7968D939D932F5F243159F74FBF80915F
:10327000E800877F8093E8006AE270E0CE01019663
:103280000E9478098091E8008B778093E80006C15E
:10329000C096E7CF4091830550918405292F3327AD
:1032A0002330310509F444C078F52130310509F4A3
:1032B0006FC08BE390E0E9E1FAE02230310509F0DC
:1032C000EDC02091E800277F2093E800209185053C
:1032D000309186058217930708F49C0140E0211580
:1032E000310509F064C0411162C08091E80082FD9F
:1032F000C9CF80917D05882329F2853019F280910C
:10330000E80083FFF2CFBECF21323105A9F122328E
:10331000310509F0C3C04115510509F443C04130DE
:10332000510509F0BBC089E490E0E0E9F9E0C9CFBC
:10333000992781309105C1F0009759F0029709F063
:10334000ADC0E6E6FAE0E4918E2F90E0E6E6FAE022
:1033500007C0ECE8FAE0E4918E2F90E0ECE8FAE0A8
:10336000009709F49BC0ADCFE4E7FAE0E4918E2F1B
:1033700090E0E4E7FAE0F4CF4115510571F04130F7
:10338000510509F08BC089E090E0E4E4FAE099CFC0
:1033900082E190E0E4E5FAE094CF89E090E0EBE2AE
:1033A000FAE08FCF80E490E0E9EDF9E08ACF8091F8
:1033B0007D05882309F466CF853009F463CF8091B9
:1033C000E80083FD5FCF8091E80082FD8ECF809181
:1033D000E80080FF84CF9091F3008091F2002115E6
:1033E000310519F08830910550F041E0089709F057
:1033F00040E08091E8008E778093E80070CF4491A0
:103400004093F1003196215031090196E8CF803880
:1034100009F044C08091E800877F8093E8008091A4
:103420007E058093F1009ECE811138C010918105F8
:103430001230A0F58091E800877F8093E800109318
:103440007E050E94CC08112311F084E005C0809114
:10345000E30087FDFACF81E080937D0542E061ECD7
:1034600081E00E94EB0842E261EC82E00E94EB08FE
:1034700080917D0513C080918105813079F481E0D0
:10348000933009F080E080937C051092E9008091F0
:10349000E800877F8093E8000E94CC088091E800D4
:1034A00083FF0AC08091E800877F8093E8008091C5
:1034B000EB0080628093EB00AA96E3E00C94BB2CB7
:1034C0001F920F920FB60F9211242F933F934F9399
:1034D0005F936F937F938F939F93AF93BF93CF939C
:1034E000DF93EF93FF93D091E900DF708091EC00C0
:1034F000C82FC17080FDC0E81092E9008091F000F3
:10350000877F8093F00078940E94AD171092E900B5
:103510008091F00088608093F000CD2BCF70C09335
:10352000E900FF91EF91DF91CF91BF91AF919F9112
:103530008F917F916F915F914F913F912F910F905C
:103540000FBE0F901F901895109270050E94901753
:103550002FEF84E39CE0215080409040E1F700C0D1
:10356000000088E19CE00FB6F894A8958093600075
:103570000FBE90936000FFCF662309F45DC08D3CC1
:1035800041F40E94AE0B819580932F040E9469172D
:1035900008958E3C19F40E94AE0BF6CF8F3C31F4A7
:1035A0000E94AE0B819580932E04F0CF803D19F4DC
:1035B0000E94AE0BF8CF893D29F40E948C0B8093BA
:1035C0003004E4CF8A3D21F40E948C0B8195F7CF23
:1035D0008B3D31F40E948C0B819580933104D6CFC2
:1035E0008C3D19F40E948C0BF8CF9FE2980F983015
:1035F00070F4815D990B21E030E001C0220F8A95C3
:10360000EAF780912D04822B80932D04BFCF8D3D4E
:1036100031F480912704816080932704B7CF8E3DD9
:1036200021F4809127048260F7CF8F3D09F0AECF5F
:10363000809127048460F0CF40912E048D3C59F492
:1036400080912F0487FF0DC010922F0441110BC0F1
:103650001092250408C08E3C81F480912F04181626
:103660009CF3442381F08091300490913104892BA4
:1036700009F08CCF1092260489CF8F3C49F447FF84
:10368000F0CF10922E0480912F048111ECCFE0CF67
:10369000803D19F41416ACF3E4CF90913004893DC9
:1036A00029F41916F4F610923004DBCF8A3D19F490
:1036B00097FFD7CFF8CF909131048B3D29F497FF36
:1036C000D0CF10923104CDCF8C3D19F41916CCF324
:1036D000C8CF9FE2980F983090F4815D990B21E05C
:1036E00030E0B90102C0660F771F8A95E2F7CB017F
:1036F000809590912D04892380932D04B2CF8D3D28
:1037000031F4809127048E7F80932704AACF8E3DC9
:1037100021F4809127048D7FF7CF8F3D09F0A1CF51
:10372000809127048B7FF0CF882379F19CEF980F4D
:10373000913A78F4EEEDF2E09191891303C0DF0144
:1037400011971C9242E0E43EF407B1F70E94DF0FAC
:10375000089590E2980F983088F4877021E030E067
:10376000A90102C0440F551F8A95E2F7CA0180954E
:1037700090917005892380937005E8CF93E3980FAB
:10378000933118F460E00E94BC1A08950F931F93C0
:10379000CF93C82F882341F18CEF8C0F813AB0F57D
:1037A0000EED12E084EE92E0F8012191C21701F1D2
:1037B0008E179F07D1F7EFEF80E0D8019D918D0123
:1037C000C91781F0EF3F19F4911101C0E82F8F5F05
:1037D000863099F7EF3F31F00E2E000CFF0BE452CC
:1037E000FD4FC2830E94DF0FCF911F910F9108956B
:1037F000EEEDF2E02191C21303C0DF0111971C929C
:103800008E179F07B9F70E94DF0FD5CF80E28C0F8C
:10381000883068F4C77021E030E001C0220FCA95FB
:10382000EAF780917005822B80937005DBCF83E3EC
:103830008C0F8331C8F661E08C2F0E94BC1AD4CF64
:10384000A5E0B0E0E6E2FCE10C94992C7C01FC01DF
:1038500083819481892B31F08081918189238F3FED
:1038600009F0A4C22596E9E00C94B52C0E940F0E35
:10387000182F682F89819A810E94820E69817A812E
:10388000812F0E94CC0C8C01F7018281882309F4DE
:103890009EC2C8019A9581159F4450F5C801992789
:1038A0009C01245031092432310518F08B970E9772
:1038B00080F4E091B903F0E0EE0FFF1FE254FC4FFB
:1038C000808191818F3F2FE7920719F001969183B4
:1038D0008083003E1105A1F0043E110589F00C32F1
:1038E000110589F481E08093E502109200010BC07C
:1038F00090E080E00F3F110509F090F6C801D0CFAD
:1039000081E08093E6020E94F6096093F1037093D0
:10391000F2038093F3039093F403F70192819111E2
:1039200058C0809170058272F801E052F847E53185
:10393000F10508F094C0E353F24D0C94282D109239
:10394000E602E1CF80918D0491E0892780938D0478
:103950001092540180918C04816080938C0482CFFA
:1039600042EB5AE06DEB7AE00E94190A7BCF4DEBF7
:103970005AE062EB7AE0F8CF43E85AE06EE87AE08A
:10398000F3CF4EE85AE063E87AE0EECF47E65AE03C
:1039900065E77AE0E9CF45E75AE067E67AE0E4CF09
:1039A0004BE45AE069E57AE0DFCF49E55AE06BE4A1
:1039B0007AE0DACF4FE15AE06DE27AE0D5CF4DE21E
:1039C0005AE06FE17AE0D0CF61E081E00E94990A8D
:1039D00049CF0130FCE71F0709F43FC003302CE753
:1039E0001207A9F101151C4709F039C010927005A2
:1039F0000E9490174FEF54E38CE0415050408040BC
:103A0000E1F700C0000081E08093E00080E2809355
:103A1000D8001092C900EFE1FEE43197F1F700C041
:103A2000000087E090EBDC0180939207909393076E
:103A3000A0939407B093950788E19CE00FB6F894A3
:103A4000A895809360000FBE90936000FFCF6FEF4A
:103A50007FEF90E080E00E94BB2D0E94A41AF70146
:103A600000811181992311F1C8010E940F0ED82EF7
:103A7000682FC8010E94820EB8018D2D0E94CC0CC7
:103A80000E94EC0C182FB82EF70162813581232F8C
:103A900022952F70892F82958F70C82ED12C8C3053
:103AA000E8F5F601EE51F24D0C94282DC8010E9464
:103AB000500ED82EE1CF092F0F70907F11F0029594
:103AC000007F812F6623C9F0002369F090E2910FF7
:103AD000983010F011110BC080917005082B0093E5
:103AE00070050E94DF0F812F0E94C61B17C08091B6
:103AF0004F03082B00934F03F4CF0E94941B002325
:103B000069F00095105E183010F0B11021C080915E
:103B100070050823009370050E94DF0FE8E0CE1ABD
:103B2000D108F4E0CF16D10410F40E94D81185E03A
:103B3000F701DE01119601900D928A95E1F7098156
:103B40001A81C8010E94500EB8010E94CC0C8ACE86
:103B500080914F03082300934F03DECF892F8F708E
:103B6000907F903211F08295807FF1E0BF120CC0FF
:103B7000662329F0263090F60E941110CFCF253011
:103B800068F60E940610CACF662341F02223A1F3F3
:103B900030FFA9CF3F70F7013583EECF222389F3A1
:103BA000193349F4FFEF27EE33E0F1502040304065
:103BB000E1F700C00000812F0E94941BAFCF812F3E
:103BC0000E94BC1AABCF892F837009F042C06111EB
:103BD000A5CF812F829586958770880F880F212F1A
:103BE0002F7030E0082E02C0220F331F0A94E2F734
:103BF00050E040E014FF09C04FE050E002C0440F25
:103C0000551F8A95E2F74095509596959695937035
:103C10009230A9F080F46091FB037091FC03913025
:103C200041F0C901842B952B862397230E94DE0E39
:103C300075CF262B372BC901842B952BF7CFC901C4
:103C4000842B952B2091FB033091FC038227932733
:103C5000EDCF8695662311F0892F8170882309F4B2
:103C60005DCF812F829586958770880F880F212FD1
:103C70002F7030E0082E02C0220F331F0A94E2F7A3
:103C800050E040E014FF09C04FE050E002C0440F94
:103C9000551F8A95E2F740955095969596959370A5
:103CA0009230A9F080F46091F9037091FA03913099
:103CB00041F0C901842B952B862397230E94B70ED0
:103CC0002DCF262B372BC901842B952BF7CFC9017C
:103CD000842B952B2091F9033091FA0382279327A7
:103CE000EDCF092F0F70662329F0802F0E94CE0E92
:103CF000812F42CF812F0E940610802F0E94BC0E80
:103D00000DCF812F41EF141791F1411750F050EF73
:103D10001517D1F06623D1F12111E5CE892F8F71CE
:103D20002AC0E2EF1E1751F1F3EF1F13F3CF662302
:103D300051F19F7121E030E0A90102C0440F551FED
:103D40009A95E2F7CA01BACF662369F0253008F0E8
:103D5000E5CE292F2F7181E090E002C0880F991FD6
:103D60002A95E2F7B7CF263008F0D8CEF2CF892FC8
:103D70008F71662319F20E94CE0ED0CE892F8F71DB
:103D80006623C9F3BBCF90E080E098CF222359F09F
:103D9000893309F010CF5FEF87EE93E051508040F8
:103DA0009040E1F706CF892F8F71A8CF85E0DE0123
:103DB000119601900D928A95E1F7F7012281898190
:103DC0009A81211153CD0E94500E182F57CD003EDD
:103DD000110509F4B4CD043E110509F4B0CD0C323F
:103DE000110509F090CD1092E5028DCD1F93CF9370
:103DF000DF9380911403807F09F04BC08091110301
:103E0000882309F446C080914603C0911503409170
:103E10000F03509110036091120370911303D42F7C
:103E2000D52316E0C817A9F190E061157105A9F135
:103E3000DF3F99F1189FF001199FF00D1124DF0168
:103E4000AA5EBC4F11962C911197251326C02C9178
:103E5000241323C012962C91129721111EC0139681
:103E60002D913C91261B370B283C3105B0F48091F5
:103E700014038F70806180931403E55EFC4F808192
:103E80008F70806180838FE093E00E94201C0E94ED
:103E9000050EDF91CF911F91089501968770C2CFD3
:103EA000A1E1B0E0E6E5FFE10C94962C8C0185E001
:103EB000F801DE011D9601900D928A95E1F7F80157
:103EC000E2808FE0882E83E0982E4091120350917B
:103ED00013034115510509F430C190910F0320914E
:103EE0001003892F82238F3F09F427C1D080C1801E
:103EF000A380B480F0901103B501641B750BFF2003
:103F000009F4E7C080911403382F307F683C7105B5
:103F100008F0ABC0311178C0FE2C2C1114C09D11DB
:103F200012C0E11010C08F70806180931403C4012F
:103F30000E94201C80911403F80185838F2D6196C7
:103F4000ECE00C94B22CA114B104C9F18D2D8C219C
:103F50008F3FA9F181E08E2580FF05C04E2D6C2D8D
:103F60008D2D0E94E50DA114B10459F18D2D8C21E8
:103F70008F3F39F181E08E25F82FF170BF2E80FF41
:103F800039C04E2D6C2D8D2D0E94E50DA82E81116E
:103F900031C0DD86CE868D859E850E94430E292FF9
:103FA00022952F70243078F49F702230A8F0992346
:103FB000B9F0F8019581907F99F4FA2CBFCF80E099
:103FC000CBCF80E0D9CF2A5F2F70223068F0C801B4
:103FD0000E94201CAB2CF1CF992311F0882369F3A8
:103FE000805E883050F3F3CF803F38F3815F8330B9
:103FF00070F7E3CFEE2009F4A1CF80911403816024
:1040000080931403F12C9ACF2C1105C09D1103C08D
:10401000EE2009F477C0C8010E94E30E882309F15D
:10402000EE20F9F080911403803270F020910F039C
:104030003091100338872F831986BB86AA868C8718
:10404000CE0107960E94201C86E0F801AFE0B3E0A5
:1040500001900D928A95E1F70E94F61EFF24F394D9
:104060006DCFC8010E94201CF9CF31110AC08FE02A
:1040700093E00E94201C86E0F40111928A95E9F7F2
:10408000C1CF2C110EC09D110CC0E1100AC0858358
:10409000C8010E94201C86E0F40111928A95E9F77C
:1040A0004DCFC8010E94E30E8823D9F2EE20C9F259
:1040B00080911403803240F220910F03309110035D
:1040C0003A8329831B82BD82AC828E83CE01019606
:1040D000B9CF683C7105F8F6FE2CEE2011F22C11D8
:1040E0001EC09D111CC08091140380FD0FC0982F2D
:1040F000907F61F08583903F31F0982F907F905FA3
:104100008F70892B8583C8010E94201C86E0F801EE
:10411000AFE0B3E001900D928A95E1F70FCFC801AF
:104120000E94E30E811190CF8091140381608093EF
:104130001403C8010E94201C01CFEE2009F491CF86
:10414000C8010E94E30EF82E882309F48ACF86E086
:10415000F801AFE0B3E001900D928A95E1F780910C
:104160000F03909110030E94430E0E94F61EE6CEAC
:10417000A7E1B0E0EEEBF0E20C949F2C4B8B5C8B54
:104180006D8B7E8B8F8B611110924F031A8A198A67
:1041900085E0FE017396DE011D9601900D928A95D1
:1041A000E1F786E0FE013D96DE01179601900D9243
:1041B0008A95E1F7CE0107960E94501F882359F097
:1041C00016E08091460390911503891345C06796C8
:1041D000E3E00C94BB2C86E0FE013796DE011196DD
:1041E00001900D928A95E1F78A859B85892B41F391
:1041F0008F81988589238F3F19F32091150330E033
:10420000C9010196877099274091460348171906FE
:1042100081F4109270050E9490171092150310926D
:10422000460386E0EFE0F3E0DF011D928A95E9F7AF
:10423000C7CF96E0929FD001939FB00D1124AA5E44
:10424000BC4FFE01319601900D929A95E1F7809353
:1042500015030E94050EB4CF819FC00111248A5E10
:104260009C4F0E94501F882309F4B1CF80914603D0
:1042700090E001968770992780934603A2CFAFE024
:10428000B0E0E5E4F1E20C94952C8E010F5F1F4F36
:104290008AE0D8011D928A95E9F789E3C82E81E06A
:1042A000D82EF12CE12CAA24A394B12C29E3822E40
:1042B00021E0922EF60181916F018F3F09F442C0F7
:1042C000F894E82FE295EF70F0E021A18F70A5013E
:1042D00002C0440F551F8A95E2F7CA01922F982B0E
:1042E00091A392A18095892382A3789400C0E1E3F1
:1042F000F1E0712C31E021912F3F09F46BC0A22F26
:10430000A295AF70B0E090968C9190E02F7002C0B3
:10431000959587952A95E2F780FD5CC0832F782AD2
:10432000330F8E169F0639F7F601319780818F3F44
:1043300011F00E94D00B50EA5A95F1F7F801EE0DFA
:10434000FF1D70828FEFE81AF80AA5E0EA16F10463
:1043500009F0B0CF4AE050E0B80180E993E00E9454
:10436000592D009741F02AE0F801A0E9B3E001904F
:104370000D922A95E1F700919B03892B69F181E069
:10438000809354030E945D179093530380935203CC
:1043900080915203909153030E944E17059700F1AC
:1043A00010E002561C4F45E050E060E973E0C801A0
:1043B0000E94592DD12C892B51F085E0E0E9F3E0E2
:1043C000D80101900D928A95E1F7DD24D3941092E3
:1043D000540307C080E0A3CF809154038111D8CF4C
:1043E000D12C0E94B311C82EE0919B03882309F4BD
:1043F0007FC07E01BBE0EB0EF11C85E0D7011D9272
:104400008A95E9F70E2F10E002561C4F80918B031E
:104410008A30D8F540E655E1B701C8010E94801105
:10442000882309F454C047E155E1B701C8010E944F
:104430008011882309F44BC044EE54E1B701C80150
:104440000E948011882309F442C04AEB54E1B7016D
:10445000C8010E9480118823D1F110928B038091B2
:104460009A0390E045E050E0B70182569C4F0E94CD
:10447000592D21E020935B03892BE1F4C12C8C2D75
:104480008D292F96EDE00C94B12C809155039091DD
:1044900056030E944E17843F914008F0BBCF809195
:1044A0005B03882359F385E0F70111928A95E9F7B8
:1044B00010925B03A0919A03B0E0A256BC4F85E036
:1044C000FE013B9601900D928A95E1F7D8CF80913D
:1044D0008B038F3F31F08F5F80938B038A3008F41A
:1044E000BECF0E945D179093560380935503D7CF9C
:1044F000F0E0E256FC4F85E0A7E6B3E001900D92B4
:104500008A95E1F787E693E00E9465088093660349
:1045100080906C0390906D03A0906E03B0906F0339
:104520008091570390915803A0915903B0915A0379
:1045300088169906AA06BB06D1F08092570390927E
:104540005803A0925903B0925A030E94B3118111EB
:104550000EC00E94F609861A970AA80AB90A809224
:104560008C0390928D03A0928E03B0928F03809162
:104570007003909171039093FA038093F9038091F3
:104580007203909173039093FC038093FB0386E086
:10459000E4E7F3E0ADE8B4E095CFA5E0B0E0E3ED0B
:1045A000F2E20C949E2C0E945D178C0180915003C6
:1045B0009091510380179107A1F08FEF89838A832F
:1045C0001B820E945D178160782F9D838C834981B7
:1045D0005A816B818D810E94B82010935103009302
:1045E00050032596E4E00C94BA2C1F921FB61F923C
:1045F00011248F939F93AF93BF9380916A0581118C
:1046000013C080916B0590916C05A0916D05B091E0
:104610006E054196A11DB11D80936B0590936C05AD
:10462000A0936D05B0936E05BF91AF919F918F914F
:104630001F901FBE1F901895CDB7DEB767970FB6B6
:10464000F894DEBF0FBECDBF85B7806885BF85B744
:10465000806885BF84B7877F84BF0FB6F894A8951C
:1046600080916000886180936000109260000FBEAE
:1046700080E890E00FB6F894809361009093610019
:104680000FBE8EEC9BE09093DB028093DA020E94D7
:104690007C080E941D098091E20084608093E20002
:1046A000789480917D058823A1F01091E9001F7016
:1046B0009091EC00892F817090FD80E8182B10926A
:1046C000E9008091E80083FD0E94AD171F701093F0
:1046D000E90082E084BD93E095BD9AEF97BD809399
:1046E0006E0010928C0310928D0310928E03109224
:1046F0008F0390E080E00E94872D873E9E4F11F04F
:104700000E94F2150E941E1280933E010E94B31176
:1047100081110E941A2B80913E0181112CC085E0ED
:10472000E9E5F1E0DE01199601900D928A95E1F735
:104730008985809339018A8580933A018B8580939E
:104740003B018C8580933C018D8580933D0188E001
:10475000EEE5F1E0DE01119601900D928A95E1F708
:10476000FE013196A1E3B1E0CE01099621912D938E
:104770008E179F07D9F780913E0195E0811190E057
:1047800090939B0385E0891B80939A0309E311E0D2
:104790005EE3E52E51E0F52ED8018D918D018F3F1E
:1047A00011F00E94D00BE016F106B1F701E311E021
:1047B00049E3E42E41E0F42EF80181918F018F3F0F
:1047C00011F00E94D00BE016F106B1F78AE0EEE995
:1047D000F3E0DF01782E1D927A94E9F7E0E9F3E047
:1047E000DF011D928A95E9F790E080E00E94872D15
:1047F000873E9E4F11F00E94F21582E090E00E94E9
:104800007F2D8093A80384E090E00E94872D9093F1
:104810009D0380939C0383E090E00E947F2D90E0B5
:104820000E94DE0E10925F048FEF9FEF9093790449
:104830008093780490937B0480937A0490937D0412
:1048400080937C0490937F0480937E0490938104F2
:1048500080938004909383048093820490938504D2
:10486000809384049093870480938604109232048A
:1048700090934C0480934B0490934E0480934D048A
:104880009093500480934F0490935204809351046A
:10489000909354048093530490935604809355044A
:1048A000909358048093570490935A04809359042A
:1048B00090E080E00E94872D873E9E4F21F00E946D
:1048C000F2150E94031281E080938C0446E050E0D0
:1048D0006CE170E08DE894E00E946F2D10928C04E2
:1048E00080918D048C7F11F40E9403120E94B311F9
:1048F000882309F409C183E08093200480FD06C168
:1049000080E8809387050E94D4296DE070E08FE3F2
:1049100098E00E949610892BE9F58091200463E0CD
:1049200070E081FDF5C08CE398E00E949610892B21
:1049300089F56DE070E08CE298E00E949610892B7A
:1049400049F50E94F609605A75418F4F9F4F609359
:104950006205709363058093640590936505E0E9B3
:10496000F5E080E092E0DF019C011D922150304093
:10497000E1F7F0939107E09390078FEF9FEF90930B
:104980008F0580938E0581E080936705809366058F
:10499000109221040E94B311811102C00E941D2BAC
:1049A00020E04CE36AEF84E890E00E943B0A60E07C
:1049B00082E00E94990A8FE391E0909369058093C9
:1049C000680580917D0530E4F32E00E112E1853029
:1049D00009F4DCC00E943F2129EA422E23E0522E36
:1049E000AEE9B3E0BE8BAD8B23EB33E0F2019191E6
:1049F0008D912E173F0709F4D5C09817C1F30E9477
:104A0000B3118F8B9AEBA92E91E0B92EE12CED8991
:104A1000FE899190FE8BED8BD2016D902D01691472
:104A200009F4E3C169241501812C77247394862D40
:104A3000872109F4CFC1F92CF720BF89BB2399F056
:104A40008F86E88A81E0F11001C080E0898B0E94A6
:104A50005D178160782F9B8B8A8B4F855889698978
:104A60008B890E94B820FF2041F0F1018081F12C58
:104A70008F3F19F08C8BFF24F3940F2D10E0809161
:104A80003204800F912F911D09976CF1A8E0CA2E76
:104A9000D12CC01AD10AB8016D5C7B4FA60183E30B
:104AA00094E00E94662DB801655C7B4FA6018BE304
:104AB00094E00E94662DA601440F551FB801660FB1
:104AC000771F655B7B4F8BE494E00E94662DB801F5
:104AD0006D5B7B4FA60183E494E00E94662D88E025
:104AE0008F19809332048091320490E0EC89AE2FCC
:104AF000B0E09D01220F331F265F3D4FAA0FBB1F61
:104B0000BD01655F7D4F60C180E0F6CE80E2F9CEE9
:104B100089E398E00ACF80917D05843039F10E94C5
:104B20004C120E94C01010926A0548E150E00FB686
:104B3000F894A895409360000FBEF092600083B790
:104B4000817F846083BF83B7816083BF78948895B9
:104B500083B78E7F83BF0FB6F894A89580916000CD
:104B6000886180936000109260000FBE80917C0588
:104B7000882361F00E943F21EEE9F3E081918111E9
:104B8000F1C388EA93E08E179F07C1F780917D05F6
:104B9000853009F4C0CF109270050E9490170E94D2
:104BA000D81118CF98132BCF0E94CD22D12C0E9460
:104BB000B311882309F4B0C08090BE039090BF0366
:104BC000092C000CAA08BB0810914701212F30E0E6
:104BD000EEEBF3E081E090E03296281739070CF015
:104BE00010C16091BA037091BB038091BC03909196
:104BF000BD030E94DA092B013C0159EC4516510412
:104C00006104710414F18091B90390E0019669E1A7
:104C100070E00E94D32C8093B903880F991FFC0188
:104C2000E254FC4F11821082812F183108F087E185
:104C30008F5F809347010E94F6096093BA037093D7
:104C4000BB038093BC039093BD0382E0881691045C
:104C5000A104B1040CF4E1C0A0E6BAEEA5019401F0
:104C60000E942E2D4B015C0198EC199F900111249C
:104C7000032E000C440B550B240D351D461D571DEE
:104C8000A5E0B0E00E942E2D9B01AC01C501B4014E
:104C90000E94E72C49015A01A1EF8A169104A10450
:104CA000B1042CF050EF852E912CA12CB12C6091E9
:104CB000B5037091B6038091B7039091B8030E9439
:104CC000DA092B013C01B5E64B165104610471046D
:104CD00084F00E94F6096093B5037093B603809345
:104CE000B7039093B8038091F0038093B40380924C
:104CF000B3031091B403A091B303A11BBB0BA30199
:104D000092010E94392D24E630E040E050E00E94FC
:104D1000092D120F1093F0030E944C128091670529
:104D2000882309F40BC180912204909123040E94EE
:104D30004E17C29708F4E2C00E945D1790932304B7
:104D40008093220460E080E00E94020A0E94B31176
:104D5000882309F40EC28091F00390E09093FF0342
:104D60008093FE030E94D8118093FD0360E080E0F1
:104D70000E94020A8091FB039091FC030E940D0F98
:104D8000813009F472C0882309F44BC0823009F4E1
:104D90006FC0833009F46FC081E891E044C090E0B7
:104DA000FC01EE5CFB4FD9015C915183DB015C910E
:104DB0005187BC89B18B880F991FFC01EE5CFB4FBA
:104DC000128E118E91E0842F41E0480F9F1538F329
:104DD000809332048394770CFFEF2F1A3F0A28E068
:104DE000821225CEF20131979082E39438E0A30E2F
:104DF000B11C4AE0E4120BCE0E94F609DD24D394E4
:104E0000D6CE40815181052E000C660B770B840EA7
:104E1000951EA61EB71E0196DFCE812C912C540143
:104E200046CF8CE691E00E941B1062E080E00E9479
:104E3000020A87E891E00E941B1063E080E00E9474
:104E4000020A8091F9039091FA030E940D0F8130BC
:104E500009F454C1882391F0823009F452C183309F
:104E600009F452C189EA91E00BC082E791E0DBCFFF
:104E700087E791E0D8CF8DE791E0D5CF8DE891E03D
:104E80000E941B10CE014B969E878D871A8619862D
:104E90008CE090E09C878B878091FE039091FF03CC
:104EA000892B09F434C10E94DB106091F5037091E5
:104EB000F6038091F7039091F8030E94DA096D32AE
:104EC00071408105910580F00E94F6096093F50319
:104ED0007093F6038093F7039093F8039E01275F86
:104EE0003F4F19010E9433100E94F6096093F103AD
:104EF0007093F2038093F3039093F40380918E05F3
:104F000090918F05892B09F042C180916605882315
:104F1000A9F00E94F60900916205109163052091A5
:104F2000640530916505601B710B820B930B6F3F1D
:104F30007F4F8F4F9F4710F40E94C010D1100E94E6
:104F4000DB1086E0ECE2F4E0DE01119601900D92B8
:104F50008A95E1F710922E0410922F0410923004DB
:104F6000109231048B819C81892B09F44AC0809175
:104F70002A0490912B040E944E179C0190912504C5
:104F8000992309F40CC225313105D8F19F3F19F05E
:104F90009F5F909325041B81112359F00E94AE0B53
:104FA0009FEF11160CF491E0899F802D11248093BE
:104FB0002E041C81112359F00E94AE0B9FEF111695
:104FC0000CF491E0899F802D112480932F0430915F
:104FD0002E043323B1F020912F04222391F045EBCE
:104FE0003403C0011124992309F4ACC190932E0419
:104FF00055EB250390011124332309F4A7C1309305
:105000002F048D819E81892B09F44AC08091280448
:10501000909129040E944E179C0190912604992397
:1050200009F4B8C121353105D8F19F3F19F09F5FD0
:10503000909326041D81112359F00E948C0B9FEF41
:1050400011160CF491E0899F802D11248093300477
:105050001E81112359F00E948C0B9FEF11160CF446
:1050600091E0899F802D1124809331043091300488
:105070003323B1F020913104222391F045EB340326
:10508000C0011124992309F465C19093300455EBB4
:10509000250390011124332309F460C130933104B6
:1050A00046E050E0BE016F5F7F4F8CE294E00E94CB
:1050B000592D892B61F480912E0490912F04892B16
:1050C00090913004892B90913104892B11F00E942A
:1050D000691786E0FE013196ACE2B4E001900D92D2
:1050E0008A95E1F70E94D81190912404891709F458
:1050F00068CC809324040E94F60963CC84E991E093
:10510000BFCE8BE991E0BCCE82EA91E0B9CE60914E
:10511000F1037091F2038091F3039091F4030E94E4
:10512000DA0961367A4E8105910518F00E94C010A7
:10513000E5CE6091F5037091F6038091F7039091AD
:10514000F8030E94DA096D3271408105910508F477
:10515000D5CE0E94F6096093F5037093F603809311
:10516000F7039093F803CE0109961C010E943310B7
:10517000C5CEECE4F8E084918F01882309F4BECE1B
:105180000E94310F0F5F1F4FF8018491F6CF80917D
:105190006705882309F4B9CE809121048111B5CE29
:1051A0000E94DB1020918E0530918F05211531056D
:1051B00009F4ABCE80E041E050E0082F10E07A0126
:1051C000082E02C0EE0CFF1C0A94E2F7B70162231E
:1051D0007323672B11F48F5FF0CF9091200490FF21
:1051E00098C0880F880F880F80934A0110924D0154
:1051F000895F80934B0183E080934E0124E630E089
:1052000047E050E068E471E088E70E94742A892B47
:1052100009F07BCEA80135E0440F551F3A95E1F720
:105220008091200480FF87C0E0E0F4E080E2DF01AD
:105230001D928A95E9F706EB11E082EBA82E81E03A
:10524000B82E9AEB492E91E0592E27E0922E882411
:105250008394D801ED918D01D5016D915D01640FAD
:10526000752F711D60577A4FF0E0E050FC4F30E031
:1052700020E0692C621AC82C022E01C0CC0C0A94C2
:10528000EAF71B0190E0D1018D911D018C21A62D23
:10529000A91BA770AD8B0A2E000CBB0B782E0D88B6
:1052A00001C0770C0A94EAF77D8AB195A195B109FE
:1052B000A770BB2701C08695AA95EAF7782A808156
:1052C000782A70829F5F9830F1F62F5F3F4F3196BA
:1052D0002830310571F64016510609F0BACF04E6C0
:1052E00010E020E230E040E054E060E488E70E9413
:1052F000952A892B09F009CEE094F09480918E05CF
:1053000090918F05E822F922F0928F05E0928E05A8
:10531000FCCD8295880F807680934A01980136955E
:1053200027953695279520934D01815E80934B01FB
:1053300010924E0163CF40575A4F04E610E020E22E
:1053400030E0D3CF81E080932E0452CE81E0809371
:105350002F0457CE81E08093300499CE81E0809372
:1053600031049ECE09BD19BD09B400FEFDCF809168
:10537000D8008F7D8093D8008091E0008260809378
:10538000E0008091E00081FDFCCF109270050E944A
:105390009017FCCB2B30310508F049CE81CE2B3055
:1053A000310508F0F5CD2DCE1092B9008CE0809338
:1053B000B8000895B0E0A0E0E0EEF9E20C94972C7C
:1053C000B82EEB010E945D176C01EE24E394F12CE2
:1053D000C431D10560F025E0E22EF12CCF3FDC078F
:1053E00031F0CE0164E170E00E947C2C7B0184EA04
:1053F000A82E94E8992E1092BC00A092BC000E94A6
:105400005D178C018091BC0087FF0DC08091B900B1
:10541000887F8830F9F08091B900887F8031D1F0A1
:105420000FEF1FEF08C0C8010E944E17E816F906DB
:1054300048F70EEF1FEFCF3FDC07E9F2C6010E94ED
:105440004E17C817D907B8F6C801CDB7DEB7EBE0DD
:105450000C94B32CB092BB009092BC000E945D17DC
:105460008C018091BC0087FF0AC08091B900887FC1
:10547000883111F08034A1F610E000E0E5CFC801DA
:105480000E944E17E816F90660F7D3CF0F931F93CB
:10549000CF93DF93EB018093BB0084E88093BC0043
:1054A0000E945D178C018091BC0087FF11C0209184
:1054B000B900287F81E090E0283211F490E080E08C
:1054C000919581959109DF91CF911F910F91089549
:1054D000CF3FDC0741F3C8010E944E17C817D90718
:1054E00010F78EEF9FEFEFCFB0E0A0E0EAE7FAE22F
:1054F0000C949A2C6B018A017901B9010E94DA2976
:10550000E6010C0D1D1DC017D10711F097FF08C053
:1055100024E92093BC00CDB7DEB7E8E00C94B62CAC
:10552000B70189910E94462AEECFB0E0A0E0EBE9F6
:10553000FAE20C949A2CC62F6A017901B8010E94F4
:10554000DA2997FD0CC0B8018C2F0E94462AE6018B
:10555000EC0CFD1CCE15DF0511F097FF08C024E907
:105560002093BC00CDB7DEB7E8E00C94B62CB801B0
:1055700089910E94462AEECF84E98093BC00089569
:105580008EE14A9B02C08150E1F74A9BFECF08950D
:105590005A9880E28A95F1F75A9A0895FC013BE007
:1055A0003A95F1F798E020E080E031E040E14A955B
:1055B000F1F7880F4A9B02C08160232742E04A9599
:1055C000F1F7000040E14A95F1F7915079F790E149
:1055D0009A95F1F799B132E03A95F1F7000040E180
:1055E0004A95F1F792FB992790F992272081920F23
:1055F00090830895A1E0B0E0E0E0FBE20C949C2CE5
:1056000019828C017C01E60EF11C0E151F0541F478
:1056100081E09981911180E02196E6E00C94B82C0C
:105620000E94C02ACE0101960E94CE2AF8018193E1
:105630008F01EBCF529A5A9A089552985A9AEA9A41
:10564000E9E6F0E080818F7C808308956150770BDC
:1056500091E001C0990F6A95EAF720E031E09111DD
:1056600008C0222391F05A9A80E28A95F1F75A985D
:105670000895492F482339F05A9A232740E24A9542
:10568000F1F79695ECCF5A98F9CF5A98EDCFFF9253
:105690000F931F93CF93DF93EC018C01060F111D25
:1056A000C017D10729F4CDB7DEB7E5E00C94B92CCB
:1056B000F9900E94C82A68E08F2D0E94262BF0CF17
:1056C0001F920F920FB60F9211240F931F932F93D7
:1056D0003F934F935F936F937F938F939F93AF937A
:1056E000BF93EF93FF93CF93DF930F92CDB7DEB7C6
:1056F00019820E94C02ACE0101960E94CE2A082F4C
:10570000069506950695282F22952570902F957061
:10571000290F922F937026952695920F98279770B0
:105720008981982B09F05CC0073008F059C080E1EE
:105730008A95F1F75A9A529A82E08A95F1F700C059
:105740005A9888E0089F80011124D801AF5FBE4FAE
:105750001696ED91FC9117973097A9F06091B001E2
:105760007091B10114962D913C911597260F371F1A
:1057700011968D919C911297680F791F13964C91F9
:1057800013978C910995F801EF5FFE4F63816623B3
:1057900051F02091B0013091B10184819581820F47
:1057A000931F0E94472B0E94C82A80E18A95F1F737
:1057B0005A9852985A9A80E18A95F1F7F801EF5F6A
:1057C000FE4F6081662351F02091B0013091B1010C
:1057D00081819281820F931F0E94FA2A0E94C02A1F
:1057E0000F90DF91CF91FF91EF91BF91AF919F917A
:1057F0008F917F916F915F914F913F912F911F9169
:105800000F910F900FBE0F901F9018950F931F933D
:10581000CF93DF93EC0107970CF04CC0F894529AA9
:105820005A9885E08A95F1F700009C2F969595701F
:105830008C2F8570980F892F83709695969523E00D
:10584000CC0FDD1F2A95E1F7980F8E01092B0E94DE
:10585000C82A00C068E0802F0E94262B80E18A952C
:10586000F1F752985A9A4A9B1EC087E090E04A99F5
:105870001CC0FE01EF5FFE4F63816623F9F02091AB
:10588000B0013091B10184819581820F931F0E94F4
:10589000FA2A811113C0529A5A9A7894DF91CF91C3
:1058A0001F910F91089500C0DECF019729F4529AFD
:1058B0005A9A789480E0F2CF00C0D9CF0E94C02AD3
:1058C00080E28A95F1F75A98529A80E18A95F1F729
:1058D000CF5FDE4F6881662351F02091B001309197
:1058E000B10189819A81820F931F0E94472B0E94E8
:1058F000C82A789481E0D2CFAA1BBB1B51E107C014
:10590000AA1FBB1FA617B70710F0A61BB70B881F4F
:10591000991F5A95A9F780959095BC01CD010895DE
:105920002F923F924F925F926F927F928F929F92AF
:10593000AF92BF92CF92DF92EF92FF920F931F939D
:10594000CF93DF93CDB7DEB7CA1BDB0B0FB6F8944E
:10595000DEBF0FBECDBF09942A88398848885F848E
:105960006E847D848C849B84AA84B984C884DF80FF
:10597000EE80FD800C811B81AA81B981CE0FD11DE3
:105980000FB6F894DEBF0FBECDBFED010895991B91
:1059900079E004C0991F961708F0961B881F7A9526
:1059A000C9F78095089597FB072E16F4009407D049
:1059B00077FD09D00E947C2C07FC05D03EF4909521
:1059C00081959F4F0895709561957F4F0895A1E24D
:1059D0001A2EAA1BBB1BFD010DC0AA1FBB1FEE1F69
:1059E000FF1FA217B307E407F50720F0A21BB30BB4
:1059F000E40BF50B661F771F881F991F1A9469F730
:105A000060957095809590959B01AC01BD01CF018B
:105A10000895052E97FB1EF400940E94202D57FD3B
:105A200007D00E94E72C07FC03D04EF40C94202DE5
:105A300050954095309521953F4F4F4F5F4F0895BA
:105A400090958095709561957F4F8F4F9F4F0895EA
:105A5000EE0FFF1F0590F491E02D09940E94412D57
:105A6000A59F900DB49F900DA49F800D911D1124B2
:105A70000895B7FF0C942E2D0E942E2D821B930BA0
:105A80000895A29FB001B39FC001A39F700D811D17
:105A90001124911DB29F700D811D1124911D089537
:105AA000FB01DC0102C005900D9241505040D8F737
:105AB0000895FB01DC0104C08D910190801921F44F
:105AC00041505040C8F7881B990B0895FB01DC0139
:105AD00002C001900D9241505040D8F70895DC016A
