:100000000C94E8070C9420080C9420080C94DC2E27
:100010000C9420080C9420080C9420080C942008C0
:100020000C9420080C9420080C944D160C94511D2F
:100030000C94E6250C9420080C9420080C942008BD
:100040000C9420080C9420080C9420080C94200890
:100050000C9420080C9426170C9420080C9420086B
:100060000C9420080C9420080C9420080C94200870
:100070000C9420080C9420080C9420080C94200860
:100080000C9420080C9420080C9420080C94200850
:100090000C9420080C9420080C9420080C94200840
:1000A0000C9420080C9420080C9420080000008078
:1000B0008080000000000000000000000000000040
:1000C0000000000000000000000000007CC711F8E4
:1000D0000E030000000000000000000000C0601CD3
:1000E000060890101008841E30C00000E0371C0085
:1000F000030202010302060C08080C0407010000B9
:10010000000001000800C120100805021F1030E0A7
:1001100080838E889890B0D03020202027283820E7
:10012000C38488B0C08FF10000000000F88C04FC8C
:1001300000000000000000000000000000000000BF
:10014000000000000000000000000000001FF0039D
:100150003EC0808040C080800000000000C0601C65
:10016000060890101008841E30C0000000F80D072B
:100170000000C08000000001030A0C040701000019
:10018000000001000800C12010080502000F38E03F
:10019000808080819F90B0D0302020202728382078
:1001A000C38488B0C08FF100000000000000000090
:1001B00000000000000000000000008070182040D7
:1001C0004040201078C00000000000000000000047
:1001D0000000000000000000809CE7010000000615
:1001E000002000060040A31408000000000000F0FA
:1001F0000CE212090913FE0F0100002020C00000CC
:100200000000000000F01E010000000000000007D8
:100210000C39236644484F702020604040474C789A
:1002200020604E4878677C0000000000000000005D
:100230000000000000000000000000807018204056
:100240004040201078C0000000000000000000C006
:10025000602020C000000000809CE7010000000634
:10026000002000060040A3140800000000001FE169
:1002700000FE03010000F80F0100002020C0000074
:100280000000000000F01E01000000000000000758
:100290000C39236644484F702020604040474C781A
:1002A00020604E4878677C000000000000000000DD
:1002B000000000008080808080000000000000C0FE
:1002C00060800000008040E00000000000C0380CAA
:1002D00002030101010000080931E1010161C201CD
:1002E0000000111181001011038C5020000718101C
:1002F0002040C0983020202040406724BCB0A0B0EF
:1003000050100818101010161D000000000000000A
:1003100000000001010101010101010101000000D3
:1003200000000000000000000000000000000000CD
:10033000000000008080808080000000000000C07D
:1003400060800000008040E00000000000C0380C29
:1003500002030101010000080931E1010161C2014C
:100360000000111181001011038C5020000718307B
:10037000206080183040C040C08087845C702010AE
:1003800010100818101010161D00000000000000CA
:1003900000000001063840433C000000000000005F
:1003A00000000000000000000000000000000080CD
:1003B000808000000000000000000000000000003D
:1003C0000000000000000000000000007CC711F8E1
:1003D0000E030000000000000000000000C0601CD0
:1003E000060890101008841E30C00000E0371C0082
:1003F000030202010302060C08080C0407010000B6
:10040000000001000800C120100805021F1030E0A4
:1004100080838E889890B0D03020202027283820E4
:10042000C38488B0C08FF10000000000F88C04FC89
:1004300000000000000000000000000000000000BC
:10044000000000000000000000000000001FF0039A
:100450003EC0808040C080800000000000C0601C62
:10046000060890101008841E30C0000000F80D0728
:100470000000C08000000001030A0C040701000016
:10048000000001000800C12010080502000F38E03C
:10049000808080819F90B0D0302020202728382075
:1004A000C38488B0C08FF1000000000000C020109D
:1004B000D030000000000000008080403C140408A0
:1004C00090180408B04080000000000000030408F9
:1004D0001011F901010101010100000000000000FC
:1004E00080C848282A100F0000000000000000000B
:1004F00000000001020C1020283702020408102618
:100500002B3204050600000000000000000000007F
:1005100000000000000000000000000000000000DB
:1005200000000000000000000000000000E01010CB
:10053000F00000000000000000808040402C140407
:100540000890180408B04080000000000003040870
:100550001011F9010101010101000000000000007B
:100560000080C048282A100F204A0910000000000F
:1005700000000001020C1020283702020408102697
:100580002B320405060000000000000000000000FF
:10059000000000000000000000000000000000005B
:1005A00000000000000000000000000029001E0004
:1005B0001F00200021002200230000002B00140057
:1005C0001A000800150017001C000000E0000400DD
:1005D0001600070009000A0000000000E1001D00ED
:1005E0001B0006001900050000000000E000215279
:1005F000E200E30022522C00000000002A002E003E
:100600002D002700260025002400000031003000C6
:100610002F00130012000C0018001C0028003400EA
:1006200033000F000E000D000B00000035005200DB
:100630003800370036001000110005004F0051004F
:1006400050002352E7004C002800000001003A004F
:100650003B003C003D003E003F0000000100010067
:100660000100010001000100010000000100010083
:100670000100010001000100000000000100010074
:100680000100010001000100000000000100010064
:100690000100010001000100000000000100450010
:1006A00044004300420041004000000001000100FE
:1006B0000100010001000100010001000100010032
:1006C0000100010001000100010000000100010023
:1006D0000100010001000100010001000100010012
:1006E0000100010001000100010000000100010003
:1006F00001000100010001000100000001000100F3
:1007000001000100010001000100000001000100E2
:1007100001000100010001000000000001000100D3
:1007200001000100010001000000000001000100C3
:1007300001000100010001000000000001000100B3
:1007400001000100010001000100000001000100A2
:10075000010001000100010001000100DA00D300E6
:10076000D90001000100010001000000D200CD000D
:10077000D10001000100010001000100D000CE0005
:10078000CF00010001000100010000000100010094
:100790000100010001000100010000000100010052
:1007A0000100010001000100010000000100010042
:1007B0000100010001000100000000000100010033
:1007C0000100010001000100000000000100010023
:1007D000010001000100010000000000207801007C
:1007E0000100010001000100010000000100010002
:1007F00001000100010001000100010001000100F1
:1008000001000100010001000100000025782778A7
:1008100026780100010001000100010023782878FA
:1008200024780100010001000100000000DA0281CB
:10083000FFD9F1DB20A4A62EAF00A0C000A1C80004
:10084000AED580A81FD300408D1420008081828304
:100850008485868788898A8B8C8D8E8F90919293E0
:1008600094A0A1A2A3A4A5A6A7A8A9AAABACADAE2B
:10087000AFB0B1B2B3B4C0C1C2C3C4C5C6C7C8C9A2
:10088000CACBCCCDCECFD0D1D2D3D4000001010180
:10089000010101010101020202020202020202033D
:1008A000030303030303030404040404040405050D
:1008B00005050506060606060707070707080808D0
:1008C00008090909090A0A0A0B0B0B0C0C0C0D0D7F
:1008D0000D0E0E0E0F0F0F10101111111212131317
:1008E0001414151516161717181819191A1A1B1B90
:1008F0001C1D1D1E1E1F20202122222324242526EC
:1009000026272829292A2B2C2D2D2E2F3031323223
:10091000333435363738393A3B3C3D3E3F4041422F
:10092000434445464748494A4C4D4E4F5051535415
:10093000555658595A5B5D5E5F61626465666869C9
:100940006B6C6D6F7072737577787A7B7D7E808249
:10095000838587888A8C8E8F91939596989A9C9E92
:10096000A0A2A3A5A7A9ABADAFB1B3B5B7BABCBEA2
:10097000C0C2C4C6C9CBCDCFD1D4D6D8DBDDDFE26F
:10098000E4E7E9EBEEF0F3F5F8FAFDFF00AF00AEB7
:1009900005010902A10185020901A100050919014A
:1009A0002908150025019508750181020501093006
:1009B00009311581257F9502750881060938158151
:1009C000257F950175088106050C0A3802158125D9
:1009D0007F950175088106C0C005010906A10105C2
:1009E0000719E029E7150025019508750181029591
:1009F00001750881010507190029FF150026FF0070
:100A000095067508810005081901290595057501E8
:100A10009102950175039101C009023B000201009A
:100A2000A0FA0904000001030101000921110100DD
:100A300001224000070581030800010904010001AB
:100A4000030000000921110100012249000705826D
:100A5000032000011201000200000008544B0100B5
:100A60000100010200010C036D0061003800690003
:100A70006300000016036B0061007A006D006500E2
:100A8000650067006100770061000000040309044D
:100A90000000000000003E5B4F5B3E003E6B4F6B72
:100AA0003E001C3E7C3E1C00183C7E3C18001C573F
:100AB0007D571C001C5E7F5E1C0000183C18000067
:100AC000FFE7C3E7FF00001824180000FFE7DBE79B
:100AD000FF0030483A060E00262979292600407F7B
:100AE00005050700407F05253F005A3CE73C5A00BA
:100AF0007F3E1C1C0800081C1C3E7F0014227F2225
:100B000014005F5F005F5F0006097F017F000066E1
:100B100089956A0060606060600094A2FFA2940002
:100B200008047E04080010207E20100008082A1CFB
:100B30000800081C2A0808001E10101010000C1EC7
:100B40000C1E0C0030383E383000060E3E0E0600FB
:100B500000000000000000005F0000000007000728
:100B60000000147F147F1400242A7F2A120023130C
:100B70000864620036495620500000080703000050
:100B8000001C224100000041221C00002A1C7F1C86
:100B90002A0008083E08080000807030000008089D
:100BA000080808000000606000002010080402002F
:100BB0003E5149453E0000427F400000724949498C
:100BC00046002141494D33001814127F100027457B
:100BD000454539003C4A4949310041211109070086
:100BE000364949493600464949291E00000014008B
:100BF00000000040340000000008142241001414DA
:100C000014141400004122140800020159090600BE
:100C10003E415D594E007C1211127C007F494949CA
:100C200036003E41414122007F4141413E007F4923
:100C3000494941007F09090901003E4141517300C2
:100C40007F0808087F0000417F4100002040413FAD
:100C500001007F08142241007F40404040007F0295
:100C60001C027F007F0408107F003E4141413E008E
:100C70007F09090906003E4151215E007F091929BB
:100C8000460026494949320003017F0103003F40E5
:100C900040403F001F2040201F003F4038403F00A1
:100CA0006314081463000304780403006159494D78
:100CB0004300007F41414100020408102000004130
:100CC00041417F00040201020400404040404000D6
:100CD0000003070800002054547840007F28444453
:100CE0003800384444442800384444287F003854AD
:100CF0005454180000087E0902001824241C7800AF
:100D00007F080404780000447D4000002040403DFE
:100D100000007F102844000000417F4000007C0458
:100D2000780478007C08040478003844444438008F
:100D30007C1824241800182424187C007C0804043F
:100D4000080048545454240004043F4424003C4008
:100D500040207C001C2040201C003C4030403C00D7
:100D60004428102844004C9090907C004464544CDB
:100D700044000008364100000000770000000041F8
:100D8000360800000201020402003C2623263C0033
:100D90000000000000000000000000000000808053
:100DA00080C0C0C0C0E0E0E0E0E06070F0F0F0F0D3
:100DB000F0F0F0F0F0F0E0E0E0A0E0E0E0E0F0F0F3
:100DC000F8F8FCEC7CFEFEFEDECEC6C0C0C0C080E3
:100DD00080808080808080C0C0E0E0F078208080CB
:100DE000C0C0E0F8800000C0FED8F0C0E0C0FC80C9
:100DF0008000000000E08000000000000000000013
:100E00000000000000000000000000000000E0F012
:100E1000F0F0E0ECEEF7F37020007C7C7C7E007E4E
:100E20007E7E7F7F7F000080C0E07E5B4F5BFEC0E8
:100E30000000C000DCD7DEDEDED7DC00C000000032
:100E400000000000000000000000000000000000A2
:100E50000000000000000000000000000001333727
:100E60003C606061E1E1E3E3E7EFEEFEFFFFFFFFDF
:100E7000FFFF7FFBFBFFFFFEFEFFEFFFFFDFDFD982
:100E8000F9FFFFFFCFCFFFF7F7FFFFF7E6BFBFFF89
:100E9000FFEFEFFBFBBFBFFFF7FDFDDFDBFF7F7D5C
:100EA000DFDEFE7F1F7EFCEFFFFF3DFF8F070F1E83
:100EB000073F0EFFF63F0D073E0C0E04081F00060D
:100EC00000380000000000000000000000000F1FBC
:100ED0003F7F7F7F7F7F3F1E0C001F1F1F3F003F14
:100EE0003F3F7F7F7F00307B7F7830202030787FCE
:100EF0003B0003000F7F0F0F0F7F0F000300000068
:100F000000000000000000000000000000000000E1
:100F100000000000000000000000000000000000D1
:100F2000000000000000000008181C1E1E0F0F0F1C
:100F30000707030303030303071F3F3F3E7E6F7F43
:100F40007F777527070707060F1F3F3F7F7F7F7655
:100F500062430303010101030303060606060E0CA8
:100F600008010300000003073E07000F0300000014
:100F7000000000000300000000000000000000006E
:100F80000000000000000000000000000000000061
:100F90000000000000000000000000000000000051
:100FA0000000000000000000000000000000000041
:100FB0000000000000000000000000000000000031
:100FC0000000000000000000000000000000000021
:100FD00011241FBECFEFDAE0DEBFCDBF04B603FEA3
:100FE00018C08091EB079091EC07A091ED07B091AC
:100FF000EE078730904BA740B04B59F41092EB07A7
:101000001092EC071092ED071092EE07E0E0F8E383
:10101000099527E0AEEDB2E001C01D92AB3EB207EC
:10102000E1F712E0A0E0B1E0ECEAF3E602C00590DF
:101030000D92AE3DB107D9F70E940D260C9499315F
:101040000C940000CF93DF934091E9075091EA0799
:10105000495E55409A0120583F4F21303240C0F040
:1010600020E032E0241B350B6091E7057091E80524
:10107000FC01CA01240F351FC1E0D0E0821793079D
:1010800050F07093E8056093E705DF91CF910895E4
:1010900020E830E0E9CF4491DC01A751BA4F5C91E0
:1010A000451781F04C93AC01A5E056954795AA955C
:1010B000E1F7DE0102C0AA0FBB1F4A95E2F7AD01BE
:1010C0006A2B752B01963196D9CFFC01AC014B5F91
:1010D0005F4F8FEF91E32191822728E030E087FF77
:1010E00009C0880F892721503109C9F7E417F5078E
:1010F00091F70895880FF7CFE8EDF0E080818E7FBB
:1011000080831092E2001092DA001092E100A0EECB
:10111000B0E08C9181608C9380818F77808319BC43
:10112000A7EDB0E08C918E7F8C9380818F7E808341
:101130001092990508952091E4003091E50095E61C
:10114000A9012091EC00822F817020FF06C08091C0
:10115000E80080FF06C080E008952091E80022FDAD
:101160001AC08091A705882389F0853089F0809185
:10117000EB0085FD0FC02091E4003091E50042179F
:101180005307F9F29150E1F684E0089582E0089562
:1011900083E0089581E008958091A90587FF13C039
:1011A0008091E80082FF06C08091E8008B778093F1
:1011B000E80004C08091A7058111F2CF08958091C5
:1011C000A7058823D9F38091E80080FFF8CF8091AC
:1011D000E8008E77ECCF982F9093E900242F762F9C
:1011E00050E0891731F07091EC002091ED005091A2
:1011F000F00021FD07C09F5F973071F78093E900F1
:1012000081E008953091EB003E7F3093EB00309108
:10121000ED003D7F3093ED003091EB003160309375
:10122000EB007093EC002093ED005093F0002091C0
:10123000EE0027FDE0CF80E00895B0E0A0E0E3E21B
:10124000F9E00C941630C8EDD0E088818F7E888359
:10125000E7EDF0E080818160808384E082BF81E0FF
:101260008093990588818E7F888302EE10E0F801D3
:1012700010821092DA0081EEC82ED12CF601108275
:1012800088818F77888388818068888388818F7D33
:10129000888319BC1092A7051092A8051092A60584
:1012A0001092A50590EEE92EF12CF70180818B7F3D
:1012B000808388818160888342E060E080E00E94D2
:1012C000EB08F60180818E7F8083F8018081816048
:1012D0008083808188608083F70180818E7F808316
:1012E000888180618883CDB7DEB7E8E00C94323026
:1012F000FC018091AF059091B00586179707A0F08B
:101300006115710529F49091E8009E779093E800AB
:1013100090E06115710551F4911108C08091E800C9
:1013200082FF34C080E00895BC01F2CF8091A70510
:101330008823C1F18530C1F18091E80083FD30C080
:101340008091E80082FDEACF8091E80080FFE1CF44
:101350008091F3002091F200382F6115710519F08A
:101360002830310558F091E02830310509F090E03F
:101370002091E8002E772093E800CBCF81918093D5
:10138000F100615071092F5F3F4FE7CF8091A705B2
:10139000882341F0853041F08091E80083FFBECF83
:1013A00081E0089582E0089583E008950895809192
:1013B0009C050895CF92DF92EF92FF922FB7F89499
:1013C000C0909505D0909605E0909705F09098050F
:1013D0002FBFA7019601261B370B480B590BCA01DB
:1013E000B901FF90EF90DF90CF9008952FB7F89458
:1013F000609195057091960580919705909198055B
:101400002FBF08952091E00536E0839FC00111248D
:10141000629F800D911D1124811522E0920714F026
:1014200090E080E087519A4F9093EA078093E90714
:101430000895FA01811101C0FB0109950895E1EBBE
:10144000F5E0248130E1231B08F420E0248380911F
:10145000BC0481608093BC040895E1EBF5E0248135
:1014600030E1230F08F42FEF24838091BC048160C6
:101470008093BC0408959091B105937059F08093C6
:10148000B2056093B3054093B4058091BC04822BF0
:101490008093BC040895E1EBF5E0438120E1421B19
:1014A00008F440E0818121E0628190E00E943B0AE3
:1014B0000895E1EBF5E0438120E1420F08F44FEF9E
:1014C000818121E0628190E00E943B0A0895E1EB76
:1014D000F5E0628120E1621B08F460E0818121E097
:1014E000438190E00E943B0A0895E1EBF5E06281C0
:1014F00020E1620F08F46FEF818121E0438190E0E9
:101500000E943B0A0895E1EBF5E0818121E04381EF
:1015100062818850990B0E943B0A0895E1EBF5E047
:10152000818190E021E04381628108960E943B0A1C
:1015300008959091B105937061F081110BC0946092
:101540009093B105109255018091BC04862B809335
:10155000BC040895803110F09C63F2CF880F880F8F
:10156000982BEECF8091B10586958695815009F430
:101570008FE061E00E94990A08958091B1058695F7
:1015800086958F5F803108F081E061E00E94990AC2
:101590000895EF92FF920F939701201B31092F3F7F
:1015A000310519F010F02FEF30E02095382F320F71
:1015B00008F43FEF832F0F91FF90EF900895EF9283
:1015C000FF920F939701201B31092F3F310519F02E
:1015D00010F02FEF30E0322F3095482F430F08F4F2
:1015E0004FEF842F620F0F91FF90EF900895EF92CD
:1015F000FF920F93972F093438F4B701601B7109DC
:101600006F3F710519F010F06FEF70E0485F5F4FAA
:101610004131510540F0A901485F5F4F413151050B
:1016200010F06FEF70E06095482F460F08F44FEF11
:10163000842F37FF02C02D5F3F4F35952795359595
:1016400027956091B205620F792F0F91FF90EF906F
:101650000895EF92FF920F931F930E0D1F2D111DF2
:10166000F90137FF03C0F195E195F10924E0EE0F90
:10167000FF1F2A95E1F7EF3FF10519F014F0EFEFA6
:10168000F0E09A0157FF03C031952195310994E0AC
:10169000220F331F9A95E1F72E173F070CF4F9013B
:1016A000E00FF11FEF3FF10519F010F0EFEFF0E060
:1016B000E095282F3E2F230F08F42FEF822F1F9144
:1016C0000F91FF90EF900895EF92FF920F93970183
:1016D00095E0099F200D311D11242F3F310519F090
:1016E00010F02FEF30E02095382F320F08F43FEF45
:1016F000832F0F91FF90EF90089522E8241B08F4A8
:1017000020E0620F08954095282F429F412D11241B
:10171000842F08950E9406130895FF920F931F933C
:10172000CF93DF93182F062FF42ED0E0C0E02F2D9B
:10173000402F612FCE010E948A0B2196C534D1051E
:10174000B1F7CDB7DEB7E5E00C943530AC018230AF
:10175000910508F408959FEF413E8EE1580740F44B
:101760009A0195E0369527959A95E1F798E0920FC2
:1017700061E0E62FE90FFF27FF1F9F0135952795B1
:10178000822F229FF001239FF00DF00D11244E17A0
:101790005F0738F49FEF920F961758F78FEF860F79
:1017A00008952F3FE9F361E0620FF6CFAF92BF9249
:1017B000CF92DF92FF920F931F93CF93DF93362F39
:1017C000472FE82FF0E0E457F74F71110FC0E49175
:1017D0008E2F2E2F6E2F722FDF91CF911F910F9191
:1017E000FF90DF90CF90BF90AF900895C72FD0E0CB
:1017F0002491F22E022F10E056E0659FC0011124C3
:10180000EFEFF0E0BF010E94F82F832F90E0880FE8
:10181000991F35E5369FD001379FB00D11248A1BE3
:101820009B0B982F990F980F6F01CC1ADD0AC09E61
:10183000D001C19EB00DD09EB00D11248B2F499FB9
:10184000A0011124452F55276F01C41AD50AC09E47
:10185000A001C19E500DD09E500D11245F01A91A08
:10186000B108AC9E6001AD9ED00CBC9ED00C112482
:10187000CD2CDD24EC19FD09E09FE001E19FD00DA6
:10188000F09FD00D1124ED2F62307105A1F050F4BE
:101890006115710509F49ECF6130710581F0EB2F60
:1018A000852F98CF6430710569F080F0663071053E
:1018B00009F490CFF4CFE22F2B2F8D2F8BCFE22F77
:1018C000252F88CFEB2F822F2D2F84CF2B2F8F2DDD
:1018D000E52F80CF80912B0480FD16C081FD16C0BE
:1018E00082FD16C080912A048823A1F0883280F4FA
:1018F00028E0829FC001112468E270E00E944F300E
:10190000862F672B39F0089582E0089584E00895CA
:1019100088E0089581E0089580912B0480FD14C033
:1019200081FD14C082FD16C080912904882381F0B6
:101930008E3180F420E5829FC00111246EE170E0B9
:101940000E944F30862F089584E1089588E208951B
:1019500088E0089580E5089580E00895F894E82FE0
:10196000E295EF70F0E031A1282F2F7081E090E038
:1019700001C0880F2A95EAF7982F9095932391A399
:1019800092A1892B82A3789408959091A00392FF4D
:1019900006C0282F28712830F9F4877F846093FFD0
:1019A00006C0282F28712831F1F4877E84612091A8
:1019B000A10320FF06C0382F38713830D9F4877F53
:1019C000816021FF06C0282F28712831D1F4877E3D
:1019D000816194FD877E0895282F24712430F9F6C3
:1019E0008B7F8860DCCF282F2471243101F78B7E18
:1019F0008861DDCF382F3171313019F78E7F8860E3
:101A0000E0CF282F2171213121F78E7E8861E1CF2F
:101A100082389105B9F1B0F48133910509F47DC0A4
:101A200048F48932910509F46DC08A32910509F4B0
:101A30007BC008958533910509F45FC08933910512
:101A400009F10895833E9105D9F138F4803E91055E
:101A500029F1823E910579F10895863E9105D9F1EB
:101A6000873E910509F43EC0843E910541F52091E1
:101A7000A10321FF24C08091A00384FD19C087EE3B
:101A800090E008952091A003237009F05AC020919E
:101A9000A10323FF14C089E290E008952091A003E0
:101AA00020FD38C03091A10330FF09C024FF43C09E
:101AB00090E080E008952091A00322FDF7CF0895E3
:101AC0002091A00322FD3AC03091A10330FD39C01E
:101AD00024FFF5CFEDCF2091A00323FFF0CF24FD0D
:101AE000E7CFCDCF2091A00323FD2EC03091A103DD
:101AF00031FFEECF84EE90E008952091A00325FF02
:101B0000DECFC9CF2091A00325FD21C02091A103E4
:101B100023FFD5CF89E390E0D2CF2091A00326FF09
:101B2000CECF8AE290E008952091A00326FFC7CF90
:101B300081E390E0089583EE90E0089582EE90E0D6
:101B4000089580EE90E0089586EE90E0089585E394
:101B500090E008957A30C8F46830B8F48430C0F466
:101B6000E72FF0E09AE0899FE00DF11D112483E05A
:101B7000EE0FFF1F8A95E1F7E60FF11DEE0FFF1F35
:101B8000E455FA4F85919491089580E090E008958E
:101B900081E0FCCF1F93CF93DF930E94080DEC01EF
:101BA000C11582E5D80708F03FC0C11580E5D80708
:101BB00008F0BCC0C83ED105C0F4C03ED10580F4D9
:101BC000C53AD10548F4C430D10550F4C130D1052F
:101BD00039F0D0E0C0E004C0CD3CD105D0F3D065F1
:101BE000CE01DF91CF911F910895C11580E4D807F0
:101BF00008F06BC0C11580E2D80708F0B1C0C1156C
:101C000081E0D80730F38D2F0E94C50C182FCE012C
:101C100099270E94080DC12FD0E0DC2FCC27CC27BC
:101C2000DF71C82BD92BDCCFC03682E5D807F0F4A2
:101C3000C03482E5D80708F059C0C03282E5D80721
:101C400008F04DC02C2F2695269580E2289F900104
:101C500011248C2F8370C1E0D0E002C0CC0FDD1FB7
:101C60008A95E2F7C22BD32BDD68BACFC03C82E560
:101C7000D807F8F4C03A82E5D80708F04CC0C0385D
:101C800082E5D80708F0A5CF2C2F2695269527703A
:101C900080E2289F900111248C2F8370C1E0D0E056
:101CA00002C0CC0FDD1F8A95E2F7C22BD32BDA6876
:101CB00097CFC03E82E5D80708F08BCFDC2FCC272A
:101CC000CC27DF71C06FD06A8BCFCE0199270E94DD
:101CD000080DCC27DF70C82BD92BD06A81CFCF71EC
:101CE000D0E0DC2FCC27C16FD06A7ACF2C2F26957D
:101CF0002695277080E2289F900111248C2F8370F5
:101D0000C1E0D0E002C0CC0FDD1F8A95E2F7C22B04
:101D1000D32BDC6865CF8C2F8F710E94C50CC82F28
:101D2000D0E0DC2FCC27CC27DF715ACF8C2F8F71DE
:101D30000E94C50C55E0D695C7955A95E1F7CF702E
:101D4000D0E0DC2FCC27282F30E084FF05C044E012
:101D5000220F331F4A95E1F7C22BD32BD06940CF16
:101D60008D2F8F710E94C50C182FCE0199270E94CC
:101D7000080DC12FD0E0DC2FCC27CC27DF71C82B7A
:101D8000D92BD0622DCF20914A039091190356E0B0
:101D9000291302C080E0089530E0529FF001539F64
:101DA000F00D1124E65EFC4F7181761306C0708140
:101DB000781303C07281741304C02F5F3F4F2770E4
:101DC000E7CF81E0089580914A0390911903981319
:101DD00001C008958F5F8770FACFB0E0A0E0E3EF15
:101DE000FEE00C9415307C010091FD031091FE0380
:101DF0008091FF0390910004082B192BCFE0D0E0D5
:101E0000CC24C394D12CBC2EC6010C2E02C0880F4A
:101E1000991F0A94E2F780239123892B49F4219793
:101E200090F7B12C8B2DCDB7DEB7E9E00C943130B3
:101E3000B7018C2F0E94AA0D0E94CA0D019779F359
:101E4000F1CFCF93DF93EC010E94ED0EBE010E9413
:101E5000AA0D0E94CA0DDF91CF9108959A3070F5B6
:101E6000883060F528E0929FF0011124E80FF11D01
:101E70006E2F677083E0F695E7958A95E1F7EE0F90
:101E8000FF1FEE0FFF1FE551FD4F50E040E080E0E7
:101E9000219130E0062E02C0369527950A94E2F78C
:101EA00021703327042E01C0220F0A94EAF7822BF7
:101EB0004F5F5F4F4430510559F7089580E0089512
:101EC0009A3090F5883080F528E0929FF001112437
:101ED000E80FF11D2E2F277041E001C0440F2A9515
:101EE000EAF783E0F695E7958A95E1F7EE0FFF1F95
:101EF000EE0FFF1FE551FD4F30E020E070E0519103
:101F0000DF011197CB01022E02C0969587950A94A6
:101F1000E2F7817081958527842385278C932F5F35
:101F20003F4F2430310559F708959093FE03809375
:101F3000FD03089521E030E002C0220F331F8A958F
:101F4000E2F7209530958091FD039091FE03822366
:101F500093230E94950F089521E030E002C0220FE4
:101F6000331F8A95E2F78091FD039091FE03822B47
:101F7000932B0E94950F0895909300048093FF0384
:101F80000895FC0183819481892B29F080819181BE
:101F900089238F3F51F480E00895843FE1F717C013
:101FA000883EA8F0813FB9F712C0808191810E94DC
:101FB000210F92959F70963099F358F4925F9F701D
:101FC000923048F7803F19F040F7883E20F781E0D3
:101FD00008959A5FF4CF292F332740E0211531056A
:101FE00011F0C90148E09C0164E0369527956A9597
:101FF000E1F72115310511F04C5FC9019C013695BF
:102000002795369527952115310511F04E5FC901A9
:1020100096958795892B09F04F5F842F0895CF936C
:10202000DF93C091E907D091EA078A30C1F420918B
:10203000E005CE01895E9540622F70E00E94F82F86
:10204000281B822F66E00E944330C82FC15018F42D
:10205000DF91CF91089580E20E940F10F7CF8D306D
:10206000E9F4C95ED5402091E005622F70E0CE0111
:102070000E94F82F281B822F9E01280F311D211549
:10208000324018F080E0D0E0C0E0C80FD11DC75149
:10209000DA4FD093EA07C093E907DACF96E0FE0162
:1020A000A1EEB5E001900D929A95E1F7803E08F41B
:1020B00058C086E0FE0111928A95E9F7C091E907C0
:1020C000D091EA0746E050E0BE0181EE95E00E9423
:1020D000CE309E01295E3540892B41F1C90145E092
:1020E000969587954A95E1F741E050E0BA0102C024
:1020F000660F771F8A95E2F7CB016091E705709133
:10210000E805862B972BB9016B5F7F4FE5E076954D
:102110006795EA95E1F702C0440F551F6A95E2F70B
:10212000842B952B9093E8058093E7052A5F3F4F1A
:102130004091E005642F70E0C9010E94F82F481B10
:10214000463010F4240F311D211572E0370710F0CE
:1021500030E020E027513A4F3093EA072093E90717
:1021600077CFF6E08F9FB00111246057754F46E09E
:1021700050E0CE010E94C530A1CF80919A05909188
:102180005303892B8093E00248E050E06BE473E056
:1021900080EE92E00E94CE30892BA9F088E0E0EE3C
:1021A000F2E0ABE4B3E001900D928A95E1F7E091A3
:1021B0009205F0919305309731F00280F381E02D84
:1021C00080EE92E009950895882341F080959091E2
:1021D0009A05892380939A050E94BD10089588234B
:1021E00039F090919A05982B90939A050E94BD1012
:1021F00008950F931F93CF93DF93EC01FC0101909F
:102200000020E9F78F0101501109C017D10728F00C
:10221000DF91CF911F910F91089589910E940F1026
:10222000F4CF2F923F92CF93DF93E1016A818881AF
:102230009091E902911104C09091040191112EC076
:102240006E5F0E94020A8AE691E00E94F9106A819C
:10225000615088810E94020A81E0809304012091EC
:10226000E80230E02F5F3F4F217033272093E802D0
:1022700081E090E0821B930B9695982F8827979585
:1022800087952091010421FF15C084559B4F0E9422
:102290002208DF91CF913F902F90089561500E94C6
:1022A000020A8AE691E00E94F9106A8188810E9400
:1022B000020AD5CF2091EA02222319F084559C4FBF
:1022C000E6CF20910204309103042B3031051CF439
:1022D00084559D4FDCCF293231051CF484559E4F27
:1022E000D6CF84559F4FD3CFB0E0A0E0EAE7F1E12D
:1022F0000C9416306C017B0164E670E088E70E9464
:10230000562DEC0197FD12C010E000E0F601E00F41
:10231000F11F849164E670E00E94C22DEC01892BCC
:1023200029F40F5F1F4F0E151F0581F70E94382EED
:10233000CE01CDB7DEB7E8E00C9432308091900545
:1023400090919105911103C091E089270895882308
:1023500069F062E070E08EE899E00E947411892BC8
:1023600019F0809190050895109290058091900544
:10237000EBCFCF93C0919005809191058823D1F048
:102380000E94F609605A75418F4F9F4F60938C05EC
:1023900070938D0580938E0590938F05C11108C0B1
:1023A00062E070E08CE899E00E947411892B29F0BA
:1023B000C09190058C2FCF91089581E08093900576
:1023C000F7CF0F931F93CF93DF938B01EA01909187
:1023D000A705943061F58093E9008FEF9091E800B4
:1023E000815095FD06C095ED9A95F1F70000811199
:1023F000F5CF8091E80085FF1AC00E949B088111EB
:1024000011C08091E80085FD06C08091E8008E77BC
:102410008093E800F2CFF80181918F018093F10061
:10242000219779F78091E8008E778093E800DF911B
:10243000CF911F910F91089546E050E0BC0182E0DA
:102440000E94E1110895CF93DF93EC0148E050E042
:10245000BC0181E00E94E11188E0FE01ADE9B5E038
:1024600001900D928A95E1F7DF91CF910895539AEB
:102470003BB1377F2BB128604FB7F8948DEB94E0D8
:10248000FC015191CF0168E02BB9000000C057FF5B
:102490003BB9550F000000C000C000C03BB900C0F0
:1024A0006A9591F7F5E08C389F0751F74FBF8FE59C
:1024B00094E00197F1F700C000000895B0E0A0E0BB
:1024C000E4E6F2E10C9414307C015B016A01809136
:1024D0008F0301E010E08A3010F40AE010E0C1E060
:1024E000D0E0B501C701F6010995811104C021961C
:1024F0000C171D072CF4CDB7DEB7EAE00C94303092
:10250000CC9F9001CD9F300D300D112490E080E0E4
:1025100045E34A95F1F70000019682179307C1F74A
:10252000E0CF80916003811119C088EC90E0209188
:10253000E30027FD10C0EFE3FCE93197F1F700C09D
:1025400000000197A1F782E0809360030E947C085D
:102550001092A70503C081E08093600381E0909111
:102560006003913011F080E0089508950E94911267
:10257000882359F0E0919205F0919305309729F066
:102580000190F081E02D0995089580E008950F9362
:102590001F930E949112882329F00E94F6091F912F
:1025A0000F9108950E94F6090091900310919103F4
:1025B0002091920330919303600F711F821F931F2C
:1025C000EECFE1EBF5E085E0808380915A019091B8
:1025D0005B01A0915C0181839283A3838FE7848355
:1025E0008FEF858346E050E06CE170E0CF010E9400
:1025F00002311092BC0408958EE090E00E94F43005
:1026000091E0811101C090E0892F0895FF920F930E
:102610001F93CF93DF93EC01F62E042F122F0E940D
:10262000FC1281110FC0C032D1057CF0A097FE01D1
:10263000EE0FFF1FEC0FFD1FE354FB4FF1820083F1
:10264000128303C0C032D10594F3CDB7DEB7E5E005
:102650000C943530CF93C82F0E94FC12882329F0A8
:1026600081E0C03228F080E003C081E0C534D8F7B3
:10267000CF910895A8E0B0E0E0E4F3E10C940C30D1
:10268000282E7C836B83209157018EE0289F802D1C
:1026900011248D83825F8983863410F035E4398379
:1026A0000E94FC12882309F496C08981813210F0BF
:1026B00090E29983E091B705EA833D81232F30E0D2
:1026C00038872F83C901880F991FFC01E25FFD4FF6
:1026D0006F01822D90E09C012F5F3F4F3E832D8341
:1026E00089819F81981730F00E942A132896E2E191
:1026F0000C942830EF81F885E856FD4F8081909149
:1027000058018923F9F03090B2054090B3058D81CE
:102710009E8189549A4F3C01522C10E0FA815F1639
:10272000D8F02091B405129F112D1124632D742D22
:10273000812F0E94D60B462F282F672F8F819885D7
:102740000E948A0B2F8138852F5F3F4F38872F8358
:1027500032E0C30ED11CC4CFF30181913F01F601D9
:10276000A080A81ABB088180F3018781881A990884
:10277000AA9C9001AB9C300D300D1124889CC001A7
:10278000899C900D900D1124820F931F0E94A60B1F
:102790002091B50531E0230F08F42FEFF301EE0F80
:1027A000FF1FE75BF54045895689F12CE12C429FDC
:1027B000E12C529FE00CF11C1124082F9401A5017B
:1027C000632D742D812FEB81FC810995362E472EC8
:1027D0005394182FA3CFED81E03208F06BCFF0E2D5
:1027E000FD8368CFB0E0A0E0E8EFF3E10C94143093
:1027F0007C01C09157018EE0C89FC02D11241EE0BE
:102800001C0F163408F015E40E94FC12882309F40A
:1028100063C0113208F010E22091B50531E0230FBA
:1028200008F42FEF30E050E040E06FEF7FEF80E002
:1028300090E00E9436316901D0E001E0B12CA12C7A
:102840002C2FC11740F0812F0E942A13CDB7DEB77D
:10285000EAE00C943030FE01E856FD4F8081909103
:102860005801892329F18091B7058150082E000C69
:10287000990B87FF1FC0B6013091B505300F08F4E2
:102880003FEFA501639F412D739F400D511D112402
:102890006091B2057091B3058091B405F701099577
:1028A0000E94D60B462F282F672FCE010E948A0B3D
:1028B0002196C6CFFC01E954FA4F318932130AC080
:1028C000FC01EE0FFF1FE954FA4F618D728D6C15FC
:1028D0007D0590F20197CDCFC03208F09DCFC0E2C8
:1028E0009BCFB0E0A0E0E7E7F4E10C941630C82FEE
:1028F0007B01D42F6901FB01608171818281938109
:102900000E94DA09643671058105910510F4DD2312
:1029100059F10C2E000CDD0BFE0183E0EE0FFF1FC2
:102920008A95E1F7EB5FFE4F8181928186599C4F3A
:10293000408150E00417150708F4A801B6010E9471
:10294000DB30CE010E94822FC82F882339F00E94ED
:10295000F609F70160837183828393838C2FCDB74F
:10296000DEB7E8E00C943230C1E0F8CFA7E0B0E089
:10297000ECEBF4E10C941A3086E0E1EBF5E0DE01DB
:10298000119601900D928A95E1F71F8247E050E081
:1029900068E773E0CE0101960E94CE3041E0892BBA
:1029A00009F440E007E010E09E012F5F3F4F6BE825
:1029B00073E085E00E9471142796E4E00C943630B1
:1029C0000F931F9341E02091740330917503809120
:1029D000FD039091FE032817390709F440E002E057
:1029E00010E02DEF33E067E873E083E00E9471149C
:1029F0008823B1F041E020917603309177038091F4
:102A0000FF03909100042817390709F440E002E021
:102A100010E02FEF33E063E873E084E00E9471146C
:102A20001F910F910895A4E0B0E0E9E1F5E10C9465
:102A30001B3060917F03709180038091810390919E
:102A400082030E94DA0911E064367105810591055F
:102A500070F10E94C7126E5F7F4F8F4F9F4F698347
:102A60007A838B839C8380911601909117018659FC
:102A70009C4F4091150150E04530510510F044E065
:102A800050E0BE016F5F7F4F0E94DB3082E090E03C
:102A90000E94822F182F882351F00E94F60960931C
:102AA0007F03709380038093810390938203812F2F
:102AB0002496E3E00C943730EF92FF921F93CF936C
:102AC000DF9300D000D000D0CDB7DEB77B0190E01F
:102AD00080E00E94822F182F882309F473C0409150
:102AE000080150E04115510511F041E050E06091BE
:102AF000090170910A0166597C4FCE0106960E9429
:102B0000DB30609166037091670380916803909158
:102B100069030E94DA09643671058105910540F464
:102B20008BE693E00E9465089E81891709F44AC0EC
:102B300081E090E00E94822F811116C010E085E0B4
:102B4000E1E6F3E0D70101900D928A95E1F7812F3C
:102B500026960FB6F894DEBF0FBECDBFDF91CF91A2
:102B60001F91FF90EF9008954091100150E0463082
:102B7000510510F045E050E0609111017091120193
:102B800066597C4FCE0101960E94DB308BE693E0C4
:102B90000E9465089E818913D1CF0E94F609609337
:102BA000660370936703809368039093690385E0DD
:102BB000FE013196A1E6B3E001900D928A95E1F70E
:102BC00011E0BDCF85E0EBE6F3E0DE011196019068
:102BD0000D928A95E1F71111EACFB1CF67EE7EEF42
:102BE00090E080E00E94303160E082E090E00E945E
:102BF000123160E083E090E00E94123110920004F4
:102C00001092FF0360E074E184E090E00E943031B4
:102C100060E086E090E00E9412316FEF87E090E084
:102C20000E94123140E050E0BA0188E090E00E943A
:102C3000243160E08DE090E00E94123140E050E0ED
:102C4000BA0188E190E00E94243160E087E190E0E1
:102C50000E94123140E050E0BA018CE190E00E9405
:102C6000243170E060E080E290E00E94303140E08A
:102C700050E0BA0188E190E00E94243140E050E049
:102C8000BA018FE090E00E94243140E050E0BA01A8
:102C900083E190E00E94243108951F920F920FB6B5
:102CA0000F9211242F933F934F935F936F937F93D2
:102CB0008F939F93AF93BF93EF93FF938091E10026
:102CC00082FF09C08091E20082FF05C08091E1008F
:102CD0008B7F8093E1008091DA0080FF24C0809197
:102CE000D80080FF20C08091DA008E7F8093DA00C8
:102CF0008091D90080FF9DC080E189BD82E189BDBE
:102D000009B400FEFDCF81E08093A705809199056D
:102D1000811109C00E947C080E941D098091E20077
:102D200084608093E2008091E10080FF17C0809171
:102D3000E20080FF13C08091E2008E7F8093E2006A
:102D40008091E20080618093E2008091D8008062EF
:102D50008093D80019BC85E08093A7058091E1009D
:102D600084FF2BC08091E20084FF27C080E189BDF1
:102D700082E189BD89B5982F917080FFFBCF80914A
:102D8000D8008F7D8093D8008091E1008F7E809362
:102D9000E1008091E2008F7E8093E2008091E2006A
:102DA00081608093E2008091A805882309F447C0E0
:102DB00084E08093A7058091A7058091E10083FFBF
:102DC00027C08091E20083FF23C08091E100877FCC
:102DD0008093E10082E08093A7051092A80580917E
:102DE000E1008E7F8093E1008091E2008E7F8093EE
:102DF000E2008091E20080618093E20042E060E0C6
:102E000080E00E94EB088091F00088608093F000E1
:102E1000FF91EF91BF91AF919F918F917F916F91B2
:102E20005F914F913F912F910F900FBE0F901F9088
:102E3000189519BC1092A7051092990574CF80912E
:102E4000E30087FD93E09093A705B5CF78941F9298
:102E50001FB61F9211248F939F93AF93BF938091BE
:102E6000950590919605A0919705B09198050196CA
:102E7000A11DB11D8093950590939605A09397058C
:102E8000B0939805BF91AF919F918F911F901FBEF6
:102E90001F9018959C014FB7F894809195059091DB
:102EA0009605A0919705B09198054FBF821B930B93
:102EB00008952FB7F8948091950590919605A0916B
:102EC0009705B09198052FBF0895B0E0A0E0EBE61C
:102ED000F7E10C940E3080905F0490906004A09015
:102EE0006104B09062040E949112882309F43EC0EC
:102EF000C501B4010E94DA096B017C010E94C7126E
:102F00004B015C0180925F0490926004A092610486
:102F1000B0926204A0913604E6E3F4E08A2F90E0D8
:102F20004FEF5FEF60E070E04C195D096E097F09BB
:102F3000A91325C0809336048091B105D82FD37092
:102F400019F0D82FD695D69590915501913009F466
:102F500040C0992339F1923009F46AC2933009F4E0
:102F60006FC2CDB7DEB7E0E10C942A300E94C712E1
:102F70006B017C01C818D908EA08FB08BFCF218D76
:102F8000328D2901712C612C441555056605770594
:102F900020F481509F5F3296CBCF2C0D3D1D328F98
:102FA000218FF8CF109257018092B8049092B90403
:102FB000A092BA04B092BB0489E2E6E3F4E0A7EB86
:102FC000B5E001900D928A95E1F781E0809355017B
:102FD000C8CF90915401D91322C08370209153011E
:102FE00030E091E08217130609F490E0892F817098
:102FF000809359018091B60590915801981739F046
:103000008093580140E060E080E00E948D0BD03159
:1030100060F4ED2FF0E0E556FE4C0C94633081E057
:10302000E6CF80915901811102C080E02AC040E0C2
:1030300060E080E00E948D0BF8CF009157018EE098
:10304000089F002D1124CEE0C00FC63408F0C5E45F
:103050000E94FC12882309F421C2C13208F0C0E2A8
:103060006091B2057091B3058091B4050E94D60BB2
:10307000F62EE72ED82E10E00C17A8F08C2F0E9409
:103080002A13909157019F5F90935701811169CF47
:1030900082E08093550180915901811162CFD11155
:1030A00060CF83E093CFF801E856FD4F8081909187
:1030B0005801892331F02D2D4F2D6E2DC8010E940E
:1030C0008A0B0F5F1F4FD8CFD09057018EE0D89E4C
:1030D000D02C1124CEE0CD0DC63408F0C5E40E94FA
:1030E000FC12882309F4DFC1C13208F0C0E28091EC
:1030F0005901882361F040E060E080E00E948D0B80
:10310000E8E6F4E080E5DF011D928A95E9F7809119
:103110005701811115C080916404909165040E944B
:103120004A1721E08931910508F420E020936304D7
:10313000499730F00E945917909365048093640476
:10314000A12C912CB12C25E5722E3AEA832E66240F
:10315000639401C0B12C8B2D90E0B8E0AB9E800150
:103160001124F801E254FE4FE80FF91FE080ED143E
:1031700008F440C0EC1608F03DC09394F12CF70120
:10318000E856FD4F208130915801232309F432C0C5
:1031900008591B4F080F191FF801C0803C2D272D1F
:1031A000321B08F430E07091B305282D4C2D240F0C
:1031B00008F42FEF4091B405822F880F820F8E5FA5
:1031C000282F249F212D1124822F682D631B0E94FC
:1031D000D60B462F282F672FC7010E948A0B80919C
:1031E0006304882339F02C2D362D231B08F420E0AE
:1031F000D8012C93B394B8E0BB12ADCFA394EAE00E
:10320000AE1609F43BCFFDE0F91508F0A3CF36CF99
:10321000C091B40523E0C29F800111241695079543
:1032200016950795502EAC2EB12C8FEF90E0B5017E
:103230000E944F30662E80915901882371F040E042
:1032400060E080E00E948D0BE8E6F4E080E5DF01BD
:103250001D928A95E9F710926704809166048F5F4A
:1032600080936604F12CE12CA01AB10A6701712C3D
:10327000C70188599B4F4C0180916704872909F049
:1032800045C00E94B530853595400CF03FC0F40133
:10329000C083F601E254FE4FE081EF3FD1F0D6014A
:1032A000A859BB4F2C91F0E0521608F040C030E016
:1032B000201B310B209FC001219F900D309F900D4E
:1032C0001124B5010E94F82F262F4C2FCF010E9408
:1032D0008A0B7394F8E0CF0ED11C2AE07212CCCF87
:1032E0003FEFE31AF30A48E0E416F10409F0BECF19
:1032F00080916604681202C010926604809167048F
:103300008F5F8D31F0F4809367048FCEF601E8591A
:10331000FB4F8081882309F4BCCF8C1708F0B9CF0C
:10332000909166046912B5CF81508083B2CFC29F5D
:10333000C0011124B8010E94F82F462F20E060E060
:10334000C5CF1092670448EA54E029E060E774E0D2
:103350003FEF3C0F88E694E0FA01293039F4DC01B4
:10336000A85BBF4F1C91C11301C03C93A191AC1746
:1033700020F0DF0111973C93C78301966817790706
:1033800061F72150485051092111E4CF4ECE83E816
:103390009BE00E94F21375CE8DE79BE0FACF8091FF
:1033A000B70521E0382F321B08F430E0832F64E6A4
:1033B0007BE00E943A1365CE64E67BE080E0F9CFC3
:1033C0008091B70521E0482F421B08F440E0842F8C
:1033D00069E27BE0EECF69E27BE0F0CF8091B70558
:1033E00021E0382F321B08F430E0832F67EF7AE0BA
:1033F000E0CF67EF7AE0E2CF8091B70521E0482F78
:10340000421B08F440E0842F6FED7AE0D2CF6FEDDD
:103410007AE0D4CF8091B70521E0382F321B08F431
:1034200030E0832F69EC7AE0C4CF69EC7AE0C6CF54
:10343000D09354018370809353010E94371231CE90
:103440008091BC04882351F046E050E06CE170E0CC
:1034500081EB95E00E9402311092BC04C090B80448
:10346000D090B904E090BA04F090BB040E9491128D
:10347000882369F0C701B6010E94DA09603171053D
:103480008105910508F46DCD109255016ACD0E9419
:10349000C7126C197D098E099F09F0CF003208F020
:1034A000DFCD00E2DDCD40E2D41608F020CE80E290
:1034B000D82E1DCE0E9459179C0190913204809104
:1034C0003304982B21F030932F0420932E049091F5
:1034D000340480913504982B21F030932D042093EF
:1034E0002C04E0919205F0919305309749F082E029
:1034F000809330040480F581E02D80E394E0099509
:103500000895CF93C6E0E2EEF2E0DF018C2F1D922A
:103510008A95E9F7109253030E94BD10E0E3F4E0AE
:10352000DF011D92CA95E9F71092290410922A042E
:1035300010922B040E945A1ACF910895AAE2B0E08B
:10354000E4EAFAE10C941B3089EA95E02091F1005D
:10355000FC012193CF01F5E0813B9F07B9F78091F2
:10356000AA05833009F470C0B8F4813009F447C06B
:10357000823009F4B3C08091E80083FF80C280915B
:10358000A9059091AA059A3008F079C2E92FF0E0D8
:10359000E555FE4C0C9463308A3009F48EC08B30B4
:1035A00009F46FC0893039F78091A905813219F784
:1035B0008091AD059091AE050297E8F68091E80004
:1035C000877F8093E8008091E80082FF38C0909167
:1035D000F3008091F200029731F48091F100813084
:1035E00011F0863021F48091F10080939C05809148
:1035F000E8008B778093E8000E94CC08BCCF8091D4
:10360000A905813A09F0B7CF8091E800877F8093C0
:10361000E8008091AD059091AE05892B61F468E0DA
:103620008DE995E070E00E9478098091E8008B7741
:103630008093E800A0CF60E090E080E0F3CF80913D
:10364000A7058111C0CF97CF8091A905813A09F0D4
:1036500092CF8091AD059091AE05892B09F08BCF6B
:103660008091E800877F8093E8008091E80080FFE8
:10367000FCCF809156018093F1008091E8008E7715
:10368000B9CF8091A905813209F075CF8091AD0540
:103690009091AE05892B09F06ECF8091E800877F6D
:1036A0008093E8000E94CC088091AB05809356017E
:1036B00010929A050E94811A5ECF8091A9058132ED
:1036C00009F059CF8091E800877F8093E8000E943D
:1036D000CC088091AC0580939B054DCF8091A905C6
:1036E000813A09F048CF8091E800877F8093E80015
:1036F0008091E80080FFFCCF80919B05BCCF803893
:1037000099F0823809F0BBC18091AD058F70873088
:1037100008F0B5C18093E9008091EB0085FB882714
:1037200080F91092E90006C08091A5059091A60548
:10373000911182609091E800977F9093E8008093C8
:10374000F1001092F1008091E8008E7794C18823F7
:1037500009F482C1823009F092C18091AB058111D8
:1037600085C18091AD058F702FEF280F263008F0AE
:1037700086C18093E9002091EB0020FF77C1933050
:1037800031F48091EB0080628093EB006FC19091E7
:10379000EB0090619093EB0021E030E001C0220F3C
:1037A0008A95EAF72093EA001092EA008091EB00F4
:1037B0008860EACF811163C11091AB051F778091BA
:1037C000E3008078812B8093E3008091E800877F7D
:1037D0008093E8000E94CC088091E80080FFFCCF35
:1037E0008091E30080688093E30082E0111183E020
:1037F0008093A70544C18058823008F040C1809171
:10380000AB059091AC058C3D23E09207A1F583E0D8
:103810008A838AE289834FB7F894DE01139620E009
:103820003EE051E2E32FF0E050935700E49120FF97
:1038300003C0E295EF703F5FEF708E2F90E0EA30AB
:10384000C0F0C7968D939D932F5F243159F74FBFDA
:103850008091E800877F8093E8006AE270E0CE0103
:1038600001960E9478098091E8008B778093E800A8
:1038700006C1C096E7CF4091AD055091AE05292F06
:1038800033272330310509F444C078F52130310560
:1038900009F46FC08BE390E0E9E1FAE022303105F2
:1038A00009F0EDC02091E800277F2093E8002091E7
:1038B000AF053091B0058217930708F49C0140E0F2
:1038C0002115310509F064C0411162C08091E80002
:1038D00082FDC9CF8091A705882329F2853019F28E
:1038E0008091E80083FFF2CFBECF21323105A9F1EC
:1038F0002232310509F0C3C04115510509F443C016
:103900004130510509F0BBC089E490E0E0E9F9E0FD
:10391000C9CF992781309105C1F0009759F00297DE
:1039200009F0ADC0E6E6FAE0E4918E2F90E0E6E61D
:10393000FAE007C0ECE8FAE0E4918E2F90E0ECE8C2
:10394000FAE0009709F49BC0ADCFE4E7FAE0E49118
:103950008E2F90E0E4E7FAE0F4CF4115510571F0C5
:103960004130510509F08BC089E090E0E4E4FAE0D1
:1039700099CF82E190E0E4E5FAE094CF89E090E02D
:10398000EBE2FAE08FCF80E490E0E9EDF9E08ACF56
:103990008091A705882309F466CF853009F463CFA9
:1039A0008091E80083FD5FCF8091E80082FD8ECF9B
:1039B0008091E80080FF84CF9091F3008091F20025
:1039C0002115310519F08830910550F041E0089734
:1039D00009F040E08091E8008E778093E80070CF96
:1039E00044914093F1003196215031090196E8CF7E
:1039F000803809F044C08091E800877F8093E80018
:103A00008091A8058093F1009ECE811138C010915D
:103A1000AB051230A0F58091E800877F8093E80025
:103A20001093A8050E94CC08112311F084E005C072
:103A30008091E30087FDFACF81E08093A70542E003
:103A400061EC81E00E94EB0842E261EC82E00E94BE
:103A5000EB088091A70513C08091AB05813079F404
:103A600081E0933009F080E08093A6051092E90090
:103A70008091E800877F8093E8000E94CC088091C5
:103A8000E80083FF0AC08091E800877F8093E80008
:103A90008091EB0080628093EB00AA96E3E00C94A7
:103AA00037301F920F920FB60F9211242F933F932E
:103AB0004F935F936F937F938F939F93AF93BF9336
:103AC000CF93DF93EF93FF93D091E900DF70809164
:103AD000EC00C82FC17080FDC0E81092E900809111
:103AE000F000877F8093F00078940E949E1A1092D5
:103AF000E9008091F00088608093F000CD2BCF70BA
:103B0000C093E900FF91EF91DF91CF91BF91AF9109
:103B10009F918F917F916F915F914F913F912F91E5
:103B20000F900FBE0F901F90189510929A050E944B
:103B3000811A2FEF84E39CE0215080409040E1F710
:103B400000C0000088E19CE00FB6F894A89580932F
:103B500060000FBE90936000FFCF662309F45DC044
:103B60008D3C41F40E948C0C8195809333040E941B
:103B70005A1A08958E3C19F40E948C0CF6CF8F3C93
:103B800031F40E948C0C819580933204F0CF803DFB
:103B900019F40E948C0CF8CF893D29F40E946A0C1C
:103BA00080933404E4CF8A3D21F40E946A0C81950D
:103BB000F7CF8B3D31F40E946A0C819580933504D8
:103BC000D6CF8C3D19F40E946A0CF8CF9FE2980F73
:103BD000983070F4815D990B21E030E001C0220F34
:103BE0008A95EAF780913104822B80933104BFCF0C
:103BF0008D3D31F480912B04816080932B04B7CFED
:103C00008E3D21F480912B048260F7CF8F3D09F027
:103C1000AECF80912B048460F0CF409132048D3C74
:103C200059F48091330487FF0DC010923304411181
:103C30000BC01092290408C08E3C81F4809133049B
:103C400018169CF3442381F080913404909135043C
:103C5000892B09F08CCF10922A0489CF8F3C49F42C
:103C600047FFF0CF10923204809133048111ECCFE2
:103C7000E0CF803D19F41416ACF3E4CF90913404F6
:103C8000893D29F41916F4F610923404DBCF8A3DED
:103C900019F497FFD7CFF8CF909135048B3D29F4D5
:103CA00097FFD0CF10923504CDCF8C3D19F4191663
:103CB000CCF3C8CF9FE2980F983090F4815D990BB8
:103CC00021E030E0B90102C0660F771F8A95E2F764
:103CD000CB01809590913104892380933104B2CF38
:103CE0008D3D31F480912B048E7F80932B04AACFDD
:103CF0008E3D21F480912B048D7FF7CF8F3D09F00D
:103D0000A1CF80912B048B7FF0CF882379F19CEF9A
:103D1000980F913A78F4E2EEF2E09191891303C0A2
:103D2000DF0111971C9242E0E83EF407B1F70E94D0
:103D3000BD10089590E2980F983088F4877021E0C4
:103D400030E0A90102C0440F551F8A95E2F7CA016D
:103D5000809590919A05892380939A05E8CF93E303
:103D6000980F933118F460E00E94AD1D08950F93F1
:103D70001F93CF93C82F882341F18CEF8C0F813A8A
:103D8000B0F502EE12E088EE92E0F8012191C21740
:103D900001F18E179F07D1F7EFEF80E0D8019D91D9
:103DA0008D01C91781F0EF3F19F4911101C0E82F7F
:103DB0008F5F863099F7EF3F31F00E2E000CFF0B2E
:103DC000E052FD4FC2830E94BD10CF911F910F9111
:103DD0000895E2EEF2E02191C21303C0DF011197D2
:103DE0001C928E179F07B9F70E94BD10D5CF80E2B5
:103DF0008C0F883068F4C77021E030E001C0220FDA
:103E0000CA95EAF780919A05822B80939A05DBCFB9
:103E100083E38C0F8331C8F661E08C2F0E94AD1DC7
:103E2000D4CFA5E0B0E0E7E1FFE10C9415307C01D0
:103E3000FC0183819481892B31F0808191818923D8
:103E40008F3F09F0A4C22596E9E00C9431300E941E
:103E5000ED0E182F682F89819A810E94600F698169
:103E60007A81812F0E94AA0D8C01F701828188231B
:103E700009F49EC2C8019A9581159F4450F5C80166
:103E800099279C01245031092432310518F08B9771
:103E90000E9780F4E091BD03F0E0EE0FFF1FEE53AC
:103EA000FC4F808191818F3F2FE7920719F0019697
:103EB00091838083003E1105A1F0043E110589F035
:103EC0000C32110589F481E08093E902109204011B
:103ED0000BC090E080E00F3F110509F090F6C8019B
:103EE000D0CF81E08093EA020E94F6096093F50347
:103EF0007093F6038093F7039093F803F701928190
:103F0000911158C080919A058272F801E052F847E9
:103F1000E531F10508F094C0EB54FE4C0C9463308D
:103F20001092EA02E1CF8091B10591E08927809358
:103F3000B105109255018091BC0481608093BC044E
:103F400082CF42EB5AE06DEB7AE00E94190A7BCFF8
:103F50004DEB5AE062EB7AE0F8CF43E85AE06EE8C6
:103F60007AE0F3CF4EE85AE063E87AE0EECF47E636
:103F70005AE065E77AE0E9CF45E75AE067E67AE09C
:103F8000E4CF4BE45AE069E57AE0DFCF49E55AE057
:103F90006BE47AE0DACF4FE15AE06DE27AE0D5CF18
:103FA0004DE25AE06FE17AE0D0CF61E081E00E941B
:103FB000990A49CF0130FCE71F0709F43FC00330DD
:103FC0002CE71207A9F101151C4709F039C010921E
:103FD0009A050E94811A4FEF54E38CE04150504003
:103FE0008040E1F700C0000081E08093E00080E2C3
:103FF0008093D8001092C900EFE1FEE43197F1F709
:1040000000C0000087E090EBDC018093EB07909309
:10401000EC07A093ED07B093EE0788E19CE00FB6A4
:10402000F894A895809360000FBE90936000FFCF36
:104030006FEF7FEF90E080E00E9430310E94951D8D
:10404000F70100811181992311F1C8010E94ED0E41
:10405000D82E682FC8010E94600FB8018D2D0E94D4
:10406000AA0D0E94CA0D182FB82EF7016281358162
:10407000232F22952F70892F82958F70C82ED12CD7
:104080008C30E8F5F601E653FE4C0C946330C80121
:104090000E942E0FD82EE1CF092F0F70907F11F0C4
:1040A0000295007F812F6623C9F0002369F090E21A
:1040B000910F983010F011110BC080919A05082BC8
:1040C00000939A050E94BD10812F0E94B71E17C051
:1040D00080915303082B00935303F4CF0E94851E55
:1040E000002369F00095105E183010F0B11021C067
:1040F00080919A05082300939A050E94BD10E8E07C
:10410000CE1AD108F4E0CF16D10410F40E94B612F2
:1041100085E0F701DE01119601900D928A95E1F795
:1041200009811A81C8010E942E0FB8010E94AA0DB0
:104130008ACE80915303082300935303DECF892F47
:104140008F70907F903211F08295807FF1E0BF12E6
:104150000CC0662329F0263090F60E94EF10CFCFD6
:10416000253068F60E94E410CACF662341F022236E
:10417000A1F330FFA9CF3F70F7013583EECF2223A3
:1041800089F3193349F4FFEF27EE33E0F150204073
:104190003040E1F700C00000812F0E94851EAFCFA4
:1041A000812F0E94AD1DABCF892F837009F042C0D3
:1041B0006111A5CF812F829586958770880F880F12
:1041C000212F2F7030E0082E02C0220F331F0A94D7
:1041D000E2F750E040E014FF09C04FE050E002C0B9
:1041E000440F551F8A95E2F7409550959695969500
:1041F00093709230A9F080F46091FF0370910004F5
:10420000913041F0C901842B952B862397230E947E
:10421000BC0F75CF262B372BC901842B952BF7CFDD
:10422000C901842B952B2091FF0330910004822734
:104230009327EDCF8695662311F0892F817088230F
:1042400009F45DCF812F829586958770880F880F3E
:10425000212F2F7030E0082E02C0220F331F0A9446
:10426000E2F750E040E014FF09C04FE050E002C028
:10427000440F551F8A95E2F740955095969596956F
:1042800093709230A9F080F46091FD037091FE0369
:10429000913041F0C901842B952B862397230E94EE
:1042A000950F2DCF262B372BC901842B952BF7CFBC
:1042B000C901842B952B2091FD033091FE038227A9
:1042C0009327EDCF092F0F70662329F0802F0E94CE
:1042D000AC0F812F42CF812F0E94E410802F0E94CB
:1042E0009A0F0DCF812F41EF141791F1411750F024
:1042F00050EF1517D1F06623D1F12111E5CE892FAA
:104300008F712AC0E2EF1E1751F1F3EF1F13F3CFA5
:10431000662351F19F7121E030E0A90102C0440FF2
:10432000551F9A95E2F7CA01BACF662369F0253086
:1043300008F0E5CE292F2F7181E090E002C0880FB0
:10434000991F2A95E2F7B7CF263008F0D8CEF2CFE2
:10435000892F8F71662319F20E94AC0FD0CE892F5E
:104360008F716623C9F3BBCF90E080E098CF222302
:1043700059F0893309F010CF5FEF87EE93E0515089
:1043800080409040E1F706CF892F8F71A8CF85E05C
:10439000DE01119601900D928A95E1F7F7012281D5
:1043A00089819A81211153CD0E942E0F182F57CD4C
:1043B000003E110509F4B4CD043E110509F4B0CD59
:1043C0000C32110509F090CD1092E9028DCD1F93AA
:1043D000CF93DF9380911803807F09F04BC08091C9
:1043E0001503882309F446C080914A03C09119033C
:1043F00040911303509114036091160370911703B9
:10440000D42FD52316E0C817A9F190E061157105E6
:10441000A9F1DF3F99F1189FF001199FF00D1124C8
:10442000DF01A65EBC4F11962C911197251326C073
:104430002C91241323C012962C91129721111EC087
:1044400013962D913C91261B370B283C3105B0F477
:10445000809118038F70806180931803E15EFC4F98
:1044600080818F708061808383E193E00E94111FBF
:104470000E94E30EDF91CF911F91089501968770FE
:10448000C2CFA1E1B0E0E7E4F2E20C9412308C017B
:1044900085E0F801DE011D9601900D928A95E1F705
:1044A000F801E28083E1882E83E0982E4091160384
:1044B000509117034115510509F430C19091130330
:1044C00020911403892F82238F3F09F427C1D080C4
:1044D000C180A380B480F0901503B501641B750BF7
:1044E000FF2009F4E7C080911803382F307F683C23
:1044F000710508F0ABC0311178C0FE2C2C1114C02E
:104500009D1112C0E11010C08F708061809318035C
:10451000C4010E94111F80911803F80185838F2D1B
:104520006196ECE00C942E30A114B104C9F18D2DEC
:104530008C218F3FA9F181E08E2580FF05C04E2D93
:104540006C2D8D2D0E94C30EA114B10459F18D2D37
:104550008C218F3F39F181E08E25F82FF170BF2E2D
:1045600080FF39C04E2D6C2D8D2D0E94C30EA82EBC
:10457000811131C0DD86CE868D859E850E94210FFA
:10458000292F22952F70243078F49F702230A8F0C4
:104590009923B9F0F8019581907F99F4FA2CBFCF57
:1045A00080E0CBCF80E0D9CF2A5F2F70223068F037
:1045B000C8010E94111FAB2CF1CF992311F0882361
:1045C00069F3805E883050F3F3CF803F38F3815F2A
:1045D000833070F7E3CFEE2009F4A1CF8091180368
:1045E000816080931803F12C9ACF2C1105C09D1186
:1045F00003C0EE2009F477C0C8010E94C10F8823D0
:1046000009F1EE20F9F080911803803270F02091CA
:1046100013033091140338872F831986BB86AA862B
:104620008C87CE0107960E94111F86E0F801A3E156
:10463000B3E001900D928A95E1F70E94E721FF24F3
:10464000F3946DCFC8010E94111FF9CF31110AC038
:1046500083E193E00E94111F86E0F40111928A9594
:10466000E9F7C1CF2C110EC09D110CC0E1100AC09A
:104670008583C8010E94111F86E0F40111928A957A
:10468000E9F74DCFC8010E94C10F8823D9F2EE206F
:10469000C9F280911803803240F2209113033091C7
:1046A00014033A8329831B82BD82AC828E83CE01A0
:1046B0000196B9CF683C7105F8F6FE2CEE2011F298
:1046C0002C111EC09D111CC08091180380FD0FC0CD
:1046D000982F907F61F08583903F31F0982F907FE5
:1046E000905F8F70892B8583C8010E94111F86E01F
:1046F000F801A3E1B3E001900D928A95E1F70FCFA5
:10470000C8010E94C10F811190CF80911803816070
:1047100080931803C8010E94111F01CFEE2009F4F5
:1047200091CFC8010E94C10FF82E882309F48ACFC7
:1047300086E0F801A3E1B3E001900D928A95E1F7DC
:1047400080911303909114030E94210F0E94E7218E
:10475000E6CEA7E1B0E0EFEAF3E20C941B304B8B1E
:104760005C8B6D8B7E8B8F8B6111109253031A8A39
:10477000198A85E0FE017396DE011D9601900D9267
:104780008A95E1F786E0FE013D96DE0117960190DD
:104790000D928A95E1F7CE0107960E944122882367
:1047A00059F016E080914A0390911903891345C08E
:1047B0006796E3E00C94373086E0FE013796DE0121
:1047C000119601900D928A95E1F78A859B85892B38
:1047D00041F38F81988589238F3F19F32091190325
:1047E00030E0C90101968770992740914A03481724
:1047F000190681F410929A050E94811A10921903E9
:1048000010924A0386E0E3E1F3E0DF011D928A950E
:10481000E9F7C7CF96E0929FD001939FB00D112486
:10482000A65EBC4FFE01319601900D929A95E1F77C
:10483000809319030E94E30EB4CF819FC00111241D
:10484000865E9C4F0E944122882309F4B1CF80915B
:104850004A0390E001968770992780934A03A2CF7C
:10486000AFE0B0E0E6E3F4E20C9411308E010F5FAC
:104870001F4F8AE0D8011D928A95E9F78DE3C82E73
:1048800081E0D82EF12CE12CAA24A394B12C2DE3A5
:10489000822E21E0922EF60181916F018F3F09F463
:1048A00042C0F894E82FE295EF70F0E021A18F70FC
:1048B000A50102C0440F551F8A95E2F7CA01922F45
:1048C000982B91A392A18095892382A3789400C00C
:1048D000E5E3F1E0712C31E021912F3F09F46BC049
:1048E000A22FA295AF70B0E090968C9190E02F70BF
:1048F00002C0959587952A95E2F780FD5CC0832FCD
:10490000782A330F8E169F0639F7F601319780818A
:104910008F3F11F00E94AE0C50EA5A95F1F7F80162
:10492000EE0DFF1D70828FEFE81AF80AA5E0EA1677
:10493000F10409F0B0CF4AE050E0B80184E993E017
:104940000E94CE30009741F02AE0F801A4E9B3E0DC
:1049500001900D922A95E1F700919F03892B69F14F
:1049600081E0809358030E945917909357038093D6
:10497000560380915603909157030E944A1705975A
:1049800000F110E00E551C4F45E050E064E973E083
:10499000C8010E94CE30D12C892B51F085E0E4E98A
:1049A000F3E0D80101900D928A95E1F7DD24D394CC
:1049B0001092580307C080E0A3CF80915803811163
:1049C000D8CFD12C0E949112C82EE0919F0388234A
:1049D00009F47FC07E01BBE0EB0EF11C85E0D7013E
:1049E0001D928A95E9F70E2F10E00E551C4F80910D
:1049F0008F038A30D8F54CE555E1B701C8010E9414
:104A00005E12882309F454C043E155E1B701C8019F
:104A10000E945E12882309F44BC040EE54E1B701B6
:104A2000C8010E945E12882309F442C046EB54E19B
:104A3000B701C8010E945E128823D1F110928F0342
:104A400080919E0390E045E050E0B7018E559C4F69
:104A50000E94CE3021E020935F03892BE1F4C12C2A
:104A60008C2D8D292F96EDE00C942D3080915903DB
:104A700090915A030E944A17843F914008F0BBCF9F
:104A800080915F03882359F385E0F70111928A959D
:104A9000E9F710925F03A0919E03B0E0AE55BC4FC2
:104AA00085E0FE013B9601900D928A95E1F7D8CF03
:104AB00080918F038F3F31F08F5F80938F038A3017
:104AC00008F4BECF0E94591790935A03809359035C
:104AD000D7CFF0E0EE55FC4F85E0ABE6B3E00190B8
:104AE0000D928A95E1F78BE693E00E94650880932A
:104AF0006A038090700390907103A0907203B0904D
:104B0000730380915B0390915C03A0915D03B0916E
:104B10005E0388169906AA06BB06D1F080925B0355
:104B200090925C03A0925D03B0925E030E9491128A
:104B300081110EC00E94F609861A970AA80AB90ABE
:104B40008092900390929103A0929203B09293036B
:104B500080917403909175039093FE038093FD03FD
:104B60008091760390917703909300048093FF03E4
:104B700086E0E8E7F3E0A1EBB5E095CFA5E0B0E093
:104B8000E4ECF5E20C941A300E9459178C018091E4
:104B900054039091550380179107A1F08FEF8983FB
:104BA0008A831B820E9459178160782F9D838C8392
:104BB00049815A816B818D810E94A92310935503ED
:104BC000009354032596E4E00C9436301F921FB6F0
:104BD0001F9211248F939F93AF93BF93809194055D
:104BE000811113C08091950590919605A09197052C
:104BF000B09198054196A11DB11D809395059093A4
:104C00009605A0939705B0939805BF91AF919F919A
:104C10008F911F901FBE1F901895CDB7DEB76E976E
:104C20000FB6F894DEBF0FBECDBF85B7806885BFD5
:104C300085B7806885BF84B7877F84BF0FB6F89437
:104C4000A895809160008861809360001092600058
:104C50000FBE80E890E00FB6F894809361009093C7
:104C600061000FBE8CEA9CE09093DF028093DE022D
:104C70000E947C080E941D098091E200846080935C
:104C8000E20078948091A7058823A1F01091E900B3
:104C90001F709091EC00892F817090FD80E8182B97
:104CA0001092E9008091E80083FD0E949E1A1F7017
:104CB0001093E90082E084BD93E095BD9AEF97BD23
:104CC00080936E00109290031092910310929203C1
:104CD0001092930390E080E00E94FC30873E9E4F4C
:104CE00011F00E94EE150E94FC12809342010E9476
:104CF000911281110E94962E8091420181112CC047
:104D000085E0EDE5F1E0DE01199601900D928A95BE
:104D1000E1F7898580933D018A8580933E018B85EB
:104D200080933F018C85809340018D858093410164
:104D300088E0E2E6F1E0DE01119601900D928A959D
:104D4000E1F7FE013196A5E3B1E0CE01099621918C
:104D50002D93E817F907D9F78091420195E0811169
:104D600090E090939F0385E0891B80939E030DE361
:104D700011E0D8018D918D018F3F11F00E94AE0C92
:104D8000B1E002341B07A9F705E311E0FDE3EF2EC4
:104D9000F1E0FF2EF80181918F018F3F11F00E9409
:104DA000AE0CE016F106B1F78AE0E2EAF3E0DF01CB
:104DB000282F1D922A95E9F7E4E9F3E0DF011D921F
:104DC0008A95E9F790E080E00E94FC30873E9E4F94
:104DD00011F00E94EE1582E090E00E94F430809382
:104DE000AC0384E090E00E94FC309093A103809398
:104DF000A00383E090E00E94F43090E00E94BC0F9A
:104E00001092B7058FEF9FEF9093D1058093D00557
:104E10009093D3058093D2059093D5058093D405C4
:104E20009093D7058093D6059093D9058093D805A4
:104E30009093DB058093DA059093DD058093DC0584
:104E40009093DF058093DE05109236049093500412
:104E500080934F0490935204809351049093540490
:104E60008093530490935604809355049093580470
:104E70008093570490935A048093590490935C0450
:104E800080935B0490935E0480935D0490E080E0E7
:104E90000E94FC30873E9E4F21F00E94EE150E943A
:104EA000E11281E08093BC0446E050E06CE170E0E8
:104EB00081EB95E00E94E4301092BC048091B10532
:104EC0008C7F11F40E94E1120E949112882309F450
:104ED0000AC183E08093240480FD07C180E88093A9
:104EE000E0050E94502D6DE070E08FE398E00E9495
:104EF0007411892BE9F58091240463E070E081FD51
:104F0000F6C08CE398E00E947411892B89F56DE05E
:104F100070E08CE298E00E947411892B49F50E94A0
:104F2000F609605A75418F4F9F4F60938C057093BF
:104F30008D0580938E0590938F05E9EEF5E080E076
:104F400092E0DF019C011D9221503040E1F7F09387
:104F5000EA07E093E9078FEF9FEF9093E8058093CE
:104F6000E70581E0809391058093900510922504D8
:104F70000E949112811102C00E94992E20E04CE300
:104F80006AEF84E890E00E943B0A60E08EE00E94B5
:104F9000990A83E491E09093930580939205809120
:104FA000A70500E112E1853009F4DFC00E9430243A
:104FB000ADEAB3E0BD8BAC8BE2EAF3E0F88FEF8BA8
:104FC00027EB33E0DF01EDEAF3E091918D912E17AD
:104FD0003F0709F4D6C09817C1F30E9491128A8F37
:104FE000312C212CF12CAF89B88D9D90B88FAF8BCF
:104FF000EC89FD898191FD8BEC8B891509F42EC21A
:105000008925898F6101E12C88248394898D8821E9
:1050100009F418C2592C5820FA8DFF2399F0EF8615
:10502000F88A81E0511001C080E0898B0E945917F5
:105030008160782F9B8B8A8B4F85588969898B89F2
:105040000E94A923552039F0F601E254FE4F8081D9
:105050008F3F09F093C1612C062D10E0809136043A
:10506000800F912F911D09976CF168E0A62EB12C4D
:10507000A01AB10AB801695C7B4FA50187E394E0EF
:105080000E94DB30B801615C7B4FA5018FE394E0A7
:105090000E94DB30A501440F551FB801660F771F32
:1050A000615B7B4F8FE494E00E94DB30B801695B69
:1050B0007B4FA50187E494E00E94DB3088E08619ED
:1050C000809336048091360490E0EE89AE2FB0E0F4
:1050D0009D01220F331F225F3D4FAA0FBB1FBD0151
:1050E000615F7D4F64C180E0F5CE80E2F8CE89E358
:1050F00098E009CF8091A705843041F10E9465179F
:105100000E949E111092940548E150E080E40FB691
:10511000F894A895409360000FBE8093600083B719
:10512000817F846083BF83B7816083BF78948895D3
:1051300083B78E7F83BF0FB6F894A89580916000E7
:10514000886180936000109260000FBE8091A60578
:10515000882359F00E943024E2EAF3E08191811122
:105160007DC493E0EC3AF907C9F78091A705853033
:1051700009F4C0CF10929A050E94811A0E94B612BB
:1051800015CF98132ACF0E94BE25D12C0E949112D0
:10519000882309F4B0C08090C2039090C303092C07
:1051A000000CAA08BB0810914B01212F30E0E2EC63
:1051B000F3E081E090E03296281739070CF095C1B2
:1051C0006091BE037091BF038091C0039091C103B1
:1051D0000E94DA092B013C01F9EC4F1651046104DD
:1051E000710414F18091BD0390E0019669E170E0D3
:1051F0000E944F308093BD03880F991FFC01EE532E
:10520000FC4F11821082812F183108F087E18F5FE7
:1052100080934B010E94F6096093BE037093BF0315
:105220008093C0039093C10322E082169104A104ED
:10523000B1040CF466C1A0E6BAEEA50194010E9487
:1052400055314B015C0148EC149F90011124032E51
:10525000000C440B550B240D351D461D571DA5E0B4
:10526000B0E00E9455319B01AC01C501B4010E9420
:10527000683149015A0151EF85169104A104B10426
:105280002CF050EF852E912CA12CB12C6091B903FC
:105290007091BA038091BB039091BC030E94DA091C
:1052A0002B013C0185E6481651046104710484F029
:1052B0000E94F6096093B9037093BA038093BB030D
:1052C0009093BC038091F4038093B8038092B7035A
:1052D0001091B803A091B703A11BBB0BA3019201CE
:1052E0000E94603124E630E040E050E00E94363118
:1052F000120F1093F4030E94651780919105882383
:1053000009F491C180912604909127040E944A17C4
:10531000C29708F468C10E9459179093270480939C
:10532000260460E080E00E94020A0E949112882315
:1053300009F495C28091F40390E090930304809364
:1053400002040E94B6128093010460E080E00E9493
:10535000020A8091FF03909100040E94EB0F8130BC
:1053600009F4F7C0882309F4D0C0823009F4F4C0EE
:10537000833009F4F4C085E891E0C9C08E8B6624BF
:1053800063946ACE90E0FC01EA5CFB4FD9015C912A
:105390005183DB015C915187BE89B18B880F991FC6
:1053A000FC01EA5CFB4F128E118E91E0842F41E0EC
:1053B000480F961538F380933604552009F442C0FF
:1053C0008091B1058C7F883009F03CC0F601E25431
:1053D000FE4F80818F3FB1F1B12CA12C712C90E058
:1053E0009C01220F331FA901425F5D4F5C8F4B8FE1
:1053F000D901A15FBD4FBE8FAD8FF601E859FB4FBC
:105400002F018501612CF801E254FE4F80818F3F0E
:1054100059F0F7102FC0E6102DC0D2012C9130E2C8
:10542000230F08F42FEF2C9363940F5F1F4F48E076
:105430006412E9CF739458E0A50EB11C80E5A8165C
:10544000B104F9F6E394880C9FEFC91AD90AA8E0D1
:10545000EA12DCCDEC89FD8931979082F394B8E0B3
:105460002B0E311CEAE0FE12BECD0E94F609DD24AF
:10547000D3948CCE90E0EB8DFC8D4081FC01EE0F3F
:10548000FF1FE25FFD4F2081421B550BAD8DBE8D8E
:105490002C91880F991FFC01E15FFD4F8081281B33
:1054A000330B449FB001459F700D700D1124229F56
:1054B000C001239F900D900D1124860F971F0E940D
:1054C000A60B893208F0B0CF28E2382F231B08F44E
:1054D00020E0F801E859FB4F213108F020E130814C
:1054E000320F08F43FEF30839FCF40815181052E6A
:1054F000000C660B770B840E951EA61EB71E019638
:105500005ACE812C912C5401C1CE80E791E00E94AB
:10551000F91062E080E00E94020A8BE891E00E94AC
:10552000F91063E080E00E94020A8091FD039091EF
:10553000FE030E94EB0F813009F455C1882391F0DE
:10554000823009F453C1833009F453C18DEA91E0EC
:105550000BC086E791E0DBCF8BE791E0D8CF81E805
:1055600091E0D5CF81E991E00E94F910A2E2B0E08C
:10557000AC0FBD1FBE87AD871A8619868CE090E000
:105580009C878B878091020490910304892B09F4F6
:1055900033C10E94B9116091F9037091FA038091AF
:1055A000FB039091FC030E94DA096D327140810582
:1055B000910578F00E94F6096093F9037093FA035D
:1055C0008093FB039093FC03FE0139961F010E9418
:1055D00011110E94F6096093F5037093F60380930E
:1055E000F7039093F8038091E7059091E805892BE4
:1055F00009F043C1809190058823A9F00E94F60923
:1056000000918C0510918D0520918E0530918F05AC
:10561000601B710B820B930B6F3F7F4F8F4F9F4728
:1056200010F40E949E11D1100E94B91186E0E0E3AF
:10563000F4E0DE01119601900D928A95E1F7109247
:1056400032041092330410923404109235048B818A
:105650009C81892B09F44AC080912E0490912F04DB
:105660000E944A179C0190912904992309F413C2BE
:1056700025313105D8F19F3F19F09F5F90932904A0
:105680001B81112359F00E948C0C9FEF11160CF412
:1056900091E0899F802D1124809332041C81112375
:1056A00059F00E948C0C9FEF11160CF491E0899F29
:1056B000802D112480933304309132043323B1F0D0
:1056C00020913304222391F045EB3403C0011124CF
:1056D000992309F4B3C19093320455EB250390014B
:1056E0001124332309F4AEC1309333048D819E819C
:1056F000892B09F44AC080912C0490912D040E94BA
:105700004A179C0190912A04992309F4BFC12135BD
:105710003105D8F19F3F19F09F5F90932A041D81B6
:10572000112359F00E946A0C9FEF11160CF491E0BE
:10573000899F802D1124809334041E81112359F0F8
:105740000E946A0C9FEF11160CF491E0899F802D46
:10575000112480933504309134043323B1F0209127
:105760003504222391F045EB3403C0011124992321
:1057700009F46CC19093340455EB25039001112476
:10578000332309F467C13093350446E050E0BE018D
:105790006F5F7F4F80E394E00E94CE30892B61F4ED
:1057A0008091320490913304892B90913404892B99
:1057B00090913504892B11F00E945A1A86E0FE015F
:1057C0003196A0E3B4E001900D928A95E1F70E9432
:1057D000B61290912804891709F4E1CB809328042C
:1057E0000E94F609DCCB88E991E0BECE8FE991E01A
:1057F000BBCE86EA91E0B8CE6091F5037091F603D6
:105800008091F7039091F8030E94DA0961367A4E8D
:105810008105910518F00E949E11E5CE6091F90373
:105820007091FA038091FB039091FC030E94DA09C6
:105830006D3271408105910508F4D5CE0E94F609BC
:105840006093F9037093FA038093FB039093FC0336
:10585000AE01475F5F4F1A010E941111C4CEECE404
:10586000F8E084918F01882309F4BDCE0E940F10C7
:105870000F5F1F4FF8018491F6CF80919105882327
:1058800009F4B8CE809125048111B4CE0E94B911DB
:105890002091E7053091E8052115310509F4AACEDC
:1058A00080E041E050E0082F10E07A01082E02C0AD
:1058B000EE0CFF1C0A94E2F7B70162237323672BF7
:1058C00011F48F5FF0CF9091240490FF9EC0880F59
:1058D000880F880F80934E0110925101895F809349
:1058E0004F0183E08093520124E630E047E050E02E
:1058F0006CE471E088E70E94F02D892B09F07ACEE4
:10590000A80125E0440F551F2A95E1F78091240452
:1059100080FF8DC0E4E0F4E080E2DF011D928A9513
:10592000E9F7EAEBF1E0FD8BEC8B06EB11E08EEB97
:10593000282E81E0382E97E0992E88248394AC8914
:10594000BD892D91BD8BAC8BF80141908F01440E28
:10595000552E511CC20187519A4F2C01E22FF0E0C5
:10596000EC5FFB4F30E020E0692C621AC82C022E5D
:1059700001C0CC0C0A94EAF7520190E0D5018D9158
:105980005D018C21662D691B6770762E062E000C3A
:10599000770BB82F01C0BB0F7A94EAF77B2E719575
:1059A000619571096770772701C086956A95EAF756
:1059B000782A8081782A70829F5F9830F9F62F5F6D
:1059C0003F4F31962830310579F6EC89FD892E1646
:1059D0003F0609F0B4CF04E610E020E230E044E0F6
:1059E00054E060E488E70E94112E892B09F002CE72
:1059F000E094F0948091E7059091E805E822F9227F
:105A0000F092E805E092E705F5CD8295880F807663
:105A100080934E01980136952795369527952093CA
:105A20005101815E80934F01109252015DCF475129
:105A30005A4F04E610E020E230E0D3CF81E08093BB
:105A400032044BCE81E08093330450CE81E08093CA
:105A5000340492CE81E08093350497CE09BD19BD00
:105A600009B400FEFDCF8091D8008F7D8093D800CF
:105A70008091E00082608093E0008091E00081FDF1
:105A8000FCCF10929A050E94811A6FCB2B30310502
:105A900008F042CE7ACE2B30310508F0EECD26CE7E
:105AA0001092B9008CE08093B8000895B0E0A0E0B7
:105AB000ECE5FDE20C941330B82EEB010E9459176F
:105AC0006C01EE24E394F12CC431D10560F025E0A3
:105AD000E22EF12CCF3FDC0731F0CE0164E170E023
