:100000000C9464080C949C080C949C080C942C3060
:100010000C949C080C949C080C949C080C949C08D0
:100020000C949C080C949C080C941F180C943B1C7A
:100030000C94E6250C949C080C949C080C949C0849
:100040000C949C080C949C080C949C080C949C08A0
:100050000C949C080C94F8180C949C080C949C0824
:100060000C949C080C949C080C949C080C949C0880
:100070000C949C080C949C080C949C080C949C0870
:100080000C949C080C949C080C949C080C949C0860
:100090000C949C080C949C080C949C080C949C0850
:1000A0000C949C080C949C080C949C080501090273
:1000B000A10185020901A1000509190129081500FE
:1000C0002501950875018102050109300931158165
:1000D000257F95027508810609381581257F9501D0
:1000E00075088106050C0A38021581257F95017572
:1000F000088106C0C00660FF0961A1010962150000
:1001000026FF009520750881020963150026FF006F
:10011000952075089102C005010906A1010507197E
:10012000E029E71500250195087501810295017503
:100130000881010507190029FF150026FF00950613
:100140007508810005081901290515002501950587
:1001500075019102950175039101C0000000808036
:10016000800000000000000000000000000000000F
:1001700000000000000000000000007CC711F80E25
:10018000030000000000000000000000C0601C062A
:100190000890101008841E30C00000E0371C0003D7
:1001A0000202010302060C08080C0407010000000B
:1001B0000001000800C120100805021F1030E08077
:1001C000838E889890B0D03020202027283820C3F4
:1001D0008488B0C08FF10000000000F88C04FC009F
:1001E000000000000000000000000000000000000F
:1001F0000000000000000000000000001FF0033EAF
:10020000C0808040C080800000000000C0601C06EC
:100210000890101008841E30C0000000F80D070080
:1002200000C08000000001030A0C04070100000068
:100230000001000800C12010080502000F38E0800E
:100240008080819F90B0D03020202027283820C384
:100250008488B0C08FF100000000000000000000A2
:1002600000000000000000000000807018204040E6
:1002700040201078C00000000000000000000000D6
:1002800000000000000000809CE701000000060064
:100290002000060040A31408000000000000F00C3D
:1002A000E212090913FE0F0100002020C000000027
:1002B00000000000F01E0100000000000000070C1C
:1002C00039236644484F702020604040474C7820D6
:1002D000604E4878677C00000000000000000000CD
:1002E0000000000000000000000080701820404066
:1002F00040201078C0000000000000000000C06036
:100300002020C000000000809CE7010000000600E3
:100310002000060040A3140800000000001FE100B8
:10032000FE03010000F80F0100002020C0000000C3
:1003300000000000F01E0100000000000000070C9B
:1003400039236644484F702020604040474C782055
:10035000604E4878677C000000000000000000004C
:100360000000008080808080000000000000C060ED
:10037000800000008040E00000000000C0380C0257
:10038000030101010000080931E1010161C201001E
:1003900000111181001011038C502000071810204B
:1003A00040C0983020202040406724BCB0A0B0500E
:1003B000100818101010161D0000000000000000AA
:1003C0000000010101010101010101010000000023
:1003D000000000000000000000000000000000001D
:1003E0000000008080808080000000000000C0606D
:1003F000800000008040E00000000000C0380C02D7
:10040000030101010000080931E1010161C201009D
:1004100000111181001011038C50200007183020AA
:100420006080183040C040C08087845C702010100D
:10043000100818101010161D000000000000000029
:10044000000001063840433C0000000000000000AE
:10045000000000000000000000000000000080809C
:10046000800000000000000000000000000000000C
:1004700000000000000000000000007CC711F80E22
:10048000030000000000000000000000C0601C0627
:100490000890101008841E30C00000E0371C0003D4
:1004A0000202010302060C08080C04070100000008
:1004B0000001000800C120100805021F1030E08074
:1004C000838E889890B0D03020202027283820C3F1
:1004D0008488B0C08FF10000000000F88C04FC009C
:1004E000000000000000000000000000000000000C
:1004F0000000000000000000000000001FF0033EAC
:10050000C0808040C080800000000000C0601C06E9
:100510000890101008841E30C0000000F80D07007D
:1005200000C08000000001030A0C04070100000065
:100530000001000800C12010080502000F38E0800B
:100540008080819F90B0D03020202027283820C381
:100550008488B0C08FF1000000000000C02010D0DF
:1005600030000000000000008080403C140408902F
:10057000180408B0408000000000000003040810C8
:1005800011F90101010101010000000000000080DB
:10059000C848282A100F00000000000000000000DA
:1005A000000001020C102028370202040810262B3C
:1005B00032040506000000000000000000000000FA
:1005C000000000000000000000000000000000002B
:1005D000000000000000000000000000E01010F02B
:1005E0000000000000000000808040402C1404083F
:1005F00090180408B04080000000000003040810B8
:1006000011F90101010101010000000000000000DA
:1006100080C048282A100F204A091000000000005E
:10062000000001020C102028370202040810262BBB
:100630003204050600000000000000000000000079
:1006400000000000000000000000000000000000AA
:10065000000000000000000000000000000000009A
:10066000000000000000000000000000000000008A
:100670000000000000000000000000000000007EFC
:100680000F00D4FFFFFFC70000007800000000004B
:100690000000002A2B2800000000000000000000DD
:1006A00000000000000029000000002C1E34202162
:1006B0002224342627252E362D3738271E1F2021A9
:1006C00022232425263333362E37381F0405060708
:1006D00008090A0B0C0D0E0F101112131415161722
:1006E00018191A1B1C1D2F3130232D350405060740
:1006F00008090A0B0C0D0E0F101112131415161702
:1007000018191A1B1C1D2F3130354C00DA0281FFDD
:10071000D9F1DB20A4A62EAF00A0C0D30000A1C851
:10072000D30000AED580A81F408D142000808182A8
:10073000838485868788898A8B8C8D8E8F90919211
:100740009394A0A1A2A3A4A5A6A7A8A9AAABACAD67
:10075000AEAFB0B1B2B3B4C0C1C2C3C4C5C6C7C8DE
:10076000C9CACBCCCDCECFD0D1D2D3D400000101D9
:100770000101010101010102020202020202020260
:100780000303030303030303040404040404040530
:1007900005050505060606060607070707070808F4
:1007A0000808090909090A0A0A0B0B0B0C0C0C0DA5
:1007B0000D0D0E0E0E0F0F0F10101111111212133E
:1007C000131414151516161717181819191A1A1BB9
:1007D0001B1C1D1D1E1E1F20202122222324242518
:1007E0002626272829292A2B2C2D2D2E2F30313251
:1007F00032333435363738393A3B3C3D3E3F404161
:1008000042434445464748494A4C4D4E4F50515348
:1008100054555658595A5B5D5E5F616264656668FF
:10082000696B6C6D6F7072737577787A7B7D7E8083
:1008300082838587888A8C8E8F91939596989A9CCF
:100840009EA0A2A3A5A7A9ABADAFB1B3B5B7BABCE3
:10085000BEC0C2C4C6C9CBCDCFD1D4D6D8DBDDDFB4
:10086000E2E4E7E9EBEEF0F3F5F8FAFDFF00AF00A4
:10087000AE29001E001F00200021002200230000DE
:10088000002B0014001A000800150017001C0000BF
:1008900000E00004001600070009000A0000000044
:1008A00000E1001D001B000600190005000000000B
:1008B00000E0002152E200E30022522C0000000080
:1008C000002A002E002D002700260025002400000D
:1008D00000310030002F00130012000C0018001C23
:1008E000002800340033000F000E000D000B000044
:1008F00000350052003800370036001000110005A6
:10090000004F00510050002352E7004C0028000027
:100910000001003A003B003C003D003E003F00006B
:1009200000010001000100010001000100010000C0
:1009300000010001000100010001000100000000B1
:1009400000010001000100010001000100000000A1
:100950000001000100010001000100010000000091
:1009600000010045004400430042004100400000F7
:10097000000100010001000100010001000100016F
:100980000001000100010001000100010001000060
:10099000000100010001000100010001000100014F
:1009A0000001000100010001000100010001000040
:1009B0000001000100010001000100010001000030
:1009C0000001000100010001000100010001000020
:1009D0000001000100010001000100010000000011
:1009E0000001000100010001000100010000000001
:1009F00000010001000100010001000100000000F1
:100A000000010001000100010001000100010000DF
:100A100000010001000100010001000100010001CE
:100A200000DA00D300D9000100010001000100003C
:100A300000D200CD00D10001000100010001000141
:100A400000D000CE00CF0001000100010001000035
:100A5000000100010001000100010001000100008F
:100A6000000100010001000100010001000100007F
:100A70000001000100010001000100010000000070
:100A80000001000100010001000100010000000060
:100A90000001000100010001000100010000000050
:100AA00000207801000100010001000100010000A8
:100AB000000100010001000100010001000100012E
:100AC000000100010001000100010001000100001F
:100AD0000025782778267801000100010001000137
:100AE000002378287824780100010001000100002B
:100AF0000009025B00030100A0FA090400000103E1
:100B000001010009211101000122440007058103B0
:100B1000080001090401000203000000092111017D
:100B200000012222000705820320000107050303BC
:100B30002000010904020001030000000921110145
:100B40000001224900070584032000011201000270
:100B500000000008544B01000100010200010C03D9
:100B60006D006100380069006300000016036B002F
:100B700061007A006D006500650067006100770024
:100B800061000000040309040000000000003E5B57
:100B90004F5B3E003E6B4F6B3E001C3E7C3E1C009C
:100BA000183C7E3C18001C577D571C001C5E7F5E65
:100BB0001C0000183C180000FFE7C3E7FF00001806
:100BC00024180000FFE7DBE7FF0030483A060E007C
:100BD000262979292600407F05050700407F052545
:100BE0003F005A3CE73C5A007F3E1C1C0800081C92
:100BF0001C3E7F0014227F2214005F5F005F5F00B5
:100C000006097F017F00006689956A006060606068
:100C1000600094A2FFA2940008047E040800102043
:100C20007E20100008082A1C0800081C2A0808005A
:100C30001E10101010000C1E0C1E0C0030383E3818
:100C40003000060E3E0E060000000000000000000E
:100C50005F000000000700070000147F147F1400ED
:100C6000242A7F2A12002313086462003649562082
:100C70005000000807030000001C22410000004152
:100C8000221C00002A1C7F1C2A0008083E080800BD
:100C9000008070300000080808080800000060604C
:100CA00000002010080402003E5149453E00004269
:100CB0007F4000007249494946002141494D3300B7
:100CC0001814127F10002745454539003C4A494910
:100CD000310041211109070036494949360046498A
:100CE00049291E00000014000000004034000000EC
:100CF000000814224100141414141400004122149A
:100D000008000201590906003E415D594E007C125F
:100D100011127C007F49494936003E414141220081
:100D20007F4141413E007F49494941007F0909090E
:100D300001003E41415173007F0808087F000041D7
:100D40007F4100002040413F01007F081422410004
:100D50007F40404040007F021C027F007F0408105B
:100D60007F003E4141413E007F09090906003E41A6
:100D700051215E007F091929460026494949320060
:100D800003017F0103003F4040403F001F204020FF
:100D90001F003F4038403F00631408146300030401
:100DA000780403006159494D4300007F41414100EF
:100DB000020408102000004141417F0004020102AA
:100DC0000400404040404000000307080000205459
:100DD000547840007F284444380038444444280074
:100DE000384444287F0038545454180000087E09C1
:100DF00002001824241C78007F08040478000044B2
:100E00007D4000002040403D00007F10284400004D
:100E100000417F4000007C04780478007C080404D2
:100E200078003844444438007C18242418001824DE
:100E300024187C007C0804040800485454542400FE
:100E400004043F4424003C4040207C001C204020FF
:100E50001C003C4030403C004428102844004C908A
:100E600090907C004464544C4400000836410000DB
:100E70000000770000000041360800000201020473
:100E800002003C2623263C00000000000000000079
:100E9000000000000000808080C0C0C0C0E0E0E032
:100EA000E0E06070F0F0F0F0F0F0F0F0F0F0E0E092
:100EB000E0A0E0E0E0E0F0F0F8F8FCEC7CFEFEFE04
:100EC000DECEC6C0C0C0C08080808080808080C0F0
:100ED000C0E0E0F078208080C0C0E0F8800000C072
:100EE000FED8F0C0E0C0FC808000000000E0800080
:100EF00000000000000000000000000000000000F2
:100F0000000000000000E0F0F0F0E0ECEEF7F3701D
:100F100020007C7C7C7E007E7E7E7F7F7F00008048
:100F2000C0E07E5B4F5BFEC00000C000DCD7DEDEB1
:100F3000DED7DC00C0000000000000000000000060
:100F400000000000000000000000000000000000A1
:100F500000000000000133373C606061E1E1E3E341
:100F6000E7EFEEFEFFFFFFFFFFFF7FFBFBFFFFFE54
:100F7000FEFFEFFFFFDFDFD9F9FFFFFFCFCFFFF766
:100F8000F7FFFFF7E6BFBFFFFFEFEFFBFBBFBFFFC2
:100F9000F7FDFDDFDBFF7F7DDFDEFE7F1F7EFCEFE9
:100FA000FFFF3DFF8F070F1E073F0EFFF63F0D07A8
:100FB0003E0C0E04081F0006003800000000000070
:100FC0000000000000000F1F3F7F7F7F7F7F3F1EDC
:100FD0000C001F1F1F3F003F3F3F7F7F7F00307B84
:100FE0007F7830202030787F3B0003000F7F0F0F89
:100FF0000F7F0F0003000000000000000000000051
:1010000000000000000000000000000000000000E0
:1010100000000000000000000000000000000000D0
:1010200008181C1E1E0F0F0F0707030303030303FB
:10103000071F3F3F3E7E6F7F7F77752707070706B5
:101040000F1F3F3F7F7F7F76624303030101010350
:101050000303060606060E0C080103000000030742
:101060003E07000F03000000000000000300000026
:101070000000000000000000000000000000000070
:101080000000000000000000000000000000000060
:101090000000000000000000000000000000000050
:1010A0000000000000000000000000000000000040
:1010B0000000000000000000000000000000000030
:1010C000000000000000000011241FBECFEFDAE096
:1010D000DEBFCDBF04B603FE18C08091A00790917B
:1010E000A107A091A207B091A3078730904BA7401A
:1010F000B04B59F41092A0071092A1071092A207CA
:101100001092A307E0E0F8E3099512E0A0E0B1E057
:10111000E8EAF5E602C005900D92A83EB107D9F7BE
:1011200027E0A8EEB2E001C01D92A03AB207E1F7B5
:101130000E940D260C9494320C940000CF93DF9300
:1011400040919E0750919F074E5955409A01205853
:101150003F4F21303240C0F020E032E0241B350BFD
:1011600060919C0570919D05FC01CA01240F351FFB
:10117000C1E0D0E08217930750F070939D05609313
:101180009C05DF91CF91089520E830E0E9CF4491AC
:10119000DC01A256BA4F5C91451781F04C93AC012B
:1011A000A5E056954795AA95E1F7DE0102C0AA0F82
:1011B000BB1F4A95E2F7AD016A2B752B019631965C
:1011C000D9CF482F2091940590915B0557E02913C2
:1011D00002C080E0089530E0529FF001539FF00D6F
:1011E0001124E45AFA4F8181681306C080814813A4
:1011F00003C085818111EECF2F5F3F4F2770E7CF6E
:10120000FC01AC014B5F5F4F8FEF91E3219182278F
:1012100028E030E087FF09C0880F89272150310975
:10122000C9F7E417F50791F70895880FF7CFE8EDB0
:10123000F0E080818E7F80831092E2001092DA00CD
:101240001092E100A0EEB0E08C9181608C938081DF
:101250008F77808319BCA7EDB0E08C918E7F8C9343
:1012600080818F7E80831092430508952091E40051
:101270003091E50095E6A9012091EC00822F817064
:1012800020FF06C08091E80080FF06C080E008953E
:101290002091E80022FD1AC080915105882389F031
:1012A000853089F08091EB0085FD0FC02091E4002E
:1012B0003091E50042175307F9F29150E1F684E0CE
:1012C000089582E0089583E0089581E00895809173
:1012D000530587FF13C08091E80082FF06C080910C
:1012E000E8008B778093E80004C08091510581115C
:1012F000F2CF0895809151058823D9F38091E800B9
:1013000080FFF8CF8091E8008E77ECCF982F9093F4
:10131000E900242F762F50E0891731F07091EC000E
:101320002091ED005091F00021FD07C09F5F9730A4
:1013300071F78093E90081E008953091EB003E7FE2
:101340003093EB003091ED003D7F3093ED00309114
:10135000EB0031603093EB007093EC002093ED00D4
:101360005093F0002091EE0027FDE0CF80E008953B
:10137000B0E0A0E0EEEBF9E00C946631C8EDD0E00F
:1013800088818F7E8883E7EDF0E0808181608083B3
:1013900084E082BF81E08093430588818E7F8883CB
:1013A00002EE10E0F80110821092DA0081EEC82EF1
:1013B000D12CF601108288818F778883888180689C
:1013C000888388818F7D888319BC10925105109283
:1013D00052051092500510924F0590EEE92EF12C17
:1013E000F70180818B7F808388818160888342E0E0
:1013F00060E080E00E948609F60180818E7F808314
:10140000F801808181608083808188608083F7011A
:1014100080818E7F8083888180618883CDB7DEB7AD
:10142000E8E00C948231FC018091590590915A05B5
:1014300086179707A0F06115710529F49091E800CF
:101440009E779093E80090E06115710551F4911139
:1014500008C08091E80082FF34C080E00895BC019C
:10146000F2CF809151058823C1F18530C1F180917F
:10147000E80083FD30C08091E80082FDEACF8091D2
:10148000E80080FFE1CF8091F3002091F200382F37
:101490006115710519F02830310558F091E02830B8
:1014A000310509F090E02091E8002E772093E800C4
:1014B000CBCF81918093F100615071092F5F3F4F35
:1014C000E7CF80915105882341F0853041F080912C
:1014D000E80083FFBECF81E0089582E0089583E0B5
:1014E00008950895809146050895CF92DF92EF9276
:1014F000FF922FB7F894C0903F05D0904005E09040
:101500004105F09042052FBFA7019601261B370B1E
:10151000480B590BCA01B901FF90EF90DF90CF90B3
:1015200008952FB7F89460913F0570914005809120
:101530004105909142052FBF08952091950536E011
:10154000839FC0011124629F800D911D112481157C
:1015500022E0920714F090E080E082569A4F909338
:101560009F0780939E070895FA01811101C0FB0136
:1015700009950895109266040895EEE5F4E024813B
:1015800030E1231B08F420E0248380915D04816016
:1015900080935D040895EEE5F4E0248130E1230FAB
:1015A00008F42FEF248380915D04816080935D04B3
:1015B000089590915E04937059F080935F04609356
:1015C00060044093610480915D04822B80935D04EC
:1015D0000895EEE5F4E0438120E1421B08F440E089
:1015E000818121E0628190E00E94D90A0895EEE5B0
:1015F000F4E0438120E1420F08F44FEF818121E0C4
:10160000628190E00E94D90A0895EEE5F4E06281DB
:1016100020E1621B08F460E0818121E0438190E0D9
:101620000E94D90A0895EEE5F4E0628120E1620F9C
:1016300008F46FEF818121E0438190E00E94D90A94
:101640000895EEE5F4E0818121E0438162818850D4
:10165000990B0E94D90A0895EEE5F4E0818190E0AB
:1016600021E04381628108960E94D90A08959091F1
:101670005E04937061F081110BC0946090935E04DE
:101680001092540180915D04862B80935D0408952F
:10169000833010F09860F2CF880F880F982BEECF30
:1016A00080915E0486958695815009F482E061E020
:1016B0000E94370B089580915E04869586958F5F12
:1016C000833008F081E061E00E94370B0895FF92BB
:1016D0000F931F93CF93DF93182F062FF42ED0E094
:1016E000C0E02F2D402F612FCE010E944B13219679
:1016F000C534D105B1F7CDB7DEB7E5E00C9485313F
:10170000EF92FF920F939701201B31092F3F310574
:1017100019F010F02FEF30E02095382F320F08F439
:101720003FEF832F0F91FF90EF900895AF92BF92FC
:10173000CF92DF92FF920F931F93CF93DF93362FB9
:10174000472FE82FF0E0E359F84F71110FC0E491F3
:101750008E2F2E2F6E2F722FDF91CF911F910F9111
:10176000FF90DF90CF90BF90AF900895C72FD0E04B
:101770002491F22E022F10E056E0659FC001112443
:10178000EFEFF0E0BF010E944831832F90E0880F17
:10179000991F35E5369FD001379FB00D11248A1B64
:1017A0009B0B982F990F980F6F01CC1ADD0AC09EE2
:1017B000D001C19EB00DD09EB00D11248B2F499F3A
:1017C000A0011124452F55276F01C41AD50AC09EC8
:1017D000A001C19E500DD09E500D11245F01A91A89
:1017E000B108AC9E6001AD9ED00CBC9ED00C112403
:1017F000CD2CDD24EC19FD09E09FE001E19FD00D27
:10180000F09FD00D1124ED2F62307105A1F050F43E
:101810006115710509F49ECF6130710581F0EB2FE0
:10182000852F98CF6430710569F080F066307105BE
:1018300009F490CFF4CFE22F2B2F8D2F8BCFE22FF7
:10184000252F88CFEB2F822F2D2F84CF2B2F8F2D5D
:10185000E52F80CF8091F80380FD16C081FD16C072
:1018600082FD16C08091F7038823A1F0883280F4AE
:1018700028E0829FC001112468E270E00E949F313D
:10188000862F672B39F0089582E0089584E008954B
:1018900088E0089581E008958091F80380FD14C0E8
:1018A00081FD14C082FD16C08091F603882381F06B
:1018B0008E3180F420E5829FC00111246EE170E03A
:1018C0000E949F31862F089584E1089588E208954B
:1018D00088E0089580E50895282F35EB2303C001A3
:1018E000112497FF04C080589109892F08958058CA
:1018F0009F4FFBCF80E00895F894E82FE295EF70BA
:10190000F0E031A1282F2F7081E090E001C0880F16
:101910002A95EAF7982F9095932391A392A1892B6A
:1019200082A37894089590916F0392FF10C041E0D4
:10193000282F2471243009F040E031E0282F28714D
:10194000283009F030E0431711F02CE0822793FF94
:1019500010C041E0282F2471243109F040E031E02B
:10196000282F2871283109F030E0431711F02CE0BE
:1019700082273091700330FF10C051E0282F217171
:10198000213009F050E041E0282F2871283009F07B
:1019900040E0541711F029E0822731FF10C041E0E8
:1019A000282F2171213109F040E031E0282F2871E2
:1019B000283109F030E0431711F029E0822794FD27
:1019C000877E089582389105B9F1B0F4813391058D
:1019D00009F47DC048F48932910509F46DC08A325A
:1019E000910509F47BC008958533910509F45FC022
:1019F0008933910509F10895833E9105D9F138F4B1
:101A0000803E910529F1823E910579F10895863E47
:101A10009105D9F1873E910509F43EC0843E9105B8
:101A200041F52091700321FF24C080916F0384FD54
:101A300019C087EE90E0089520916F03237009F09C
:101A40005AC02091700323FF14C089E290E00895EA
:101A500020916F0320FD38C03091700330FF09C022
:101A600024FF43C090E080E0089520916F0322FDA1
:101A7000F7CF089520916F0322FD3AC03091700393
:101A800030FD39C024FFF5CFEDCF20916F0323FF48
:101A9000F0CF24FDE7CFCDCF20916F0323FD2EC0E3
:101AA0003091700331FFEECF84EE90E008952091E5
:101AB0006F0325FFDECFC9CF20916F0325FD21C025
:101AC0002091700323FFD5CF89E390E0D2CF2091FE
:101AD0006F0326FFCECF8AE290E0089520916F0336
:101AE00026FFC7CF81E390E0089583EE90E008954C
:101AF00082EE90E0089580EE90E0089586EE90E00A
:101B0000089585E390E008951F93CF93DF930E949B
:101B1000E20CEC01C11582E5D80708F03FC0C11501
:101B200080E5D80708F0BCC0C83ED105C0F4C03E6F
:101B3000D10580F4C53AD10548F4C430D10550F43C
:101B4000C130D10539F0D0E0C0E004C0CD3CD105B2
:101B5000D0F3D065CE01DF91CF911F910895C115CB
:101B600080E4D80708F06BC0C11580E2D80708F000
:101B7000B1C0C11581E0D80730F38D2F0E94930CBE
:101B8000182FCE0199270E94E20CC12FD0E0DC2F44
:101B9000CC27CC27DF71C82BD92BDCCFC03682E510
:101BA000D807F0F4C03482E5D80708F059C0C03235
:101BB00082E5D80708F04DC02C2F2695269580E2A7
:101BC000289F900111248C2F8370C1E0D0E002C0C7
:101BD000CC0FDD1F8A95E2F7C22BD32BDD68BACF7D
:101BE000C03C82E5D807F8F4C03A82E5D80708F08F
:101BF0004CC0C03882E5D80708F0A5CF2C2F269519
:101C00002695277080E2289F900111248C2F8370E5
:101C1000C1E0D0E002C0CC0FDD1F8A95E2F7C22BF5
:101C2000D32BDA6897CFC03E82E5D80708F08BCF78
:101C3000DC2FCC27CC27DF71C06FD06A8BCFCE01D1
:101C400099270E94E20CCC27DF70C82BD92BD06AD1
:101C500081CFCF71D0E0DC2FCC27C16FD06A7ACF93
:101C60002C2F26952695277080E2289F900111241D
:101C70008C2F8370C1E0D0E002C0CC0FDD1F8A95AD
:101C8000E2F7C22BD32BDC6865CF8C2F8F710E94BB
:101C9000930CC82FD0E0DC2FCC27CC27DF715ACF94
:101CA0008C2F8F710E94930C55E0D695C7955A954D
:101CB000E1F7CF70D0E0DC2FCC27282F30E084FF75
:101CC00005C044E0220F331F4A95E1F7C22BD32B06
:101CD000D06940CF8D2F8F710E94930C182FCE01A9
:101CE00099270E94E20CC12FD0E0DC2FCC27CC2713
:101CF000DF71C82BD92BD0622DCF809194059091A4
:101D00005B05981301C008958F5F8770FACF9A30F2
:101D100080F5883070F548E0949F90011124820F7F
:101D2000932F911D682F677023E0969587952A95CC
:101D3000E1F7FC01EE0FFF1FE80FF91FEB50FD4F1D
:101D400050E040E080E0219130E0062E02C0369560
:101D500027950A94E2F721703327042E01C0220F41
:101D60000A94EAF7822B4F5F5F4F4330510559F7D2
:101D7000089580E008959A3098F5883088F548E015
:101D8000949F90011124820F932F911D282F27706B
:101D900041E001C0440F2A95EAF723E09695879524
:101DA0002A95E1F7FC01EE0FFF1FE80FF91FEB503A
:101DB000FD4F90E080E070E05191DF0111979B01B1
:101DC000082E02C0369527950A94E2F721702195D6
:101DD0002527242325272C9301968330910561F72D
:101DE00008958093C20308959091C20321E030E0EA
:101DF000F90101C0EE0F8A95EAF7D90102C0AA0FD6
:101E0000BB1F6A95E2F7EA2B01C0220F4A95EAF759
:101E1000892F8E23E81305C0292B822F0E94F10EF3
:101E2000089520952923F9CF21E030E001C0220F49
:101E30008A95EAF720958091C20382230E94F10ED1
:101E4000089521E030E001C0220F8A95EAF78091E1
:101E5000C203822B0E94F10E08958093C30308955C
:101E6000982F92959F7011F0892F94E0282F269536
:101E7000269511F09E5F822F869509F09F5F892F2E
:101E80000895CF93DF93C0919E07D0919F078A302A
:101E9000C1F420919505CE018E599540622F70E0D6
:101EA0000E944831281B822F66E00E949331C82F80
:101EB000C15018F4DF91CF91089580E20E94410F44
:101EC000F7CF8D30E9F4CE59D54020919505622F9A
:101ED00070E0CE010E944831281B822F9E01280FFE
:101EE000311D2115324018F080E0D0E0C0E0C80F6D
:101EF000D11DC256DA4FD0939F07C0939E07DACF09
:101F000096E0FE01A6E9B5E001900D929A95E1F701
:101F1000803E08F458C086E0FE0111928A95E9F7E8
:101F2000C0919E07D0919F0746E050E0BE0186E930
:101F300095E00E942C329E012E593540892B41F1AB
:101F4000C90145E0969587954A95E1F741E050E053
:101F5000BA0102C0660F771F8A95E2F7CB01609144
:101F60009C0570919D05862B972BB9016B5F7F4F68
:101F7000E5E076956795EA95E1F702C0440F551FB5
:101F80006A95E2F7842B952B90939D0580939C0591
:101F90002A5F3F4F40919505642F70E0C9010E9470
:101FA0004831481B463010F4240F311D211572E0D2
:101FB000370710F030E020E022563A4F30939F0769
:101FC00020939E0777CFF6E08F9FB00111246857CA
:101FD000744F46E050E0CE010E942332A1CF8091A1
:101FE000440590912203892B8093EA0248E050E057
:101FF0006AE173E08AEE92E00E942C32892BA9F00C
:1020000088E0EAEEF2E0AAE1B3E001900D928A9551
:10201000E1F7E0913C05F0913D05309731F0028009
:10202000F381E02D8AEE92E009950895882341F02E
:102030008095909144058923809344050E94EF0F79
:102040000895882339F090914405982B9093440586
:102050000E94EF0F08950F931F93CF93DF93EC012E
:10206000FC0101900020E9F78F0101501109C01710
:10207000D10728F0DF91CF911F910F910895899199
:102080000E94410FF4CF2F923F92CF93DF93E10153
:102090006A8188819091F302911104C090910001AE
:1020A00091112EC06E5F0E949D0A86E691E00E940B
:1020B0002B106A81615088810E949D0A81E0809383
:1020C00000012091F20230E02F5F3F4F2170332753
:1020D0002093F20281E090E0821B930B9695982F5B
:1020E0008827979587952091C40321FF15C0855AAD
:1020F0009A4F0E949E08DF91CF913F902F900895B4
:1021000061500E949D0A86E691E00E942B106A8130
:1021100088810E949D0AD5CF2091F402222319F0D4
:10212000855A9B4FE6CF2091C5033091C6032B30D3
:1021300031051CF4855A9C4FDCCF293231051CF443
:10214000855A9D4FD6CF855A9E4FD3CF0F931F935D
:10215000CF93DF938B01EA0190915105943061F5A3
:102160008093E9008FEF9091E800815095FD06C0C3
:1021700095ED9A95F1F700008111F5CF8091E80077
:1021800085FF1AC00E943609811111C08091E800B4
:1021900085FD06C08091E8008E778093E800F2CF3D
:1021A000F80181918F018093F100219779F7809157
:1021B000E8008E778093E800DF91CF911F910F9117
:1021C000089546E050E0BC0184E00E94A610089506
:1021D000CF93DF93EC0148E050E0BC0181E00E9426
:1021E000A61088E0FE01A7E4B5E001900D928A9563
:1021F000E1F7DF91CF91089581E08093E00080E2E4
:102200008093D8001092C9008FE19EE40197F1F706
:1022100000C0000087E090EBDC018093A007909362
:10222000A107A093A207B093A30788E19CE00FB693
:10223000F894A895809360000FBE90936000FFCF44
:1022400080916604882341F1539A3BB1377F2BB1CB
:1022500028604FB7F89487E694E0FC015191CF01D4
:1022600068E02BB9000000C057FF3BB9550F0000D4
:1022700000C000C000C03BB900C06A9591F7F5E00E
:1022800086339F0751F74FBF8FE594E00197F1F731
:1022900000C00000109266040895B0E0A0E0E3E5FD
:1022A000F1E10C9464317C015B016A0180915E0371
:1022B00001E010E08A3010F40AE010E0C1E0D0E064
:1022C000B501C701F6010995811104C021960C17CB
:1022D0001D072CF4CDB7DEB7EAE00C948031CC9F1B
:1022E0009001CD9F300D300D112490E080E045E34A
:1022F0004A95F1F70000019682179307C1F7E0CFE6
:1023000080912F03811119C088EC90E02091E300A7
:1023100027FD10C0EFE3FCE93197F1F700C00000A2
:102320000197A1F782E080932F030E941709109272
:10233000510503C081E080932F0381E090912F032A
:10234000913011F080E0089508950E948011882353
:1023500059F0E0913C05F0913D05309729F001904E
:10236000F081E02D0995089580E008950F931F9363
:102370000E948011882329F00E94910A1F910F91D9
:1023800008950E94910A00915F03109160032091CB
:10239000610330916203600F711F821F931FEECFA4
:1023A000CF93DF93C9EAD2E060E0CE010E947032A1
:1023B0002196C11584E0D807B9F7DF91CF91089530
:1023C0001F93CF93DF93122F8430E0F46A30D0F460
:1023D0004830C0F490E1699FE001112450E0440FBF
:1023E000551FC40FD51F90EA899FC00DD11D112420
:1023F000632FCE0189960E947032612FCE018A969A
:102400000E947032DF91CF911F910895AF92BF92D9
:10241000CF92DF92EF92FF921F93CF93DF9381E7EA
:10242000C82E88E0D82ED0E07601C0E014C0F501B7
:1024300025913491412F6C2F8D2F0E94E01182E065
:10244000A80EB11C1F5F183091F780E1E80EF11C57
:10245000CF5FCA3019F0570110E0E9CFDF5F80EAA3
:10246000C80ED11CD43001F7DF91CF911F91FF909E
:10247000EF90DF90CF90BF90AF900895CF93C82F8B
:102480006FEF811163E285E290E00E9470326FEF9E
:10249000C11162E186E290E00E9470326FEFC111DB
:1024A00061E187E290E00E947032CF91089580E070
:1024B0000E943E1260E088E290E00E9470320E942A
:1024C00006120E94D01181E00E943E1208950F93DF
:1024D0001F93CF93DF93843030F56A3020F5483076
:1024E00010F520E1629F8001112450E0440F551F38
:1024F000040F151F30EA839F000D111D1124C80120
:1025000089960E945232C82FD0E0DC2FCC27C80118
:102510008A960E9452329E01282BC901DF91CF91E9
:102520001F910F91089590E080E0F8CF462F7A3008
:1025300040F4683030F4843020F4672F0E94671232
:10254000089590E080E00895CF92DF92FF920F937C
:102550001F93CF93DF936C010091C2038091C3035B
:10256000082BC3E0D0E010E0FC2EC8010C2E02C006
:10257000959587950A94E2F780FD0CC02197A0F706
:10258000F12C8F2DDF91CF911F910F91FF90DF9054
:10259000CF900895B6018C2F0E9496120E94840D50
:1025A000019761F3EECFCF93DF93EC010E94A41269
:1025B000BE010E9496120E94840DDF91CF91089572
:1025C000FC0124812223C1F0808191810E94D312D9
:1025D00092959F70963091F058F4925F9F70923070
:1025E00058F4803F19F030F4883E30F481E00895CB
:1025F0009A5FF4CF843FD1F380E00895883EB0F332
:10260000813FD1F7F3CFA6E0B0E0E9E0F3E10C942D
:102610006B3149835A8349815A819923A1F022233E
:1026200091F0CA010E94A412182F682F89819A8103
:102630000E94BB0E69817A81812F0E949612269694
:10264000E3E00C948731CA010E94870E182FF2CF65
:1026500085E290E00E945232833289F486E290E073
:102660000E945232823159F487E290E00E94523245
:1026700091E0813109F090E0892F8170089580E028
:10268000FCCF8EE090E00E94523291E0811101C0B7
:1026900090E0892F0895FF920F931F93CF93DF93BC
:1026A000EC01F62E042F122F0E944113811123C03A
:1026B000C032D1051CF1A097FE01EE0FFF1FDF0114
:1026C000AC0FBD1FA959BB4F11968C9111978F115B
:1026D00007C08C91801304C012968C91811771F001
:1026E00081E080936604EC0FFD1FE959FB4FF182F6
:1026F0000083128303C0C032D105F4F2CDB7DEB738
:10270000E5E00C948531B0E0A0E0E9E8F3E10C9459
:1027100066316C017B0164E670E088E70E94A62EBA
:102720008C01E601EC0CFD1C17FD0BC0FE01849131
:1027300064E670E00E94122F8C012196CE15DF0511
:1027400099F70E94882F81E00115110509F080E0BA
:10275000CDB7DEB7E8E00C94823180913A059091D4
:102760003B05911103C091E089270895882369F002
:1027700062E070E08FE698E00E948313811103C04D
:1027800080913A05089510923A0580913A05EBCF71
:10279000CF93C0913A0580913B058823D1F00E94E8
:1027A000910A605A75418F4F9F4F60933605709321
:1027B00037058093380590933905C11108C062E050
:1027C00070E08DE698E00E948313811105C0C091EE
:1027D0003A058C2FCF91089581E080933A05F7CF89
:1027E00048E050E068E170E08EE594E00E946032DD
:1027F00010925D040895A5E0B0E0E1E0F4E10C94EE
:102800005C3180902C0490902D04A0902E04B09008
:102810002F040E948011882309F43EC0C501B40131
:102820000E94750A6B017C010E94B6114B015C018C
:1028300080922C0490922D04A0922E04B0922F042A
:10284000A0910304E3E0F4E08A2F90E04FEF5FEF04
:1028500060E070E04C195D096E097F09A91325C07D
:102860008093030480915E04082F0370402E19F0BA
:10287000482E4694469490915401913009F43FC0FB
:10288000992331F1923009F49FC1933009F4A4C126
:102890002596E2E10C9478310E94B6116B017C011F
:1028A000C818D908EA08FB08BFCF218D328D29014D
:1028B000712C612C441555056605770520F481506F
:1028C0009F5F3296CBCF2C0D3D1D328F218FF8CFDD
:1028D000109251018092590490925A04A0925B0484
:1028E000B0925C0489E2E3E0F4E0A0E3B4E001909C
:1028F0000D928A95E1F781E080935401C9CF9091C0
:102900005001491225C0837020914F0130E091E0C1
:102910008217130609F490E0892F81708093530188
:102920008091630490915201981739F0809352017D
:1029300040E060E080E00E94670B11E04116A1F0EA
:10294000442041F022E0421609F45FC080E035C027
:1029500081E0E3CF80915301882379F140E060E08A
:1029600080E00E94670BF2CF109151018EE0189F1A
:10297000102D11240EE0010F063408F005E40E942A
:102980004113882309F44DC1013208F000E260913F
:102990005F0470916004809161040E94960BF62E92
:1029A000E72ED82EA12EB12CA016C8F00E944113FC
:1029B000882339F181E0003248F6909151019F5F00
:1029C00090935101811164CF82E0809354018091F2
:1029D000530181115DCF41105BCF83E08DCFF501B5
:1029E000EC56FD4F808190915201892331F02D2DBD
:1029F0004F2D6E2DC5010E944B133FEFA31AB30A52
:102A0000D3CF81E00534C8F2A1CFA090300421E0FB
:102A10000A2D021B08F400E0C02E109151018EE037
:102A2000189F102D11245EE0D52ED10E25E42D1512
:102A300010F445E4D42E0E944113882309F4F6C013
:102A400030E23D1510F430E2D32E812F90E09C83CC
:102A50008B83880F991FFC01E65FFD4F3F018C2D92
:102A600090E08C010F5F1F4F1A830983312C212CBA
:102A70008B818D1558F00E944113882309F49EC064
:102A800081E09FE19D1508F098CF60CFEB81FC813C
:102A9000EC56FD4F8081909152018923E9F06091BD
:102AA0005F047091600429813A81205D3B4F4901A8
:102AB000BC2C80E0BA14D0F020916104182F129F32
:102AC000112D1124812F0E94960B462F282F672F3E
:102AD0008B819C810E944B132B813C812F5F3F4F48
:102AE0003C832B8332E0630E711CC2CFF4019191C1
:102AF0004F01F3014081491B550B2181F40197815E
:102B0000291B330B449FD001459FB00DB00D1124FC
:102B1000229FF001239FF00DF00D1124EA0FFB1FFF
:102B2000E230F105E4F4ED8390916204192F01E0A5
:102B3000100F08F41FEFF401EE0FFF1FE053F440F5
:102B40000588F689E02D7101E19FE12CF19FE00CF1
:102B5000F11C11240D810E94800BB394ABCF9FEF29
:102B6000E13E0EE1F00744F4DF0105E0B695A795DC
:102B70000A95E1F798E09A0F55245394E52CE90E55
:102B8000FF24FF1CD701B595A795AD83AA9F7001BF
:102B9000AB9FF00CF00C1124EE15FF0538F49FEFFD
:102BA0009A0F951558F75A945D82BECF0D810F3F4D
:102BB00009F4BACF552453945A0EF3CF81E0E4E4DC
:102BC000ED1508F0FACEC2CE40925001837080938A
:102BD0004F010E94201101CF80915D0481110E945C
:102BE000F013C0905904D0905A04E0905B04F09028
:102BF0005C040E948011882369F0C701B6010E941D
:102C0000750A603171058105910508F441CE109275
:102C100054013ECE0E94B6116C197D098E099F09A0
:102C2000F0CF103208F0B3CE10E2B1CE103208F07F
:102C30000CCF10E20ACFEEE5F4E085E080838091CE
:102C4000560190915701A091580181839283A383EB
:102C50008FE784838FEF85830E94F013089590E0BF
:102C600080E00E945A32863E9E4F19F40E9428133B
:102C7000089580E00895B0E0A0E0E1E4F6E10C946E
:102C80006631C82F7B01D42F6901FB0160817181FE
:102C9000828193810E94750A6436710581059105D0
:102CA00010F4DD2359F10C2E000CDD0BFE0183E046
:102CB000EE0FFF1F8A95E1F7EF5FFE4F8181928152
:102CC000875C9C4F408150E00417150708F4A80169
:102CD000B6010E943932CE010E94D230C82F88231B
:102CE00039F00E94910AF701608371838283938394
:102CF0008C2FCDB7DEB7E8E00C948231C1E0F8CF7D
:102D0000A9E0B0E0E6E8F6E10C946A3188E0EEE58F
:102D1000F4E0DE01119601900D928A95E1F7198693
:102D200049E050E065E473E0CE0101960E942C3248
:102D300041E0892B09F440E009E010E09E012F5F9B
:102D40003F4F6AE573E085E00E943B162996E4E078
:102D50000C9486310F931F9341E09091430380912F
:102D6000C203981301C040E001E010E022EC33E020
:102D700066E573E083E00E943B16882389F041E01A
:102D8000909144038091C303981301C040E001E097
:102D900010E023EC33E062E573E084E00E943B1630
:102DA0001F910F910895A4E0B0E0E9EDF6E10C94D5
:102DB0006B3160914E0370914F038091500390915D
:102DC00051030E94750A11E0643671058105910571
:102DD00070F10E94B6116E5F7F4F8F4F9F4F6983D6
:102DE0007A838B839C838091120190911301875C7D
:102DF0009C4F4091110150E04530510510F044E0E6
:102E000050E0BE016F5F7F4F0E94393282E090E058
:102E10000E94D230182F882351F00E94910A6093AB
:102E20004E0370934F038093500390935103812F6F
:102E30002496E3E00C948731EF92FF921F93CF9397
:102E4000DF9300D000D000D0CDB7DEB77B0190E09B
:102E500080E00E94D230182F882309F473C040917B
:102E6000040150E04115510511F041E050E060913E
:102E7000050170910601675C7C4FCE0106960E94A9
:102E80003932609135037091360380913703909108
:102E900038030E94750A643671058105910540F476
:102EA0008AE393E00E9400099E81891709F44AC0D1
:102EB00081E090E00E94D230811116C010E085E0E0
:102EC000E0E3F3E0D70101900D928A95E1F7812FBD
:102ED00026960FB6F894DEBF0FBECDBFDF91CF911F
:102EE0001F91FF90EF90089540910C0150E0463003
:102EF000510510F045E050E060910D0170910E0118
:102F0000675C7C4FCE0101960E9439328AE393E0E0
:102F10000E9400099E818913D1CF0E94910A60937B
:102F2000350370933603809337039093380385E01D
:102F3000FE013196A0E3B3E001900D928A95E1F78E
:102F400011E0BDCF85E0EAE3F3E0DE0111960190E8
:102F50000D928A95E1F71111EACFB1CFA8E0B0E068
:102F6000E4EBF7E10C946C3166EE7EEF90E080E0EC
:102F70000E948E3260E082E090E00E94703260E059
:102F800083E090E00E9470321092C30360E074E12D
:102F900084E090E00E948E3260E086E090E00E9443
:102FA00070326FEF87E090E00E94703240E050E0B6
:102FB000BA0188E090E00E94823260E084E290E012
:102FC0000E94703260E087E190E00E94703260E021
:102FD0008CE090E00E94703260E08DE090E00E9412
:102FE000703219821A821B821C821D821E821F82ED
:102FF000188648E050E068E170E0CE0101960E943A
:10300000603240E050E0BA0180E290E00E948232FB
:1030100080E00E943E120E94571240E050E0BA0148
:103020008FE090E00E94823240E050E0BA0183E1FC
:1030300090E00E9482322896E2E00C9488311F9240
:103040000F920FB60F9211242F933F934F935F93DC
:103050006F937F938F939F93AF93BF93EF93FF9360
:103060008091E10082FF09C08091E20082FF05C0EB
:103070008091E1008B7F8093E1008091DA0080FFF6
:1030800024C08091D80080FF20C08091DA008E7F1C
:103090008093DA008091D90080FF9DC080E189BDD6
:1030A00082E189BD09B400FEFDCF81E08093510526
:1030B00080914305811109C00E9417090E94B80937
:1030C0008091E20084608093E2008091E10080FFC3
:1030D00017C08091E20080FF13C08091E2008E7FD4
:1030E0008093E2008091E20080618093E200809111
:1030F000D80080628093D80019BC85E08093510588
:103100008091E10084FF2BC08091E20084FF27C002
:1031100080E189BD82E189BD89B5982F917080FFDA
:10312000FBCF8091D8008F7D8093D8008091E10003
:103130008F7E8093E1008091E2008F7E8093E20099
:103140008091E20081608093E200809152058823A3
:1031500009F447C084E08093510580915105809126
:10316000E10083FF27C08091E20083FF23C08091AC
:10317000E100877F8093E10082E080935105109207
:1031800052058091E1008E7F8093E1008091E20002
:103190008E7F8093E2008091E20080618093E20064
:1031A00042E060E080E00E9486098091F000886043
:1031B0008093F000FF91EF91BF91AF919F918F911C
:1031C0007F916F915F914F913F912F910F900FBE23
:1031D0000F901F90189519BC10925105109243053D
:1031E00074CF8091E30087FD93E090935105B5CFB4
:1031F00078941F921FB61F9211248F939F93AF93C1
:10320000BF9380913F0590914005A0914105B091F9
:1032100042050196A11DB11D80933F059093400585
:10322000A0934105B0934205BF91AF919F918F91BB
:103230001F901FBE1F9018959C014FB7F894809166
:103240003F0590914005A0914105B09142054FBFC7
:10325000821B930B08952FB7F89480913F059091AE
:103260004005A0914105B09142052FBF08950E94ED
:103270002B199C019091FF0380910004982B21F061
:103280003093FC032093FB0390910104809102048E
:10329000982B21F03093FA032093F903E0913C0539
:1032A000F0913D05309749F082E08093FD03048062
:1032B000F581E02D8DEF93E009950895CF93C6E059
:1032C000ECEEF2E0DF018C2F1D928A95E9F7109267
:1032D00022030E94EF0FEDEFF3E0DF011D92CA958C
:1032E000E9F71092F6031092F7031092F8030E9488
:1032F0003719CF910895AAE2B0E0E1E8F9E10C9422
:103300006B3183E595E02091F100DC012D93CD0137
:10331000B5E08B359B07B9F780915405833009F4EC
:1033200072C0B8F4813009F449C0823009F4B5C0E4
:103330008091E80083FF8DC28091530590915405E0
:103340009A3008F086C2E92FF0E0EA56FD4C0C9462
:10335000F4318A3009F490C08B3009F471C089309F
:1033600039F780915305813219F780915705909173
:103370005805009711F00297D9F68091E800877FF1
:103380008093E8008091E80082FF38C09091F300BC
:103390008091F200029731F48091F100813011F0B8
:1033A000863021F48091F100809346058091E800F9
:1033B0008B778093E8000E946709BACF809153050C
:1033C000813A09F0B5CF8091E800877F8093E800CB
:1033D0008091570590915805892B61F468E087E446
:1033E00095E070E00E94130A8091E8008B7780934B
:1033F000E8009ECF60E090E080E0F3CF809151053F
:103400008111C0CF95CF80915305813A09F090CFBB
:103410008091570590915805892B09F089CF8091AB
:10342000E800877F8093E8008091E80080FFFCCF70
:10343000809155018093F1008091E8008E77B9CF9B
:1034400080915305813209F073CF80915705909197
:103450005805892B09F06CCF8091E800877F809315
:10346000E8000E94670980915505809355011092EC
:1034700044050E945E195CCF80915305813209F0AA
:1034800057CF8091E800877F8093E8000E9467090A
:1034900080915605809345054BCF80915305813A25
:1034A00009F046CF8091E800877F8093E800809103
:1034B000E80080FFFCCF80914505BCCF803899F0B3
:1034C000823809F0C6C1809157058F70873008F0A7
:1034D000C0C18093E9008091EB0085FB882780F9CB
:1034E0001092E90006C080914F059091500591110E
:1034F00082609091E800977F9093E8008093F100BC
:103500001092F1008091E8008E779FC1882309F422
:103510008DC1823009F09DC180915505811190C106
:10352000809157058F702FEF280F263008F091C13A
:103530008093E9002091EB0020FF82C1933031F4A9
:103540008091EB0080628093EB007AC19091EB0058
:1035500090619093EB0021E030E001C0220F8A954A
:10356000EAF72093EA001092EA008091EB0088606D
:10357000EACF81116EC1109155051F778091E3004C
:103580008078812B8093E3008091E800877F80938F
:10359000E8000E9467098091E80080FFFCCF8091DD
:1035A000E30080688093E30082E0111183E0809360
:1035B00051054FC18058823008F04BC1209155050C
:1035C000309156052C3DE3E03E07A1F583E08A8368
:1035D0008AE289834FB7F894DE01139620E03EE03B
:1035E00051E2E32FF0E050935700E49120FF03C035
:1035F000E295EF703F5FEF708E2F90E0EA30C0F001
:10360000C7968D939D932F5F243159F74FBF8091BB
:10361000E800877F8093E8006AE270E0CE010196BF
:103620000E94130A8091E8008B778093E80011C113
:10363000C096E7CF8091570590915805432F5527A5
:103640004330510509F44AC078F54130510509F479
:103650007AC08BE590E0E1EFFAE04230510509F0E5
:10366000F8C02091E800277F2093E80020915905B9
:1036700030915A058217930708F49C0140E0211508
:10368000310509F065C0411163C08091E80082FDF9
:10369000C9CF80915105882329F2853019F2809194
:1036A000E80083FFF2CFBECF4132510509F43CC0A0
:1036B0004232510509F0CDC08330910508F0C9C0F0
:1036C000FC01EE0FFF1FE452FD4F0190F081E02D51
:1036D00087529D4FDC018C9190E01AC03327213036
:1036E0003105D1F02115310561F02230310509F0A5
:1036F000B0C0EEE5FBE0E4918E2F90E0EEE5FBE05C
:1037000007C0E4E8FBE0E4918E2F90E0E4E8FBE002
:10371000009709F49EC0A5CFECE6FBE0E4918E2F64
:1037200090E0ECE6FBE0F4CF8330910508F091C027
:10373000880F991FFC01EE51FD4F0190F081E02DA3
:1037400089E090E08ECF82E190E0ECE4FBE089CF6D
:1037500080915105882309F465CF853009F462CF43
:103760008091E80083FD5ECF8091E80082FD8DCFDF
:103770008091E80080FF83CF9091F3008091F20068
:103780002115310519F08830910550F041E0089776
:1037900009F040E08091E8008E778093E8006FCFD9
:1037A00044914093F1003196215031090196E8CFC0
:1037B000803809F04EC08091E800877F8093E80050
:1037C000809152058093F1009DCE811142C01091ED
:1037D00055051230F0F58091E800877F8093E8006E
:1037E000109352050E946709112311F084E005C06F
:1037F0008091E30087FDFACF81E08093510542E09C
:1038000061EC81E00E94860942E261EC84E00E9462
:10381000860942E261EC82E00E94860942E260ECA5
:1038200083E00E9486098091510513C0809155055F
:10383000813079F481E0933009F080E08093500585
:103840001092E9008091E800877F8093E8000E9451
:1038500067098091E80083FF0AC08091E800877FB4
:103860008093E8008091EB0080628093EB00AA9641
:10387000E3E00C9487311F920F920FB60F92112440
:103880002F933F934F935F936F937F938F939F9368
:10389000AF93BF93CF93DF93EF93FF93D091E90062
:1038A000DF708091EC00C82FC17080FDC0E81092DD
:1038B000E9008091F000877F8093F00078940E9467
:1038C0007B191092E9008091F00088608093F000ED
:1038D000CD2BCF70C093E900FF91EF91DF91CF9195
:1038E000BF91AF919F918F917F916F915F914F9118
:1038F0003F912F910F900FBE0F901F90189510922F
:1039000044050E945E192FEF84E39CE02150804023
:103910009040E1F700C0000088E19CE00FB6F89409
:10392000A895809360000FBE90936000FFCF662340
:1039300009F45DC08D3C41F40E944C0C819580934C
:1039400000040E94371908958E3C19F40E944C0C13
:10395000F6CF8F3C31F40E944C0C81958093FF038D
:10396000F0CF803D19F40E944C0CF8CF893D29F42A
:103970000E942A0C80930104E4CF8A3D21F40E9426
:103980002A0C8195F7CF8B3D31F40E942A0C81954A
:1039900080930204D6CF8C3D19F40E942A0CF8CFF4
:1039A0009FE2980F983070F4815D990B21E030E030
:1039B00001C0220F8A95EAF78091FE03822B809343
:1039C000FE03BFCF8D3D31F48091F8038160809379
:1039D000F803B7CF8E3D21F48091F8038260F7CFD2
:1039E0008F3D09F0AECF8091F8038460F0CF409115
:1039F000FF038D3C59F48091000487FF0DC01092A5
:103A0000000441110BC01092F60308C08E3C81F4F3
:103A10008091000418169CF3442381F080910104E6
:103A200090910204892B09F08CCF1092F70389CF73
:103A30008F3C49F447FFF0CF1092FF0380910004C0
:103A40008111ECCFE0CF803D19F41416ACF3E4CF34
:103A500090910104893D29F41916F4F6109201049D
:103A6000DBCF8A3D19F497FFD7CFF8CF90910204AE
:103A70008B3D29F497FFD0CF10920204CDCF8C3D1F
:103A800019F41916CCF3C8CF9FE2980F983090F430
:103A9000815D990B21E030E0B90102C0660F771F0C
:103AA0008A95E2F7CB0180959091FE03892380935C
:103AB000FE03B2CF8D3D31F48091F8038E7F809369
:103AC000F803AACF8E3D21F48091F8038D7FF7CFC4
:103AD0008F3D09F0A1CF8091F8038B7FF0CF882331
:103AE00079F19CEF980F913A78F4ECEEF2E0919135
:103AF000891303C0DF0111971C9242E0E23FF407F3
:103B0000B1F70E94EF0F089590E2980F983088F473
:103B1000877021E030E0A90102C0440F551F8A954B
:103B2000E2F7CA018095909144058923809344056A
:103B3000E8CF93E3980F933118F460E00E94971C4C
:103B400008950F931F93CF93C82F882341F18CEFD3
:103B50008C0F813AB0F50CEE12E082EF92E0F801A2
:103B60002191C21701F18E179F07D1F7EFEF80E087
:103B7000D8019D918D01C91781F0EF3F19F4911182
:103B800001C0E82F8F5F863099F7EF3F31F00E2E9E
:103B9000000CFF0BE651FD4FC2830E94EF0FCF9147
:103BA0001F910F910895ECEEF2E02191C21303C032
:103BB000DF0111971C928E179F07B9F70E94EF0F34
:103BC000D5CF80E28C0F883068F4C77021E030E0F8
:103BD00001C0220FCA95EAF780914405822B809399
:103BE0004405DBCF83E38C0F8331C8F661E08C2F73
:103BF0000E94971CD4CF1F93CF93DF93182FEB0114
:103C00000E94A11D209739F4812F0E946F1DDF9122
:103C1000CF911F9108958FE99FE00197F1F700C0C0
:103C200000002197EFCFA8E0B0E0E9E1FEE10C94BD
:103C300060317C01DC0114968C911497882309F47F
:103C4000D6C021E04C9111965C91119712966C911F
:103C5000129713967C91139715969C910E940313CB
:103C60008C01F7018581882309F4A7C3C8019A95BF
:103C700081159F4408F07FC0C80199279C012450FA
:103C800031092432310518F08B970E9780F4E091BA
:103C90008203F0E0EE0FFF1FE957FC4F8081918116
:103CA0008F3F2FE7920719F0019691838083C80117
:103CB00097578038910508F06EC3003108F097C01F
:103CC0008FEF93E00E945232811191C099EAE92E60
:103CD00092E0F92E011158C0FE01339686E0DF0113
:103CE0001D928A95E9F78AE0682E87010F5F1F4FC2
:103CF000C7010E94523289831A82882309F477C04F
:103D0000813009F078C06701B2E0CB0ED11CC80148
:103D10000E9452328A83882309F469C09FEF980F6A
:103D2000933008F03FC0E3E0EE0EF11CC6010E94A4
:103D300052328B83882309F45AC01C828E010F5F94
:103D40001F4FD8012C91222381F2213009F08DC020
:103D500011969C91119712968C91913009F04DC05B
:103D60000E5F1F4F70E060E0893311F460E570E092
:103D70000E94FB1D48C090E080E00F3F110511F04C
:103D800008F07CCFC8017ACFE11434E0F30679F172
:103D9000C7010E945232811101C001508FEFE81A11
:103DA000F80A98CF7601843049F602E010E07601F7
:103DB000FFEFEF1AFF0AC6010E945232E1E0F0E085
:103DC000EC0FFD1FE00FF11F8083882381F08C37FB
:103DD00041F4E2E0F0E0EC0FFD1FE00FF11F108274
:103DE000ADCF0F5F1F4F67010730110501F7289610
:103DF000EEE00C947C317801A1CF923039F40E5F63
:103E00001F4F0E94A11D0F5F1F4F9BCF933029F4BE
:103E10000E5F1F4F0E946F1DF6CF943019F00F5F99
:103E20001F4FF1CF0E5F1F4F30E020E0B8016F5FF2
:103E30007F4FF80141818053990B8A30910550F0F2
:103E40002150310900F38FE99FE00197F1F700C09D
:103E50000000F6CF629EF001639EF00D11249C01DC
:103E60002E0F3F1F842F8B01E1CFE22FF0E0E557AB
:103E7000F94F7490822F86958695869590E0FC0187
:103E8000E558F94FC4902770D12C022E02C0D5946A
:103E9000C7940A94E2F7A1E0CA22DD24FC01E559A7
:103EA000F94FA490B12C022E02C0B594A7940A94A5
:103EB000E2F7B1E0AB22BB24FC01E55AF94F849054
:103EC000912C02C0959487942A95E2F7E1E08E2226
:103ED0009924C114D10419F081EE0E94A11DA114EE
:103EE000B10419F086EE0E94A11DF9E370E060E0D4
:103EF0007F1202C060E570E0872D0E94FB1DA114B7
:103F0000B10419F086EE0E946F1DC114D10419F09E
:103F100081EE0E946F1D8114910409F474CF70E04A
:103F200060E08CE225CF81E08093F4020E94910A48
:103F30006093BA037093BB038093BC039093BD035B
:103F4000D70115969C9191111AC2809144058272F5
:103F5000F801E052F847E531F10508F04EC0E056AF
:103F6000FD4C0C94F4311092F402E0CF80915E0489
:103F700091E0892780935E041092540180915D0442
:103F8000816080935D0433CF40E55BE06BE57BE0CF
:103F90000E94B40A2CCF4BE55BE060E57BE0F8CFF4
:103FA00041E25BE06CE27BE0F3CF4CE25BE061E29C
:103FB0007BE0EECF45E05BE063E17BE0E9CF43E10E
:103FC0005BE065E07BE0E4CF49EE5AE067EF7AE042
:103FD000DFCF47EF5AE069EE7AE0DACF4DEB5AE0F7
:103FE0006BEC7AE0D5CF4BEC5AE06DEB7AE0D0CFBA
:103FF00061E081E00E94370BFACE0737BCE71B0770
:10400000C1F10837ECE71E07C1F1F701008111810A
:10401000992309F457C0C8010E94A412D82E682F12
:10402000C8010E94BB0EB8018D2D0E9496120E94FD
:10403000840D182FB82ED70115966C9115971696EA
:104040002C9122952F70892F82958F70C82ED12C9C
:104050008C3008F06FC0F601EB54FD4C0C94F43139
:1040600081E00E94210F43E062E081E00E94F40EB3
:10407000BECE81E00E94140FF6CF82E0FBCF01306C
:10408000FCE71F07E9F003302CE7120799F0011550
:104090001C4709F0BACF109244050E945E198FEFB9
:1040A00094E3ACE081509040A040E1F700C00000F4
:1040B0000E94FC106FEF7FEF90E080E00E948E3254
:1040C0000E947F1CC8010E94870ED82EACCF092FFA
:1040D0000F70907F11F00295007F812F6623C9F049
:1040E000002369F090E2910F983010F011110BC08D
:1040F00080914405082B009344050E94EF0F812F07
:104100000E94A11D17C080912203082B0093220357
:10411000F4CF0E946F1D002369F00095105E1830E7
:1041200010F0B11024C08091440508230093440589
:104130000E94EF0F88E0C81AD10894E0C916D10494
:1041400010F40E94A51120E0D7014C9111965C91CA
:10415000119712966C91129713967C91139714965F
:104160008C91149715969C910E94031340CE8091D8
:104170002203082300932203DBCF892F8F70907FC7
:10418000903211F08295807FB1E0BB120CC06623A3
:1041900029F0263078F60E942110CCCF253050F639
:1041A0000E941610C7CF662319F02223A1F3A7CFD0
:1041B0002223B1F3193349F4EFEFF7EE23E0E15096
:1041C000F0402040E1F700C00000812F0E946F1DE9
:1041D000B1CF812F0E94971CADCF892F8370A1F59D
:1041E0006111A8CF812F829586958770880F880FDF
:1041F000412F4F70082E01C0440F0A94EAF7212F77
:10420000207114FF07C02FE030E001C0220F8A9513
:10421000EAF72095969596959370923081F0822FCB
:10422000842B933030F48091C303913029F0242BF8
:1042300082230E942D0F7ECF842B822BFACF242B3A
:104240008091C3038227F5CF8695662311F0892FCD
:104250008170882309F46ECF812F829586958770AF
:10426000880F880F412F4F70082E01C0440F0A9409
:10427000EAF7212F207114FF07C02FE030E001C0C2
:10428000220F8A95EAF7209596959695937092302D
:1042900081F0822F842B933030F48091C2039130CF
:1042A00029F0242B82230E94F10E44CF842B822BF1
:1042B000FACF242B8091C2038227F5CF092F0F70EC
:1042C000662329F0802F0E94210F812F64CF812F38
:1042D0000E941610802F0E94140F2CCF812F31EFD7
:1042E000131789F1311750F0A0EF1A17B9F06623B0
:1042F000B1F1211104CF892F8F7129C0B2EF1B17A3
:1043000049F1E3EF1E13F3CF80E0662361F29F7162
:1043100081E001C0880F9A95EAF7C5CF662379F04E
:10432000253008F007CF292F2F7181E090E001C0E0
:10433000880F2A95EAF79091C2038927B4CF2630D7
:1043400008F0F8CEF0CF892F8F71662321F20E94FA
:10435000210FF0CE892F8F716623C9F3BCCF2223A2
:1043600059F0893309F031CFFFEF27EE33E0F150F8
:1043700020403040E1F727CF892F8F71ACCF07372E
:10438000BCE71B0709F46CCE0837ECE71E0709F001
:1043900076CE82E066CE003E110509F4C4CD043E1F
:1043A000110509F4C0CD0C32110509F0BFCD81E033
:1043B0008093F30210920001B9CD003E110509F47B
:1043C000D2CD043E110509F4CECD0C32110509F011
:1043D000ADCD1092F302AACDCF93DF938091190354
:1043E000807F09F04DC080911803882309F448C0EC
:1043F000E091940550915B05C0911403D091130393
:10440000609115037091160347E05E17C9F18E2F76
:1044100090E0E49FF0011124E45AFA4F2481222312
:1044200091F1489FF001499FF00D1124DF01A45A3A
:10443000BA4F11962C9111972C1325C02C912D1346
:1044400022C015962C91159721111DC012962D9101
:104450003C91261B370B283C3105A8F480911903A9
:104460008F70806180931903EE59FA4F80818F70AD
:104470008061808383E193E00E94131E0E947D0E81
:10448000DF91CF910895FC013196E770BECFA4E192
:10449000B0E0EDE4F2E20C9462318C0186E0F801C8
:1044A000DE011F9601900D928A95E1F7F801848153
:1044B000E58093E1A92E93E0B92E90911703911115
:1044C00028C0882319F1EE20F1F0C8010E94E01203
:1044D000F82E8823C1F087E0F801D50101900D92F4
:1044E0008A95E1F780911703813031F480911303AD
:1044F000909114030E94D3120E94EC218F2D649698
:10450000ECE00C947E31C8010E94131EFF24F3944A
:10451000F5CFD080C18082809380F09018032091E5
:10452000150330911603A401421B530BFF2009F41D
:10453000D9C0483C510508F092C08823F9F2909107
:10454000140380911903282F207F09F056C0C91247
:1045500014C090911303D91210C0E11048C08F709D
:1045600080618093190383E193E00E94131E809180
:104570001903F8018683F12CC1CFE11038C06C2DEE
:104580008D2D0E94E1086C2D8D2D0E94E108E82EF2
:104590008111F1CFDF86C88A8F8598890E94D31256
:1045A000292F22952F70243058F49F70223088F0E4
:1045B000992399F0F8019681907F79F4FE2C9ECF93
:1045C0002A5F2F70223068F0C8010E94131EEF2C62
:1045D000F5CF992311F0882389F3805E883070F33A
:1045E000F3CF803F58F3815F833070F7E7CF80913E
:1045F0001903816080931903BECFC91207C090913F
:104600001303D91203C0EE2009F48DC0C8010E9423
:10461000E012882309F477CFEE2009F474CF80915B
:104620001903803288F020911303309114033987E5
:1046300028879B868A86909117039C871D868E8784
:10464000CE0108960E94131E87E0F801A3E1B3E0B3
:1046500001900D928A95E1F70E94EC2157CF90913D
:104660001903292F207F51F483E193E00E94131E48
:1046700087E0F50111928A95E9F77DCF882309F447
:104680003DCF809114038C1110C080911303D81278
:104690000CC0E1100AC09683C8010E94131E87E077
:1046A000F50111928A95E9F729CFC8010E94E0121D
:1046B000882309F428CFEE2009F425CF809119032F
:1046C000803210F220911303309114033A8329832E
:1046D0009C828B82909117039D831E828F83CE01D3
:1046E0000196B0CF483C5105D0F6882309F40ECF8F
:1046F000FE2CEE2009F407CF809114038C1120C00A
:1047000080911303D8121CC08091190380FD0FC043
:10471000982F907F61F08683903F31F0982F907FA3
:10472000905F8F70892B8683C8010E94131E87E0DB
:10473000F801A3E1B3E001900D928A95E1F7DECE96
:10474000C8010E94E01281117FCF8091190381601E
:1047500080931903C8010E94131ED0CEABE1B0E0D4
:10476000E4EBF3E20C946A314E8B5F8B688F798FA8
:104770008A8F9B8F192F9111109222031D8A86E038
:10478000FE017696DE011F9601900D928A95E1F763
:104790000A8D002341F021E04F85588969897A8983
:1047A000C8010E9403130B8B1C8B87E0FE013F9610
:1047B000DE01189601900D928A95E1F7CE010896D8
:1047C0000E94472281110CC087E0FE013896DE016D
:1047D000119601900D928A95E1F78C8581110BC09D
:1047E00017E08091940590915B05891333C06B9617
:1047F000E4E00C94863120915B0530E0C90101961C
:1048000087709927409194054817190699F097E009
:10481000929FD001939FB00D1124A45ABA4FFE016C
:10482000319601900D929A95E1F780935B050E9475
:104830007D0ED6CF109244050E945E1910925B0542
:104840001092940587E0E3E1F3E0DF011D928A9581
:10485000E9F7C6CF819FC0011124845A9A4F0E9464
:104860004722882321F28091940590E00196877079
:10487000992780939405B5CFAFE0B0E0E2E4F4E28D
:104880000C9461318E010F5F1F4F8AE0D8011D9299
:104890008A95E9F789E3C82E81E0D82EF12CE12C26
:1048A000AA24A394B12C29E3822E21E0922EF601B2
:1048B00081916F018F3F09F442C0F894E82FE2958F
:1048C000EF70F0E021A18F70A50102C0440F551FC9
:1048D0008A95E2F7CA01922F982B91A392A1809515
:1048E000892382A3789400C0E1E3F1E0712C31E0E8
:1048F00021912F3F09F46BC0A22FA295AF70B0E0B9
:1049000090968C9190E02F7002C0959587952A958E
:10491000E2F780FD5CC0832F782A330F8E169F0646
:1049200039F7F601319780818F3F11F00E947C0C9E
:1049300050EA5A95F1F7F801EE0DFF1D70828FEFE6
:10494000E81AF80AA5E0EA16F10409F0B0CF4AE047
:1049500050E0B80183E693E00E942C32009741F0CA
:104960002AE0F801A3E6B3E001900D922A95E1F761
:1049700000916E03892B69F181E0809327030E94E7
:104980002B19909326038093250380912503909102
:1049900026030E941C19059700F110E004511C4FDA
:1049A00045E050E063E673E0C8010E942C32D12C50
:1049B000892B51F085E0E3E6F3E0D80101900D92F8
:1049C0008A95E1F7DD24D3941092270307C080E095
:1049D000A3CF809127038111D8CFD12C0E948011C1
:1049E000C82EE0916E03882309F47FC07E01BBE0EE
:1049F000EB0EF11C85E0D7011D928A95E9F70E2F89
:104A000010E004511C4F80915E038A30D8F54CE1D0
:104A100057E1B701C8010E944D11882309F454C021
:104A200043ED56E1B701C8010E944D11882309F4F6
:104A30004BC04AEA56E1B701C8010E944D118823D4
:104A400009F442C040E856E1B701C8010E944D1187
:104A50008823D1F110925E0380916D0390E045E0D0
:104A600050E0B70184519C4F0E942C3221E02093EA
:104A70002E03892BE1F4C12C8C2D8D292F96EDE08E
:104A80000C947D3180912803909129030E941C1978
:104A9000843F914008F0BBCF80912E03882359F3C7
:104AA00085E0F70111928A95E9F710922E03A09103
:104AB0006D03B0E0A451BC4F85E0FE013B96019030
:104AC0000D928A95E1F7D8CF80915E038F3F31F048
:104AD0008F5F80935E038A3008F4BECF0E942B194B
:104AE0009093290380932803D7CFF0E0E451FC4F43
:104AF00085E0AAE3B3E001900D928A95E1F78AE39D
:104B000093E00E9400098093390380903F039090C6
:104B10004003A0904103B090420380912A039091FA
:104B20002B03A0912C03B0912D0388169906AA0699
:104B3000BB06D1F080922A0390922B03A0922C0303
:104B4000B0922D030E94801181110EC00E94910A23
:104B5000861A970AA80AB90A80925F0390926003A6
:104B6000A0926103B0926203809143038093C203D9
:104B7000809144038093C30388E0E5E4F3E0AEE56D
:104B8000B4E09DCFA6E0B0E0E8ECF5E20C946A3129
:104B90000E942B198C01809123039091240380178C
:104BA000910781F019821A820E942B19682F49817E
:104BB0005A81792F80E090E00E94AE231093240365
:104BC000009323032696E4E00C9486311F921FB6CF
:104BD0001F9211248F939F93AF93BF9380913E05B3
:104BE000811113C080913F0590914005A09141052E
:104BF000B09142054196A11DB11D80933F05909350
:104C00004005A0934105B0934205BF91AF919F919C
:104C10008F911F901FBE1F901895CDB7DEB7E097FC
:104C20000FB6F894DEBF0FBECDBF85B7806885BFD5
:104C300085B7806885BF84B7877F84BF0FB6F89437
:104C4000A895809160008861809360001092600058
:104C50000FBE80E890E00FB6F894809361009093C7
:104C600061000FBE8AE79CE09093E9028093E8021E
:104C70000E9417090E94B8098091E2008460809325
:104C8000E2007894809151058823A1F01091E90009
:104C90001F709091EC00892F817090FD80E8182B97
:104CA0001092E9008091E80083FD0E947B191F703B
:104CB0001093E90082E084BD93E095BD9AEF97BD23
:104CC00080936E0010925F03109260031092610354
:104CD000109262030E942813811102C00E94571291
:104CE0000E942F16811102C00E94AE170E9441132C
:104CF00080933E010E94801181110E94E62F8091D5
:104D00003E0181112CC085E0E9E5F1E0DE019196DC
:104D100001900D928A95E1F789A1809339018AA1CA
:104D200080933A018BA180933B018CA180933C013D
:104D30008DA180933D0188E0EEE5F1E0DE01119662
:104D400001900D928A95E1F7FE013196A1E3B1E061
:104D5000CE01099621912D938E179F07D9F7809147
:104D60003E0195E0811190E090936E0385E0891BF0
:104D700080936D0309E311E03EE3E32E31E0F32E6F
:104D8000D8018D918D018F3F11F00E947C0CE016AF
:104D9000F106B1F701E311E0F80181918F018F3F36
:104DA00011F00E947C0CF1E009331F07A9F78AE09B
:104DB000ECEEF3E0DF01782E1D927A94E9F7E3E65A
:104DC000F3E0DF011D928A95E9F70E942F16811109
:104DD00002C00E94AE1782E090E00E94523280939F
:104DE000710384E090E00E945A32909370038093A4
:104DF0006F030E943C24BFEFE6E7F1E0B150E040D2
:104E0000F040E1F700C000000E943C248091EC03D8
:104E100080FF08C06FEF7FEF90E080E00E948E324D
:104E20000E94FC1083E090E00E9452320E942D0FFD
:104E30000E94BA0A109230048FEF9FEF90934A04B9
:104E40008093490490934C0480934B0490934E04B8
:104E500080934D049093500480934F049093520498
:104E60008093510490935404809353049093560478
:104E70008093550490935804809357041092030430
:104E800090931D0480931C0490931F0480931E0430
:104E90009093210480932004909323048093220410
:104EA00090932504809324049093270480932604F0
:104EB000909329048093280490932B0480932A04D0
:104EC0000E942F16811104C00E94AE170E941B166B
:104ED00081E080935D0448E050E068E170E08EE599
:104EE00094E00E94423210925D0480915E048C7FB7
:104EF00011F40E941B160E948011882309F408C136
:104F000083E08093E70380FD05C180E880939505E9
:104F10000E94A02E6BE070E082E297E00E94831373
:104F20008823E9F18091E70365E070E081FDF4C03A
:104F30008DE197E00E948313882389F16DE070E092
:104F40008BE097E00E948313882349F10E94910A25
:104F5000605A75418F4F9F4F6093360570933705A8
:104F60008093380590933905EEE9F5E080E092E012
:104F7000DF019C011D9221503040E1F7F0939F0723
:104F8000E0939E078FEF9FEF90939D0580939C0584
:104F900081E080933B0580933A051092E8030E94DC
:104FA0008011811102C00E94E92F20E04CE36AEFDA
:104FB00084E890E00E94D90A60E082E00E94370B0A
:104FC0008FE391E090933D0580933C0580915105DE
:104FD00000E112E1853009F4DDC00E943C2422E7A3
:104FE000222E23E0322EECEEF3E0FEA7EDA7DF0148
:104FF000F10191918D9123E0EC37F20709F4D6C0CD
:105000009817B9F30E94801188AB9AEBA92E91E012
:10501000B92EE12CADA5BEA59D90BEA7ADA7F1010F
:1050200061901F01691409F4E2C169242501812CF2
:1050300077247394862D872109F4CEC1F92CF720AB
:10504000F8A9FF23A1F08FA2E8A60E942B199AA726
:1050500089A721E02BA791E0F11001C090E09CA767
:105060004FA158A569A57AA58BA50E94AE23FF2064
:1050700041F0D2018C91F12C8F3F19F08FA7FF24C2
:10508000F3940F2D10E080910304800F912F911D58
:1050900009976CF1A8E0CA2ED12CC01AD10AB80128
:1050A0006C5F7B4FA60184E094E00E943932B80126
:1050B000645F7B4FA6018CE094E00E943932A60128
:1050C000440F551FB801660F771F645E7B4F8CE15C
:1050D00094E00E943932B8016C5E7B4FA60184E1F6
:1050E00094E00E94393288E08F1980930304809104
:1050F000030490E0EFA5AE2FB0E09D01220F331F17
:10510000265F3D4FAA0FBB1FBD01655F7D4F5EC18E
:1051100080E0F7CE80E2FACE88E197E00BCF809175
:105120005105843041F10E94FB130E94AD1310928F
:105130003E0588E190E0A0E40FB6F894A89580932E
:1051400060000FBEA093600083B7817F846083BF3F
:1051500083B7816083BF7894889583B78E7F83BF40
:105160000FB6F894A89580916000886180936000E4
:10517000109260000FBE80915005882359F00E9464
:105180003C24ECEEF3E081918111AAC5B3E0E63F47
:10519000FB07C9F780915105853009F4C0CF109203
:1051A00044050E945E190E94A51117CF98132ACFBB
:1051B0000E94C225D12C0E948011882309F4B0C01E
:1051C0008090870390908803092C000CAA08BB08E4
:1051D00010914701212F30E0E7E8F3E081E090E013
:1051E0003296281739070CF00EC160918303709135
:1051F000840380918503909186030E94750A2B0198
:105200003C0189EC481651046104710414F1809149
:10521000820390E0019669E170E00E949F318093E3
:105220008203880F991FFC01E957FC4F11821082FD
:10523000812F183108F087E18F5F809347010E942A
:10524000910A609383037093840380938503909302
:10525000860392E089169104A104B1040CF4DFC026
:10526000A0E6BAEEA50194010E9401324B015C0157
:10527000A8EC1A9F90011124032E000C440B550B2F
:10528000240D351D461D571DA5E0B0E00E940132DA
:105290009B01AC01C501B4010E94B33149015A011F
:1052A000B1EF8B169104A104B1042CF050EF852EC0
:1052B000912CA12CB12C60917E0370917F03809181
:1052C0008003909181030E94750A2B013C01E5E661
:1052D0004E1651046104710484F00E94910A609397
:1052E0007E0370937F03809380039093810380916A
:1052F000B90380937D0380927C0310917D03A0917C
:105300007C03A11BBB0BA30192010E940C3224E67B
:1053100030E040E050E00E94D531120F1093B90305
:105320000E94FB1380913B05882309F407C18091FB
:10533000E9039091EA030E941C19C29708F4DEC0A9
:105340000E942B199093EA038093E90360E080E0C8
:105350000E949D0A0E948011882309F434C2809122
:10536000B90390E09093C6038093C5030E94A511F2
:105370008093C40360E080E00E949D0A8091C30393
:105380000E94300F813009F470C0882309F44BC0AB
:10539000823009F46DC0833009F46DC081E891E07A
:1053A00044C090E0FC01ED5FFB4FD9015C9151835B
:1053B000DB015C915187BFA5B18B880F991FFC0160
:1053C000ED5FFB4F128E118E91E0842F41E0480F6C
:1053D0009F1538F3809303048394770CFFEF4F1AE3
:1053E0005F0A28E0821226CEF10131979082E39481
:1053F00038E0A30EB11C5AE0E5120CCE0E94B611A3
:10540000DD24D394D8CE40815181052E000C660B4B
:10541000770B840E951EA61EB71E0196E1CE812C39
:10542000912C540148CF8CE691E00E942B1062E051
:1054300080E00E949D0A87E891E00E942B1063E0C3
:1054400080E00E949D0A8091C2030E94300F81304B
:1054500009F47EC1882391F0823009F47CC1833045
:1054600009F47CC189EA91E00BC082E791E0DDCFCD
:1054700087E791E0DACF8DE791E0D7CF8DE891E033
:105480000E942B10CE01C4969EA38DA31AA219A22E
:105490008CE090E09CA38BA38091C5039091C60300
:1054A000892B09F45EC10E94C8136091BE037091FC
:1054B000BF038091C0039091C1030E94750A6D32B1
:1054C00071408105910580F00E94910A6093BE03AE
:1054D0007093BF038093C0039093C1039E012F5D1F
:1054E0003F4F19010E9443100E94910A6093BA0332
:1054F0007093BB038093BC039093BD0380919C0584
:1055000090919D05892B09F06CC180913A05882303
:10551000A9F00E94910A009136051091370520915B
:10552000380530913905601B710B820B930B6F3F6F
:105530007F4F8F4F9F4710F40E94AD13D1100E94F0
:10554000C81386E0EDEFF3E0DE01119601900D92B5
:105550008A95E1F7D090FE030091FF0310910004BB
:10556000E0900104F09002041092FF0310920004F6
:105570001092010410920204812F802B09F445C07F
:105580008091FB039091FC030E941C199C01909157
:10559000F603992309F4CFC325313105B0F19F3FBC
:1055A00019F09F5F9093F603002359F00E944C0C72
:1055B0009FEF10160CF491E0899F802D11248093A9
:1055C000FF03112359F00E944C0C91E011160CF0CE
:1055D0009FEF899F802D1124809300048091FF0309
:1055E000882399F0C0900004CC2079F00E946C0CC4
:1055F000882309F4D1C18093FF038C2D0E946C0C89
:10560000882309F4CBC1809300048E2D8F2909F4DF
:1056100045C08091F9039091FA030E941C199C01E6
:105620009091F703992309F481C321353105B0F135
:105630009F3F19F09F5F9093F703EE2059F00E946F
:105640002A0C9FEF1E140CF491E0899F802D1124E9
:1056500080930104FF2059F00E942A0C91E01F144E
:105660000CF09FEF899F802D11248093020480917C
:105670000104882399F0E0900204EE2079F00E9462
:105680006C0C882309F48CC1809301048E2D0E9438
:105690006C0C882309F486C1809302048091FE0378
:1056A000D81217C08091FF03882311F0081311C08E
:1056B00020910004222311F012130BC090910204D8
:1056C000992311F09F1105C030910104332309F48F
:1056D0001FC30E94371986E0FE013196ADEFB3E09B
:1056E00001900D928A95E1F70E94A5119091EB032C
:1056F000891721F08093EB030E94910A8091510554
:10570000843009F063CC83E08093E9008091E80065
:1057100082FF5CCC8091E80090E085FF06C00E948B
:105720003609882309F440C191E08091E8008B7725
:105730008093E800992309F449CC8981EFEFE80FC1
:10574000E33108F058C1F0E0EF53FD4C0C94F43114
:1057500084E991E095CE8BE991E092CE82EA91E0E6
:105760008FCE6091BA037091BB038091BC0390917E
:10577000BD030E94750A61367A4E8105910518F0C5
:105780000E94AD13BBCE6091BE037091BF038091A8
:10579000C0039091C1030E94750A6D32714081056A
:1057A000910508F4ABCE0E94910A6093BE037093FA
:1057B000BF038093C0039093C103CE0181961C0167
:1057C0000E9443109BCEEDE2F7E084918F01882385
:1057D00009F494CE0E94410F0F5F1F4FF80184918E
:1057E000F6CF80913B05882309F48FCE8091E803A2
:1057F00081118BCE0E94C81320919C0530919D058C
:105800002115310509F481CE80E041E050E0082FF8
:1058100010E07A01082E02C0EE0CFF1C0A94E2F799
:10582000B9016E217F21672B11F48F5FF0CF90912A
:10583000E70390FF98C0880F880F880F80934A0174
:1058400010924D01895F80934B0183E080934E015C
:1058500024E630E047E050E068E471E088E70E9429
:10586000402F892B09F051CEA80135E0440F551F78
:105870003A95E1F78091E70380FF87C0E7ECF3E01A
:1058800080E2DF011D928A95E9F706EB11E082EBD9
:10589000A82E81E0B82E9AEB492E91E0592E27E0F0
:1058A000922E88248394D801ED918D01D5016D91BC
:1058B0005D01640F752F711D62567A4FF0E0E95358
:1058C000FC4F30E020E0692C621AC82C022E01C087
:1058D000CC0C0A94EAF71B0190E0D1018D911D01D7
:1058E0008C21A62DA91BA770ADA70A2E000CBB0BFF
:1058F000782E0DA401C0770C0A94EAF77DA6B19525
:10590000A195B109A770BB2701C08695AA95EAF7B2
:10591000782A8081782A70829F5F9830F1F62F5F15
:105920003F4F31962830310571F64016510609F087
:10593000BACF04E610E020E230E047EC53E060E448
:1059400088E70E94612F892B09F0DFCDE094F09465
:1059500080919C0590919D05E822F922F0929D0589
:10596000E0929C05D2CD8295880F807680934A0183
:105970009801369527953695279520934D01815EA0
:1059800080934B0120934E0163CF42565A4F04E659
:1059900010E020E230E0D3CF81E02DCE81E033CEA5
:1059A00081E072CE81E078CE00E210E0CE01019677
:1059B0007C018091E80085FD0AC08091E8008B772A
:1059C0008093E8000E943609882399F3ADCE809138
:1059D000F100D7018D937D010150110951F7A4CE3B
:1059E0001A828CE08B831BC08A81823009F495C1B6
:1059F00028F4813061F08FEF898311C08330C1F0CA
:105A00008430C9F71B821C821D821E8208C00E943E
:105A1000910A0E94FA316B837C838D839E8340E2DE
:105A200050E0BE016F5F7F4F82E00E94A610CECA99
:105A30002B81822F90E0FE013496245E8A309105FE
:105A400070F7DC01A451BC4F3C91319301962813AF
:105A5000F5CFE5CF8A81823059F0853061F68091AB
:105A60005E0491E0892780935E0410925401D7CFA1
:105A70006B817C818D819E810E94FA3188E290E069
:105A80000E947032CCCF4C816B818A810E94671258
:105A90009827892798279E838D83C1CF2D813E81AA
:105AA0003227232732274C816B818A810E94E011A3
:105AB000B6CF0E940612B3CF9A81933009F09BCFE4
:105AC000883009F441C0893009F46BC08B81823081
:105AD000E9F088F4813009F0A2CF4C812FEF429F8A
