:100000000C94EB070C9423080C9423080C94A02B5D
:100010000C9423080C9423080C9423080C942308B4
:100020000C9423080C9423080C94B7160C94C61A4D
:100030000C9436230C9423080C9423080C94230866
:100040000C9423080C9423080C9423080C94230884
:100050000C9423080C9490170C9423080C942308F8
:100060000C9423080C9423080C9423080C94230864
:100070000C9423080C9423080C9423080C94230854
:100080000C9423080C9423080C9423080C94230844
:100090000C9423080C9423080C9423080C94230834
:1000A0000C9423080C9423080C942308000000806F
:1000B0008080000000000000000000000000000040
:1000C0000000000000000000000000007CC711F8E4
:1000D0000E030000000000000000000000C0601CD3
:1000E000060890101008841E30C00000E0371C0085
:1000F000030202010302060C08080C0407010000B9
:10010000000001000800C120100805021F1030E0A7
:1001100080838E889890B0D03020202027283820E7
:10012000C38488B0C08FF10000000000F88C04FC8C
:1001300000000000000000000000000000000000BF
:10014000000000000000000000000000001FF0039D
:100150003EC0808040C080800000000000C0601C65
:10016000060890101008841E30C0000000F80D072B
:100170000000C08000000001030A0C040701000019
:10018000000001000800C12010080502000F38E03F
:10019000808080819F90B0D0302020202728382078
:1001A000C38488B0C08FF100000000000000000090
:1001B00000000000000000000000008070182040D7
:1001C0004040201078C00000000000000000000047
:1001D0000000000000000000809CE7010000000615
:1001E000002000060040A31408000000000000F0FA
:1001F0000CE212090913FE0F0100002020C00000CC
:100200000000000000F01E010000000000000007D8
:100210000C39236644484F702020604040474C789A
:1002200020604E4878677C0000000000000000005D
:100230000000000000000000000000807018204056
:100240004040201078C0000000000000000000C006
:10025000602020C000000000809CE7010000000634
:10026000002000060040A3140800000000001FE169
:1002700000FE03010000F80F0100002020C0000074
:100280000000000000F01E01000000000000000758
:100290000C39236644484F702020604040474C781A
:1002A00020604E4878677C000000000000000000DD
:1002B000000000008080808080000000000000C0FE
:1002C00060800000008040E00000000000C0380CAA
:1002D00002030101010000080931E1010161C201CD
:1002E0000000111181001011038C5020000718101C
:1002F0002040C0983020202040406724BCB0A0B0EF
:1003000050100818101010161D000000000000000A
:1003100000000001010101010101010101000000D3
:1003200000000000000000000000000000000000CD
:10033000000000008080808080000000000000C07D
:1003400060800000008040E00000000000C0380C29
:1003500002030101010000080931E1010161C2014C
:100360000000111181001011038C5020000718307B
:10037000206080183040C040C08087845C702010AE
:1003800010100818101010161D00000000000000CA
:1003900000000001063840433C000000000000005F
:1003A00000000000000000000000000000000080CD
:1003B000808000000000000000000000000000003D
:1003C0000000000000000000000000007CC711F8E1
:1003D0000E030000000000000000000000C0601CD0
:1003E000060890101008841E30C00000E0371C0082
:1003F000030202010302060C08080C0407010000B6
:10040000000001000800C120100805021F1030E0A4
:1004100080838E889890B0D03020202027283820E4
:10042000C38488B0C08FF10000000000F88C04FC89
:1004300000000000000000000000000000000000BC
:10044000000000000000000000000000001FF0039A
:100450003EC0808040C080800000000000C0601C62
:10046000060890101008841E30C0000000F80D0728
:100470000000C08000000001030A0C040701000016
:10048000000001000800C12010080502000F38E03C
:10049000808080819F90B0D0302020202728382075
:1004A000C38488B0C08FF1000000000000C020109D
:1004B000D030000000000000008080403C140408A0
:1004C00090180408B04080000000000000030408F9
:1004D0001011F901010101010100000000000000FC
:1004E00080C848282A100F0000000000000000000B
:1004F00000000001020C1020283702020408102618
:100500002B3204050600000000000000000000007F
:1005100000000000000000000000000000000000DB
:1005200000000000000000000000000000E01010CB
:10053000F00000000000000000808040402C140407
:100540000890180408B04080000000000003040870
:100550001011F9010101010101000000000000007B
:100560000080C048282A100F204A0910000000000F
:1005700000000001020C1020283702020408102697
:100580002B320405060000000000000000000000FF
:10059000000000000000000000000000000000005B
:1005A00000000000000000000000000029001E0004
:1005B0001F00200021002200230000002B00140057
:1005C0001A000800150017001C000000E0000400DD
:1005D0001600070009000A0000000000E1001D00ED
:1005E0001B0006001900050000000000E000215279
:1005F000E200E30022522C00000000002A002E003E
:100600002D002700260025002400000031003000C6
:100610002F00130012000C0018001C0028003400EA
:1006200033000F000E000D000B00000035005200DB
:100630003800370036001000110005004F0051004F
:1006400050002352E7004C002800000001003A004F
:100650003B003C003D003E003F0000000100010067
:100660000100010001000100010000000100010083
:100670000100010001000100000000000100010074
:100680000100010001000100000000000100010064
:100690000100010001000100000000000100450010
:1006A00044004300420041004000000001000100FE
:1006B0000100010001000100010001000100010032
:1006C0000100010001000100010000000100010023
:1006D0000100010001000100010001000100010012
:1006E0000100010001000100010000000100010003
:1006F00001000100010001000100000001000100F3
:1007000001000100010001000100000001000100E2
:1007100001000100010001000000000001000100D3
:1007200001000100010001000000000001000100C3
:1007300001000100010001000000000001000100B3
:1007400001000100010001000100000001000100A2
:10075000010001000100010001000100DA00D300E6
:10076000D90001000100010001000000D200CD000D
:10077000D10001000100010001000100D000CE0005
:10078000CF00010001000100010000000100010094
:100790000100010001000100010000000100010052
:1007A0000100010001000100010000000100010042
:1007B0000100010001000100000000000100010033
:1007C0000100010001000100000000000100010023
:1007D000010001000100010000000000207801007C
:1007E0000100010001000100010000000100010002
:1007F00001000100010001000100010001000100F1
:1008000001000100010001000100000025782778A7
:1008100026780100010001000100010023782878FA
:1008200024780100010001000100000000DA0281CB
:10083000FFD9F1DB20A4A62EAF00A0C0D30000A1F9
:10084000C8D30000AED580A81F408D142000808141
:1008500082838485868788898A8B8C8D8E8F909100
:10086000929394A0A1A2A3A4A5A6A7A8A9AAABAC61
:10087000ADAEAFB0B1B2B3B4C0C1C2C3C4C5C6C7D8
:10088000C8C9CACBCCCDCECFD0D1D2D3D4000001F1
:100890000101010101010101020202020202020240
:1008A0000203030303030303030404040404040412
:1008B00005050505050606060606070707070708D6
:1008C000080808090909090A0A0A0B0B0B0C0C0C89
:1008D0000D0D0D0E0E0E0F0F0F1010111111121223
:1008E00013131414151516161717181819191A1AA0
:1008F0001B1B1C1D1D1E1E1F202021222223242401
:10090000252626272829292A2B2C2D2D2E2F30313C
:100910003232333435363738393A3B3C3D3E3F404E
:100920004142434445464748494A4C4D4E4F505139
:100930005354555658595A5B5D5E5F6162646566F3
:1009400068696B6C6D6F7072737577787A7B7D7E7A
:100950008082838587888A8C8E8F91939596989ACA
:100960009C9EA0A2A3A5A7A9ABADAFB1B3B5B7BAE2
:10097000BCBEC0C2C4C6C9CBCDCFD1D4D6D8DBDDB6
:10098000DFE2E4E7E9EBEEF0F3F5F8FAFDFF00AFA4
:1009900000AE05010902A10185020901A1000509B6
:1009A0001901290815002501950875018102050125
:1009B000093009311581257F9502750881060938AE
:1009C0001581257F950175088106050C0A380215E9
:1009D00081257F950175088106C0C005010906A122
:1009E00001050719E029E715002501950875018122
:1009F000029501750881010507190029FF150026D8
:100A0000FF009506750881000508190129051500E4
:100A10002501950575019102950175039101C009A4
:100A2000023B00020100A0FA0904000001030101D9
:100A3000000921110100012244000705810308007B
:100A40000109040100010300000009211101000156
:100A50002249000705820320000112010002000064
:100A60000008544B01000100010200010C036D005D
:100A70006100380069006300000016036B0061002C
:100A80007A006D0065006500670061007700610015
:100A90000000040309040000000000003E5B4F5BFF
:100AA0003E003E6B4F6B3E001C3E7C3E1C00183CE3
:100AB0007E3C18001C577D571C001C5E7F5E1C008E
:100AC00000183C180000FFE7C3E7FF0000182418D7
:100AD0000000FFE7DBE7FF0030483A060E0026295A
:100AE00079292600407F05050700407F05253F0046
:100AF0005A3CE73C5A007F3E1C1C0800081C1C3E68
:100B00007F0014227F2214005F5F005F5F000609F0
:100B10007F017F00006689956A0060606060600008
:100B200094A2FFA2940008047E04080010207E20F6
:100B3000100008082A1C0800081C2A0808001E10BB
:100B4000101010000C1E0C1E0C0030383E38300007
:100B5000060E3E0E060000000000000000005F00D0
:100B60000000000700070000147F147F1400242AEF
:100B70007F2A120023130864620036495620500071
:100B8000000807030000001C224100000041221C55
:100B900000002A1C7F1C2A0008083E08080000806C
:100BA00070300000080808080800000060600000BD
:100BB0002010080402003E5149453E0000427F409B
:100BC00000007249494946002141494D330018143B
:100BD000127F10002745454539003C4A49493100FC
:100BE000412111090700364949493600464949293A
:100BF0001E00000014000000004034000000000847
:100C0000142241001414141414000041221408008A
:100C10000201590906003E415D594E007C12111235
:100C20007C007F49494936003E41414122007F41D5
:100C300041413E007F49494941007F0909090100BE
:100C40003E41415173007F0808087F0000417F4109
:100C500000002040413F01007F08142241007F40F6
:100C6000404040007F021C027F007F0408107F008C
:100C70003E4141413E007F09090906003E415121A4
:100C80005E007F09192946002649494932000301BF
:100C90007F0103003F4040403F001F2040201F00D5
:100CA0003F4038403F006314081463000304780495
:100CB00003006159494D4300007F41414100020456
:100CC00008102000004141417F000402010204009D
:100CD0004040404040000003070800002054547882
:100CE00040007F28444438003844444428003844B5
:100CF00044287F0038545454180000087E0902002C
:100D00001824241C78007F080404780000447D40E7
:100D100000002040403D00007F10284400000041BA
:100D20007F4000007C04780478007C08040478008C
:100D30003844444438007C1824241800182424180B
:100D40007C007C0804040800485454542400040423
:100D50003F4424003C4040207C001C2040201C00DC
:100D60003C4030403C004428102844004C90909077
:100D70007C004464544C44000008364100000000EC
:100D80007700000000413608000002010204020062
:100D90003C2623263C00000000000000000000006C
:100DA00000000000808080C0C0C0C0E0E0E0E0E063
:100DB0006070F0F0F0F0F0F0F0F0F0F0E0E0E0A0C3
:100DC000E0E0E0E0F0F0F8F8FCEC7CFEFEFEDECEC9
:100DD000C6C0C0C0C08080808080808080C0C0E0ED
:100DE000E0F078208080C0C0E0F8800000C0FED82D
:100DF000F0C0E0C0FC808000000000E08000000047
:100E000000000000000000000000000000000000E2
:100E100000000000E0F0F0F0E0ECEEF7F3702000EE
:100E20007C7C7C7E007E7E7E7F7F7F000080C0E0B9
:100E30007E5B4F5BFEC00000C000DCD7DEDEDED78D
:100E4000DC00C00000000000000000000000000006
:100E50000000000000000000000000000000000092
:100E60000000000133373C606061E1E1E3E3E7EF5C
:100E7000EEFEFFFFFFFFFFFF7FFBFBFFFFFEFEFF1E
:100E8000EFFFFFDFDFD9F9FFFFFFCFCFFFF7F7FF5E
:100E9000FFF7E6BFBFFFFFEFEFFBFBBFBFFFF7FDB5
:100EA000FDDFDBFF7F7DDFDEFE7F1F7EFCEFFFFFD0
:100EB0003DFF8F070F1E073F0EFFF63F0D073E0C4D
:100EC0000E04081F000600380000000000000000AB
:100ED000000000000F1F3F7F7F7F7F7F3F1E0C00C1
:100EE0001F1F1F3F003F3F3F7F7F7F00307B7F788A
:100EF00030202030787F3B0003000F7F0F0F0F7FE3
:100F00000F000300000000000000000000000000CF
:100F100000000000000000000000000000000000D1
:100F200000000000000000000000000000000818A1
:100F30001C1E1E0F0F0F0707030303030303071FE6
:100F40003F3F3E7E6F7F7F777527070707060F1F9E
:100F50003F3F7F7F7F766243030301010103030369
:100F6000060606060E0C08010300000003073E07F4
:100F7000000F03000000000000000300000000005C
:100F80000000000000000000000000000000000061
:100F90000000000000000000000000000000000051
:100FA0000000000000000000000000000000000041
:100FB0000000000000000000000000000000000031
:100FC0000000000000000000000000000000000021
:100FD00000000000000011241FBECFEFDAE0DEBFEA
:100FE000CDBF04B603FE18C08091A0079091A10761
:100FF000A091A207B091A3078730904BA740B04BB8
:1010000059F41092A0071092A1071092A207109213
:10101000A307E0E0F8E3099512E0A0E0B1E0ECE519
:10102000FCE502C005900D92AA3DB107D9F727E073
:10103000AAEDB2E001C01D92A03AB207E1F70E940A
:101040005D230C94012E0C940000CF93DF9340910C
:101050009E0750919F074E5955409A0120583F4F87
:1010600021303240C0F020E032E0241B350B60918B
:101070009C0570919D05FC01CA01240F351FC1E03C
:10108000D0E08217930750F070939D0560939C0504
:10109000DF91CF91089520E830E0E9CF4491DC0161
:1010A000A256BA4F5C91451781F04C93AC01A5E074
:1010B00056954795AA95E1F7DE0102C0AA0FBB1F1E
:1010C0004A95E2F7AD016A2B752B01963196D9CF7F
:1010D000482F2091940590915B0557E0291302C099
:1010E00080E0089530E0529FF001539FF00D1124ED
:1010F000E45AFA4F8181681306C08081481303C007
:1011000085818111EECF2F5F3F4F2770E7CFFC0124
:10111000AC014B5F5F4F8FEF91E32191822728E075
:1011200030E087FF09C0880F892721503109C9F7AE
:10113000E417F50791F70895880FF7CFE8EDF0E091
:1011400080818E7F80831092E2001092DA001092EC
:10115000E100A0EEB0E08C9181608C9380818F776C
:10116000808319BCA7EDB0E08C918E7F8C93808139
:101170008F7E80831092430508952091E400309182
:10118000E50095E6A9012091EC00822F817020FFF7
:1011900006C08091E80080FF06C080E0089520919D
:1011A000E80022FD1AC080915105882389F085301E
:1011B00089F08091EB0085FD0FC02091E400309113
:1011C000E50042175307F9F29150E1F684E00895E3
:1011D00082E0089583E0089581E0089580915305A9
:1011E00087FF13C08091E80082FF06C08091E8006D
:1011F0008B778093E80004C0809151058111F2CF74
:101200000895809151058823D9F38091E80080FFEB
:10121000F8CF8091E8008E77ECCF982F9093E9007B
:10122000242F762F50E0891731F07091EC00209137
:10123000ED005091F00021FD07C09F5F973071F7DE
:101240008093E90081E008953091EB003E7F309378
:10125000EB003091ED003D7F3093ED003091EB00DD
:1012600031603093EB007093EC002093ED005093CD
:10127000F0002091EE0027FDE0CF80E00895B0E07F
:10128000A0E0E5E4F9E00C94DA2CC8EDD0E0888128
:101290008F7E8883E7EDF0E080818160808384E049
:1012A00082BF81E08093430588818E7F888302EE30
:1012B00010E0F80110821092DA0081EEC82ED12CD5
:1012C000F601108288818F7788838881806888837F
:1012D00088818F7D888319BC109251051092520528
:1012E0001092500510924F0590EEE92EF12CF70167
:1012F00080818B7F808388818160888342E060E089
:1013000080E00E940D09F60180818E7F8083F801C4
:10131000808181608083808188608083F701808103
:101320008E7F8083888180618883CDB7DEB7E8E0D7
:101330000C94F62CFC018091590590915A05861762
:101340009707A0F06115710529F49091E8009E7748
:101350009093E80090E06115710551F4911108C077
:101360008091E80082FF34C080E00895BC01F2CF94
:10137000809151058823C1F18530C1F18091E80049
:1013800083FD30C08091E80082FDEACF8091E800C3
:1013900080FFE1CF8091F3002091F200382F61159A
:1013A000710519F02830310558F091E028303105E9
:1013B00009F090E02091E8002E772093E800CBCF51
:1013C00081918093F100615071092F5F3F4FE7CF0A
:1013D00080915105882341F0853041F08091E800EB
:1013E00083FFBECF81E0089582E0089583E00895F1
:1013F0000895809146050895CF92DF92EF92FF9273
:101400002FB7F894C0903F05D0904005E09041057B
:10141000F09042052FBFA7019601261B370B480B02
:10142000590BCA01B901FF90EF90DF90CF9008955A
:101430002FB7F89460913F05709140058091410568
:10144000909142052FBF08952091950536E0839F26
:10145000C0011124629F800D911D1124811522E08D
:10146000920714F090E080E082569A4F90939F0785
:1014700080939E070895FA01811101C0FB0109952F
:101480000895109266040895EEE5F4E0248130E1B9
:10149000231B08F420E0248380915D048160809305
:1014A0005D040895EEE5F4E0248130E1230F08F4B3
:1014B0002FEF248380915D04816080935D04089503
:1014C00090915E04937059F080935F046093600480
:1014D0004093610480915D04822B80935D040895A4
:1014E000EEE5F4E0438120E1421B08F440E0818115
:1014F00021E0628190E00E94600A0895EEE5F4E048
:10150000438120E1420F08F44FEF818121E06281A5
:1015100090E00E94600A0895EEE5F4E0628120E127
:10152000621B08F460E0818121E0438190E00E9429
:10153000600A0895EEE5F4E0628120E1620F08F4AC
:101540006FEF818121E0438190E00E94600A08955D
:10155000EEE5F4E0818121E0438162818850990BBE
:101560000E94600A0895EEE5F4E0818190E021E0B8
:101570004381628108960E94600A089590915E04FA
:10158000937061F081110BC0946090935E0410928F
:10159000540180915D04862B80935D04089583300F
:1015A00010F09860F2CF880F880F982BEECF8091C3
:1015B0005E0486958695815009F482E061E00E9480
:1015C000BE0A089580915E04869586958F5F83306C
:1015D00008F081E061E00E94BE0A0895FF920F9337
:1015E0001F93CF93DF93182F062FF42ED0E0C0E087
:1015F0002F2D402F612FCE010E946B122196C534F2
:10160000D105B1F7CDB7DEB7E5E00C94F92CEF9238
:10161000FF920F939701201B31092F3F310519F0DD
:1016200010F02FEF30E02095382F320F08F43FEF05
:10163000832F0F91FF90EF900895AF92BF92CF92BA
:10164000DF92FF920F931F93CF93DF93362F472F95
:10165000E82FF0E0E257F74F71110FC0E4918E2FA1
:101660002E2F6E2F722FDF91CF911F910F91FF9030
:10167000DF90CF90BF90AF900895C72FD0E0249116
:10168000F22E022F10E056E0659FC0011124EFEF0B
:10169000F0E0BF010E94BC2C832F90E0880F991FBF
:1016A00035E5369FD001379FB00D11248A1B9B0B67
:1016B000982F990F980F6F01CC1ADD0AC09ED001A8
:1016C000C19EB00DD09EB00D11248B2F499FA0015B
:1016D0001124452F55276F01C41AD50AC09EA001B9
:1016E000C19E500DD09E500D11245F01A91AB10862
:1016F000AC9E6001AD9ED00CBC9ED00C1124CD2CB4
:10170000DD24EC19FD09E09FE001E19FD00DF09F81
:10171000D00D1124ED2F62307105A1F050F4611548
:10172000710509F49ECF6130710581F0EB2F852F93
:1017300098CF6430710569F080F06630710509F466
:1017400090CFF4CFE22F2B2F8D2F8BCFE22F252F91
:1017500088CFEB2F822F2D2F84CF2B2F8F2DE52F8E
:1017600080CF8091F80380FD16C081FD16C082FDF8
:1017700016C08091F7038823A1F0883280F428E016
:10178000829FC001112468E270E00E94132D862F11
:10179000672B39F0089582E0089584E0089588E089
:1017A000089581E008958091F80380FD14C081FDC3
:1017B00014C082FD16C08091F603882381F08E311B
:1017C00080F420E5829FC00111246EE170E00E9448
:1017D000132D862F089584E1089588E2089588E006
:1017E000089580E50895282F35EB2303C0011124C7
:1017F00097FF04C080589109892F089580589F4F02
:10180000FBCF80E00895F894E82FE295EF70F0E0C8
:1018100031A1282F2F7081E090E001C0880F2A9518
:10182000EAF7982F9095932391A392A1892B82A3F5
:101830007894089590916D0392FF10C041E0282F95
:101840002471243009F040E031E0282F287128303D
:1018500009F030E0431711F02CE0822793FF10C00D
:1018600041E0282F2471243109F040E031E0282F95
:101870002871283109F030E0431711F02CE082275D
:1018800030916E0330FF10C051E0282F21712130BC
:1018900009F050E041E0282F2871283009F040E09D
:1018A000541711F029E0822731FF10C041E0282FA2
:1018B0002171213109F040E031E0282F28712831D1
:1018C00009F030E0431711F029E0822794FD877E6C
:1018D000089582389105B9F1B0F48133910509F486
:1018E0007DC048F48932910509F46DC08A329105B2
:1018F00009F47BC008958533910509F45FC08933ED
:10190000910509F10895833E9105D9F138F4803E9F
:10191000910529F1823E910579F10895863E910560
:10192000D9F1873E910509F43EC0843E910541F509
:1019300020916E0321FF24C080916D0384FD19C0A6
:1019400087EE90E0089520916D03237009F05AC04E
:1019500020916E0323FF14C089E290E00895209146
:101960006D0320FD38C030916E0330FF09C024FFA5
:1019700043C090E080E0089520916D0322FDF7CFF1
:10198000089520916D0322FD3AC030916E0330FD21
:1019900039C024FFF5CFEDCF20916D0323FFF0CFA9
:1019A00024FDE7CFCDCF20916D0323FD2EC03091D4
:1019B0006E0331FFEECF84EE90E0089520916D0329
:1019C00025FFDECFC9CF20916D0325FD21C02091D9
:1019D0006E0323FFD5CF89E390E0D2CF20916D0332
:1019E00026FFCECF8AE290E0089520916D0326FF76
:1019F000C7CF81E390E0089583EE90E0089582EEF2
:101A000090E0089580EE90E0089586EE90E00895CD
:101A100085E390E008957A30C8F46830B8F48430F3
:101A2000C0F4E72FF0E09AE0899FE00DF11D11244A
:101A300083E0EE0FFF1F8A95E1F7E60FF11DEE0F31
:101A4000FF1FE455FA4F85919491089580E090E04E
:101A5000089581E0FCCF1F93CF93DF930E94690C20
:101A6000EC01C11582E5D80708F03FC0C11580E53B
:101A7000D80708F0BCC0C83ED105C0F4C03ED105AF
:101A800080F4C53AD10548F4C430D10550F4C130D2
:101A9000D10539F0D0E0C0E004C0CD3CD105D0F391
:101AA000D065CE01DF91CF911F910895C11580E4DB
:101AB000D80708F06BC0C11580E2D80708F0B1C0A4
:101AC000C11581E0D80730F38D2F0E941A0C182F12
:101AD000CE0199270E94690CC12FD0E0DC2FCC27C2
:101AE000CC27DF71C82BD92BDCCFC03682E5D807D5
:101AF000F0F4C03482E5D80708F059C0C03282E55E
:101B0000D80708F04DC02C2F2695269580E2289FF7
:101B1000900111248C2F8370C1E0D0E002C0CC0F63
:101B2000DD1F8A95E2F7C22BD32BDD68BACFC03C0C
:101B300082E5D807F8F4C03A82E5D80708F04CC02F
:101B4000C03882E5D80708F0A5CF2C2F269526951A
:101B5000277080E2289F900111248C2F8370C1E0B0
:101B6000D0E002C0CC0FDD1F8A95E2F7C22BD32B49
:101B7000DA6897CFC03E82E5D80708F08BCFDC2F1C
:101B8000CC27CC27DF71C06FD06A8BCFCE019927CD
:101B90000E94690CCC27DF70C82BD92BD06A81CF6B
:101BA000CF71D0E0DC2FCC27C16FD06A7ACF2C2F39
:101BB00026952695277080E2289F900111248C2F6E
:101BC0008370C1E0D0E002C0CC0FDD1F8A95E2F740
:101BD000C22BD32BDC6865CF8C2F8F710E941A0C1F
:101BE000C82FD0E0DC2FCC27CC27DF715ACF8C2F29
:101BF0008F710E941A0C55E0D695C7955A95E1F75A
:101C0000CF70D0E0DC2FCC27282F30E084FF05C038
:101C100044E0220F331F4A95E1F7C22BD32BD06942
:101C200040CF8D2F8F710E941A0C182FCE0199274B
:101C30000E94690CC12FD0E0DC2FCC27CC27DF71AC
:101C4000C82BD92BD0622DCF8091940590915B0544
:101C5000981301C008958F5F8770FACFB0E0A0E0BD
:101C6000E4E3FEE00C94D92C7C010091CA031091AE
:101C7000CB038091CC039091CD03082B192BCFE09F
:101C8000D0E0CC24C394D12CBC2EC6010C2E02C0B3
:101C9000880F991F0A94E2F780239123892B49F436
:101CA000219790F7B12C8B2DCDB7DEB7E9E00C94DE
:101CB000F52CB7018C2F0E940B0D0E942B0D019764
:101CC00079F3F1CFCF93DF93EC010E942E0EBE018A
:101CD0000E940B0D0E942B0DDF91CF9108959A3039
:101CE00070F5883060F528E0929FF0011124E80F2C
:101CF000F11D6E2F677083E0F695E7958A95E1F701
:101D0000EE0FFF1FEE0FFF1FE951FD4F50E040E0C7
:101D100080E0219130E0062E02C0369527950A9486
:101D2000E2F721703327042E01C0220F0A94EAF74C
:101D3000822B4F5F5F4F4430510559F7089580E083
:101D400008959A3090F5883080F528E0929FF00150
:101D50001124E80FF11D2E2F277041E001C0440F20
:101D60002A95EAF783E0F695E7958A95E1F7EE0F75
:101D7000FF1FEE0FFF1FE951FD4F30E020E070E044
:101D80005191DF011197CB01022E02C096958795E4
:101D90000A94E2F7817081958527842385278C93A7
:101DA0002F5F3F4F2430310559F708959093CB03AF
:101DB0008093CA03089521E030E002C0220F331F50
:101DC0008A95E2F7209530958091CA039091CB03D4
:101DD000822393230E94D60E089521E030E002C0B2
:101DE000220F331F8A95E2F78091CA039091CB03AB
:101DF000822B932B0E94D60E08959093CD0380934F
:101E0000CC030895FC0124812223C1F080819181BB
:101E10000E94620E92959F70963091F058F4925FF6
:101E20009F70923058F4803F19F030F4883E30F4BF
:101E300081E008959A5FF4CF843FD1F380E0089564
:101E4000883EB0F3813FD1F7F3CF292F332740E00D
:101E50002115310511F0C90148E09C0164E0369577
:101E600027956A95E1F72115310511F04C5FC901FD
:101E70009C0136952795369527952115310511F04A
:101E80004E5FC90196958795892B09F04F5F842F86
:101E90000895A6E0B0E0EFE4FFE00C94DF2C498366
:101EA0005A8349815A819923A1F0222391F0CA01D2
:101EB0000E942E0E182F682F89819A810E94A10EF0
:101EC00069817A81812F0E940B0D2696E3E00C94A4
:101ED000FB2CCA010E946F0E182FF2CFCF93DF9315
:101EE000C0919E07D0919F078A30C1F4209195053B
:101EF000CE018E599540622F70E00E94BC2C281BA9
:101F0000822F66E00E94072DC82FC15018F4DF9180
:101F1000CF91089580E20E946E0FF7CF8D30E9F4E3
:101F2000CE59D54020919505622F70E0CE010E94D8
:101F3000BC2C281B822F9E01280F311D21153240F9
:101F400018F080E0D0E0C0E0C80FD11DC256DA4FD3
:101F5000D0939F07C0939E07DACF96E0FE01A6E9D3
:101F6000B5E001900D929A95E1F7803E08F458C0D3
:101F700086E0FE0111928A95E9F7C0919E07D09103
:101F80009F0746E050E0BE0186E995E00E94992D4A
:101F90009E012E593540892B41F1C90145E09695A6
:101FA00087954A95E1F741E050E0BA0102C0660F1B
:101FB000771F8A95E2F7CB0160919C0570919D0592
:101FC000862B972BB9016B5F7F4FE5E07695679580
:101FD000EA95E1F702C0440F551F6A95E2F7842B9A
:101FE000952B90939D0580939C052A5F3F4F4091D0
:101FF0009505642F70E0C9010E94BC2C481B463037
:1020000010F4240F311D211572E0370710F030E075
:1020100020E022563A4F30939F0720939E0777CFB8
:10202000F6E08F9FB00111246A56754F46E050E0EC
:10203000CE010E94902DA1CF8091440590911E0366
:10204000892B8093DC0248E050E066E173E08CED80
:1020500092E00E94992D892BA9F088E0ECEDF2E046
:10206000A6E1B3E001900D928A95E1F7E0913C057D
:10207000F0913D05309731F00280F381E02D8CED39
:1020800092E009950895882341F080959091440548
:102090008923809344050E941C100895882339F0F9
:1020A00090914405982B909344050E941C1008952C
:1020B0000F931F93CF93DF93EC01FC01019000205D
:1020C000E9F78F0101501109C017D10728F0DF91FE
:1020D000CF911F910F91089589910E946E0FF4CFB7
:1020E0002F923F92CF93DF93E1016A818881909193
:1020F000E502911104C09091000191112EC06E5F14
:102100000E94240A86E691E00E9458106A8161507C
:1021100088810E94240A81E0809300012091E402DA
:1021200030E02F5F3F4F217033272093E40281E09E
:1021300090E0821B930B9695982F8827979587950B
:102140002091CE0321FF15C084559B4F0E94250886
:10215000DF91CF913F902F90089561500E94240A03
:1021600086E691E00E9458106A8188810E94240AC4
:10217000D5CF2091E602222319F084559C4FE6CF5B
:102180002091CF033091D0032B3031051CF48455BE
:102190009D4FDCCF293231051CF484559E4FD6CF9C
:1021A00084559F4FD3CF0F931F93CF93DF938B0112
:1021B000EA0190915105943061F58093E9008FEF29
:1021C0009091E800815095FD06C095ED9A95F1F744
:1021D00000008111F5CF8091E80085FF1AC00E94B0
:1021E000BD08811111C08091E80085FD06C0809175
:1021F000E8008E778093E800F2CFF80181918F019B
:102200008093F100219779F78091E8008E77809391
:10221000E800DF91CF911F910F91089546E050E0C3
:10222000BC0182E00E94D3100895CF93DF93EC01AC
:1022300048E050E0BC0181E00E94D31088E0FE013C
:10224000A7E4B5E001900D928A95E1F7DF91CF9177
:10225000089580916604882341F1539A3BB1377FFA
:102260002BB128604FB7F89487E694E0FC015191B8
:10227000CF0168E02BB9000000C057FF3BB9550FF4
:10228000000000C000C000C03BB900C06A9591F7D3
:10229000F5E086339F0751F74FBF8FE594E0019734
:1022A000F1F700C00000109266040895B0E0A0E0CD
:1022B000ECE5F1E10C94D82C7C015B016A01809182
:1022C0005C0301E010E08A3010F40AE010E0C1E0A5
:1022D000D0E0B501C701F6010995811104C021962E
:1022E0000C171D072CF4CDB7DEB7EAE00C94F42CE4
:1022F000CC9F9001CD9F300D300D112490E080E0F7
:1023000045E34A95F1F70000019682179307C1F75C
:10231000E0CF80912B03811119C088EC90E02091CF
:10232000E30027FD10C0EFE3FCE93197F1F700C0AF
:1023300000000197A1F782E080932B030E949E0882
:102340001092510503C081E080932B0381E09091AE
:102350002B03913011F080E0089508950E948911B7
:10236000882359F0E0913C05F0913D05309729F024
:102370000190F081E02D0995089580E008950F9374
:102380001F930E948911882329F00E94180A1F9127
:102390000F9108950E94180A00915D0310915E0349
:1023A00020915F0330916003600F711F821F931FA4
:1023B000EECFB0E0A0E0EFEDF1E10C94DA2C6C018F
:1023C0007B0164E670E088E70E941A2A8C01E6012E
:1023D000EC0CFD1C17FD0BC0FE01849164E670E05F
:1023E0000E94862A8C012196CE15DF0599F70E945E
:1023F000FC2A81E00115110509F080E0CDB7DEB7B8
:10240000E8E00C94F62C80913A0590913B059111EF
:1024100003C091E089270895882369F062E070E0A5
:1024200080E999E00E94D911811103C080913A0599
:10243000089510923A0580913A05EBCFCF93C09161
:102440003A0580913B058823D1F00E94180A605A12
:1024500075418F4F9F4F609336057093370580937A
:10246000380590933905C11108C062E070E08EE82C
:1024700099E00E94D911811105C0C0913A058C2FB5
:10248000CF91089581E080933A05F7CFEEE5F4E02F
:1024900085E080838091560190915701A091580169
:1024A00081839283A3838FE784838FEF858348E0C2
:1024B00050E068E170E0CF010E94CD2D10925D04E4
:1024C00008958EE090E00E94BF2D91E0811101C03F
:1024D00090E0892F0895FF920F931F93CF93DF937E
:1024E000EC01F62E042F122F0E946112811123C0DD
:1024F000C032D1051CF1A097FE01EE0FFF1FDF01D6
:10250000AC0FBD1FA959BB4F11968C9111978F111C
:1025100007C08C91801304C012968C91811771F0C2
:1025200081E080936604EC0FFD1FE959FB4FF182B7
:102530000083128303C0C032D105F4F2CDB7DEB7F9
:10254000E5E00C94F92CA5E0B0E0E9EAF2E10C94A6
:10255000D02C80902C0490902D04A0902E04B0904C
:102560002F040E948911882309F43EC0C501B401DB
:102570000E94FC096B017C010E94BF114B015C01B0
:1025800080922C0490922D04A0922E04B0922F04DD
:10259000A0910304E3E0F4E08A2F90E04FEF5FEFB7
:1025A00060E070E04C195D096E097F09A91325C030
:1025B0008093030480915E04082F0370402E19F06D
:1025C000482E4694469490915401913009F43FC0AE
:1025D000992331F1923009F49FC1933009F4A4C1D9
:1025E0002596E2E10C94EC2C0E94BF116B017C015A
:1025F000C818D908EA08FB08BFCF218D328D290100
:10260000712C612C441555056605770520F4815021
:102610009F5F3296CBCF2C0D3D1D328F218FF8CF8F
:10262000109251018092590490925A04A0925B0436
:10263000B0925C0489E2E3E0F4E0A0E3B4E001904E
:102640000D928A95E1F781E080935401C9CF909172
:102650005001491225C0837020914F0130E091E074
:102660008217130609F490E0892F8170809353013B
:102670008091630490915201981739F08093520130
:1026800040E060E080E00E94EE0A11E04116A1F017
:10269000442041F022E0421609F45FC080E035C0DA
:1026A00081E0E3CF80915301882379F140E060E03D
:1026B00080E00E94EE0AF2CF109151018EE0189F47
:1026C000102D11240EE0010F063408F005E40E94DD
:1026D0006112882309F456C1013208F000E26091CA
:1026E0005F0470916004809161040E941D0BF62EBE
:1026F000E72ED82EA12EB12CA016C8F00E94611290
:10270000882339F181E0003248F6909151019F5FB2
:1027100090935101811164CF82E0809354018091A4
:10272000530181115DCF41105BCF83E08DCFF50167
:10273000EC56FD4F808190915201892331F02D2D6F
:102740004F2D6E2DC5010E946B123FEFA31AB30AE5
:10275000D3CF81E00534C8F2A1CFA090300421E0AE
:102760000A2D021B08F400E0C02E109151018EE0EA
:10277000189F102D11245EE0D52ED10E25E42D15C5
:1027800010F445E4D42E0E946112882309F4FFC09E
:1027900030E23D1510F430E2D32E812F90E09C837F
:1027A0008B83880F991FFC01E65FFD4F3F018C2D45
:1027B00090E08C010F5F1F4F1A830983312C212C6D
:1027C0008B818D1558F00E946112882309F49EC0F8
:1027D00081E09FE19D1508F098CF60CFEB81FC81EF
:1027E000EC56FD4F8081909152018923E9F0609170
:1027F0005F047091600429813A81205D3B4F49015B
:10280000BC2C80E0BA14D0F020916104182F129FE4
:10281000112D1124812F0E941D0B462F282F672F69
:102820008B819C810E946B122B813C812F5F3F4FDB
:102830003C832B8332E0630E711CC2CFF401919173
:102840004F01F3014081491B550B2181F401978110
:10285000291B330B449FD001459FB00DB00D1124AF
:10286000229FF001239FF00DF00D1124EA0FFB1FB2
:10287000E230F105E4F4ED8390916204192F01E058
:10288000100F08F41FEFF401EE0FFF1FE053F440A8
:102890000588F689E02D7101E19FE12CF19FE00CA4
:1028A000F11C11240D810E94070BB394ABCF9FEF55
:1028B000E13E0EE1F00744F4DF0105E0B695A7958F
:1028C0000A95E1F798E09A0F55245394E52CE90E08
:1028D000FF24FF1CD701B595A795AD83AA9F700172
:1028E000AB9FF00CF00C1124EE15FF0538F49FEFB0
:1028F0009A0F951558F75A945D82BECF0D810F3F00
:1029000009F4BACF552453945A0EF3CF81E0E4E48E
:10291000ED1508F0FACEC2CE40925001837080933C
:102920004F010E94291101CF80915D04882351F04D
:1029300048E050E068E170E08EE594E00E94CD2D23
:1029400010925D04C0905904D0905A04E0905B044A
:10295000F0905C040E948911882369F0C701B601D8
:102960000E94FC09603171058105910508F438CE9B
:102970001092540135CE0E94BF116C197D098E0949
:102980009F09F0CF103208F0AACE10E2A8CE103284
:1029900008F003CF10E201CFB0E0A0E0E2EDF4E1F7
:1029A0000C94DA2CC82F7B01D42F6901FB016081C4
:1029B0007181828193810E94FC09643671058105D1
:1029C000910510F4DD2359F10C2E000CDD0BFE01F6
:1029D00083E0EE0FFF1F8A95E1F7EF5FFE4F8181E5
:1029E00092818B5C9C4F408150E00417150708F4DE
:1029F000A801B6010E94A62DCE010E94462CC82F28
:102A0000882339F00E94180AF7016083718382835A
:102A100093838C2FCDB7DEB7E8E00C94F62CC1E0A1
:102A2000F8CFA9E0B0E0E7E1F5E10C94DE2C88E016
:102A3000EEE5F4E0DE01119601900D928A95E1F742
:102A4000198649E050E063E473E0CE0101960E94EC
:102A5000992D41E0892B09F440E009E010E09E0146
:102A60002F5F3F4F68E573E085E00E94CC14299604
:102A7000E4E00C94FA2C0F931F9341E020913F0364
:102A8000309140038091CA039091CB0328173907F6
:102A900009F440E002E010E02AEC33E064E573E082
:102AA00083E00E94CC148823B1F041E020914103DF
:102AB000309142038091CC039091CD0328173907C0
:102AC00009F440E002E010E02CEC33E060E573E054
:102AD00084E00E94CC141F910F910895A4E0B0E00F
:102AE000E4E7F5E10C94DF2C60914C0370914D0309
:102AF00080914E0390914F030E94FC0911E06436CF
:102B000071058105910570F10E94BF116E5F7F4FC5
:102B10008F4F9F4F69837A838B839C8380911201AF
:102B2000909113018B5C9C4F4091110150E0453016
:102B3000510510F044E050E0BE016F5F7F4F0E94EE
:102B4000A62D82E090E00E94462C182F882351F099
:102B50000E94180A60934C0370934D0380934E03B8
:102B600090934F03812F2496E3E00C94FB2CEF927B
:102B7000FF921F93CF93DF9300D000D000D0CDB74A
:102B8000DEB77B0190E080E00E94462C182F88235E
:102B900009F473C04091040150E04115510511F052
:102BA00041E050E060910501709106016B5C7C4F43
:102BB000CE0106960E94A62D6091310370913203DA
:102BC00080913303909134030E94FC0964367105AF
:102BD0008105910540F486E393E00E9487089E8179
:102BE000891709F44AC081E090E00E94462C8111C7
:102BF00016C010E085E0ECE2F3E0D70101900D9201
:102C00008A95E1F7812F26960FB6F894DEBF0FBEA6
:102C1000CDBFDF91CF911F91FF90EF90089540912C
:102C20000C0150E04630510510F045E050E0609155
:102C30000D0170910E016B5C7C4FCE0101960E94DC
:102C4000A62D86E393E00E9487089E818913D1CF49
:102C50000E94180A60933103709332038093330308
:102C60009093340385E0FE013196ACE2B3E001902D
:102C70000D928A95E1F711E0BDCF85E0E6E3F3E040
:102C8000DE01119601900D928A95E1F71111EACFBC
:102C9000B1CFA8E0B0E0EFE4F6E10C94E02C66EEF2
:102CA0007EEF90E080E00E94FB2D60E082E090E00B
:102CB0000E94DD2D60E083E090E00E94DD2D109207
:102CC000CD031092CC0360E074E184E090E00E94B8
:102CD000FB2D60E086E090E00E94DD2D6FEF87E045
:102CE00090E00E94DD2D40E050E0BA0188E090E0E5
:102CF0000E94EF2D60E084E290E00E94DD2D60E014
:102D000087E190E00E94DD2D60E08CE090E00E9481
:102D1000DD2D60E08DE090E00E94DD2D19821A82A9
:102D20001B821C821D821E821F82188648E050E092
:102D300068E170E0CE0101960E94CD2D40E050E0A8
:102D4000BA0180E290E00E94EF2D40E050E0BA012D
:102D50008FE090E00E94EF2D40E050E0BA0183E167
:102D600090E00E94EF2D2896E2E00C94FC2C1F923C
:102D70000F920FB60F9211242F933F934F935F93AF
:102D80006F937F938F939F93AF93BF93EF93FF9333
:102D90008091E10082FF09C08091E20082FF05C0BE
:102DA0008091E1008B7F8093E1008091DA0080FFC9
:102DB00024C08091D80080FF20C08091DA008E7FEF
:102DC0008093DA008091D90080FF9DC080E189BDA9
:102DD00082E189BD09B400FEFDCF81E080935105F9
:102DE00080914305811109C00E949E080E943F09FD
:102DF0008091E20084608093E2008091E10080FF96
:102E000017C08091E20080FF13C08091E2008E7FA6
:102E10008093E2008091E20080618093E2008091E3
:102E2000D80080628093D80019BC85E0809351055A
:102E30008091E10084FF2BC08091E20084FF27C0D5
:102E400080E189BD82E189BD89B5982F917080FFAD
:102E5000FBCF8091D8008F7D8093D8008091E100D6
:102E60008F7E8093E1008091E2008F7E8093E2006C
:102E70008091E20081608093E20080915205882376
:102E800009F447C084E080935105809151058091F9
:102E9000E10083FF27C08091E20083FF23C080917F
:102EA000E100877F8093E10082E0809351051092DA
:102EB00052058091E1008E7F8093E1008091E200D5
:102EC0008E7F8093E2008091E20080618093E20037
:102ED00042E060E080E00E940D098091F00088608F
:102EE0008093F000FF91EF91BF91AF919F918F91EF
:102EF0007F916F915F914F913F912F910F900FBEF6
:102F00000F901F90189519BC10925105109243050F
:102F100074CF8091E30087FD93E090935105B5CF86
:102F200078941F921FB61F9211248F939F93AF9393
:102F3000BF9380913F0590914005A0914105B091CC
:102F400042050196A11DB11D80933F059093400558
:102F5000A0934105B0934205BF91AF919F918F918E
:102F60001F901FBE1F9018959C014FB7F894809139
:102F70003F0590914005A0914105B09142054FBF9A
:102F8000821B930B08952FB7F89480913F05909181
:102F90004005A0914105B09142052FBF08950E94C0
:102FA000C3179C019091FF0380910004982B21F09E
:102FB0003093FC032093FB03909101048091020461
:102FC000982B21F03093FA032093F903E0913C050C
:102FD000F0913D05309749F082E08093FD03048035
:102FE000F581E02D8DEF93E009950895CF93C6E02C
:102FF000EEEDF2E0DF018C2F1D928A95E9F7109239
:103000001E030E941C10EDEFF3E0DF011D92CA9534
:10301000E9F71092F6031092F7031092F8030E945A
:10302000CF17CF910895AAE2B0E0E9E1F8E10C945E
:10303000DF2C83E595E02091F100FC012193CF0185
:10304000F5E08B359F07B9F780915405833009F47B
:1030500070C0B8F4813009F447C0823009F4B3C0BD
:103060008091E80083FF80C28091530590915405C0
:103070009A3008F079C2E92FF0E0ED5FF14D0C9441
:10308000682D8A3009F48EC08B3009F46FC0893006
:1030900039F780915305813219F780915705909146
:1030A00058050297E8F68091E800877F8093E80052
:1030B0008091E80082FF38C09091F3008091F20087
:1030C000029731F48091F100813011F0863021F4C3
:1030D0008091F100809346058091E8008B77809382
:1030E000E8000E94EE08BCCF80915305813A09F0B8
:1030F000B7CF8091E800877F8093E80080915705E3
:1031000090915805892B61F468E087E495E070E0C0
:103110000E949A098091E8008B778093E800A0CF05
:1031200060E090E080E0F3CF809151058111C0CF45
:1031300097CF80915305813A09F092CF809157053E
:1031400090915805892B09F08BCF8091E800877FFB
:103150008093E8008091E80080FFFCCF80915501CA
:103160008093F1008091E8008E77B9CF809153056C
:10317000813209F075CF8091570590915805892BC0
:1031800009F06ECF8091E800877F8093E8000E946D
:10319000EE088091550580935501109244050E94D8
:1031A000F6175ECF80915305813209F059CF809197
:1031B000E800877F8093E8000E94EE088091560522
:1031C000809345054DCF80915305813A09F048CF52
:1031D0008091E800877F8093E8008091E80080FF7D
:1031E000FCCF80914505BCCF803899F0823809F03A
:1031F000BBC1809157058F70873008F0B5C18093AF
:10320000E9008091EB0085FB882780F91092E900A6
:1032100006C080914F059091500591118260909168
:10322000E800977F9093E8008093F1001092F100FE
:103230008091E8008E7794C1882309F482C182309E
:1032400009F092C180915505811185C18091570582
:103250008F702FEF280F263008F086C18093E90089
:103260002091EB0020FF77C1933031F48091EB0087
:1032700080628093EB006FC19091EB00906190931E
:10328000EB0021E030E001C0220F8A95EAF720939D
:10329000EA001092EA008091EB008860EACF811189
:1032A00063C1109155051F778091E3008078812BD1
:1032B0008093E3008091E800877F8093E8000E947C
:1032C000EE088091E80080FFFCCF8091E3008068E9
:1032D0008093E30082E0111183E08093510544C1A3
:1032E0008058823008F040C1809155059091560574
:1032F0008C3D23E09207A1F583E08A838AE28983EB
:103300004FB7F894DE01139620E03EE051E2E32F40
:10331000F0E050935700E49120FF03C0E295EF7076
:103320003F5FEF708E2F90E0EA30C0F0C7968D932C
:103330009D932F5F243159F74FBF8091E800877F1D
:103340008093E8006AE270E0CE0101960E949A093B
:103350008091E8008B778093E80006C1C096E7CFA4
:103360004091570550915805292F332723303105B7
:1033700009F444C078F52130310509F46FC08BE3BE
:1033800090E0EFE1FAE02230310509F0EDC0209144
:10339000E800277F2093E8002091590530915A05D5
:1033A0008217930708F49C0140E02115310509F0CC
:1033B00064C0411162C08091E80082FDC9CF809154
:1033C0005105882329F2853019F28091E80083FFA6
:1033D000F2CFBECF21323105A9F12232310509F0F9
:1033E000C3C04115510509F443C04130510509F0EE
:1033F000BBC089E490E0E2E9F9E0C9CF99278130C8
:103400009105C1F0009759F0029709F0ADC0ECE6C4
:10341000FAE0E4918E2F90E0ECE6FAE007C0E2E9F2
:10342000FAE0E4918E2F90E0E2E9FAE0009709F4E7
:103430009BC0ADCFEAE7FAE0E4918E2F90E0EAE797
:10344000FAE0F4CF4115510571F04130510509F012
:103450008BC089E090E0EAE4FAE099CF82E190E065
:10346000EAE5FAE094CF89E090E0E1E3FAE08FCF7B
:1034700084E490E0EBEDF9E08ACF80915105882358
:1034800009F466CF853009F463CF8091E80083FDAD
:103490005FCF8091E80082FD8ECF8091E80080FFB1
:1034A00084CF9091F3008091F2002115310519F03D
:1034B0008830910550F041E0089709F040E0809194
:1034C000E8008E778093E80070CF44914093F1003C
:1034D0003196215031090196E8CF803809F044C077
:1034E0008091E800877F8093E80080915205809367
:1034F000F1009ECE811138C0109155051230A0F513
:103500008091E800877F8093E800109352050E9425
:10351000EE08112311F084E005C08091E30087FDDF
:10352000FACF81E08093510542E061EC81E00E9496
:103530000D0942E261EC82E00E940D098091510583
:1035400013C080915505813079F481E0933009F002
:1035500080E0809350051092E9008091E800877F19
:103560008093E8000E94EE088091E80083FF0AC083
:103570008091E800877F8093E8008091EB00806273
:103580008093EB00AA96E3E00C94FB2C1F920F9221
:103590000FB60F9211242F933F934F935F936F9326
:1035A0007F938F939F93AF93BF93CF93DF93EF93CB
:1035B000FF93D091E900DF708091EC00C82FC170BB
:1035C00080FDC0E81092E9008091F000877F809331
:1035D000F00078940E9413181092E9008091F00096
:1035E00088608093F000CD2BCF70C093E900FF91ED
:1035F000EF91DF91CF91BF91AF919F918F917F918B
:103600006F915F914F913F912F910F900FBE0F904F
:103610001F901895109244050E94F6172FEF84E32F
:103620009CE0215080409040E1F700C0000088E11C
:103630009CE00FB6F894A895809360000FBE90931D
:103640006000FFCF662309F45DC08D3C41F40E9409
:10365000D30B8195809300040E94CF1708958E3C70
:1036600019F40E94D30BF6CF8F3C31F40E94D30B98
:1036700081958093FF03F0CF803D19F40E94D30B16
:10368000F8CF893D29F40E94B10B80930104E4CF67
:103690008A3D21F40E94B10B8195F7CF8B3D31F427
:1036A0000E94B10B819580930204D6CF8C3D19F412
:1036B0000E94B10BF8CF9FE2980F983070F4815DB3
:1036C000990B21E030E001C0220F8A95EAF7809142
:1036D000FE03822B8093FE03BFCF8D3D31F480919A
:1036E000F80381608093F803B7CF8E3D21F4809179
:1036F000F8038260F7CF8F3D09F0AECF8091F803D9
:103700008460F0CF4091FF038D3C59F48091000418
:1037100087FF0DC01092000441110BC01092F603F8
:1037200008C08E3C81F48091000418169CF3442359
:1037300081F08091010490910204892B09F08CCFD3
:103740001092F70389CF8F3C49F447FFF0CF1092D6
:10375000FF03809100048111ECCFE0CF803D19F48C
:103760001416ACF3E4CF90910104893D29F41916A5
:10377000F4F610920104DBCF8A3D19F497FFD7CFFE
:10378000F8CF909102048B3D29F497FFD0CF10928F
:103790000204CDCF8C3D19F41916CCF3C8CF9FE2AB
:1037A000980F983090F4815D990B21E030E0B901D9
:1037B00002C0660F771F8A95E2F7CB018095909142
:1037C000FE0389238093FE03B2CF8D3D31F48091B7
:1037D000F8038E7F8093F803AACF8E3D21F4809169
:1037E000F8038D7FF7CF8F3D09F0A1CF8091F803CB
:1037F0008B7FF0CF882379F19CEF980F913A78F482
:10380000EEEDF2E09191891303C0DF0111971C9254
:1038100042E0E43EF407B1F70E941C10089590E2E4
:10382000980F983088F4877021E030E0A90102C039
:10383000440F551F8A95E2F7CA018095909144057F
:10384000892380934405E8CF93E3980F933118F4CC
:1038500060E00E94221B08950F931F93CF93C82FFF
:10386000882341F18CEF8C0F813AB0F50EED12E018
:1038700084EE92E0F8012191C21701F18E179F07A3
:10388000D1F7EFEF80E0D8019D918D01C91781F04C
:10389000EF3F19F4911101C0E82F8F5F863099F73F
:1038A000EF3F31F00E2E000CFF0BE452FD4FC283B0
:1038B0000E941C10CF911F910F910895EEEDF2E040
:1038C0002191C21303C0DF0111971C928E179F072D
:1038D000B9F70E941C10D5CF80E28C0F883068F4B5
:1038E000C77021E030E001C0220FCA95EAF780914D
:1038F0004405822B80934405DBCF83E38C0F833117
:10390000C8F661E08C2F0E94221BD4CFB0E0A0E06B
:10391000ECE8FCE10C94DB2C8C01FC018481882315
:1039200009F474C021E040815181628173819581E5
:103930000E94490FEC01F8018581882309F485C2B2
:10394000CE019A9581159F4450F5CE0199279C018F
:10395000245031092432310518F08B970E9780F4EA
:10396000E0918A03F0E0EE0FFF1FE157FC4F8081EA
:1039700091818F3F2FE7920719F001969183808301
:10398000C03ED105A1F0C43ED10589F0CC32D105AD
:1039900089F481E08093E502109200010BC090E071
:1039A00080E0CF3FD10509F090F6CE01D0CF81E085
:1039B0008093E6020E94180A6093C2037093C303C7
:1039C0008093C4039093C503F801958191115CC065
:1039D000809144058272FE01E052F847E531F1051D
:1039E00008F098C0E35FF14D0C94682D1092E60248
:1039F000E1CF80915E0491E0892780935E0410926C
:103A0000540180915D04816080935D04CDB7DEB781
:103A1000E7E00C94F72C47ED5AE062EE7AE00E9462
:103A20003B0AF4CF42EE5AE067ED7AE0F8CF48EA7D
:103A30005AE063EB7AE0F3CF43EB5AE068EA7AE0CE
:103A4000EECF4CE85AE06AE97AE0E9CF4AE95AE079
:103A50006CE87AE0E4CF40E75AE06EE77AE0DFCF47
:103A60004EE75AE060E77AE0DACF44E45AE062E5F4
:103A70007AE0D5CF42E55AE064E47AE0D0CF61E065
:103A800081E00E94BE0AC2CFC130FCE7DF0709F423
:103A90003FC0C3302CE7D207A9F1C115DC4709F0BC
:103AA00039C0109244050E94F6174FEF54E38CE0A2
:103AB000415050408040E1F700C0000081E0809319
:103AC000E00080E28093D8001092C900EFE1FEE4AC
:103AD0003197F1F700C0000087E090EBDC018093A4
:103AE000A0079093A107A093A207B093A30788E132
:103AF0009CE00FB6F894A895809360000FBE909359
:103B00006000FFCF6FEF7FEF90E080E00E94FB2D21
:103B10000E940A1BF801C081D181992309F1CE01CD
:103B20000E942E0EF82E682FCE010E94A10EBE011B
:103B30008F2D0E940B0D0E942B0DC82FD82EF8013F
:103B40006581268122952F70892F82958F70E82EAE
:103B5000F12C8C30E8F5F701EE5DF14D0C94682DF9
:103B6000CE010E946F0EF82EE2CFD92FDF70907F2A
:103B700011F0D295D07F8C2F6623C9F0DD2369F038
:103B800090E29C0F983010F0C1110BC08091440559
:103B9000D82BD09344050E941C108C2F0E942C1C03
:103BA00017C080911E03D82BD0931E03F4CF0E9420
:103BB000FA1BDD2369F0D095C05EC83010F0D1103B
:103BC0001BC080914405D823D09344050E941C104B
:103BD000E8E0EE1AF108F4E0EF16F10410F40E94A8
:103BE000AE1120E0F80140815181628173818481AE
:103BF00095810E94490F0ACF80911E03D823D0934C
:103C00001E03E4CF892F8F70907F903211F0829540
:103C1000807FF1E0DF120CC0662329F02630C0F669
:103C20000E944E10D5CF253098F60E944310D0CF79
:103C3000662319F02223A1F3B0CF2223B1F3C933B5
:103C400049F42FEF37EE43E0215030404040E1F798
:103C500000C000008C2F0E94FA1BBACF8C2F0E944C
:103C6000221BB6CF892F837009F042C06111B0CFFB
:103C70008C2F829586958770880F880F2C2F2F7038
:103C800030E0082E02C0220F331F0A94E2F750E002
:103C900040E0C4FF09C04FE050E002C0440F551F90
:103CA0008A95E2F740955095969596959370923047
:103CB000A9F080F46091CC037091CD03913041F074
:103CC000C901842B952B862397230E94FD0E80CF5C
:103CD000262B372BC901842B952BF7CFC901842BB9
:103CE000952B2091CC033091CD0382279327EDCFE4
:103CF0008695662311F0892F8170882309F468CF97
:103D00008C2F829586958770880F880F2C2F2F70A7
:103D100030E0082E02C0220F331F0A94E2F750E071
:103D200040E0C4FF09C04FE050E002C0440F551FFF
:103D30008A95E2F7409550959695969593709230B6
:103D4000A9F080F46091CA037091CB03913041F0E7
:103D5000C901842B952B862397230E94D60E38CF3A
:103D6000262B372BC901842B952BF7CFC901842B28
:103D7000952B2091CA033091CB0382279327EDCF57
:103D8000D92FDF70662329F08D2F0E94ED0E8C2F26
:103D900047CF8C2F0E9443108D2F0E94DB0E18CF2F
:103DA0008C2F51EFC51791F15C1750F0E0EFCE1753
:103DB000D1F06623D1F12111F0CE892F8F712AC065
:103DC000F2EFCF1751F133EFC313F3CF662351F165
:103DD0009F7121E030E0A90102C0440F551F9A9560
:103DE000E2F7CA01BACF662369F0253008F0F0CEB9
:103DF000292F2F7181E090E002C0880F991F2A952A
:103E0000E2F7B7CF263008F0E3CEF2CF892F8F71DB
:103E1000662319F20E94ED0EDBCE892F8F71662387
:103E2000C9F3BBCF90E080E098CF222359F08933CB
:103E300009F010CF5FEF87EE93E051508040904043
:103E4000E1F706CF892F8F71A8CFC03ED10509F4C5
:103E5000CDCDC43ED10509F4C9CDCC32D10509F090
:103E6000A9CD1092E502A6CDCF93DF9380911503E3
:103E7000807F09F04DC080911403882309F448C065
:103E8000E091940550915B05C0911003D0910F0310
:103E9000609111037091120347E05E17C9F18E2FF4
:103EA00090E0E49FF0011124E45AFA4F2481222388
:103EB00091F1489FF001499FF00D1124DF01A45AB0
:103EC000BA4F11962C9111972C1325C02C912D13BC
:103ED00022C015962C91159721111DC012962D9177
:103EE0003C91261B370B283C3105A8F48091150323
:103EF0008F70806180931503EE59FA4F80818F7027
:103F0000806180838FE093E00E94861C0E94240ED3
:103F1000DF91CF910895FC013196E770BECFA4E107
:103F2000B0E0E5E9FFE10C94D62C8C0186E0F801C5
:103F3000DE011F9601900D928A95E1F7F8018481C8
:103F4000E5809FE0A92E93E0B92E90911303911183
:103F500028C0882319F1EE20F1F0C8010E94020F59
:103F6000F82E8823C1F087E0F801D50101900D9269
:103F70008A95E1F780911303813031F480910F032A
:103F8000909110030E94620E0E94341F8F2D649640
:103F9000ECE00C94F22CC8010E94861CFF24F394E0
:103FA000F5CFD080C18082809380F090140320915F
:103FB000110330911203A401421B530BFF2009F49B
:103FC000D9C0483C510508F092C08823F9F290917D
:103FD000100380911503282F207F09F056C0C912C5
:103FE00014C090910F03D91210C0E11048C08F7017
:103FF0008061809315038FE093E00E94861C80917E
:104000001503F8018683F12CC1CFE11038C06C2D67
:104010008D2D0E9468086C2D8D2D0E946808E82E59
:104020008111F1CFDF86C88A8F8598890E94620E40
:10403000292F22952F70243058F49F70223088F059
:10404000992399F0F8019681907F79F4FE2C9ECF08
:104050002A5F2F70223068F0C8010E94861CEF2C66
:10406000F5CF992311F0882389F3805E883070F3AF
:10407000F3CF803F58F3815F833070F7E7CF8091B3
:104080001503816080931503BECFC91207C09091BC
:104090000F03D91203C0EE2009F48DC0C8010E949D
:1040A000020F882309F477CFEE2009F474CF8091B2
:1040B0001503803288F020910F0330911003398767
:1040C00028879B868A86909113039C871D868E87FE
:1040D000CE0108960E94861C87E0F801AFE0B3E0AD
:1040E00001900D928A95E1F70E94341F57CF90916D
:1040F0001503292F207F51F48FE093E00E94861C46
:1041000087E0F50111928A95E9F77DCF882309F4BC
:104110003DCF809110038C1110C080910F03D812F5
:104120000CC0E1100AC09683C8010E94861C87E07B
:10413000F50111928A95E9F729CFC8010E94020F73
:10414000882309F428CFEE2009F425CF80911503A8
:10415000803210F220910F03309110033A832983AB
:104160009C828B82909113039D831E828F83CE014C
:104170000196B0CF483C5105D0F6882309F40ECF04
:10418000FE2CEE2009F407CF809110038C1120C083
:1041900080910F03D8121CC08091150380FD0FC0C1
:1041A000982F907F61F08683903F31F0982F907F19
:1041B000905F8F70892B8683C8010E94861C87E0E0
:1041C000F801AFE0B3E001900D928A95E1F7DECE01
:1041D000C8010E94020F81117FCF80911503816079
:1041E00080931503C8010E94861CD0CEABE1B0E0DD
:1041F000ECEFF0E20C94DE2C4E8B5F8B688F798FA6
:104200008A8F9B8F192F911110921E031D8A86E0B1
:10421000FE017696DE011F9601900D928A95E1F7D8
:104220000A8D002341F021E04F85588969897A89F8
:10423000C8010E94490F0B8B1C8B87E0FE013F9643
:10424000DE01189601900D928A95E1F7CE0108964D
:104250000E948F1F81110CC087E0FE013896DE019D
:10426000119601900D928A95E1F78C8581110BC012
:1042700017E08091940590915B05891333C06B968C
:10428000E4E00C94FA2C20915B0530E0C901019622
:1042900087709927409194054817190699F097E07F
:1042A000929FD001939FB00D1124A45ABA4FFE01E2
:1042B000319601900D929A95E1F780935B050E94EB
:1042C000240ED6CF109244050E94F61710925B057B
:1042D0001092940587E0EFE0F3E0DF011D928A95EC
:1042E000E9F7C6CF819FC0011124845A9A4F0E94DA
:1042F0008F1F882321F28091940590E001968770AA
:10430000992780939405B5CFAFE0B0E0EAE8F1E2F9
:104310000C94D52C8E010F5F1F4F8AE0D8011D929F
:104320008A95E9F789E3C82E81E0D82EF12CE12C9B
:10433000AA24A394B12C29E3822E21E0922EF60127
:1043400081916F018F3F09F442C0F894E82FE29504
:10435000EF70F0E021A18F70A50102C0440F551F3E
:104360008A95E2F7CA01922F982B91A392A180958A
:10437000892382A3789400C0E1E3F1E0712C31E05D
:1043800021912F3F09F46BC0A22FA295AF70B0E02E
:1043900090968C9190E02F7002C0959587952A9504
:1043A000E2F780FD5CC0832F782A330F8E169F06BC
:1043B00039F7F601319780818F3F11F00E94030C8D
:1043C00050EA5A95F1F7F801EE0DFF1D70828FEF5C
:1043D000E81AF80AA5E0EA16F10409F0B0CF4AE0BD
:1043E00050E0B80181E693E00E94992D009741F0DA
:1043F0002AE0F801A1E6B3E001900D922A95E1F7D9
:1044000000916C03892B69F181E0809323030E9462
:10441000C3179093220380932103809121039091ED
:1044200022030E94B417059700F110E001591C4FB8
:1044300045E050E061E673E0C8010E94992DD12C5F
:10444000892B51F085E0E1E6F3E0D80101900D926F
:104450008A95E1F7DD24D3941092230307C080E00E
:10446000A3CF809123038111D8CFD12C0E94891131
:10447000C82EE0916C03882309F47FC07E01BBE065
:10448000EB0EF11C85E0D7011D928A95E9F70E2FFE
:1044900010E001591C4F80915C038A30D8F547EB3E
:1044A00055E1B701C8010E945611882309F454C090
:1044B0004EE655E1B701C8010E945611882309F460
:1044C0004BC04BE355E1B701C8010E945611882348
:1044D00009F442C041E155E1B701C8010E945611FB
:1044E0008823D1F110925C0380916B0390E045E04A
:1044F00050E0B70181599C4F0E94992D21E02093F3
:104500002A03892BE1F4C12C8C2D8D292F96EDE007
:104510000C94F12C80912403909125030E94B417F0
:10452000843F914008F0BBCF80912A03882359F340
:1045300085E0F70111928A95E9F710922A03A0917C
:104540006B03B0E0A159BC4F85E0FE013B960190A2
:104550000D928A95E1F7D8CF80915C038F3F31F0BF
:104560008F5F80935C038A3008F4BECF0E94C3172C
:104570009093250380932403D7CFF0E0E159FC4FBB
:1045800085E0A6E3B3E001900D928A95E1F786E31A
:1045900093E00E9487088093350380903B039090BE
:1045A0003C03A0903D03B0903E0380912603909180
:1045B0002703A0912803B091290388169906AA061B
:1045C000BB06D1F08092260390922703A092280385
:1045D000B09229030E94891181110EC00E94180A0D
:1045E000861A970AA80AB90A80925D0390925E0320
:1045F000A0925F03B092600380913F0390914003CB
:104600009093CB038093CA0380914103909142031E
:104610009093CD038093CC0388E0E3E4F3E0AEE530
:10462000B4E095CFA6E0B0E0E8E1F3E20C94DE2C34
:104630000E94C3178C0180911F0390912003801763
:10464000910781F019821A820E94C317682F49814D
:104650005A81792F80E090E00E94F6201093200389
:1046600000931F032696E4E00C94FA2C1F921FB6C9
:104670001F9211248F939F93AF93BF9380913E0518
:10468000811113C080913F0590914005A091410593
:10469000B09142054196A11DB11D80933F059093B5
:1046A0004005A0934105B0934205BF91AF919F9102
:1046B0008F911F901FBE1F901895CDB7DEB76897DA
:1046C0000FB6F894DEBF0FBECDBF85B7806885BF3B
:1046D00085B7806885BF84B7877F84BF0FB6F8949D
:1046E000A8958091600088618093600010926000BE
:1046F0000FBE80E890E00FB6F8948093610090932D
:1047000061000FBE81E09CE09093DB028093DA02AF
:104710000E949E080E943F098091E200846080937D
:10472000E2007894809151058823A1F01091E9006E
:104730001F709091EC00892F817090FD80E8182BFC
:104740001092E9008091E80083FD0E9413181F7009
:104750001093E90082E084BD93E095BD9AEF97BD88
:1047600080936E0010925D0310925E0310925F03BF
:104770001092600390E080E00E94C72D863E9E4F1D
:1047800011F00E9449160E94611280933E010E941E
:10479000891181110E945A2B80913E0181112CC0F8
:1047A00085E0E9E5F1E0DE01199601900D928A9528
:1047B000E1F78985809339018A8580933A018B8559
:1047C00080933B018C8580933C018D8580933D01D6
:1047D00088E0EEE5F1E0DE01119601900D928A95F8
:1047E000E1F7FE013196A1E3B1E0CE0109962191F6
:1047F0002D938E179F07D9F780913E0195E0811187
:1048000090E090936C0385E0891B80936B0309E330
:1048100011E05EE3E52E51E0F52ED8018D918D017A
:104820008F3F11F00E94030CE016F106B1F701E38F
:1048300011E049E3E42E41E0F42EF80181918F016B
:104840008F3F11F00E94030CE016F106B1F78AE0E9
:10485000EFE6F3E0DF01382E1D923A94E9F7E1E646
:10486000F3E0DF011D928A95E9F790E080E00E9475
:10487000C72D863E9E4F11F00E94491682E090E0BF
:104880000E94BF2D8093790384E090E00E94C72DA1
:1048900090936E0380936D0383E090E00E94BF2DA0
:1048A00090E00E94FD0E0E94410A109230048FEFAA
:1048B0009FEF90934A048093490490934C04809313
:1048C0004B0490934E0480934D0490935004809336
:1048D0004F04909352048093510490935404809316
:1048E00053049093560480935504909358048093F6
:1048F00057041092030490931D0480931C0490931A
:104900001F0480931E0490932104809320049093AD
:10491000230480932204909325048093240490938D
:10492000270480932604909329048093280490936D
:104930002B0480932A0490E080E00E94C72D863EDD
:104940009E4F21F00E9449160E94461281E08093FA
:104950005D0448E050E068E170E08EE594E00E947C
:10496000AF2D10925D0480915E048C7F11F40E9443
:1049700046120E948911882309F40BC183E08093B9
:10498000F10380FD08C180E8809395050E94142AF8
:104990006BE070E083E498E00E94D9118823E9F18C
:1049A0008091F10365E070E081FDF7C08EE398E04F
:1049B0000E94D911882389F16DE070E08CE298E0C3
:1049C0000E94D911882349F10E94180A605A754142
:1049D0008F4F9F4F6093360570933705809338054E
:1049E00090933905EEE9F5E080E092E0DF019C016B
:1049F0001D9221503040E1F7F0939F07E0939E070E
:104A00008FEF9FEF90939D0580939C0581E08093AD
:104A10003B0580933A051092F2030E94891181119F
:104A200002C00E945D2B20E04CE36AEF84E890E036
:104A30000E94600A60E082E00E94BE0A8FE391E07B
:104A400090933D0580933C058091510530E4F32E11
:104A500000E112E1853009F4DEC00E9484212AE7DA
:104A6000222E23E0322EEFE6F3E0FE8BED8B24E8DE
:104A700033E0DF01F10191918D912E173F0709F489
:104A8000D6C09817C1F30E948911888F9AEBA92E7E
:104A900091E0B92EE12CAD89BE899D90BE8BAD8B86
:104AA000F10161901F01691409F4E4C16924250131
:104AB000812C77247394872D862109F4D0C1F72C9B
:104AC000F920F88DFF23A1F08F86E88A0E94C31792
:104AD0009A8B898B21E02B8B91E0F11001C090E043
:104AE0009C8B4F85588969897A898B890E94F62029
:104AF000FF2041F0D2018C91F12C8F3F19F08F8B68
:104B0000FF24F3940F2D10E080910304800F912F68
:104B1000911D09976CF1A8E0CA2ED12CC01AD10AB8
:104B2000B8016C5F7B4FA60184E094E00E94A62D43
:104B3000B801645F7B4FA6018CE094E00E94A62D33
:104B4000A601440F551FB801660F771F645E7B4FA7
:104B50008CE194E00E94A62DB8016C5E7B4FA6010B
:104B600084E194E00E94A62D88E08F1980930304CD
:104B70008091030490E0EF89AE2FB0E09D01220FF9
:104B8000331F265F3D4FAA0FBB1FBD01655F7D4FE1
:104B900060C180E0F4CE80E2F7CE89E398E008CFF0
:104BA00080915105843039F10E94A3120E940312B2
:104BB00010923E0588E190E00FB6F894A895809396
:104BC00060000FBEF092600083B7817F846083BF76
:104BD00083B7816083BF7894889583B78E7F83BFC6
:104BE0000FB6F894A895809160008861809360006A
:104BF000109260000FBE80915005882361F00E94E2
:104C00008421EFE6F3E081918111E7C3A9E7B3E0E6
:104C1000AE17BF07C1F780915105853009F4C0CFA9
:104C2000109244050E94F6170E94AE1116CF9813F9
:104C30002ACF0E941223D12C0E948911882309F4C3
:104C4000B0C080908F0390909003092C000CAA08AC
:104C5000BB0810914701212F30E0EFE8F3E081E03D
:104C600090E03296281739070CF010C160918B0341
:104C700070918C0380918D0390918E030E94FC09AA
:104C80002B013C0189EC481651046104710414F1B4
:104C900080918A0390E0019669E170E00E94132DF3
:104CA00080938A03880F991FFC01E157FC4F118202
:104CB0001082812F183108F087E18F5F80934701C0
:104CC0000E94180A60938B0370938C0380938D036A
:104CD00090938E0392E089169104A104B1040CF420
:104CE000E1C0A0E6BAEEA50194010E946E2D4B0131
:104CF0005C01A8EC1A9F90011124032E000C440BB8
:104D0000550B240D351D461D571DA5E0B0E00E9432
:104D10006E2D9B01AC01C501B4010E94272D4901F4
:104D20005A01B1EF8B169104A104B1042CF050EF9D
:104D3000852E912CA12CB12C609186037091870354
:104D400080918803909189030E94FC092B013C010A
:104D5000E5E64E1651046104710484F00E94180ABD
:104D600060938603709387038093880390938903ED
:104D70008091C10380938503809284031091850301
:104D8000A0918403A11BBB0BA30192010E94792D6A
:104D900024E630E040E050E00E94492D120F1093CD
:104DA000C1030E94A31280913B05882309F40BC123
:104DB0008091F3039091F4030E94B417C29708F412
:104DC000E2C00E94C3179093F4038093F30360E062
:104DD00080E00E94240A0E948911882309F410C2ED
:104DE0008091C10390E09093D0038093CF030E9401
:104DF000AE118093CE0360E080E00E94240A80918F
:104E0000CC039091CD030E94250F813009F472C02C
:104E1000882309F44BC0823009F46FC0833009F451
:104E20006FC081E891E044C090E0FC01ED5FFB4F72
:104E3000D9015C915183DB015C915187BF89B18BB2
:104E4000880F991FFC01ED5FFB4F128E118E91E0D0
:104E5000842F41E0480F9F1538F380930304839417
:104E6000770CFFEF4F1A5F0A28E0821224CEF1017F
:104E700031979082E39438E0A30EB11C5AE0E5121A
:104E80000ACE0E94BF11DD24D394D6CE4081518139
:104E9000052E000C660B770B840E951EA61EB71E02
:104EA0000196DFCE812C912C540146CF8CE691E007
:104EB0000E94581062E080E00E94240A87E891E096
:104EC0000E94581063E080E00E94240A8091CA0387
:104ED0009091CB030E94250F813009F456C188239D
:104EE00091F0823009F454C1833009F454C189EA45
:104EF00091E00BC082E791E0DBCF87E791E0D8CF6C
:104F00008DE791E0D5CF8DE891E00E945810CE0159
:104F10004C969E878D871A8619868CE090E09C8738
:104F20008B878091CF039091D003892B09F436C1F0
:104F30000E941E126091C6037091C7038091C8033E
:104F40009091C9030E94FC096D3271408105910561
:104F500080F00E94180A6093C6037093C703809381
:104F6000C8039093C9039E01275F3F4F19010E9418
:104F700070100E94180A6093C2037093C303809359
:104F8000C4039093C50380919C0590919D05892B46
:104F900009F044C180913A058823A9F00E94180ABB
:104FA000009136051091370520913805309139056B
:104FB000601B710B820B930B6F3F7F4F8F4F9F478F
:104FC00010F40E940312D1100E941E1286E0EDEF31
:104FD000F3E0DE01119601900D928A95E1F7C09001
:104FE000FE030091FF03F0900004E0900104109193
:104FF00002041092FF031092000410920104109218
:105000000204802F8F2909F445C08091FB03909101
:10501000FC030E94B4179C019091F603992309F4B4
:10502000FEC125313105B0F19F3F19F09F5F90938C
:10503000F603002359F00E94D30B9FEF10160CF4D7
:1050400091E0899F802D11248093FF03FF2059F068
:105050000E94D30B91E01F140CF09FEF899F802DCD
:105060001124809300048091FF03882399F0D0904D
:105070000004DD2079F00E94F30B882309F4A5C118
:105080008093FF038D2D0E94F30B882309F49FC1A9
:1050900080930004812F8E2909F445C08091F90383
:1050A0009091FA030E94B4179C019091F703992301
:1050B00009F4B0C121353105B0F19F3F19F09F5F70
:1050C0009093F703EE2059F00E94B10B9FEF1E144E
:1050D0000CF491E0899F802D112480930104112309
:1050E00059F00E94B10B91E011160CF09FEF899FCF
:1050F000802D11248093020480910104882399F06B
:10510000E0900204EE2079F00E94F30B882309F46A
:1051100060C1809301048E2D0E94F30B882309F453
:105120005AC1809302048091FE03C81217C0809177
:10513000FF03882311F0081311C0209100042223DB
:1051400011F02F110BC090910204992311F0191343
:1051500005C030910104332309F457C10E94CF17D1
:1051600086E0FE013196ADEFB3E001900D928A9595
:10517000E1F70E94AE119091F503891709F464CC10
:105180008093F5030E94180A5FCC84E991E0BDCEBC
:105190008BE991E0BACE82EA91E0B7CE6091C2038A
:1051A0007091C3038091C4039091C5030E94FC09D0
:1051B00061367A4E8105910518F00E940312E3CE04
:1051C0006091C6037091C7038091C8039091C90391
:1051D0000E94FC096D3271408105910508F4D3CE1F
:1051E0000E94180A6093C6037093C7038093C80394
:1051F0009093C903CE0109961C010E947010C3CE82
:10520000EEE4F8E084918F01882309F4BCCE0E947B
:105210006E0F0F5F1F4FF8018491F6CF80913B0511
:10522000882309F4B7CE8091F2038111B3CE0E9496
:105230001E1220919C0530919D052115310509F420
:10524000A9CE80E041E050E0082F10E07A01082E5E
:1052500002C0EE0CFF1C0A94E2F7B701622373232D
:10526000672B11F48F5FF0CF9091F10390FF94C002
:10527000880F880F880F80934A0110924D01895F33
:1052800080934B0183E080934E0124E630E047E0B9
:1052900050E068E471E088E70E94B42A892B09F0A5
:1052A00079CEA80125E0440F551F2A95E1F780919A
:1052B000F10380FF83C0E1EDF3E080E2DF011D92A6
:1052C0008A95E9F706EB11E082EBA82E81E0B82E73
:1052D00097E0992E88248394D801ED918D01D50112
:1052E0006D915D01640F752F711D62567A4FF0E06C
:1052F000EF52FC4F30E020E0692C621AC82C022EDD
:1053000001C0CC0C0A94EAF72B0190E0D2018D91F8
:105310002D018C21A62DA91BA7707A2E0A2E000C18
:10532000BB0B382E01C0330C7A94EAF7732CB1957D
:10533000A195B109A770BB2701C08695AA95EAF788
:10534000782A8081782A70829F5F9830F9F62F5FE3
:105350003F4F31962830310579F621E00A3B12079C
:1053600009F0BACF04E610E020E230E041ED53E06E
:1053700060E488E70E94D52A892B09F00BCEE094DF
:10538000F09480919C0590919D05E822F922F0927D
:105390009D05E0929C05FECD8295880F80768093D6
:1053A0004A019801369527953695279520934D010A
:1053B000815E80934B0120934E0167CF42565A4F36
:1053C00004E610E020E230E0D3CF81E059CE81E066
:1053D0005FCE81E09ECE81E0A4CE09BD19BD09B4A7
:1053E00000FEFDCF8091D8008F7D8093D800809102
:1053F000E00082608093E0008091E00081FDFCCFBE
:10540000109244050E94F61706CC822B892B09F4D2
:10541000A7CEA4CE2B30310508F051CE84CE2B3050
:10542000310508F003CE36CE1092B9008CE080939F
:10543000B8000895B0E0A0E0E0E2FAE20C94D72CC6
:10544000B82EEB010E94C3176C01EE24E394F12CFB
:10545000C431D10560F025E0E22EF12CCF3FDC070E
:1054600031F0CE0164E170E00E94BC2C7B0184EA43
:10547000A82E94E8992E1092BC00A092BC000E9425
:10548000C3178C018091BC0087FF0DC08091B900CB
:10549000887F8830F9F08091B900887F8031D1F021
:1054A0000FEF1FEF08C0C8010E94B417E816F906F5
:1054B00048F70EEF1FEFCF3FDC07E9F2C6010E946D
:1054C000B417C817D907B8F6C801CDB7DEB7EBE0F7
:1054D0000C94F32CB092BB009092BC000E94C317B6
:1054E0008C018091BC0087FF0AC08091B900887F41
:1054F000883111F08034A1F610E000E0E5CFC8015A
:105500000E94B417E816F90660F7D3CF0F931F93E4
:10551000CF93DF93EB018093BB0084E88093BC00C2
:105520000E94C3178C018091BC0087FF11C020919D
:10553000B900287F81E090E0283211F490E080E00B
:10554000919581959109DF91CF911F910F910895C8
:10555000CF3FDC0741F3C8010E94B417C817D90731
:1055600010F78EEF9FEFEFCFB0E0A0E0EAEBFAE2AA
:105570000C94DA2C6B018A017901B9010E941A2A74
:10558000E6010C0D1D1DC017D10711F097FF08C0D3
:1055900024E92093BC00CDB7DEB7E8E00C94F62CEC
:1055A000B70189910E94862AEECFB0E0A0E0EBED32
:1055B000FAE20C94DA2CC62F6A017901B8010E9434
:1055C0001A2A97FD0CC0B8018C2F0E94862AE6018A
:1055D000EC0CFD1CCE15DF0511F097FF08C024E987
:1055E0002093BC00CDB7DEB7E8E00C94F62CB801F0
:1055F00089910E94862AEECF84E98093BC000895A9
:105600008EE14A9B02C08150E1F74A9BFECF08958C
:105610005A9880E28A95F1F75A9A0895FC013BE086
:105620003A95F1F798E020E080E031E040E14A95DA
:10563000F1F7880F4A9B02C08160232742E04A9518
:10564000F1F7000040E14A95F1F7915079F790E1C8
:105650009A95F1F799B132E03A95F1F7000040E1FF
:105660004A95F1F792FB992790F992272081920FA2
:1056700090830895A1E0B0E0E0E4FBE20C94DC2C20
:1056800019828C017C01E60EF11C0E151F0541F4F8
:1056900081E09981911180E02196E6E00C94F82C4C
:1056A0000E94002BCE0101960E940E2BF8018193DF
:1056B0008F01EBCF529A5A9A089552985A9AEA9AC1
:1056C000E9E6F0E080818F7C808308956150770B5C
:1056D00091E001C0990F6A95EAF720E031E091115D
:1056E00008C0222391F05A9A80E28A95F1F75A98DD
:1056F0000895492F482339F05A9A232740E24A95C2
:10570000F1F79695ECCF5A98F9CF5A98EDCFFF92D2
:105710000F931F93CF93DF93EC018C01060F111DA4
:10572000C017D10729F4CDB7DEB7E5E00C94F92C0A
:10573000F9900E94082B68E08F2D0E94662BF0CF15
:105740001F920F920FB60F9211240F931F932F9356
:105750003F934F935F936F937F938F939F93AF93F9
:10576000BF93EF93FF93CF93DF930F92CDB7DEB745
:1057700019820E94002BCE0101960E940E2B082F49
:10578000069506950695282F22952570902F9570E1
:10579000290F922F937026952695920F9827977030
:1057A0008981982B09F05CC0073008F059C080E16E
:1057B0008A95F1F75A9A529A82E08A95F1F700C0D9
:1057C0005A9888E0089F80011124D801AF5FBE4F2E
:1057D0001696ED91FC9117973097A9F06091B00162
:1057E0007091B10114962D913C911597260F371F9A
:1057F00011968D919C911297680F791F13964C9179
:1058000013978C910995F801EF5FFE4F6381662332
:1058100051F02091B0013091B10184819581820FC6
:10582000931F0E94872B0E94082B80E18A95F1F735
:105830005A9852985A9A80E18A95F1F7F801EF5FE9
:10584000FE4F6081662351F02091B0013091B1018B
:1058500081819281820F931F0E943A2B0E94002B1C
:105860000F90DF91CF91FF91EF91BF91AF919F91F9
:105870008F917F916F915F914F913F912F911F91E8
:105880000F910F900FBE0F901F9018950F931F93BD
:10589000CF93DF93EC0107970CF04CC0F894529A29
:1058A0005A9885E08A95F1F700009C2F969595709F
:1058B0008C2F8570980F892F83709695969523E08D
:1058C000CC0FDD1F2A95E1F7980F8E01092B0E945E
:1058D000082B00C068E0802F0E94662B80E18A952B
:1058E000F1F752985A9A4A9B1EC087E090E04A9975
:1058F0001CC0FE01EF5FFE4F63816623F9F020912B
:10590000B0013091B10184819581820F931F0E9473
:105910003A2B811113C0529A5A9A7894DF91CF9101
:105920001F910F91089500C0DECF019729F4529A7C
:105930005A9A789480E0F2CF00C0D9CF0E94002B11
:1059400080E28A95F1F75A98529A80E18A95F1F7A8
:10595000CF5FDE4F6881662351F02091B001309116
:10596000B10189819A81820F931F0E94872B0E9427
:10597000082B789481E0D2CFAA1BBB1B51E107C052
:10598000AA1FBB1FA617B70710F0A61BB70B881FCF
:10599000991F5A95A9F780959095BC01CD0108955E
:1059A0002F923F924F925F926F927F928F929F922F
:1059B000AF92BF92CF92DF92EF92FF920F931F931D
:1059C000CF93DF93CDB7DEB7CA1BDB0B0FB6F894CE
:1059D000DEBF0FBECDBF09942A88398848885F840E
:1059E0006E847D848C849B84AA84B984C884DF807F
:1059F000EE80FD800C811B81AA81B981CE0FD11D63
:105A00000FB6F894DEBF0FBECDBFED010895991B10
:105A100079E004C0991F961708F0961B881F7A95A5
:105A2000C9F78095089597FB072E16F4009407D0C8
:105A300077FD09D00E94BC2C07FC05D03EF4909560
:105A400081959F4F0895709561957F4F0895A1E2CC
:105A50001A2EAA1BBB1BFD010DC0AA1FBB1FEE1FE8
:105A6000FF1FA217B307E407F50720F0A21BB30B33
:105A7000E40BF50B661F771F881F991F1A9469F7AF
:105A800060957095809590959B01AC01BD01CF010B
:105A90000895052E97FB1EF400940E94602D57FD7B
:105AA00007D00E94272D07FC03D04EF40C94602DE4
:105AB00050954095309521953F4F4F4F5F4F08953A
:105AC00090958095709561957F4F8F4F9F4F08956A
:105AD000EE0FFF1F0590F491E02D09940E94812D97
