:100000000C9461080C9499080C9499080C94D52FC1
:100010000C9499080C9499080C9499080C949908DC
:100020000C9499080C9499080C94B9170C94D51B4E
:100030000C948A250C9499080C9499080C949908AE
:100040000C9499080C9499080C9499080C949908AC
:100050000C9499080C9492180C9499080C94990893
:100060000C9499080C9499080C9499080C9499088C
:100070000C9499080C9499080C9499080C9499087C
:100080000C9499080C9499080C9499080C9499086C
:100090000C9499080C9499080C9499080C9499085C
:1000A0000C9499080C9499080C949908050109027C
:1000B000A10185020901A1000509190129081500FE
:1000C0002501950875018102050109300931158165
:1000D000257F95027508810609381581257F9501D0
:1000E00075088106050C0A38021581257F95017572
:1000F000088106C0C00660FF0961A1010962150000
:1001000026FF009520750881020963150026FF006F
:10011000952075089102C005010906A1010507197E
:10012000E029E71500250195087501810295017503
:100130000881010507190029FF150026FF00950613
:1001400075088100050819012905950575019102B9
:10015000950175039101C0000000808080000000BF
:10016000000000000000000000000000000000008F
:10017000000000000000007CC711F80E0300000022
:100180000000000000000000C0601C060890101075
:1001900008841E30C00000E0371C00030202010387
:1001A00002060C08080C040701000000000100080A
:1001B00000C120100805021F1030E080838E88984F
:1001C00090B0D03020202027283820C38488B0C0A9
:1001D0008FF10000000000F88C04FC00000000001B
:1001E000000000000000000000000000000000000F
:1001F00000000000000000001FF0033EC0808040AF
:10020000C080800000000000C0601C060890101034
:1002100008841E30C0000000F80D070000C08000F8
:10022000000001030A0C040701000000000100089F
:1002300000C12010080502000F38E0808080819FF7
:1002400090B0D03020202027283820C38488B0C028
:100250008FF100000000000000000000000000001E
:1002600000000000000080701820404040201078FE
:10027000C0000000000000000000000000000000BE
:10028000000000809CE7010000000600200006003E
:1002900040A31408000000000000F00CE21209095D
:1002A00013FE0F0100002020C0000000000000002D
:1002B000F01E0100000000000000070C3923664416
:1002C000484F702020604040474C7820604E48786E
:1002D000677C00000000000000000000000000003B
:1002E000000000000000807018204040402010787E
:1002F000C0000000000000000000C0602020C0001E
:10030000000000809CE701000000060020000600BD
:1003100040A3140800000000001FE100FE030100DC
:1003200000F80F0100002020C000000000000000C5
:10033000F01E0100000000000000070C3923664495
:10034000484F702020604040474C7820604E4878ED
:10035000677C00000000000000000000000000803A
:1003600080808080000000000000C06080000000ED
:100370008040E00000000000C0380C0203010101D1
:100380000000080931E1010161C201000011118181
:10039000001011038C5020000718102040C0983026
:1003A00020202040406724BCB0A0B0501008181096
:1003B0001010161D000000000000000000000101E8
:1003C0000101010101010101000000000000000025
:1003D000000000000000000000000000000000809D
:1003E00080808080000000000000C060800000006D
:1003F0008040E00000000000C0380C020301010151
:100400000000080931E1010161C201000011118100
:10041000001011038C502000071830206080183025
:1004200040C040C08087845C7020101010081810F5
:100430001010161D00000000000000000000010662
:100440003840433C000000000000000000000000B5
:10045000000000000000000000008080800000001C
:10046000000000000000000000000000000000008C
:10047000000000000000007CC711F80E030000001F
:100480000000000000000000C0601C060890101072
:1004900008841E30C00000E0371C00030202010384
:1004A00002060C08080C0407010000000001000807
:1004B00000C120100805021F1030E080838E88984C
:1004C00090B0D03020202027283820C38488B0C0A6
:1004D0008FF10000000000F88C04FC000000000018
:1004E000000000000000000000000000000000000C
:1004F00000000000000000001FF0033EC0808040AC
:10050000C080800000000000C0601C060890101031
:1005100008841E30C0000000F80D070000C08000F5
:10052000000001030A0C040701000000000100089C
:1005300000C12010080502000F38E0808080819FF4
:1005400090B0D03020202027283820C38488B0C025
:100550008FF1000000000000C02010D0300000002B
:10056000000000008080403C14040890180408B08B
:1005700040800000000000000304081011F9010190
:10058000010101010000000000000080C848282A85
:10059000100F000000000000000000000000010239
:1005A0000C102028370202040810262B32040506FE
:1005B000000000000000000000000000000000003B
:1005C000000000000000000000000000000000002B
:1005D0000000000000000000E01010F0000000002B
:1005E00000000000808040402C140408901804088B
:1005F000B0408000000000000304081011F9010160
:1006000001010101000000000000000080C0482836
:100610002A100F204A09100000000000000001020B
:100620000C102028370202040810262B320405067D
:1006300000000000000000000000000000000000BA
:1006400000000000000000000000000000000000AA
:10065000000000000000000000000000000000009A
:10066000000000000000000000000000000000008A
:1006700000000000000000000000007E0F00D4FF1A
:10068000FFFFC70000007800000000000000002A03
:100690002B28000000000000000000000000000007
:1006A000000029000000002C1E34202122243426C2
:1006B00027252E362D3738271E1F202122232425BB
:1006C000263333362E37381F0405060708090A0B70
:1006D0000C0D0E0F101112131415161718191A1BE2
:1006E0001C1D2F3130232D350405060708090A0B80
:1006F0000C0D0E0F101112131415161718191A1BC2
:100700001C1D2F3130354C00DA0281FFD9F1DB207E
:10071000A4A62EAF00A0C000A1C800AED580A81F1F
:10072000D300408D14200080818283848586878851
:10073000898A8B8C8D8E8F9091929394A0A1A2A385
:10074000A4A5A6A7A8A9AAABACADAEAFB0B1B2B3F1
:10075000B4C0C1C2C3C4C5C6C7C8C9CACBCCCDCE3C
:10076000CFD0D1D2D3D40000010101010101010198
:100770000102020202020202020203030303030354
:100780000303040404040404040505050505060622
:1007900006060607070707070808080809090909E0
:1007A0000A0A0A0B0B0B0C0C0C0D0D0D0E0E0E0F86
:1007B0000F0F101011111112121313141415151616
:1007C000161717181819191A1A1B1B1C1D1D1E1E87
:1007D0001F202021222223242425262627282929D8
:1007E0002A2B2C2D2D2E2F30313232333435363703
:1007F00038393A3B3C3D3E3F404142434445464701
:1008000048494A4C4D4E4F50515354555658595AD9
:100810005B5D5E5F616264656668696B6C6D6F707D
:1008200072737577787A7B7D7E8082838587888AEC
:100830008C8E8F91939596989A9C9EA0A2A3A5A723
:10084000A9ABADAFB1B3B5B7BABCBEC0C2C4C6C91F
:10085000CBCDCFD1D4D6D8DBDDDFE2E4E7E9EBEED8
:10086000F0F3F5F8FAFDFF00AF00AE29001E001FFF
:1008700000200021002200230000002B0014001A99
:10088000000800150017001C000000E0000400161E
:1008900000070009000A0000000000E1001D001B25
:1008A0000006001900050000000000E0002152E2EF
:1008B00000E30022522C00000000002A002E002D30
:1008C0000027002600250024000000310030002F02
:1008D00000130012000C0018001C00280034003324
:1008E000000F000E000D000B000000350052003814
:1008F00000370036001000110005004F0051005075
:10090000002352E7004C002800000001003A003BA1
:10091000003C003D003E003F0000000100010001DE
:1009200000010001000100010000000100010001C0
:1009300000010001000100000000000100010001B1
:1009400000010001000100000000000100010001A1
:10095000000100010001000000000001004500440A
:10096000004300420041004000000001000100017E
:10097000000100010001000100010001000100016F
:100980000001000100010001000000010001000160
:10099000000100010001000100010001000100014F
:1009A0000001000100010001000000010001000140
:1009B0000001000100010001000000010001000130
:1009C0000001000100010001000000010001000120
:1009D0000001000100010000000000010001000111
:1009E0000001000100010000000000010001000101
:1009F00000010001000100000000000100010001F1
:100A000000010001000100010000000100010001DF
:100A10000001000100010001000100DA00D300D94B
:100A20000001000100010001000000D200CD00D152
:100A30000001000100010001000100D000CE00CF44
:100A4000000100010001000100000001000100019F
:100A5000000100010001000100000001000100018F
:100A6000000100010001000100000001000100017F
:100A70000001000100010000000000010001000170
:100A80000001000100010000000000010001000160
:100A900000010001000100000000002078010001B9
:100AA000000100010001000100000001000100013F
:100AB000000100010001000100010001000100012E
:100AC00000010001000100010000002578277826C0
:100AD000780100010001000100010023782878243A
:100AE000780100010001000100000009025B000321
:100AF0000100A0FA0904000001030101000921110D
:100B000001000122400007058103080001090401DA
:100B10000002030000000921110100012222000748
:100B200005820320000107050303200001090402D8
:100B30000001030000000921110100012249000702
:100B40000584032000011201000200000008544B3C
:100B500001000100010200010C036D00610038007A
:100B600069006300000016036B0061007A006D00ED
:100B70006500650067006100770061000000040304
:100B800009040000000000003E5B4F5B3E003E6B2E
:100B90004F6B3E001C3E7C3E1C00183C7E3C180007
:100BA0001C577D571C001C5E7F5E1C0000183C1803
:100BB0000000FFE7C3E7FF00001824180000FFE76C
:100BC000DBE7FF0030483A060E0026297929260087
:100BD000407F05050700407F05253F005A3CE73C64
:100BE0005A007F3E1C1C0800081C1C3E7F0014227B
:100BF0007F2214005F5F005F5F0006097F017F00B6
:100C0000006689956A0060606060600094A2FFA23F
:100C1000940008047E04080010207E2010000808BC
:100C20002A1C0800081C2A0808001E1010101000BA
:100C30000C1E0C1E0C0030383E383000060E3E0EE6
:100C4000060000000000000000005F000000000738
:100C500000070000147F147F1400242A7F2A12004A
:100C60002313086462003649562050000008070329
:100C70000000001C224100000041221C00002A1C30
:100C80007F1C2A0008083E08080000807030000021
:100C90000808080808000000606000002010080430
:100CA00002003E5149453E0000427F40000072492B
:100CB000494946002141494D33001814127F100064
:100CC0002745454539003C4A494931004121110930
:100CD0000700364949493600464949291E000000A7
:100CE00014000000004034000000000814224100FD
:100CF00014141414140000412214080002015909AC
:100D000006003E415D594E007C1211127C007F4965
:100D1000494936003E41414122007F4141413E0068
:100D20007F49494941007F09090901003E4141517C
:100D300073007F0808087F0000417F4100002040C9
:100D4000413F01007F08142241007F4040404000A5
:100D50007F021C027F007F0408107F003E4141415A
:100D60003E007F09090906003E4151215E007F09CE
:100D70001929460026494949320003017F01030031
:100D80003F4040403F001F2040201F003F40384070
:100D90003F006314081463000304780403006159DE
:100DA000494D4300007F41414100020408102000EA
:100DB000004141417F0004020102040040404040E4
:100DC00040000003070800002054547840007F28AA
:100DD00044443800384444442800384444287F00C0
:100DE00038545454180000087E0902001824241CAA
:100DF00078007F080404780000447D400000204013
:100E0000403D00007F102844000000417F4000006A
:100E10007C04780478007C08040478003844444456
:100E200038007C1824241800182424187C007C081E
:100E30000404080048545454240004043F4424008B
:100E40003C4040207C001C2040201C003C403040A6
:100E50003C004428102844004C9090907C0044644E
:100E6000544C4400000836410000000077000000A8
:100E70000041360800000201020402003C2623263D
:100E80003C00000000000000000000000000000026
:100E9000808080C0C0C0C0E0E0E0E0E06070F0F0C2
:100EA000F0F0F0F0F0F0F0F0E0E0E0A0E0E0E0E002
:100EB000F0F0F8F8FCEC7CFEFEFEDECEC6C0C0C052
:100EC000C08080808080808080C0C0E0E0F078209A
:100ED0008080C0C0E0F8800000C0FED8F0C0E0C054
:100EE000FC808000000000E08000000000000000A6
:100EF00000000000000000000000000000000000F2
:100F0000E0F0F0F0E0ECEEF7F37020007C7C7C7E0B
:100F1000007E7E7E7F7F7F000080C0E07E5B4F5B37
:100F2000FEC00000C000DCD7DEDEDED7DC00C00083
:100F300000000000000000000000000000000000B1
:100F400000000000000000000000000000000001A0
:100F500033373C606061E1E1E3E3E7EFEEFEFFFF82
:100F6000FFFFFFFF7FFBFBFFFFFEFEFFEFFFFFDF4B
:100F7000DFD9F9FFFFFFCFCFFFF7F7FFFFF7E6BF9E
:100F8000BFFFFFEFEFFBFBBFBFFFF7FDFDDFDBFFA9
:100F90007F7DDFDEFE7F1F7EFCEFFFFF3DFF8F07C3
:100FA0000F1E073F0EFFF63F0D073E0C0E04081FF5
:100FB00000060038000000000000000000000000F3
:100FC0000F1F3F7F7F7F7F7F3F1E0C001F1F1F3F34
:100FD000003F3F3F7F7F7F00307B7F783020203095
:100FE000787F3B0003000F7F0F0F0F7F0F00030080
:100FF00000000000000000000000000000000000F1
:1010000000000000000000000000000000000000E0
:101010000000000000000000000008181C1E1E0F49
:101020000F0F0707030303030303071F3F3F3E7E22
:101030006F7F7F777527070707060F1F3F3F7F7F6B
:101040007F766243030301010103030306060606DC
:101050000E0C08010300000003073E07000F030009
:10106000000000000000030000000000000000007D
:101070000000000000000000000000000000000070
:101080000000000000000000000000000000000060
:101090000000000000000000000000000000000050
:1010A0000000000000000000000000000000000040
:1010B0000000000000000000000000000000000030
:1010C000000011241FBECFEFDAE0DEBFCDBF04B6B3
:1010D00003FE18C08091920790919307A091940706
:1010E000B09195078730904BA740B04B59F41092C0
:1010F0009207109293071092940710929507E0E0E0
:10110000F8E3099512E0A0E0B1E0EAEFF4E602C0EE
:1011100005900D92A83EB107D9F727E0A8EEB2E0FE
:1011200001C01D92A239B207E1F70E94B1250C94CB
:101130003D320C940000CF93DF9340919007509183
:101140009107405955409A0120583F4F2130324075
:10115000C0F020E032E0241B350B60918E057091C9
:101160008F05FC01CA01240F351FC1E0D0E08217B2
:10117000930750F070938F0560938E05DF91CF91A8
:10118000089520E830E0E9CF4491DC01A057BA4F40
:101190005C91451781F04C93AC01A5E056954795BD
:1011A000AA95E1F7DE0102C0AA0FBB1F4A95E2F73C
:1011B000AD016A2B752B01963196D9CFFC01AC019C
:1011C0004B5F5F4F8FEF91E32191822728E030E062
:1011D00087FF09C0880F892721503109C9F7E41713
:1011E000F50791F70895880FF7CFE8EDF0E08081DB
:1011F0008E7F80831092E2001092DA001092E1005C
:10120000A0EEB0E08C9181608C9380818F77808399
:1012100019BCA7EDB0E08C918E7F8C9380818F7E7E
:10122000808310926F0508952091E4003091E500CD
:1012300095E6A9012091EC00822F817020FF06C065
:101240008091E80080FF06C080E008952091E800CA
:1012500022FD1AC080917D05882389F0853089F0B0
:101260008091EB0085FD0FC02091E4003091E500F6
:1012700042175307F9F29150E1F684E0089582E0B5
:10128000089583E0089581E0089580917F0587FFA8
:1012900013C08091E80082FF06C08091E8008B7740
:1012A0008093E80004C080917D058111F2CF0895FC
:1012B00080917D058823D9F38091E80080FFF8CFE5
:1012C0008091E8008E77ECCF982F9093E900242F3F
:1012D000762F50E0891731F07091EC002091ED00ED
:1012E0005091F00021FD07C09F5F973071F7809308
:1012F000E90081E008953091EB003E7F3093EB00F0
:101300003091ED003D7F3093ED003091EB00316086
:101310003093EB007093EC002093ED005093F000BD
:101320002091EE0027FDE0CF80E00895B0E0A0E03E
:10133000ECE9F9E00C940F31C8EDD0E088818F7EA4
:101340008883E7EDF0E080818160808384E082BF64
:1013500081E080936F0588818E7F888302EE10E0A4
:10136000F80110821092DA0081EEC82ED12CF6011D
:10137000108288818F7788838881806888838881BC
:101380008F7D888319BC10927D0510927E05109286
:101390007C0510927B0590EEE92EF12CF7018081FF
:1013A0008B7F808388818160888342E060E080E079
:1013B0000E946409F60180818E7F8083F80180811C
:1013C00081608083808188608083F70180818E7F47
:1013D0008083888180618883CDB7DEB7E8E00C9494
:1013E0002B31FC0180918505909186058617970722
:1013F000A0F06115710529F49091E8009E77909313
:10140000E80090E06115710551F4911108C08091D8
:10141000E80082FF34C080E00895BC01F2CF8091E3
:101420007D058823C1F18530C1F18091E80083FDFD
:1014300030C08091E80082FDEACF8091E80080FF13
:10144000E1CF8091F3002091F200382F61157105F2
:1014500019F02830310558F091E02830310509F0B5
:1014600090E02091E8002E772093E800CBCF819187
:101470008093F100615071092F5F3F4FE7CF80915A
:101480007D05882341F0853041F08091E80083FF9D
:10149000BECF81E0089582E0089583E00895089525
:1014A000809172050895CF92DF92EF92FF922FB74D
:1014B000F894C0906B05D0906C05E0906D05F090AD
:1014C0006E052FBFA7019601261B370B480B590B42
:1014D000CA01B901FF90EF90DF90CF9008952FB728
:1014E000F89460916B0570916C0580916D059091F9
:1014F0006E052FBF08952091870536E0839FC001B8
:101500001124629F800D911D1124811522E0920704
:1015100014F090E080E080579A4F90939107809369
:1015200090070895FA01811101C0FB010995089502
:10153000EDE8F4E0248130E1231B08F420E024836B
:1015400080918C04816080938C040895EDE8F4E030
:10155000248130E1230F08F42FEF248380918C0441
:10156000816080938C04089590918D04937059F05C
:1015700080938E0460938F044093900480918C0438
:10158000822B80938C040895EDE8F4E0438120E100
:10159000421B08F440E0818121E0628190E00E94DA
:1015A000B40A0895EDE8F4E0438120E1420F08F425
:1015B0004FEF818121E0628190E00E94B40A08959A
:1015C000EDE8F4E0628120E1621B08F460E08181D3
:1015D00021E0438190E00E94B40A0895EDE8F4E030
:1015E000628120E1620F08F46FEF818121E0438185
:1015F00090E00E94B40A0895EDE8F4E0818121E0D2
:10160000438162818850990B0E94B40A0895EDE8E5
:10161000F4E0818190E021E04381628108960E949C
:10162000B40A089590918D04937061F081110BC0FC
:10163000946090938D041092540180918C04862BB9
:1016400080938C040895833010F09860F2CF880F57
:10165000880F982BEECF80918D04869586958150CA
:1016600009F482E061E00E94120B089580918D04DC
:10167000869586958F5F833008F081E061E00E9457
:10168000120B0895FF920F931F93CF93DF93182FA0
:10169000062FF42ED0E0C0E02F2D402F612FCE0179
:1016A0000E9475132196C534D105B1F7CDB7DEB7C9
:1016B000E5E00C942E31EF92FF920F939701201BDF
:1016C00031092F3F310519F010F02FEF30E0209550
:1016D000382F320F08F43FEF832F0F91FF90EF90D8
:1016E0000895AF92BF92CF92DF92FF920F931F9314
:1016F000CF93DF93362F472FE82FF0E0E959F84FCB
:1017000071110FC0E4918E2F2E2F6E2F722FDF914B
:10171000CF911F910F91FF90DF90CF90BF90AF902E
:101720000895C72FD0E02491F22E022F10E056E04A
:10173000659FC0011124EFEFF0E0BF010E94F1307E
:10174000832F90E0880F991F35E5369FD001379F92
:10175000B00D11248A1B9B0B982F990F980F6F01C6
:10176000CC1ADD0AC09ED001C19EB00DD09EB00D36
:1017700011248B2F499FA0011124452F55276F015C
:10178000C41AD50AC09EA001C19E500DD09E500D16
:1017900011245F01A91AB108AC9E6001AD9ED00C66
:1017A000BC9ED00C1124CD2CDD24EC19FD09E09F4A
:1017B000E001E19FD00DF09FD00D1124ED2F62309C
:1017C0007105A1F050F46115710509F49ECF6130E7
:1017D000710581F0EB2F852F98CF6430710569F08A
:1017E00080F06630710509F490CFF4CFE22F2B2FF3
:1017F0008D2F8BCFE22F252F88CFEB2F822F2D2FF0
:1018000084CF2B2F8F2DE52F80CF8091270480FD53
:1018100016C081FD16C082FD16C080912604882363
:10182000A1F0883280F428E0829FC001112468E290
:1018300070E00E944831862F672B39F0089582E0CE
:10184000089584E0089588E0089581E008958091E6
:10185000270480FD14C081FD14C082FD16C0809154
:101860002504882381F08E3180F420E5829FC00119
:1018700011246EE170E00E944831862F089584E1C2
:10188000089588E2089588E0089580E5089580E04D
:101890000895F894E82FE295EF70F0E031A1282F39
:1018A0002F7081E090E001C0880F2A95EAF7982F09
:1018B0009095932391A392A1892B82A37894089564
:1018C00090919E0392FF06C0282F28712830F9F4CA
:1018D000877F846093FF06C0282F28712831F1F498
:1018E000877E846120919F0320FF06C0382F3871C6
:1018F0003830D9F4877F816021FF06C0282F2871F6
:101900002831D1F4877E816194FD877E0895282F48
:1019100024712430F9F68B7F8860DCCF282F247166
:10192000243101F78B7E8861DDCF382F3171313062
:1019300019F78E7F8860E0CF282F2171213121F7A0
:101940008E7E8861E1CF82389105B9F1B0F48133A0
:10195000910509F47DC048F48932910509F46DC000
:101960008A32910509F47BC008958533910509F405
:101970005FC08933910509F10895833E9105D9F13E
:1019800038F4803E910529F1823E910579F1089560
:10199000863E9105D9F1873E910509F43EC0843E0B
:1019A000910541F520919F0321FF24C080919E0362
:1019B00084FD19C087EE90E0089520919E03237066
:1019C00009F05AC020919F0323FF14C089E290E0E0
:1019D000089520919E0320FD38C030919F0330FF71
:1019E00009C024FF43C090E080E0089520919E0349
:1019F00022FDF7CF089520919E0322FD3AC0309139
:101A00009F0330FD39C024FFF5CFEDCF20919E0319
:101A100023FFF0CF24FDE7CFCDCF20919E0323FD00
:101A20002EC030919F0331FFEECF84EE90E00895F9
:101A300020919E0325FFDECFC9CF20919E0325FD77
:101A400021C020919F0323FFD5CF89E390E0D2CF1F
:101A500020919E0326FFCECF8AE290E00895209148
:101A60009E0326FFC7CF81E390E0089583EE90E0C8
:101A7000089582EE90E0089580EE90E0089586EE5D
:101A800090E0089585E390E008951F93CF93DF934E
:101A90000E94A30CEC01C11582E5D80708F03FC0F5
:101AA000C11580E5D80708F0BCC0C83ED105C0F418
:101AB000C03ED10580F4C53AD10548F4C430D10503
:101AC00050F4C130D10539F0D0E0C0E004C0CD3CC5
:101AD000D105D0F3D065CE01DF91CF911F9108954C
:101AE000C11580E4D80708F06BC0C11580E2D807A3
:101AF00008F0B1C0C11581E0D80730F38D2F0E94E6
:101B0000600C182FCE0199270E94A30CC12FD0E0A2
:101B1000DC2FCC27CC27DF71C82BD92BDCCFC036EC
:101B200082E5D807F0F4C03482E5D80708F059C040
:101B3000C03282E5D80708F04DC02C2F2695269597
:101B400080E2289F900111248C2F8370C1E0D0E0A7
:101B500002C0CC0FDD1F8A95E2F7C22BD32BDD68C4
:101B6000BACFC03C82E5D807F8F4C03A82E5D8077E
:101B700008F04CC0C03882E5D80708F0A5CF2C2F5C
:101B800026952695277080E2289F900111248C2F9E
:101B90008370C1E0D0E002C0CC0FDD1F8A95E2F770
:101BA000C22BD32BDA6897CFC03E82E5D80708F066
:101BB0008BCFDC2FCC27CC27DF71C06FD06A8BCFC7
:101BC000CE0199270E94A30CCC27DF70C82BD92BFC
:101BD000D06A81CFCF71D0E0DC2FCC27C16FD06A23
:101BE0007ACF2C2F26952695277080E2289F90018A
:101BF00011248C2F8370C1E0D0E002C0CC0FDD1F18
:101C00008A95E2F7C22BD32BDC6865CF8C2F8F71BE
:101C10000E94600CC82FD0E0DC2FCC27CC27DF71CE
:101C20005ACF8C2F8F710E94600C55E0D695C795C6
:101C30005A95E1F7CF70D0E0DC2FCC27282F30E089
:101C400084FF05C044E0220F331F4A95E1F7C22B01
:101C5000D32BD06940CF8D2F8F710E94600C182F2D
:101C6000CE0199270E94A30CC12FD0E0DC2FCC27F6
:101C7000CC27DF71C82BD92BD0622DCF20914A03FE
:101C80009091190356E0291302C080E0089530E0D6
:101C9000529FF001539FF00D1124E65EFC4F7181BD
:101CA000761306C07081781303C07281741304C068
:101CB0002F5F3F4F2770E7CF81E0089580914A035F
:101CC00090911903981301C008958F5F8770FACF20
:101CD0009A3080F5883070F548E0949F9001112487
:101CE000820F932F911D682F677023E0969587953B
:101CF0002A95E1F7FC01EE0FFF1FE80FF91FEB50EB
:101D0000FD4F50E040E080E0219130E0062E02C01F
:101D1000369527950A94E2F721703327042E01C0E7
:101D2000220F0A94EAF7822B4F5F5F4F4330510531
:101D300059F7089580E008959A3098F5883088F52D
:101D400048E0949F90011124820F932F911D282F1A
:101D5000277041E001C0440F2A95EAF723E09695E9
:101D600087952A95E1F7FC01EE0FFF1FE80FF91F99
:101D7000EB50FD4F90E080E070E05191DF01119752
:101D80009B01082E02C0369527950A94E2F7217030
:101D900021952527242325272C930196833091050F
:101DA00061F708958093F10308959091F10321E084
:101DB00030E0F90101C0EE0F8A95EAF7D90102C0BF
:101DC000AA0FBB1F6A95E2F7EA2B01C0220F4A95C2
:101DD000EAF7892F8E23E81305C0292B822F0E9452
:101DE000D20E089520952923F9CF21E030E001C0DB
:101DF000220F8A95EAF720958091F10382230E94B1
:101E0000D20E089521E030E001C0220F8A95EAF752
:101E10008091F103822B0E94D20E08958093F203E9
:101E20000895982F92959F7011F0892F94E0282F94
:101E30002695269511F09E5F822F869509F09F5F6B
:101E4000892F0895CF93DF93C0919007D091910788
:101E50008A30C1F420918705CE0180599540622FC8
:101E600070E00E94F130281B822F66E00E943C3116
:101E7000C82FC15018F4DF91CF91089580E20E94DD
:101E8000220FF7CF8D30E9F4C059D5402091870556
:101E9000622F70E0CE010E94F130281B822F9E013C
:101EA000280F311D2115324018F080E0D0E0C0E04D
:101EB000C80FD11DC057DA4FD0939107C093900738
:101EC000DACF96E0FE01A8E8B5E001900D929A9570
:101ED000E1F7803E08F458C086E0FE0111928A9531
:101EE000E9F7C0919007D091910746E050E0BE011C
:101EF00088E895E00E94D5319E0120593540892B14
:101F000041F1C90145E0969587954A95E1F741E091
:101F100050E0BA0102C0660F771F8A95E2F7CB0145
:101F200060918E0570918F05862B972BB9016B5FA1
:101F30007F4FE5E076956795EA95E1F702C0440F9B
:101F4000551F6A95E2F7842B952B90938F0580930C
:101F50008E052A5F3F4F40918705642F70E0C901CD
:101F60000E94F130481B463010F4240F311D21151A
:101F700072E0370710F030E020E020573A4F3093FE
:101F800091072093900777CFF6E08F9FB00111243F
:101F90006E57744F46E050E0CE010E94CC31A1CF85
:101FA0008091700590915303892B8093EA0248E059
:101FB00050E06BE473E08AEE92E00E94D531892B09
:101FC000A9F088E0EAEEF2E0ABE4B3E001900D9214
:101FD0008A95E1F7E0916805F0916905309731F055
:101FE0000280F381E02D8AEE92E00995089588231E
:101FF00041F08095909170058923809370050E942F
:10200000D00F0895882339F090917005982B909304
:1020100070050E94D00F08950F931F93CF93DF9305
:10202000EC01FC0101900020E9F78F01015011093A
:10203000C017D10728F0DF91CF911F910F9108951C
:1020400089910E94220FF4CF2F923F92CF93DF937A
:10205000E1016A8188819091F302911104C090910D
:10206000000191112EC06E5F0E947B0A86E691E00E
:102070000E940C106A81615088810E947B0A81E075
:10208000809300012091F20230E02F5F3F4F2170DA
:1020900033272093F20281E090E0821B930B969508
:1020A000982F8827979587952091F30321FF15C0D6
:1020B000895A9A4F0E949B08DF91CF913F902F90B1
:1020C000089561500E947B0A86E691E00E940C1000
:1020D0006A8188810E947B0AD5CF2091F402222355
:1020E00019F0895A9B4FE6CF2091F4033091F50304
:1020F0002B3031051CF4895A9C4FDCCF2932310535
:102100001CF4895A9D4FD6CF895A9E4FD3CFB0E049
:10211000A0E0EDE8F0E10C940F316C017B0164E686
:1021200070E088E70E944F2EEC0197FD12C010E08E
:1021300000E0F601E00FF11F849164E670E00E9478
:10214000BB2EEC01892B29F40F5F1F4F0E151F05C5
:1021500081F70E94312FCE01CDB7DEB7E8E00C94B5
:102160002B318091660590916705911103C091E034
:1021700089270895882369F062E070E089E698E095
:102180000E948710892B19F080916605089510929E
:10219000660580916605EBCFCF93C091660580916F
:1021A00067058823D1F00E946F0A605A75418F4FEE
:1021B0009F4F6093620570936305809364059093CD
:1021C0006505C11108C062E070E087E698E00E94F2
:1021D0008710892B29F0C09166058C2FCF91089527
:1021E00081E080936605F7CF0F931F93CF93DF9322
:1021F0008B01EA0190917D05943061F58093E900AF
:102200008FEF9091E800815095FD06C095ED9A956D
:10221000F1F700008111F5CF8091E80085FF1AC029
:102220000E941409811111C08091E80085FD06C04B
:102230008091E8008E778093E800F2CFF8018191D9
:102240008F018093F100219779F78091E8008E77D4
:102250008093E800DF91CF911F910F91089546E0A0
:1022600050E0BC0184E00E94F4100895CF93DF9306
:10227000EC0148E050E0BC0181E00E94F41088E0ED
:10228000FE01A3E7B5E001900D928A95E1F7DF9199
:10229000CF91089581E08093E00080E28093D800A0
:1022A0001092C9008FE19EE40197F1F700C0000091
:1022B00087E090EBDC018093920790939307A093C3
:1022C0009407B093950788E19CE00FB6F894A89521
:1022D000809360000FBE90936000FFCF539A3BB194
:1022E000377F2BB128604FB7F89483E994E0FC0165
:1022F0005191CF0168E02BB9000000C057FF3BB9F6
:10230000550F000000C000C000C03BB900C06A9576
:1023100091F7F5E082369F0751F74FBF8FE594E0C4
:102320000197F1F700C000000895B0E0A0E0EBE9EC
:10233000F1E10C940D317C015B016A0180918D0308
:1023400001E010E08A3010F40AE010E0C1E0D0E0D3
:10235000B501C701F6010995811104C021960C173A
:102360001D072CF4CDB7DEB7EAE00C942931CC9FE1
:102370009001CD9F300D300D112490E080E045E3B9
:102380004A95F1F70000019682179307C1F7E0CF55
:1023900080916003811119C088EC90E02091E300E6
:1023A00027FD10C0EFE3FCE93197F1F700C0000012
:1023B0000197A1F782E0809360030E94F5081092D4
:1023C0007D0503C081E08093600381E0909160030C
:1023D000913011F080E0089508950E94C81188237B
:1023E00059F0E0916805F0916905309729F0019066
:1023F000F081E02D0995089580E008950F931F93D3
:102400000E94C811882329F00E946F0A1F910F9122
:1024100008950E946F0A00918E0310918F032091FE
:10242000900330919103600F711F821F931FEECFB5
:10243000CF93DF93C6EAD2E060E0CE010E9419326A
:102440002196C11584E0D807B9F7DF91CF9108959F
:102450001F93CF93DF93122F8430E0F46A30D0F4CF
:102460004830C0F490E1699FE001112450E0440F2E
:10247000551FC40FD51F90EA899FC00DD11D11248F
:10248000632FCE0186960E941932612FCE01879666
:102490000E941932DF91CF911F910895AF92BF92A0
:1024A000CF92DF92EF92FF921F93CF93DF938BE651
:1024B000C82E88E0D82ED0E07601C0E014C0F50127
:1024C00025913491412F6C2F8D2F0E94281282E08C
:1024D000A80EB11C1F5F183091F780E1E80EF11CC7
:1024E000CF5FCA3019F0570110E0E9CFDF5F80EA13
:1024F000C80ED11CD43001F7DF91CF911F91FF900E
:10250000EF90DF90CF90BF90AF900895CF93C82FFA
:102510006FEF811163E282E290E00E9419326FEF67
:10252000C11164E083E290E00E9419326FEFC111A3
:1025300061E184E290E00E941932CF91089580E039
:102540000E94861260E085E290E00E9419320E94AB
:102550004E120E94181281E00E94861208950F9375
:102560001F93CF93DF93843030F56A3020F54830E5
:1025700010F520E1629F8001112450E0440F551FA7
:10258000040F151F30EA839F000D111D1124C8018F
:1025900086960E94FB31C82FD0E0DC2FCC27C801E3
:1025A00087960E94FB319E01282BC901DF91CF91B4
:1025B0001F910F91089590E080E0F8CF462F7A3078
:1025C00040F4683030F4843020F4672F0E94AF125A
:1025D000089590E080E00895CF92DF92FF920F93EC
:1025E0001F93CF93DF936C010091F1038091F2036D
:1025F000082BC3E0D0E010E0FC2EC8010C2E02C076
:10260000959587950A94E2F780FD0CC02197A0F775
:10261000F12C8F2DDF91CF911F910F91FF90DF90C3
:10262000CF900895B6018C2F0E94DE120E94450DB6
:10263000019761F3EECFCF93DF93EC010E94EC1290
:10264000BE010E94DE120E94450DDF91CF910895D8
:10265000FC0183819481892B29F0808191818923D8
:102660008F3F51F480E00895843FE1F717C0883E22
:10267000A8F0813FB9F712C0808191810E941B139D
:1026800092959F70963099F358F4925F9F709230B4
:1026900048F7803F19F040F7883E20F781E0089521
:1026A0009A5FF4CF82E290E00E94FB31833289F49A
:1026B00083E290E00E94FB31843059F484E290E0A0
:1026C0000E94FB3191E0813109F090E0892F817007
:1026D000089580E0FCCF8EE090E00E94FB3191E015
:1026E000811101C090E0892F0895FF920F931F93ED
:1026F000CF93DF93EC01F62E042F122F0E946B1361
:1027000081110FC0C032D1057CF0A097FE01EE0F01
:10271000FF1FEC0FFD1FED56FB4FF182008312836C
:1027200003C0C032D10594F3CDB7DEB7E5E00C9419
:102730002E3146E050E06CE170E08DE894E00E94BC
:10274000093210928C040895A5E0B0E0EAEAF3E1C2
:102750000C94053180905B0490905C04A0905D0423
:10276000B0905E040E94C811882309F43EC0C501E0
:10277000B4010E94530A6B017C010E94FE114B01BF
:102780005C0180925B0490925C04A0925D04B09224
:102790005E04A0913204E2E3F4E08A2F90E04FEF70
:1027A0005FEF60E070E04C195D096E097F09A913C5
:1027B00025C08093320480918D04082F0370402E31
:1027C00019F0482E4694469490915401913009F4A2
:1027D0003FC0992331F1923009F49FC1933009F43D
:1027E000A4C12596E2E10C9421310E94FE116B01F7
:1027F0007C01C818D908EA08FB08BFCF218D328DAB
:102800002901712C612C441555056605770520F4C6
:1028100081509F5F3296CBCF2C0D3D1D328F218F83
:10282000F8CF109251018092880490928904A0926E
:102830008A04B0928B0489E2E2E3F4E0AFE5B4E00D
:1028400001900D928A95E1F781E080935401C9CF00
:1028500090915001491225C0837020914F0130E0C2
:1028600091E08217130609F490E0892F817080931C
:1028700053018091920490915201981739F08093FE
:10288000520140E060E080E00E94420B11E04116FE
:10289000A1F0442041F022E0421609F45FC080E03C
:1028A00035C081E0E3CF80915301882379F140E086
:1028B00060E080E00E94420BF2CF109151018EE067
:1028C000189F102D11240EE0010F063408F005E4C6
:1028D0000E946B13882309F44DC1013208F000E215
:1028E00060918E0470918F04809190040E94710B0E
:1028F000F62EE72ED82EA12EB12CA016C8F00E94DD
:102900006B13882339F181E0003248F69091510130
:102910009F5F90935101811164CF82E080935401B5
:102920008091530181115DCF41105BCF83E08DCF4A
:10293000F501EC56FD4F808190915201892331F0D1
:102940002D2D4F2D6E2DC5010E9475133FEFA31A3B
:10295000B30AD3CF81E00534C8F2A1CFA0905F04C1
:1029600021E00A2D021B08F400E0C02E1091510155
:102970008EE0189F102D11245EE0D52ED10E25E497
:102980002D1510F445E4D42E0E946B13882309F40E
:10299000F6C030E23D1510F430E2D32E812F90E0E6
:1029A0009C838B83880F991FFC01E65FFD4F3F01DD
:1029B0008C2D90E08C010F5F1F4F1A830983312CFF
:1029C000212C8B818D1558F00E946B13882309F4FC
:1029D0009EC081E09FE19D1508F098CF60CFEB810C
:1029E000FC81EC56FD4F8081909152018923E9F0E2
:1029F00060918E0470918F0429813A81215A3B4F56
:102A00004901BC2C80E0BA14D0F020919004182F1A
:102A1000129F112D1124812F0E94710B462F282FF8
:102A2000672F8B819C810E9475132B813C812F5FC6
:102A30003F4F3C832B8332E0630E711CC2CFF40105
:102A400091914F01F3014081491B550B2181F40104
:102A50009781291B330B449FD001459FB00DB00DCA
:102A60001124229FF001239FF00DF00D1124EA0F95
:102A7000FB1FE230F105E4F4ED8390919104192FEE
:102A800001E0100F08F41FEFF401EE0FFF1FEF55E8
:102A9000F4400588F689E02D7101E19FE12CF19F5A
:102AA000E00CF11C11240D810E945B0BB394ABCFA1
:102AB0009FEFE13E0EE1F00744F4DF0105E0B6953B
:102AC000A7950A95E1F798E09A0F55245394E52CC1
:102AD000E90EFF24FF1CD701B595A795AD83AA9FEA
:102AE0007001AB9FF00CF00C1124EE15FF0538F4CB
:102AF0009FEF9A0F951558F75A945D82BECF0D81BE
:102B00000F3F09F4BACF552453945A0EF3CF81E006
:102B1000E4E4ED1508F0FACEC2CE40925001837085
:102B200080934F010E946E1101CF80918C0481111E
:102B30000E949913C0908804D0908904E0908A0480
:102B4000F0908B040E94C811882369F0C701B60178
:102B50000E94530A603171058105910508F441CE48
:102B6000109254013ECE0E94FE116C197D098E090F
:102B70009F09F0CF103208F0B3CE10E2B1CE103280
:102B800008F00CCF10E20ACFEDE8F4E085E0808396
:102B90008091560190915701A091580181839283B1
:102BA000A3838FE784838FEF85830E949913089511
:102BB00090E080E00E940332873E9E4F19F40E940D
:102BC0005213089580E00895B0E0A0E0EAEEF5E148
:102BD0000C940F31C82F7B01D42F6901FB01608158
:102BE0007181828193810E94530A64367105810547
:102BF000910510F4DD2359F10C2E000CDD0BFE01C4
:102C000083E0EE0FFF1F8A95E1F7EF5FFE4F8181B2
:102C1000928186599C4F408150E00417150708F4B3
:102C2000A801B6010E94E231CE010E947B30C82F7C
:102C3000882339F00E946F0AF701608371838283D1
:102C400093838C2FCDB7DEB7E8E00C942B31C1E035
:102C5000F8CFA7E0B0E0EFE2F6E10C94133186E0A4
:102C6000EDE8F4E0DE01119601900D928A95E1F70E
:102C70001F8247E050E066E773E0CE0101960E94B4
:102C8000D53141E0892B09F440E007E010E09E01D6
:102C90002F5F3F4F69E873E085E00E94E4152796B7
:102CA000E4E00C942F310F931F9341E09091740353
:102CB0008091F103981301C040E001E010E021EFA2
:102CC00033E065E873E083E00E94E415882389F02F
:102CD00041E0909175038091F203981301C040E0A8
:102CE00001E010E022EF33E061E873E084E00E944D
:102CF000E4151F910F910895A4E0B0E0E2E8F6E139
:102D00000C94143160917D0370917E0380917F0358
:102D1000909180030E94530A11E064367105810589
:102D2000910570F10E94FE116E5F7F4F8F4F9F4F94
:102D300069837A838B839C83809112019091130124
:102D400086599C4F4091110150E04530510510F0DB
:102D500044E050E0BE016F5F7F4F0E94E23182E0AD
:102D600090E00E947B30182F882351F00E946F0A58
:102D700060937D0370937E0380937F039093800321
:102D8000812F2496E3E00C943031EF92FF921F9351
:102D9000CF93DF9300D000D000D0CDB7DEB77B015A
:102DA00090E080E00E947B30182F882309F473C0E4
:102DB0004091040150E04115510511F041E050E00F
:102DC000609105017091060166597C4FCE0106960F
:102DD0000E94E231609166037091670380916803FD
:102DE000909169030E94530A64367105810591052B
:102DF00040F48BE693E00E94DE089E81891709F477
:102E00004AC081E090E00E947B30811116C010E042
:102E100085E0E1E6F3E0D70101900D928A95E1F7B4
:102E2000812F26960FB6F894DEBF0FBECDBFDF917F
:102E3000CF911F91FF90EF90089540910C0150E0C9
:102E40004630510510F045E050E060910D01709161
:102E50000E0166597C4FCE0101960E94E2318BE64D
:102E600093E00E94DE089E818913D1CF0E946F0AF1
:102E7000609366037093670380936803909369037C
:102E800085E0FE013196A1E6B3E001900D928A95AE
:102E9000E1F711E0BDCF85E0EBE6F3E0DE0111964E
:102EA00001900D928A95E1F71111EACFB1CF67EE4B
:102EB0007EEF90E080E00E94373260E082E090E0B8
:102EC0000E94193260E083E090E00E941932109273
:102ED000F20360E074E184E090E00E94373260E049
:102EE00086E090E00E9419326FEF87E090E00E9448
:102EF000193240E050E0BA0188E090E00E942B32A5
:102F000060E08DE090E00E94193240E050E0BA01AC
:102F100088E190E00E942B3260E087E190E00E941F
:102F2000193240E050E0BA018CE190E00E942B326F
:102F300070E060E080E290E00E94373240E050E0D4
:102F4000BA0188E190E00E942B3280E00E94861254
:102F50000E949F1240E050E0BA018FE090E00E9492
:102F60002B3240E050E0BA0183E190E00E942B3226
:102F700008951F920F920FB60F9211242F933F9333
:102F80004F935F936F937F938F939F93AF93BF9371
:102F9000EF93FF938091E10082FF09C08091E200EE
:102FA00082FF05C08091E1008B7F8093E1008091DA
:102FB000DA0080FF24C08091D80080FF20C080917B
:102FC000DA008E7F8093DA008091D90080FF9DC067
:102FD00080E189BD82E189BD09B400FEFDCF81E0B9
:102FE00080937D0580916F05811109C00E94F508CD
:102FF0000E9496098091E20084608093E2008091B3
:10300000E10080FF17C08091E20080FF13C0809133
:10301000E2008E7F8093E2008091E20080618093E5
:10302000E2008091D80080628093D80019BC85E0CE
:1030300080937D058091E10084FF2BC08091E200A8
:1030400084FF27C080E189BD82E189BD89B5982FC1
:10305000917080FFFBCF8091D8008F7D8093D80046
:103060008091E1008F7E8093E1008091E2008F7E6D
:103070008093E2008091E20081608093E200809181
:103080007E05882309F447C084E080937D05809104
:103090007D058091E10083FF27C08091E20083FFDE
:1030A00023C08091E100877F8093E10082E08093DC
:1030B0007D0510927E058091E1008E7F8093E10076
:1030C0008091E2008E7F8093E2008091E200806137
:1030D0008093E20042E060E080E00E946409809119
:1030E000F00088608093F000FF91EF91BF91AF9165
:1030F0009F918F917F916F915F914F913F912F9110
:103100000F900FBE0F901F90189519BC10927D055F
:1031100010926F0574CF8091E30087FD93E0909348
:103120007D05B5CF78941F921FB61F9211248F93FF
:103130009F93AF93BF9380916B0590916C05A09185
:103140006D05B0916E050196A11DB11D80936B05B3
:1031500090936C05A0936D05B0936E05BF91AF91F0
:103160009F918F911F901FBE1F9018959C014FB784
:10317000F89480916B0590916C05A0916D05B091CC
:103180006E054FBF821B930B08952FB7F894809163
:103190006B0590916C05A0916D05B0916E052FBFE8
:1031A00008950E94C5189C0190912E0480912F04CF
:1031B000982B21F030932B0420932A049091300413
:1031C00080913104982B21F0309329042093280416
:1031D000E0916805F0916905309749F082E08093AD
:1031E0002C040480F581E02D8CE294E0099508958B
:1031F000CF93C6E0ECEEF2E0DF018C2F1D928A95B2
:10320000E9F7109253030E94D00FECE2F4E0DF01E3
:103210001D92CA95E9F71092250410922604109287
:1032200027040E94D118CF910895AAE2B0E0EBE103
:10323000F9E10C9414318FE795E02091F100DC0165
:103240002D93CD01B5E087389B07B9F780918005B4
:10325000833009F472C0B8F4813009F449C0823077
:1032600009F4B5C08091E80083FF8DC280917F058D
:10327000909180059A3008F086C2E92FF0E0E15C79
:10328000FD4C0C949D318A3009F490C08B3009F4C8
:1032900071C0893039F780917F05813219F78091AB
:1032A000830590918405009711F00297D9F68091DB
:1032B000E800877F8093E8008091E80082FF38C0B3
:1032C0009091F3008091F200029731F48091F10027
:1032D000813011F0863021F48091F10080937205E5
:1032E0008091E8008B778093E8000E944509BACF6F
:1032F00080917F05813A09F0B5CF8091E800877F02
:103300008093E8008091830590918405892B61F476
:1033100068E083E795E070E00E94F1098091E800A1
:103320008B778093E8009ECF60E090E080E0F3CF61
:1033300080917D058111C0CF95CF80917F05813A25
:1033400009F090CF8091830590918405892B09F035
:1033500089CF8091E800877F8093E8008091E80022
:1033600080FFFCCF809155018093F1008091E800AF
:103370008E77B9CF80917F05813209F073CF80912C
:10338000830590918405892B09F06CCF8091E8002A
:10339000877F8093E8000E94450980918105809392
:1033A0005501109270050E94F8185CCF80917F053E
:1033B000813209F057CF8091E800877F8093E80041
:1033C0000E94450980918205809371054BCF8091C1
:1033D0007F05813A09F046CF8091E800877F80938E
:1033E000E8008091E80080FFFCCF80917105BCCFA0
:1033F000803899F0823809F0C6C1809183058F70BA
:10340000873008F0C0C18093E9008091EB0085FB14
:10341000882780F91092E90006C080917B05909181
:103420007C05911182609091E800977F9093E8006D
:103430008093F1001092F1008091E8008E779FC197
:10344000882309F48DC1823009F09DC180918105E6
:10345000811190C1809183058F702FEF280F263046
:1034600008F091C18093E9002091EB0020FF82C118
:10347000933031F48091EB0080628093EB007AC14D
:103480009091EB0090619093EB0021E030E001C05F
:10349000220F8A95EAF72093EA001092EA008091C1
:1034A000EB008860EACF81116EC1109181051F7712
:1034B0008091E3008078812B8093E3008091E80085
:1034C000877F8093E8000E9445098091E80080FF93
:1034D000FCCF8091E30080688093E30082E01111CB
:1034E00083E080937D054FC18058823008F04BC146
:1034F00020918105309182052C3DE3E03E07A1F546
:1035000083E08A838AE289834FB7F894DE011396B9
:1035100020E03EE051E2E32FF0E050935700E491C9
:1035200020FF03C0E295EF703F5FEF708E2F90E0B9
:10353000EA30C0F0C7968D939D932F5F243159F7E1
:103540004FBF8091E800877F8093E8006AE270E0D7
:10355000CE0101960E94F1098091E8008B7780935B
:10356000E80011C1C096E7CF809183059091840552
:10357000432F55274330510509F44AC078F54130AF
:10358000510509F47AC08BE590E0EBEEFAE04230A9
:10359000510509F0F8C02091E800277F2093E8004A
:1035A00020918505309186058217930708F49C01C8
:1035B00040E02115310509F065C0411163C08091DB
:1035C000E80082FDC9CF80917D05882329F28530EE
:1035D00019F28091E80083FFF2CFBECF413251054E
:1035E00009F43CC04232510509F0CDC08330910549
:1035F00008F0C9C0FC01EE0FFF1FE452FD4F01901F
:10360000F081E02D87529D4FDC018C9190E01AC033
:10361000332721303105D1F02115310561F02230F9
:10362000310509F0B0C0E8E5FBE0E4918E2F90E0B1
:10363000E8E5FBE007C0EEE7FBE0E4918E2F90E0C9
:10364000EEE7FBE0009709F49EC0A5CFE6E6FBE0BD
:10365000E4918E2F90E0E6E6FBE0F4CF8330910515
:1036600008F091C0880F991FFC01EE51FD4F0190A9
:10367000F081E02D89E090E08ECF82E190E0E6E4F9
:10368000FBE089CF80917D05882309F465CF8530E3
:1036900009F462CF8091E80083FD5ECF8091E8005D
:1036A00082FD8DCF8091E80080FF83CF9091F30061
:1036B0008091F2002115310519F08830910550F004
:1036C00041E0089709F040E08091E8008E77809310
:1036D000E8006FCF44914093F100319621503109B9
:1036E0000196E8CF803809F04EC08091E800877FCE
:1036F0008093E80080917E058093F1009DCE81113A
:1037000042C0109181051230F0F58091E800877F6A
:103710008093E80010937E050E944509112311F063
:1037200084E005C08091E30087FDFACF81E08093BB
:103730007D0542E061EC81E00E94640942E261ECB7
:1037400084E00E94640942E261EC82E00E94640924
:1037500042E260EC83E00E94640980917D0513C021
:1037600080918105813079F481E0933009F080E027
:1037700080937C051092E9008091E800877F809318
:10378000E8000E9445098091E80083FF0AC080910B
:10379000E800877F8093E8008091EB00806280934F
:1037A000EB00AA96E3E00C9430311F920F920FB613
:1037B0000F9211242F933F934F935F936F937F93B7
:1037C0008F939F93AF93BF93CF93DF93EF93FF9329
:1037D000D091E900DF708091EC00C82FC17080FDAE
:1037E000C0E81092E9008091F000877F8093F0009C
:1037F00078940E9415191092E9008091F000886079
:103800008093F000CD2BCF70C093E900FF91EF9132
:10381000DF91CF91BF91AF919F918F917F916F91E8
:103820005F914F913F912F910F900FBE0F901F907E
:103830001895109270050E94F8182FEF84E39CE011
:10384000215080409040E1F700C0000088E19CE0FA
:103850000FB6F894A895809360000FBE9093600017
:10386000FFCF662309F45DC08D3C41F40E94270C14
:10387000819580932F040E94D11808958E3C19F4ED
:103880000E94270CF6CF8F3C31F40E94270C8195C3
:1038900080932E04F0CF803D19F40E94270CF8CFBE
:1038A000893D29F40E94050C80933004E4CF8A3DC1
:1038B00021F40E94050C8195F7CF8B3D31F40E94D5
:1038C000050C819580933104D6CF8C3D19F40E946C
:1038D000050CF8CF9FE2980F983070F4815D990B3A
:1038E00021E030E001C0220F8A95EAF780912D0493
:1038F000822B80932D04BFCF8D3D31F4809127041E
:10390000816080932704B7CF8E3D21F480912704F6
:103910008260F7CF8F3D09F0AECF8091270484609D
:10392000F0CF40912E048D3C59F480912F0487FFF5
:103930000DC010922F0441110BC01092250408C035
:103940008E3C81F480912F0418169CF3442381F05F
:103950008091300490913104892B09F08CCF109222
:10396000260489CF8F3C49F447FFF0CF10922E04F4
:1039700080912F048111ECCFE0CF803D19F4141613
:10398000ACF3E4CF90913004893D29F41916F4F694
:1039900010923004DBCF8A3D19F497FFD7CFF8CFD0
:1039A000909131048B3D29F497FFD0CF10923104D0
:1039B000CDCF8C3D19F41916CCF3C8CF9FE2980FE8
:1039C000983090F4815D990B21E030E0B90102C09C
:1039D000660F771F8A95E2F7CB01809590912D04B1
:1039E000892380932D04B2CF8D3D31F4809127043B
:1039F0008E7F80932704AACF8E3D21F480912704E7
:103A00008D7FF7CF8F3D09F0A1CF809127048B7F69
:103A1000F0CF882379F19CEF980F913A78F4ECEE8F
:103A2000F2E09191891303C0DF0111971C9242E0EB
:103A3000E23FF407B1F70E94D00F089590E2980F8B
:103A4000983088F4877021E030E0A90102C0440F6B
:103A5000551F8A95E2F7CA018095909170058923D8
:103A600080937005E8CF93E3980F933118F460E0EA
:103A70000E94311C08950F931F93CF93C82F882362
:103A800041F18CEF8C0F813AB0F50CEE12E082EF31
:103A900092E0F8012191C21701F18E179F07D1F72B
:103AA000EFEF80E0D8019D918D01C91781F0EF3FC4
:103AB00019F4911101C0E82F8F5F863099F7EF3F1D
:103AC00031F00E2E000CFF0BE651FD4FC2830E9419
:103AD000D00FCF911F910F910895ECEEF2E021915C
:103AE000C21303C0DF0111971C928E179F07B9F70D
:103AF0000E94D00FD5CF80E28C0F883068F4C77059
:103B000021E030E001C0220FCA95EAF780917005EC
:103B1000822B80937005DBCF83E38C0F8331C8F653
:103B200061E08C2F0E94311CD4CF1F93CF93DF9381
:103B3000182FEB010E943B1D209739F4812F0E9422
:103B4000091DDF91CF911F9108958FE99FE00197A3
:103B5000F1F700C000002197EFCFA8E0B0E0E3EB61
:103B6000FDE10C9409316C01DC0113968D919C915F
:103B70001497892B39F08C9111969C9189238F3F52
:103B800009F091C32896EEE00C9425310E94EC12C6
:103B9000182F682F89819A810E949C0E69817A81F1
:103BA000812F0E94DE128C01F6018281882309F4A4
:103BB00099C3C8019A9581159F4408F07FC0C80138
:103BC00099279C01245031092432310518F08B9734
:103BD0000E9780F4E091B103F0E0EE0FFF1FEA547E
:103BE000FC4F808191818F3F2FE7920719F001965A
:103BF00091838083C80197578038910508F081C36D
:103C0000003108F0BFCF8FEF93E00E94FB318111AC
:103C1000B9CF96EAE92E92E0F92E011158C0FE01C3
:103C2000339686E0DF011D928A95E9F78AE0682ED7
:103C300087010F5F1F4FC7010E94FB3189831A82E2
:103C4000882309F49FCF813009F077C06701B2E083
:103C5000CB0ED11CC8010E94FB318A83882309F452
:103C600091CF9FEF980F933008F040C0E3E0EE0E45
:103C7000F11CC6010E94FB318B83882309F482CF9B
:103C80001C828E010F5F1F4FD8012C91222381F2DD
:103C9000213009F08CC011969C91119712968C914D
:103CA000913009F04CC00E5F1F4F70E060E0893327
:103CB00011F460E570E00E94951D47C090E080E03F
:103CC0000F3F110511F008F07CCFC8017ACFE11445
:103CD00034E0F30609F456CFC7010E94FB3181118D
:103CE00001C001504FEFE41AF40A97CF76018430F7
:103CF00041F602E010E07601FFEFEF1AFF0AC6017D
:103D00000E94FB31E1E0F0E0EC0FFD1FE00FF11F3E
:103D10008083882309F436CF8C3741F4E2E0F0E069
:103D2000EC0FFD1FE00FF11F1082ABCF0F5F1F4F95
:103D3000670107301105F9F625CF7801A2CF92303F
:103D400039F40E5F1F4F0E943B1D0F5F1F4F9CCF2A
:103D5000933029F40E5F1F4F0E94091DF6CF943057
:103D600019F00F5F1F4FF1CF0E5F1F4F30E020E0C3
:103D7000B8016F5F7F4FF80141818053990B8A3002
:103D8000910550F02150310900F38FE99FE0019730
:103D9000F1F700C00000F6CF629EF001639EF00DC7
:103DA00011249C012E0F3F1F842F8B01E1CFE22FA6
:103DB000F0E0E957F94F7490822F869586958695A5
:103DC00090E0FC01E958F94FC4902770D12C022EE5
:103DD00002C0D594C7940A94E2F7A1E0CA22DD2478
:103DE000FC01E959F94FA490B12C022E02C0B59400
:103DF000A7940A94E2F7B1E0AB22BB24FC01E95A94
:103E0000F94F8490912C02C0959487942A95E2F7FB
:103E1000E1E08E229924C114D10419F081EE0E94B0
:103E20003B1DA114B10419F086EE0E943B1DF9E37D
:103E300070E060E07F1202C060E570E0872D0E94B4
:103E4000951DA114B10419F086EE0E94091DC1143C
:103E5000D10419F081EE0E94091D8114910409F426
:103E600074CF70E060E08CE226CF81E08093F402B2
:103E70000E946F0A6093E9037093EA038093EB0357
:103E80009093EC03D60112969C9191111FC28091E0
:103E900070058272F801E052F847E531F10508F04B
:103EA0004EC0E75BFD4C0C949D311092F402E0CFC4
:103EB00080918D0491E0892780938D0410925401A4
:103EC00080918C04816080938C045CCE4BE25BE03B
:103ED00066E37BE00E94920A55CE46E35BE06BE22C
:103EE0007BE0F8CF4CEF5AE067E07BE0F3CF47E0B0
:103EF0005BE06CEF7AE0EECF40EE5AE06EEE7AE0F7
:103F0000E9CF4EEE5AE060EE7AE0E4CF44EC5AE0BE
:103F100062ED7AE0DFCF42ED5AE064EC7AE0DACF8E
:103F200048E95AE066EA7AE0D5CF46EA5AE068E91D
:103F30007AE0D0CF61E081E00E94120B23CE0737F8
:103F4000BCE71B07B1F10837ECE71E07B1F1D6015A
:103F50000D911C91992309F455C0C8010E94EC12DF
:103F6000F82E682FC8010E949C0EB8018F2D0E9468
:103F7000DE120E94450D182FB82EF60162813581A0
:103F8000232F22952F70892F82958F70E82EF12C88
:103F90008C3008F06FC0F701E25AFD4C0C949D3153
:103FA00081E00E94020F43E062E081E00E94D50EB2
:103FB000E9CD81E00E94F50EF6CF82E0FBCF013023
:103FC000FCE71F07E9F003302CE7120799F0011511
:103FD0001C4709F0BCCF109270050E94F8184FEFF3
:103FE00084E39CE0415080409040E1F700C0000035
:103FF0000E944A116FEF7FEF90E080E00E9437321D
:104000000E94191CC8010E94680EF82EAECF092F1D
:104010000F70907F11F00295007F812F6623C9F009
:10402000002369F090E2910F983010F011110BC04D
:1040300080917005082B009370050E94D00F812F8E
:104040000E943B1D17C080915303082B009353031C
:10405000F4CF0E94091D002369F00095105E18300E
:1040600010F0B11012C08091700508230093700504
:104070000E94D00F38E0E31AF10844E0E416F1049E
:1040800008F080CD0E94ED117DCD8091530308236F
:1040900000935303EDCF892F8F70907F903211F0F2
:1040A0008295807FF1E0BF120CC0662329F0263094
:1040B00008F70E940210DECF2530E0F60E94F70FCD
:1040C000D9CF662349F02223A1F330FFB8CF3F7048
:1040D000D60115963C93EDCF222381F3193349F491
:1040E000BFEFE7EEF3E0B150E040F040E1F700C091
:1040F0000000812F0E94091DBDCF812F0E94311C1D
:10410000B9CF892F8370A1F56111B4CF812F82952A
:1041100086958770880F880F412F4F70082E01C039
:10412000440F0A94EAF7212F207114FF07C02FE0F3
:1041300030E001C0220F8A95EAF720959695969572
:104140009370923081F0822F842B933030F48091E1
:10415000F203913029F0242B82230E940E0F8ACF84
:10416000842B822BFACF242B8091F2038227F5CF68
:104170008695662311F0892F8170882309F47ACF00
:10418000812F829586958770880F880F412F4F70F9
:10419000082E01C0440F0A94EAF7212F207114FF62
:1041A00007C02FE030E001C0220F8A95EAF7209582
:1041B000969596959370923081F0822F842B933050
:1041C00030F48091F103913029F0242B82230E9456
:1041D000D20E50CF842B822BFACF242B8091F10367
:1041E0008227F5CF092F0F70662329F0802F0E94B8
:1041F000020F812F5ECF812F0E94F70F802F0E9428
:10420000F50E38CF812F31EF131789F1311750F0A8
:1042100040EF1417B9F06623B1F1211110CF892FA7
:104220008F7129C0A2EF1A1749F1B3EF1B13F3CF17
:1042300080E0662361F29F7181E001C0880F9A954A
:10424000EAF7C5CF662379F0253008F013CF292F80
:104250002F7181E090E001C0880F2A95EAF79091D4
:10426000F1038927B4CF263008F004CFF0CF892F8F
:104270008F71662321F20E94020FFCCE892F8F716D
:104280006623C9F3BCCF222359F0893309F031CF1B
:10429000EFEFF7EE23E0E150F0402040E1F727CFC9
:1042A000892F8F71ACCF85E0F601DE011196019068
:1042B0000D928A95E1F7D60112962C9189819A8107
:1042C000211164CC0E94680E182F68CC0737BCE718
:1042D0001B0709F465CE0837ECE71E0709F06FCE1F
:1042E00082E05FCE003E110509F4DFCD043E1105EA
:1042F00009F4DBCD0C32110509F0BACD1092F302AE
:10430000B7CD003E110509F4B0CD043E110509F406
:10431000ACCD0C32110509F0ABCD81E08093F302F6
:1043200010920001A5CD1F93CF93DF9380911803C6
:10433000807F09F04BC080911503882309F446C0A3
:1043400080914A03C09119034091130350911403C3
:104350006091160370911703D42FD52316E0C81768
:10436000A9F190E061157105A9F1DF3F99F1189F5E
:10437000F001199FF00D1124DF01A65EBC4F1196CC
:104380002C911197251326C02C91241323C012962B
:104390002C91129721111EC013962D913C91261B32
:1043A000370B283C3105B0F4809118038F70806181
:1043B00080931803E15EFC4F80818F708061808361
:1043C00083E193E00E94AD1D0E945E0EDF91CF91CC
:1043D0001F91089501968770C2CFA1E1B0E0E3EF8D
:1043E000F1E20C940B318C0185E0F801DE011D96A1
:1043F00001900D928A95E1F7F801E28083E1882E21
:1044000083E0982E409116035091170341155105F2
:1044100009F430C19091130320911403892F822352
:104420008F3F09F427C1D080C180A380B480F09071
:104430001503B501641B750BFF2009F4E7C08091DB
:104440001803382F307F683C710508F0ABC031117C
:1044500078C0FE2C2C1114C09D1112C0E11010C0A8
:104460008F70806180931803C4010E94AD1D8091FC
:104470001803F80185838F2D6196ECE00C942731A9
:10448000A114B104C9F18D2D8C218F3FA9F181E0D8
:104490008E2580FF05C04E2D6C2D8D2D0E943E0E69
:1044A000A114B10459F18D2D8C218F3F39F181E098
:1044B0008E25F82FF170BF2E80FF39C04E2D6C2D48
:1044C0008D2D0E943E0EA82E811131C0DD86CE8634
:1044D0008D859E850E941B13292F22952F702430D5
:1044E00078F49F702230A8F09923B9F0F8019581F3
:1044F000907F99F4FA2CBFCF80E0CBCF80E0D9CF6A
:104500002A5F2F70223068F0C8010E94AD1DAB2CCD
:10451000F1CF992311F0882369F3805E883050F33E
:10452000F3CF803F38F3815F833070F7E3CFEE2025
:1045300009F4A1CF80911803816080931803F12CB6
:104540009ACF2C1105C09D1103C0EE2009F477C04D
:10455000C8010E942813882309F1EE20F9F0809108
:104560001803803270F020911303309114033887C0
:104570002F831986BB86AA868C87CE0107960E9458
:10458000AD1D86E0F801A3E1B3E001900D928A959C
:10459000E1F70E949321FF24F3946DCFC8010E949C
:1045A000AD1DF9CF31110AC083E193E00E94AD1D2A
:1045B00086E0F40111928A95E9F7C1CF2C110EC063
:1045C0009D110CC0E1100AC08583C8010E94AD1D79
:1045D00086E0F40111928A95E9F74DCFC8010E9457
:1045E00028138823D9F2EE20C9F280911803803273
:1045F00040F220911303309114033A8329831B82E4
:10460000BD82AC828E83CE010196B9CF683C710524
:10461000F8F6FE2CEE2011F22C111EC09D111CC0CC
:104620008091180380FD0FC0982F907F61F08583E3
:10463000903F31F0982F907F905F8F70892B85830A
:10464000C8010E94AD1D86E0F801A3E1B3E001902E
:104650000D928A95E1F70FCFC8010E9428138111AE
:1046600090CF80911803816080931803C8010E9445
:10467000AD1D01CFEE2009F491CFC8010E9428138F
:10468000F82E882309F48ACF86E0F801A3E1B3E08D
:1046900001900D928A95E1F7809113039091140394
:1046A0000E941B130E949321E6CEA7E1B0E0EBE548
:1046B000F3E20C9414314B8B5C8B6D8B7E8B8F8B68
:1046C0006111109253031A8A198A85E0FE017396CC
:1046D000DE011D9601900D928A95E1F786E0FE01BC
:1046E0003D96DE01179601900D928A95E1F7CE0175
:1046F00007960E94ED21882359F016E080914A0325
:1047000090911903891345C06796E3E00C9430310A
:1047100086E0FE013796DE01119601900D928A9592
:10472000E1F78A859B85892B41F38F8198858923C1
:104730008F3F19F32091190330E0C901019687706A
:10474000992740914A034817190681F41092700581
:104750000E94F8181092190310924A0386E0E3E1D0
:10476000F3E0DF011D928A95E9F7C7CF96E0929FAB
:10477000D001939FB00D1124A65EBC4FFE0131966F
:1047800001900D929A95E1F7809319030E945E0EB5
:10479000B4CF819FC0011124865E9C4F0E94ED2101
:1047A000882309F4B1CF80914A0390E00196877085
:1047B000992780934A03A2CFAFE0B0E0E2EEF3E2A4
:1047C0000C940A318E010F5F1F4F8AE0D8011D92B1
:1047D0008A95E9F789E3C82E81E0D82EF12CE12CE7
:1047E000AA24A394B12C29E3822E21E0922EF60173
:1047F00081916F018F3F09F442C0F894E82FE29550
:10480000EF70F0E021A18F70A50102C0440F551F89
:104810008A95E2F7CA01922F982B91A392A18095D5
:10482000892382A3789400C0E1E3F1E0712C31E0A8
:1048300021912F3F09F46BC0A22FA295AF70B0E079
:1048400090968C9190E02F7002C0959587952A954F
:10485000E2F780FD5CC0832F782A330F8E169F0607
:1048600039F7F601319780818F3F11F00E94490C92
:1048700050EA5A95F1F7F801EE0DFF1D70828FEFA7
:10488000E81AF80AA5E0EA16F10409F0B0CF4AE008
:1048900050E0B80182E993E00E94D531009741F0E1
:1048A0002AE0F801A2E9B3E001900D922A95E1F720
:1048B00000919D03892B69F181E0809358030E9448
:1048C000C518909357038093560380915603909197
:1048D00057030E94B618059700F110E0055E1B4FC4
:1048E00045E050E062E973E0C8010E94D531D12C67
:1048F000892B51F085E0E2E9F3E0D80101900D92B7
:104900008A95E1F7DD24D3941092580307C080E024
:10491000A3CF809158038111D8CFD12C0E94C81108
:10492000C82EE0919D03882309F47FC07E01BBE07F
:10493000EB0EF11C85E0D7011D928A95E9F70E2F49
:1049400010E0055E1B4F80918D038A30D8F545EC51
:1049500056E1B701C8010E949511882309F454C09B
:104960004CE756E1B701C8010E949511882309F46C
:104970004BC043E556E1B701C8010E949511882359
:1049800009F442C049E256E1B701C8010E949511FD
:104990008823D1F110928D0380919C0390E045E033
:1049A00050E0B701855E9B4F0E94D53121E02093F6
:1049B0005F03892BE1F4C12C8C2D8D292F96EDE01E
:1049C0000C9426318091590390915A030E94B61895
:1049D000843F914008F0BBCF80915F03882359F357
:1049E00085E0F70111928A95E9F710925F03A09193
:1049F0009C03B0E0A55EBB4F85E0FE013B960190B5
:104A00000D928A95E1F7D8CF80918D038F3F31F0D9
:104A10008F5F80938D038A3008F4BECF0E94C51843
:104A200090935A0380935903D7CFF0E0E55EFB4F94
:104A300085E0ABE6B3E001900D928A95E1F78BE655
:104A400093E00E94DE0880936A0380907003909048
:104A50007103A0907203B090730380915B039091F7
:104A60005C03A0915D03B0915E0388169906AA06C7
:104A7000BB06D1F080925B0390925C03A0925D0331
:104A8000B0925E030E94C81181110EC00E946F0A8D
:104A9000861A970AA80AB90A80928E0390928F0309
:104AA000A0929003B0929103809174038093F103DC
:104AB000809175038093F20386E0E6E7F3E0ADE8CA
:104AC000B4E09DCFA5E0B0E0E8E6F5E20C94133148
:104AD0000E94C5188C018091540390915503801752
:104AE0009107A1F08FEF89838A831B820E94C518EA
:104AF0008160782F9D838C8349815A816B818D8160
:104B00000E94552310935503009354032596E4E027
:104B10000C942F311F921FB61F9211248F939F93D5
:104B2000AF93BF9380916A05811113C080916B058B
:104B300090916C05A0916D05B0916E054196A11DF7
:104B4000B11D80936B0590936C05A0936D05B09398
:104B50006E05BF91AF919F918F911F901FBE1F90C7
:104B60001895CDB7DEB7AF970FB6F894DEBF0FBE7E
:104B7000CDBF85B7806885BF85B7806885BF84B79E
:104B8000877F84BF0FB6F894A895809160008861F4
:104B900080936000109260000FBE80E890E00FB636
:104BA000F89480936100909361000FBE87E49CE0CD
:104BB0009093E9028093E8020E94F5080E9496090A
:104BC0008091E20084608093E200789480917D057A
:104BD0008823A1F01091E9001F709091EC00892FBB
:104BE000817090FD80E8182B1092E9008091E80018
:104BF00083FD0E9415191F701093E90082E084BDA7
:104C000093E095BD9AEF97BD80936E0010928E034E
:104C100010928F0310929003109291030E945213EE
:104C2000811102C00E949F120E94D815811102C0FA
:104C30000E9457170E946B1380933E010E94C81177
:104C400081110E948F2F80913E0181112CC085E03F
:104C5000E9E5F1E0DE01919601900D928A95E1F788
:104C600089A1809339018AA180933A018BA1809315
:104C70003B018CA180933C018DA180933D0188E094
:104C8000EEE5F1E0DE01119601900D928A95E1F7D3
:104C9000FE013196A1E3B1E0CE01099621912D9359
:104CA0008E179F07D9F780913E0195E0811190E022
:104CB00090939D0385E0891B80939C0309E311E099
:104CC0003EE3E32E31E0F32ED8018D918D018F3F2D
:104CD00011F00E94490CE016F106B1F701E311E072
:104CE000F80181918F018F3F11F00E94490CF1E092
:104CF00009331F07A9F78AE0EBE1F4E0DF01282F71
:104D00001D922A95E9F7E2E9F3E0DF011D928A9509
:104D1000E9F70E94D815811102C00E94571782E05E
:104D200090E00E94FB318093A00384E090E00E9419
:104D3000033290939F0380939E030E94DC23BFEF76
:104D4000E6E7F1E0B150E040F040E1F700C00000DC
:104D50000E94DC2380911B0480FF08C06FEF7FEF6F
:104D600090E080E00E9437320E944A1183E090E098
:104D70000E94FB310E940E0F10925F048FEF9FEF95
:104D8000909379048093780490937B0480937A04C1
:104D900090937D0480937C0490937F0480937E04A1
:104DA0009093810480938004909383048093820481
:104DB0009093850480938404909387048093860461
:104DC0001092320490934C0480934B0490934E04C1
:104DD00080934D049093500480934F049093520419
:104DE00080935104909354048093530490935604F9
:104DF00080935504909358048093570490935A04D9
:104E0000809359040E94D815811104C00E9457173D
:104E10000E94C41581E080938C0446E050E06CE170
:104E200070E08DE894E00E94EB3110928C04809148
:104E30008D048C7F11F40E94C4150E94C811882330
:104E400009F407C183E08093160480FD04C180E863
:104E5000809387050E94492E6DE070E08AE197E01B
:104E60000E948710892BE9F58091160463E070E0B9
:104E700081FDF3C087E197E00E948710892B89F5B7
:104E80006DE070E087E097E00E948710892B49F57C
:104E90000E946F0A605A75418F4F9F4F6093620561
:104EA000709363058093640590936505E0E9F5E0F0
:104EB00080E092E0DF019C011D9221503040E1F73B
:104EC000F0939107E09390078FEF9FEF90938F05FA
:104ED00080938E0581E0809367058093660510922C
:104EE00017040E94C811811102C00E94922F20E075
:104EF0004CE36AEF84E890E00E94B40A60E082E04C
:104F00000E94120B8FE391E09093690580936805EE
:104F100080917D0500E112E1853009F4DCC00E943A
:104F2000DC2321EA222E23E0322EEBE1F4E0FEA77F
:104F3000EDA7DF01F10191918D9123E0EB3AF207AA
:104F400009F4D5C09817B9F30E94C8118FA79AEB3E
:104F5000892E91E0992EE12CADA5BEA5CD90BEA7DE
:104F6000ADA7F10141901F014C1409F4E2C14C249A
:104F700034011CA655245394842D852109F4CCC1F9
:104F8000FC2CF520FFA5FF23A1F02CA52FA3E8A65C
:104F900081E0F11001C080E089A70E94C5188160FE
:104FA000782F9BA78AA74FA158A569A58BA50E941A
:104FB0005523FF2041F0D3018C91F12C8F3F19F044
:104FC000D82EFF24F3940F2D10E080913204800F2F
:104FD000912F911D09976CF1A8E0AA2EB12CA01A6F
:104FE000B10AB8016D5C7B4FA50183E394E00E9498
:104FF000E231B801655C7B4FA5018BE394E00E9430
:10500000E231A501440F551FB801660F771F655B9C
:105010007B4F8BE494E00E94E231B8016D5B7B4FE3
:10502000A50183E494E00E94E23188E08F19809327
:1050300032048091320490E0AD2DB0E09D01220F4A
:10504000331F265F3D4FAA0FBB1FBD01655F7D4F1C
:105050005DC180E0F8CE80E2FBCE84E197E00CCF2A
:1050600080917D05843041F10E94A4130E94B1100B
:1050700010926A0588E190E0A0E40FB6F894A89534
:10508000809360000FBEA093600083B7817F84602F
:1050900083BF83B7816083BF7894889583B78E7F01
:1050A00083BF0FB6F894A8958091600088618093C3
:1050B0006000109260000FBE80917C05882359F03B
:1050C0000E94DC23EBE1F4E081918111B7C5B4E0EB
:1050D000E532FB07C9F780917D05853009F4C0CF23
:1050E000109270050E94F8180E94ED1118CF9813C5
:1050F0002BCF0E946225C12C0E94C811882309F47D
:10510000B0C08090B6039090B703092C000CAA0899
:10511000BB0810914701212F30E0E6EBF3E081E07E
:1051200090E03296281739070CF00FC16091B20356
:105130007091B3038091B4039091B5030E94530A18
:105140002B013C0139EC431651046104710414F144
:105150008091B10390E0019669E170E00E944831CE
:105160008093B103880F991FFC01EA54FC4F118210
:105170001082812F183108F087E18F5F80934701FB
:105180000E946F0A6093B2037093B3038093B403D9
:105190009093B50342E084169104A104B1040CF489
:1051A000E0C0A0E6BAEEA50194010E94AA314B012D
:1051B0005C0188EC189F90011124032E000C440B15
:1051C000550B240D351D461D571DA5E0B0E00E946E
:1051D000AA319B01AC01C501B4010E945C314901B7
:1051E0005A0191EF89169104A104B1042CF050EFFB
:1051F000852E912CA12CB12C6091AD037091AE0342
:105200008091AF039091B0030E94530A2B013C019F
:10521000A5E64A1651046104710484F00E946F0AE5
:105220006093AD037093AE038093AF039093B0038C
:105230008091E8038093AC038092AB031091AC03A0
:10524000A091AB03A11BBB0BA30192010E94B5313E
:1052500024E630E040E050E00E947E31120F1093CF
:10526000E8030E94A41380916705882309F407C10D
:1052700080911804909119040E94B618C29708F4FE
:10528000DEC00E94C518909319048093180460E052
:1052900080E00E947B0A0E94C811882309F432C270
:1052A0008091E80390E09093F5038093F4030E94CB
:1052B000ED118093F30360E080E00E947B0A80910F
:1052C000F2030E94110F813009F471C0882309F4A0
:1052D0004CC0823009F46EC0833009F46EC081E89E
:1052E00091E045C090E0FC01EE5CFB4FD9015C9180
:1052F0005183DB015C915187D18A880F991FFC0192
:10530000EE5CFB4F128E118E91E0842F41E0480F2E
:105310009F1540F380933204BCA5BF5FBCA7550C1A
:10532000EFEF6E1A7E0AB83009F026CEF101319700
:10533000C082E394F8E08F0E911C2AE0E2120CCEBA
:105340000E946F0ACC24C394D7CE40815181052E90
:10535000000C660B770B840E951EA61EB71E0196D9
:10536000E0CE812C912C540147CF8CE691E00E9435
:105370000C1062E080E00E947B0A87E891E00E94C6
:105380000C1063E080E00E947B0A8091F1030E9490
:10539000110F813009F47BC1882391F0823009F428
:1053A00079C1833009F479C189EA91E00BC082E7C1
:1053B00091E0DDCF87E791E0DACF8DE791E0D7CFBD
:1053C0008DE891E00E940C10CE01C3969EA38DA3A0
:1053D0001AA219A28CE090E09CA38BA38091F40305
:1053E0009091F503892B09F45BC10E94CC10609168
:1053F000ED037091EE038091EF039091F0030E9412
:10540000530A6D3271408105910578F00E946F0A50
:105410006093ED037093EE038093EF039093F0039A
:10542000FE01B1961F010E9424100E946F0A609332
:10543000E9037093EA038093EB039093EC0380916C
:105440008E0590918F05892B09F06AC180916605C0
:105450008823A9F00E946F0A0091620510916305EC
:105460002091640530916505601B710B820B930BD5
:105470006F3F7F4F8F4F9F4710F40E94B110C110B4
:105480000E94CC1086E0ECE2F4E0DE01119601907F
:105490000D928A95E1F710922E0410922F0410922B
:1054A0003004109231048B819C81892B09F44AC00D
:1054B00080912A0490912B040E94B6189C0190912F
:1054C0002504992309F4E0C325313105D8F19F3F24
:1054D00019F09F5F909325041B81112359F00E94BE
:1054E000270C9FEF11160CF491E0899F802D112459
:1054F00080932E041C81112359F00E94270C9FEFEA
:1055000011160CF491E0899F802D112480932F04B3
:1055100030912E043323B1F020912F04222391F0F7
:1055200045EB3403C0011124992309F4DBC19093A6
:105530002E0445EB240390011124332309F4D6C132
:1055400030932F048D819E81892B09F44AC080916C
:105550002804909129040E94B6189C019091260479
:10556000992309F48CC321353105D8F19F3F19F0F7
:105570009F5F909326041D81112359F00E94050C12
:105580009FEF11160CF491E0899F802D11248093D8
:1055900030041E81112359F00E94050C9FEF111653
:1055A0000CF491E0899F802D112480933104309177
:1055B00030043323B1F020913104222391F045EBE4
:1055C0003403C0011124992309F494C19093300449
:1055D00045EB240390011124332309F48FC1309348
:1055E000310446E050E0BE016F5F7F4F8CE294E0F3
:1055F0000E94D531892B61F480912E0490912F0463
:10560000892B90913004892B90913104892B11F0D2
:105610000E94D11886E0FE013196ACE2B4E0019020
:105620000D928A95E1F70E94ED1190911A04891765
:1056300021F080931A040E946F0A80917D058430C6
:1056400009F066CC83E08093E9008091E80082FF56
:105650005FCC8091E80090E085FF06C00E941409AD
:10566000882309F44FC191E08091E8008B77809303
:10567000E800992309F44CCC8981EFEFE80FE3317E
:1056800008F067C1F0E0E659FD4C0C949D3184E9C7
:1056900091E098CE8BE991E095CE82EA91E092CEAE
:1056A0006091E9037091EA038091EB039091EC0320
:1056B0000E94530A61367A4E8105910518F00E94C6
:1056C000B110BDCE6091ED037091EE038091EF03B8
:1056D0009091F0030E94530A6D327140810591054B
:1056E00008F4ADCE0E946F0A6093ED037093EE0351
:1056F0008093EF039093F003CE0181961C010E94EA
:1057000024109DCEE7E2F7E084918F01882309F40D
:1057100096CE0E94220F0F5F1F4FF8018491F6CFA3
:1057200080916705882309F491CE80911704811137
:105730008DCE0E94CC1020918E0530918F052115C1
:10574000310509F483CE80E041E050E0082F10E0FD
:105750007A01082E02C0EE0CFF1C0A94E2F7B90190
:105760006E217F21672B11F48F5FF0CF909116048B
:1057700090FF9FC0880F880F880F80934A01109276
:105780004D01895F80934B0183E080934E0124E6B5
:1057900030E047E050E068E471E088E70E94E92EDD
:1057A000892B09F053CEA80125E0440F551F2A95F7
:1057B000E1F78091160480FF8EC0E6EFF3E080E20F
:1057C000DF011D928A95E9F7E6EBF1E0FEA7EDA770
:1057D00002EB11E08AEB282E81E0382E97E0A92E0B
:1057E00099249394ADA5BEA52D91BEA7ADA7F801B0
:1057F00041908F01440E552E511CC20180579A4F83
:105800002C01E22FF0E0EA50FC4F30E020E09A2D2E
:10581000921B9CA7B92C022E01C0BB0C0A94EAF77C
:10582000320190E0D3018D913D018B216CA5691B64
:105830006770862E062E000C770BB82F01C0BB0FA9
:105840008A94EAF78B2E71956195710967707727B5
:1058500001C086956A95EAF7882A8081882A808225
:105860009F5F9830F9F62F5F3F4F31962830310512
:1058700071F6EDA5FEA52E163F0609F0B3CF04E69E
:1058800010E020E230E046EF53E060E488E70E9459
:105890000A2F892B09F0DACDE094F09480918E05DF
:1058A00090918F05E822F922F0928F05E0928E0503
:1058B000CDCD8295880F807680934A0198013695E8
:1058C00027953695279520934D01815E80934B0156
:1058D00010924E015CCF40575A4F04E610E020E290
:1058E00030E0D3CF81E080932E0423CE81E08093FB
:1058F0002F0428CE81E0809330046ACE81E080932B
:1059000031046FCE00E210E0CE0101967C0180915F
:10591000E80085FD0AC08091E8008B778093E8005D
:105920000E941409882399F39ECE8091F100D7013B
:105930008D937D010150110951F795CE1A828CE0AB
:105940008B831BC08A81823009F490C128F4813096
:1059500061F08FEF898311C08330C1F08430C9F7C3
:105960001B821C821D821E8208C00E946F0A0E9438
:10597000A3316B837C838D839E8340E250E0BE0124
:105980006F5F7F4F82E00E94F410C2CA2B81822F8A
:1059900090E0FE013496245E8A30910570F7DC01B8
:1059A000A55EBB4F3C91319301962813F5CFE5CF0F
:1059B0008A81823059F0853061F680918D0491E0C2
:1059C000892780938D0410925401D7CF6B817C81FD
:1059D0008D819E810E94A33185E290E00E94193260
:1059E000CCCF4C816B818A810E94AF129827892786
:1059F00098279E838D83C1CF2D813E813227232717
:105A000032274C816B818A810E942812B6CF0E9476
:105A10004E12B3CF9A81933009F09BCF883009F4AE
:105A200041C0893009F46BC08B818230E9F088F481
:105A3000813009F0A2CF4C812FEF429F412D1124DC
:105A400080918E0420E060918F0490E00E94B40A5F
:105A500094CF833019F1843009F08FCF8C8120E00E
:105A6000409190046D81F1CF8C8190918D04292F0C
:105A70002370811107C011F0109254019C7F909304
:105A80008D047BCF211102C0109254019C7F916044
:105A900090938D0460E00E94120B6FCF8C818093F5
:105AA00091046BCF8B818230E1F078F4813009F082
:105AB00064CF80919004BFEF8B9FC00111246FEFE2
:105AC00070E00E94F1306C8358CF8330A9F08430AD
:105AD00009F053CF80918E048C8380918F048D8345
